:020000040800F2
:100000001823002001010008F5040008410400083D
:10001000F1040008ED0100082D11000800000000A7
:100020000000000000000000000000005B07000866
:100030009302000800000000810500084508000840
:100040003D1100081B0100081B0100081B010008EE
:100050001B0100081B0100081B0100081B01000810
:100060001B0100081B0100081B0100081B01000800
:100070001B0100081B0100081B0100081B010008F0
:100080001B0100081B0100081B0100081B010008E0
:100090001B0100081B0100081B0100081B010008D0
:1000A0001B0100081B0100081B0100081B010008C0
:1000B000DD0800081B0100081B0100081B010008E7
:1000C0001B0100081B0100081B0100081B010008A0
:1000D0001B010008250C00087D0C00088D0C000891
:1000E0001B0100081B0100081B010008DFF80CD0F1
:1000F00000F052F800480047D71A000818230020E3
:100100000648804706480047FEE7FEE7FEE7FEE7B1
:10011000FEE7FEE7FEE7FEE7FEE7FEE77D080008F4
:10012000ED00000840EA01039B0703D009E008C97D
:10013000121F08C0042AFAD203E011F8013B00F8AC
:10014000013B521EF9D27047D2B201E000F8012BF8
:10015000491EFBD270470022F6E710B513460A4647
:1001600004461946FFF7F0FF204610BD30B50B4698
:10017000014600202022012409E021FA02F59D42D7
:1001800005D303FA02F5491B04FA02F52844151EAB
:10019000A2F10102F1DC30BD064C074D06E0E0683B
:1001A00040F0010394E8070098471034AC42F6D3BE
:1001B000FFF7A0FF9C2E0008BC2E000810B501F030
:1001C0002BFE01F0C1FC01F02DFB02F045FA10BD41
:1001D00010B501F029F902F09FFB01F04DFF01F08D
:1001E000CBFC01F0B7FB02F0D3FA10BD00BFFEE775
:1001F000014609B90B487047012901D10A48FAE7BD
:10020000022901D10948F6E7032901D10020F2E7CC
:10021000042901D10020EEE7052901D10020EAE7F9
:100220000020E8E7C4000020EC08002014110020A2
:1002300008B54FF4E06000F099F925208DF8000032
:1002400001208DF8010000208DF8020001208DF8BA
:100250000300684600F050F926208DF800000120C8
:100260008DF801008DF802008DF80300684600F05B
:1002700043F927208DF8000001208DF801000220AD
:100280008DF8020001208DF80300684600F034F973
:1002900008BD70472DE9F0410246002500260020E8
:1002A00000230024002791F803C00CF00F0591F8FB
:1002B00003C01CF0100F03D091F802C04CEA0505F2
:1002C00091F800C0BCF1000F31D0146800202BE081
:1002D0004FF0010C0CFA00F3B1F800C00CEA030671
:1002E0009E4220D183004FF00F0C0CFA03F7BC4361
:1002F00005FA03FC4CEA040491F803C0BCF1280F92
:1003000006D14FF0010C0CFA00FCC2F814C00AE050
:1003100091F803C0BCF1480F05D14FF0010C0CFA65
:1003200000FCC2F810C0401C0828D1D31460B1F8FA
:1003300000C0BCF1FF0F34DD546800202EE000F156
:10034000080C4FF0010808FA0CF3B1F800C00CEAF1
:1003500003069E4221D183004FF00F0C0CFA03F7E5
:10036000BC4305FA03FC4CEA040491F803C0BCF159
:10037000280F05D100F1080C08FA0CF8C2F8148017
:1003800091F803C0BCF1480F07D100F1080C4FF001
:10039000010808FA0CF8C2F81080401C0828CED3D7
:1003A0005460BDE8F0810000F0B50A460023002447
:1003B0000021002500F00046B6F1004F02D11D4E8D
:1003C000F16901E01B4E7168C0F3034583B200F48C
:1003D0004016B6F5401F08D121F07061154E7668C1
:1003E00026F07066134F7E6012E000F48016B6F5BA
:1003F000801F06D1032606FA05F4A14341F070617F
:1004000006E0460D360103FA06F6B14341F070618D
:1004100022B1460D360103FA06F6314300F00046DC
:10042000B6F1004F02D1034EF16101E0014E71605F
:10043000F0BD00000000014041617047016170475C
:1004400000BFFEE74AF6AA20014908607047000095
:100450000030004000B585B00121042000F0B2F862
:100460000121880300F0AEF818208DF813004FF436
:100470000070ADF8100003208DF8120004A9184890
:10048000FFF708FF04208DF813000002ADF81000FC
:1004900004A91348FFF7FEFE4FF4E130009000205E
:1004A000ADF80400ADF80600ADF80800ADF80C009A
:1004B0000C20ADF80A0069460A4800F071FC0122E0
:1004C00040F22551074800F046FC0121054800F0A4
:1004D000FFFB4021034800F0E1FB05B000BD000038
:1004E000000801400038014010B5FFF7ABFF10BD18
:1004F00000BFFEE77047000070B5002100230F2207
:10050000C4780CB3164C246804F4E064C4F5E064C9
:10051000210AC1F10403CA40447804FA03F1847843
:100520001440214309010F4C0678A155047804F0CA
:100530001F050124AC4005786D114FF0E02606EB55
:100540008505C5F8004109E0047804F01F05012481
:10055000AC40054D0678761145F8264070BD000088
:100560000CED00E000E400E080E100E0024901431E
:10057000024A1160704700000000FA050CED00E02F
:100580007047000029B1064AD2690243044BDA6180
:1005900004E0034AD2698243014BDA6170470000EC
:1005A0000010024029B1064A12690243044B1A6145
:1005B00004E0034A12698243014B1A61704700004C
:1005C0000010024029B1064A92690243044B9A6125
:1005D00004E0034A92698243014B9A61704700002C
:1005E0000010024029B1064AD2680243044BDA6087
:1005F00004E0034AD2688243014BDA60704700008E
:100600000010024030B500210022002400232D4DAF
:100610006D6805F00C0121B1042905D0082923D10A
:1006200005E0294D056022E0274D05601FE0254DBE
:100630006D6805F47012234D6D6805F48034022551
:1006400005EB92421CB9214D554305600BE01D4D51
:100650006D6815F4003F03D01C4D5543056002E062
:10066000194D5543056002E0174D056000BF00BFFE
:10067000144D6D6805F0F0010909154D6B5C0568B6
:10068000DD4045600F4D6D6805F4E061090A104DCD
:100690006B5C4568DD4085600A4D6D6805F460510E
:1006A000C90A0B4D6B5C4568DD40C560054D6D6842
:1006B00005F44041890B074D6B5CC568B5FBF3F54C
:1006C000056130BD0010024000127A0000093D00B3
:1006D000000000201000002021B1028842F04002FA
:1006E000028004E002884FF6BF731A400280704710
:1006F0000246002013890B4201D0012000E00020B7
:1007000070478181704710B50022028802F441527F
:100710000B884C8823438C882343CC8823430C8943
:1007200023434C8923438C892343CC8923431A4395
:100730000280838B4FF2FF74234083830B8A0382F2
:1007400010BD21B1828842F00402828004E08288D8
:100750004FF6FB731A4082807047704710B500F067
:1007600001F810BD0CB500200190009033480068DE
:1007700040F480303149086000BF3048006800F420
:10078000003000900198401C0190009818B9019821
:10079000B0F5A06FF1D12948006810F4003F02D0F5
:1007A0000120009001E0002000900098012844D131
:1007B0002348006840F0100021490860084600689E
:1007C00020F0030008600846006840F0020008605E
:1007D0001A484068194948600846406840F440504B
:1007E00048600846406840F48060486008464068B9
:1007F00020F47C1048600846406840F4E8104860E7
:100800000846006840F08070086000BF0B48006830
:1008100010F0007FFAD00948406820F00300074933
:1008200048600846406840F00200486000BF034846
:10083000406800F00C000828F9D10CBD00100240FF
:100840000020024010B500F001F810BD0848006813
:10085000401C074908600748006840B10548006827
:10086000401E0449086002D1012003490870704706
:10087000380000203C0000204000002010B5134844
:10088000006840F0010011490860084640681049BE
:1008900008400E494860084600680E4908400B4968
:1008A00008600846006820F4802008600846406818
:1008B00020F4FE0048604FF41F008860FFF74EFFF1
:1008C0004FF000600449086010BD000000100240B5
:1008D0000000FFF8FFFFF6FE08ED00E010B500F0A5
:1008E00001F810BD10B50121880700F029F9D0B139
:1008F0000121880700F021F800214FF0804000F02E
:100900001FF808200849087000BF4FF440710748DD
:10091000FFF794FD00BF09200349087004480078E0
:10092000801C0349087010BD920000200010014097
:100930007C000020CA4302827047CA43028270478B
:1009400021B1028842F00102028004E002884FF6E1
:10095000FE731A400280704710B50446684884420E
:1009600008D10121C014FFF73DFE0021E014FFF77C
:1009700039FEC4E0B4F1804F08D101210846FFF7E9
:1009800011FE00210120FFF70DFEB8E05D48844212
:1009900008D101210220FFF705FE00210220FFF708
:1009A00001FEACE05848844208D101210420FFF741
:1009B000F9FD00210420FFF7F5FDA0E05348844233
:1009C00008D101210820FFF7EDFD00210820FFF7E5
:1009D000E9FD94E04E48844208D101211020FFF740
:1009E000E1FD00211020FFF7DDFD88E04948844249
:1009F00008D101212020FFF7D5FD00212020FFF79D
:100A0000D1FD7CE04448844208D101214014FFF725
:100A1000E9FD00216014FFF7E5FD70E03F488442E6
:100A200009D10121C804FFF7DDFD00214FF40020AA
:100A3000FFF7D8FD63E03A48844209D10121080557
:100A4000FFF7D0FD00214FF48010FFF7CBFD56E0FB
:100A50003448844209D101214805FFF7C3FD002134
:100A60004FF40010FFF7BEFD49E02F48844208D143
:100A700001214020FFF796FD00214020FFF792FD65
:100A80003DE02A48844208D101218020FFF78AFDF9
:100A900000218020FFF786FD31E02548844208D1FF
:100AA00001218015FFF77EFD0021A015FFF77AFDDB
:100AB00025E02048844209D101210804FFF792FD76
:100AC00000214FF48030FFF78DFD18E01A48844272
:100AD00009D101214804FFF785FD00214FF40030C2
:100AE000FFF780FD0BE01548844208D101218804FE
:100AF000FFF778FD00214FF48020FFF773FD10BD54
:100B0000002C01400004004000080040000C0040A0
:100B1000001000400014004000340140004C01402F
:100B2000005001400054014000180040001C0040EB
:100B300000200040004001400044014000480140C6
:100B400030B50246002000230024158A05EA01037F
:100B5000958905EA010413B10CB1012000E00020E1
:100B600030BD1AB183890B43838102E083898B43B3
:100B70008381704701894FF6F872114001817047F7
:100B8000002202881D4B98420ED01D4B98420BD07C
:100B9000B0F1804F08D01B4B984205D01A4B9842B9
:100BA00002D01A4B984204D14FF68F731A404B88EB
:100BB0001A43174B984207D0164B984204D04FF671
:100BC000FF431A40CB881A4302808B8883850B88A9
:100BD00003850A4B98420BD0094B984208D00E4B24
:100BE000984205D00D4B984202D00D4B984201D14E
:100BF0000B7A03860123838270470000002C01409A
:100C0000003401400004004000080040000C004097
:100C1000001000400014004000400140004401402A
:100C20000048014010B5024800F07CF910BD0000FA
:100C3000C400002070B505460E465521002000F086
:100C4000CBFD002412E0285D552805D0285DAA2898
:100C500002D0285DFF2803D1FF21002000F0BCFD59
:100C6000295D002000F0B8FD601C84B2B442EADBCC
:100C7000AA21002000F0B0FD70BD000010B50248B0
:100C800000F050F910BD0000EC08002010B502483B
:100C900000F048F910BD00001411002001F40072AA
:100CA000B2F5007F00D100BFCA430280704710B583
:100CB00002460020108A4FF2FF0318400B884C8830
:100CC00023438C882343CC8823431843108210BDD0
:100CD00021B1828942F40052828104E082894DF67A
:100CE000FF731A408281704702460020B1F5007FF1
:100CF00000D100BF13880B4201D0012000E000208A
:100D0000704770B502460024002300250020A1F59D
:100D100010666A3E00D100BFC1F3421501F01F0307
:100D2000012606FA03F3012D02D19689334006E02D
:100D3000022D02D1168A334001E0968A33400C120C
:100D4000012606FA04F41688344013B10CB10120D0
:100D500000E0002070BDF0B5034600240026002509
:100D60000020A1F510676A3F00D100BF1846C1F30B
:100D7000421401F01F06012707FA06F5012C01D1E4
:100D80000C3004E0022C01D1103000E014301AB114
:100D900007682F43076002E00768AF430760F0BDB4
:100DA0002DE9F04786B005460E460024A24600BF56
:100DB000A1460027B08900B100BF2F462C8A4CF60F
:100DC000FF700440F08804432C82AC894EF6F31087
:100DD0000440B08831890843718908430443AC81D9
:100DE000AC8A4FF6FF400440B0890443AC8201A8AE
:100DF000FFF708FC1F48874202D1DDF810A001E090
:100E0000DDF80CA0A88910F4004F08D00AEBCA0046
:100E100000EB0A1031684900B0FBF1F807E00AEB7B
:100E2000CA0000EB0A1031688900B0FBF1F86420B9
:100E3000B8FBF0F004012009642101FB1089A889A6
:100E400010F4004F08D0322000EBC900B0FBF1F0E5
:100E500000F00700044308E0322000EB0910642191
:100E6000B0FBF1F000F00F0004432C8106B0BDE8A8
:100E7000F08700000038014001468888C0F3080070
:100E80007047C1F3080282807047028BD2B202839E
:100E9000028B42EA012202837047028B02F47F42F6
:100EA0000283028B0A430283704721B1828A42F097
:100EB0002002828204E0828A4FF6DF731A40828227
:100EC000704721B1828A42F01002828204E0828A55
:100ED0004FF6EF731A408282704770B504460D4694
:100EE000012000F0F3F9668B002000F0EFF90EB955
:100EF000002070BD218BA068405C2870012000F0AC
:100F0000E5F9208B401C80B22083E189884201DB17
:100F100000202083608B401E6083002000F0D6F903
:100F20000120E6E710B5044640F225512068FFF79E
:100F3000E8FEE0B12068FFF79FFFE28AA1688854CD
:100F4000E08A401C80B2E082E189884201DB002017
:100F5000E082608BE189884202DA608B401C60830A
:100F6000608B012803D1606A08B1606A804740F253
:100F700027712068FFF7C5FE08B3A08A60B9002278
:100F800040F227712068FFF7E6FE012240F2266159
:100F90002068FFF7E0FE37E0638A6268D15C206872
:100FA000FFF76FFF608A401C80B26082A18988428F
:100FB00001DB00206082A08A401EA08224E040F273
:100FC00026612068FFF79DFEF0B1A08A50B900228B
:100FD00040F226612068FFF7BEFE206AA0B1206AB9
:100FE000804711E0638A6268D15C2068FFF749FF9F
:100FF000608A401C80B26082A189884201DB0020A7
:101000006082A08A401EA08210BD2DE9F0410446F6
:101010000E461746002527E00CE0012000F056F9A7
:10102000B4F81480002000F051F9A089404500DD9B
:1010300001E000BFF1E700BF705D228A616888545B
:10104000012000F043F9208A401C80B22082A1894F
:10105000884201DB00202082A08A401CA082002060
:1010600000F034F9681C85B2BD42D5DB012240F2A4
:1010700027712068FFF76FFEBDE8F0811F48204907
:10108000086020484860204888604FF4806088816C
:10109000C881002008824882C882088348838882E9
:1010A000C8610862486219481949086019484860CF
:1010B0001948886001208881C002C8810020088208
:1010C0004882C882088348838882C861086248626F
:1010D00012481349086013484860134888604FF469
:1010E00080608881C881002008824882C882088385
:1010F00048838882C86108624862704700380140AE
:10110000C4000020EC000020EC040020004400405B
:10111000EC08002060000020140900200048004076
:10112000141100203C1100203C15002000BFFEE7F8
:101130000020014908607047082C004010B500F0FD
:101140000FF810BD00F07F01014A116070470000E8
:10115000002C004010B57F20FFF7F4FF10BD000009
:1011600010B5FFF7E5FF03A000F08EF8FFF7F2FFE0
:1011700010BD00000D0A777764672074696D656F94
:10118000757420210D0A000070B532260024002558
:10119000012080F3108800BF364800683649086097
:1011A000002080F3108800BF34480078002860D009
:1011B00033480068096888425BD0314800682E498E
:1011C0000968884227D22C4800682D490968441ACA
:1011D000294800682A49086000212A480068221826
:1011E00049416B1E00209A1A884104D20125002033
:1011F0002449086038E0234800682044322804D994
:10120000012500201F4908602EE01E480068204488
:101210001C49086028E018480068401E1849096801
:10122000441A1548006816490860002115480068EE
:10123000231849414FF0FF320020D21A884104D2CE
:10124000012500200F4908600EE00E480068204488
:10125000322804D9012500200A49086004E0094821
:101260000068204407490860012D02D10025FFF7DE
:1012700071FF70BD380000202800002034000020DD
:101280002C000020300000200FB4054B10B503A93E
:10129000044A029800F01EF810BC5DF814FB000030
:1012A000451A0008C000002002E008C8121F08C14B
:1012B000002AFAD170477047002001E001C1121FD7
:1012C000002AFBD1704780F31088704780F31088A4
:1012D000704700002DE9FF4F89B09B46044600256A
:1012E00097E0252833D10027641C4E49B8460122D7
:1012F0002378203B02FA03F0084202D00743641C23
:10130000F6E720782E2819D114F8010F47F00407CA
:101310002A280ED06FF02F022078A0F13001092981
:101320000CD808EB880102EB410100EB0108641CBA
:10133000F2E70A98641C50F8048B0A902078002881
:101340006BD0642808D0692806D0752820D05A466A
:101350000B9990476D1C5BE00A994FF00A0901C98F
:101360000A91002804DAC0F100004FF02D0102E0DC
:10137000390504D52B218DF82010012103E0F90750
:1013800004D02021F7E78A4608AE0EE00021FAE7F4
:101390000A994FF00A0901C90A91F7E74946FEF791
:1013A000E5FE01F1300106F8011D0028F6D1ADEB94
:1013B000060000F12009780701D44FF00108C84564
:1013C00002DDA8EB090000E000208046002706E0CF
:1013D00008A85A46C05D0B9990476D1C7F1C574565
:1013E000F6DB04E030205A460B9990476D1CB8F1AB
:1013F0000001A8F10108F5DC05E016F8010B5A46DA
:101400000B9990476D1CB9F10001A9F10109F4DCB9
:10141000641C207800287FF464AF0DB02846BDE836
:10142000F08F000009280100012080F3108800BF20
:101430000D4800680D490860002080F3108800BF47
:101440000B480068096888420DD0084800680849C0
:10145000086008480068401C06490860B0F57A7FBB
:1014600001D3002008607047380000206800002089
:101470006C0000207000002010B5044604B910BDB7
:10148000012C00D102240120FFF71DFF0948046050
:10149000002009490870FFF716FF06E000F038F851
:1014A00005480078012800D100E0F7E700BF00BF41
:1014B000E5E700003C00002040000020F0B50346B6
:1014C00000224FF0E02675690F4E36680F4FB6FBCD
:1014D000F7F606FB03F400BF4FF0E026B16910E019
:1014E0004FF0E026B06988420BD0884202D20E1A33
:1014F000324402E02E1A0E4432440146A24200D386
:1015000000E0EDE700BFF0BD1400002040420F00F6
:1015100010B5FFF739FEFEF7E7FF10BD10B54FF429
:10152000C060FFF723F800F04BF800F041F803A08B
:10153000FFF7AAFE00F00CF810BD00000D0A737949
:101540007374656D20737461727420210D0A00003C
:1015500030B5144800684FF47A72B0FBF2F1B1F183
:10156000807F00D31DE021F07F40401E4FF0E0223D
:10157000506150170F22002807DA13071D0E0A4B7F
:1015800000F00F04241F1D5503E013071C0E074B2A
:101590001C5400BF00204FF0E02290610720106132
:1015A00000BF30BD1400002018ED00E000E400E0B2
:1015B00010B5FFF763FDFEF74DFFFEF739FE10BDD6
:1015C0007047000070B504460D46002006490870BB
:1015D00002204870132088700020C870042102483F
:1015E000FFF728FB70BD0000241D002070B50446E5
:1015F0000D460020064908700220487014208870AB
:101600000020C87004210248FFF714FB70BD0000E1
:10161000241D002010B5CCB000F026FA0446002CA2
:101620003FD000BF20212648FEF708FF0A20FFF721
:1016300045FF00BF00BF20212148FEF7FDFE0A2024
:10164000FFF73CFF00BF00BF20211D48FEF7F6FE5C
:101650000A20FFF733FF00BF00BF20211848FEF724
:10166000EBFE0A20FFF72AFF00BF4FF4967101A896
:10167000FEF771FD01A800F0F7FA0120114908708A
:101680002B204870122088704FF4967201A90D48E3
:10169000C01CFEF747FD40F22F110A48FFF7CAFAB7
:1016A0000CE00020074908700220487092208870E2
:1016B0003020C87004210348FFF7BCFA4CB010BDBD
:1016C00000080140241D002070B504460D4629463F
:1016D000204600F0E1F9032827D005DC48B10128B5
:1016E00017D002283DD11AE0042824D0FF2838D191
:1016F00027E000202449087020204870A07840F09E
:10170000800088700120C87004211F48FFF792FAFA
:1017100037E0E81E81B2E01C00F022FB31E0E81E59
:1017200081B2E01C00F0E2F92BE0E81E81B2E01C7F
:1017300000F05AF825E0E81E81B2E01C00F06EFFD0
:101740001FE000201049087020204870A07840F069
:10175000800088700020C87004210B48FFF76AFAE7
:101760000FE000200849087020204870A07840F061
:10177000800088700120C87004210348FFF75AFADE
:1017800000BF00BF70BD0000241D002070B50546DD
:101790000E462846FEF72CFD04460CB9002070BD0D
:1017A00031462046FFF799FBF9E72DE9F041054660
:1017B0000E4617462846FEF71BFD04460CB9BDE849
:1017C000F081E06908B1E06980473A463146204639
:1017D000FFF71BFC00BFF2E713B50446012201A985
:1017E0002046FFF7E2FF1CBD70B504460D46207889
:1017F000102804D1A178E01CFFF7E4FE0DE00020E2
:101800000749087002204870932088701020C87023
:1018100004210348FFF70EFA00BF00BF70BD0000AF
:10182000241D002000B587B001210420FEF7CAFE68
:1018300001210846FEF7C6FE01214804FEF7A2FE7C
:1018400001210420FEF7BEFE10208DF81B000320AE
:101850008DF81A000820ADF8180006A93B48FEF7DD
:1018600019FD1020ADF8180018208DF81B0003207A
:101870008DF81A0006A93548FEF70CFD0420ADF8D6
:1018800018001C208DF81B0003208DF81A0006A9F3
:101890002E48FEF7FFFC04212D48FFF7FEFA022137
:1018A0002B48FFF7F2FA4FF40060ADF8100000206B
:1018B000ADF81200ADF814004FF48070ADF81600CA
:1018C00004A92348FFF7F3F94FF4165000904FF4A2
:1018D0008050ADF804004FF44050ADF806004FF4CE
:1018E0008060ADF808000C20ADF80A000020ADF8CB
:1018F0000C0069461648FFF753FA012240F22551C1
:101900001348FFF728FA01211148FFF7E1F90121F7
:101910000F48FFF7D6FA01210D48FFF7C6FA40211C
:101920000B48FFF7BBF900BF08210848FEF784FD0C
:1019300000BF4FF47A70FFF79FFD00BF08210348F6
:10194000FEF77CFD00BF07B000BD000000080140AD
:101950000044004070B5022300200022012181F3E1
:10196000108800BF33490968334C2160002181F39E
:10197000108800BF314909682468A14259D02F4915
:1019800009682D4C2468A14227D22B4909682B4CA9
:101990002468081B28490968284C2160002428492C
:1019A000096845186441561E0021751BA14104D2E7
:1019B00001220021224C216038E0214909680144BC
:1019C000022904D9012200211D4C21602EE01C496E
:1019D000096801441A4C216028E017490968491E2A
:1019E000164C2468081B14490968144C2160002413
:1019F00013490968451864414FF0FF360021751BF3
:101A0000A14104D2012200210D4C21600EE00C49BD
:101A100009680144022904D901220021084C2160EF
:101A200004E0074909680144054C2160012A00D1FE
:101A3000002270BD38000020940000209800002093
:101A40009C00002070B504460D46E1B20548FFF742
:101A500018FA00BF40210348FFF746F90028F9D0E3
:101A6000204670BD003801400448006810F0800F27
:101A700001D1012070470020FCE700000808014068
:101A80000448806810F0400F01D101207047002009
:101A9000FCE700000010014010B5024650781478B1
:101AA00040EA0423981C814213D19078112806D073
:101AB000122806D0132806D0142808D105E00120EA
:101AC00010BD0220FCE70320FAE70420F8E700201D
:101AD000F6E7FF20F4E7FFF721FDFEF76FFB03E0D9
:101AE000FFF716FDFEF774FBFAE7000070B5044639
:101AF0000D462078102815D1607810B9FFF78AFDBF
:101B00000FE0607801280CD100F0BEF800200D49EC
:101B10000870012048701220887003210948FFF7DF
:101B200089F80DE0002007490870022048709220D3
:101B300088701020C87004210248FFF77BF800BFAE
:101B400000BF70BD241D002008B501210420FEF750
:101B500039FD2020ADF8000010208DF80300022090
:101B60008DF8020069460348FEF794FB00F08CF8FC
:101B700008BD00000008014070B5022300200022CB
:101B8000012181F3108800BF33490968334C21607B
:101B9000002181F3108800BF314909682468A142FF
:101BA00059D02F4909682D4C2468A14227D22B49CE
:101BB00009682B4C2468081B28490968284C2160B7
:101BC00000242849096845186441561E0021751BE8
:101BD000A14104D201220021224C216038E0214998
:101BE00009680144022904D9012200211D4C216009
:101BF0002EE01C49096801441A4C216028E017496D
:101C00000968491E164C2468081B14490968144CBD
:101C10002160002413490968451864414FF0FF36DC
:101C20000021751BA14104D2012200210D4C21602D
:101C30000EE00C4909680144022904D9012200215F
:101C4000084C216004E0074909680144054C216003
:101C5000012A00D1002270BD38000020B40000200D
:101C6000B8000020BC00002070B50546002404E048
:101C700000F02AFE2855601C84B2B4F5877FF7DB9C
:101C800000F002F870BD000010B500F00BFE00BFC0
:101C900020213248FEF7D2FB0A20FFF70FFC00BFDD
:101CA00000BF80212D48FEF7C9FB0A20FFF706FC84
:101CB00000BF00BF80212948FEF7BEFB0A20FFF7C6
:101CC000FDFB00BF00BF20212448FEF7B5FB0A2022
:101CD000FFF7F4FB00BF00BF20212048FEF7AEFB5A
:101CE0000A20FFF7EBFB00BF00BF20211B48FEF7D7
:101CF000A3FB0A20FFF7E2FB00BF00BF80211748CB
:101D0000FEF79CFB0A20FFF7D9FB00BF00BF202194
:101D10001248FEF793FB0A20FFF7D0FB00BF00BF7D
:101D200020210E48FEF788FB0A20FFF7C7FB00BF03
:101D300000BF20210948FEF781FB0A20FFF7BEFB08
:101D400000BF00BF20210548FEF776FB0A20FFF701
:101D5000B5FB00BF00F094FD10BD0000000801407D
:101D600070B504460D462078102804D011282BD0D9
:101D700012283ED13CE0022D18D1607810B900F055
:101D80005FFA20E06078012802D100F019FB1AE028
:101D9000002020490870022048709120887021207E
:101DA000C87004211B48FEF745FF0CE000201949CC
:101DB000087002204870912088701120C87004219A
:101DC0001448FEF737FF22E0022D03D1601C00F01B
:101DD000B7FA0CE000200F490870022048709120EB
:101DE00088701120C87004210A48FEF723FF0EE016
:101DF0000DE000200749087002204870912088708B
:101E00001020C87004210348FEF714FF00BF00BF74
:101E100070BD0000241D002000B58BB001210420FE
:101E2000FEF7D0FB00BF4FF480718D48FEF704FB36
:101E300000BF10208DF82B0002208DF82A00C00171
:101E4000ADF828000AA98648FEF724FA01211020DF
:101E5000FEF7B8FB00BF4FF400618248FEF7ECFAD2
:101E600000BF10208DF82B0002208DF82A00800280
:101E7000ADF828000AA97B48FEF70CFA01210846B4
:101E8000FEF7A0FB01210820FEF79CFB012176480C
:101E9000FEF78AFA00BF10217448FEF7CDFA202120
:101EA0007248FEF7C9FA4FF480717048FEF7C4FA21
:101EB0004FF400716D48FEF7BFFA00BF4FF44C704D
:101EC000ADF8280002208DF82A0010208DF82B0094
:101ED0000AA96648FEF7DEF900BF4FF4807160483A
:101EE000FEF7ACFA00BF00BF4FF400615D48FEF79B
:101EF000A5FA00BF01211020FEF764FB48208DF8F1
:101F00002B0002208DF82A004020ADF828000AA9F5
:101F10005448FEF7BFF901211020FEF753FB00BF24
:101F20004FF440714F48FEF789FA00BF10208DF83A
:101F30002B0002208DF82A004FF44070ADF82800E5
:101F40000AA94848FEF7A6F901211020FEF73AFB3E
:101F500000BF80214348FEF771FA00BF10208DF8C2
:101F60002B0003208DF82A008020ADF828000AA954
:101F70003C48FEF78FF901210820FEF723FB0121E1
:101F80008803FEF7FFFA4FF46040ADF82800032005
:101F90008DF82A0018208DF82B000AA93348FEF787
:101FA00079F90020ADF814004FF48270ADF81600F6
:101FB0000020ADF81800ADF81A00ADF81C004FF481
:101FC0000070ADF81E001020ADF820000020ADF824
:101FD000220005A92648FEF796FB01212448FEF7BA
:101FE0007BFB01212248FEF7ACFB01210846FEF7EE
:101FF000C9FA4FF08040FEF7AFFC4FF08040FEF78B
:10200000B9FD1D20ADF8080040F60F60ADF80400E2
:102010000020ADF80A00ADF8060001A94FF080409D
:10202000FEF7AEFD1C208DF8100001208DF8110088
:1020300000208DF8120001208DF8130004A8FEF78F
:102040005BFA01218807FEF775FC01221146900713
:10205000FEF787FD0020074908700BB000BD0000A7
:10206000000801400010014000023000000C014057
:10207000003800409200002070B5022600240025A0
:10208000012080F3108800BF63480068634908603E
:10209000002080F3108800BF61480068096888420A
:1020A0006FD05F4800685D490968884227D25B4865
:1020B00000685B490968441A584800685849086034
:1020C000002158480068221849416B1E00209A1AC6
:1020D000884104D2012500205249086038E0514867
:1020E00000682044022804D9012500204D490860D9
:1020F0002EE04C48006820444A49086028E04748E0
:102100000068401E46490968441A4448006844492A
:102110000860002143480068221849414FF0FF330E
:1021200000209A1A884104D2012500203D49086008
:102130000EE03C4800682044022804D90125002014
:102140003849086004E03748006820443549086091
:10215000012D5FD10025FFF793FC40B33248007892
:102160000B281DD2DFE800F006071C0B0C0E0F1029
:102170001112160015E0012000F04EF911E010E0F8
:102180000FE047E00DE00CE00BE00AE0092000F072
:1021900043F906E000202449087000F051F800E0FF
:1021A00000BF00BF41F288302049088032E01F485C
:1021B0000088401C80B21D49088041F28831884265
:1021C00028DB0020194908801949087000BF4FF426
:1021D00040711848FEF732F900BF00BF10211648C1
:1021E000FEF72AF920211448FEF726F94FF48071F2
:1021F0001148FEF721F94FF400710F48FEF71CF962
:1022000000BF00200D49087002204870912088709E
:102210003120C87070BD000038000020840000200C
:10222000880000208C0000209200002090000020F8
:102230007C00002000100140000C0140241D002003
:1022400010B52248007888BB00241AE0204909789C
:1022500001EB41011F4A02EB01102246302100F040
:1022600041F800BF80211C48FEF7E6F800BF00BF20
:1022700080211948FEF7E2F800BF00F09FF9601CCA
:10228000C4B2022CE2DB12480078401CC0B21049F4
:102290000870182801DB0020087009200B4908701D
:1022A0000E480078801C0D4908700DE0FFE7002003
:1022B0000B49087002204870912088702020C87057
:1022C00004210748FEF7B6FC10BD00009200002074
:1022D000810000201C2A0008001001407C00002022
:1022E000241D002070B504460E4615461FE000BFB1
:1022F00002211248FEF7FCF90028F9D03DB914F884
:10230000012B02F0AA010D48FEF7FBF908E0012DB0
:1023100006D114F8012B02F055010848FEF7F1F937
:1023200000BF80210548FEF7E3F90128F9D030000D
:10233000A6F10101CEB2DAD170BD00000038004034
:1023400010B504461B48007828BB2078FF280DD123
:1023500000201949087002204870912088702120BF
:10236000C87004211448FEF765FC21E02078134969
:10237000097808441149087001200E4908700020AE
:102380000D490870012048701120887003210A4807
:10239000FEF750FC0CE0002007490870022048704E
:1023A000912088702020C87004210348FEF742FC69
:1023B00010BD000092000020241D00207C000020A1
:1023C00010B51248007898B911480078801C10495F
:1023D000087009200D49087000200E49087001207E
:1023E00048701120887003210A48FEF723FC0CE096
:1023F0000020084908700220487091208870202031
:10240000C87004210348FEF715FC10BD920000209F
:102410007C000020241D002010B50446624800788E
:10242000002875D02020614908805F480078401E50
:102430005D4908705E48007830B101281DD002283F
:1024400034D0032865D14AE000BF00BF10215948AD
:10245000FDF7F4FF20215748FDF7EEFF00BF00BF56
:102460004FF480715348FDF7E9FF4FF40071514874
:10247000FDF7E2FF00BF00BF4CE000BF00BF10212E
:102480004C48FDF7DBFF20214A48FDF7D5FF00BF90
:1024900000BF4FF480714748FDF7CEFF4FF4007145
:1024A0004448FDF7CBFF00BF00BF33E000BF00BFD3
:1024B00010214048FDF7C0FF20213E48FDF7BEFF38
:1024C00000BF00BF4FF480713A48FDF7B5FF4FF4ED
:1024D00000713848FDF7B2FF00BF00BF1AE000BF2F
:1024E00000BF10213348FDF7A7FF20213148FDF739
:1024F000A5FF00BF00BF4FF480712E48FDF79EFF7F
:102500004FF400712B48FDF797FF00BF00BF01E0BB
:102510000CE000BF00BF26480078401CC0B2244930
:10252000087004283EDB002008703BE0012C1FD11E
:102530001E48008828B11D480088401E1B4908809D
:1025400030E000201C49087000BF10211948FDF739
:1025500073FF20211748FDF76FFF4FF48071154876
:10256000FDF76AFF4FF400711248FDF765FF19E0AF
:10257000092C03D10A201049087013E000BF102174
:102580000C48FDF759FF20210A48FDF755FF4FF48D
:1025900080710848FDF750FF4FF400710548FDF7C2
:1025A0004BFF00BF10BD00007C0000207E0000201B
:1025B00080000020000C01409200002010B5072090
:1025C0001449087000BF4FF400711348FDF734FF41
:1025D00000BF41F28830FEF771FF00BF4FF4007179
:1025E0000D48FDF72BFF00BF00BF4FF480710A4874
:1025F000FDF722FF00BF41F28830FEF75FFF00BF0A
:102600004FF480710448FDF719FF00BF082001490D
:10261000087010BD920000200010014070B5044603
:102620000D462078102804D1A178E01CFEF7DEFFCB
:102630000DE000200749087002204870942088703F
:102640001020C87004210348FEF7F4FA00BF00BF51
:1026500070BD0000241D002000B587B001210820B6
:10266000FDF7B0FF01210846FDF7ACFF012188040A
:10267000FDF788FF01210820FDF7A4FF4FF400605B
:10268000ADF8180010208DF81B0003208DF81A00FB
:1026900006A93D48FDF7FEFD4FF48050ADF8180047
:1026A00018208DF81B0003208DF81A0006A9364863
:1026B000FDF7F0FD4FF48060ADF818001C208DF898
:1026C0001B0003208DF81A0006A92F48FDF7E2FD34
:1026D00004212E48FEF7E1FB02212C48FEF7D5FB32
:1026E0004FF40060ADF810000020ADF81200ADF816
:1026F00014004FF48070ADF8160004A92348FEF7CB
:10270000D6FA4FF4165000904FF48050ADF8040004
:102710004FF44050ADF806004FF48060ADF808006B
:102720000C20ADF80A000020ADF80C0069461748EF
:10273000FEF736FB012240F225511448FEF70BFB51
:1027400001211248FEF7C4FA01211048FEF7B9FB37
:1027500001210E48FEF7A9FB40210C48FEF79EFA26
:1027600000BF4FF400610848FDF766FE00BF4FF45C
:102770007A70FEF781FE00BF4FF400610248FDF75A
:102780005DFE00BF07B000BD000C014000480040E6
:1027900070B5022300200022012181F3108800BFC0
:1027A00033490968334C2160002181F3108800BF50
:1027B000314909682468A14259D02F4909682D4C34
:1027C0002468A14227D22B4909682B4C2468081B96
:1027D00028490968284C21600024284909684518BF
:1027E0006441561E0021751BA14104D20122002123
:1027F000224C216038E0214909680144022904D9AA
:10280000012200211D4C21602EE01C490968014471
:102810001A4C216028E017490968491E164C2468A3
:10282000081B14490968144C2160002413490968E5
:10283000451864414FF0FF360021751BA14104D2B9
:10284000012200210D4C21600EE00C490968014471
:10285000022904D901220021084C216004E0074923
:1028600009680144054C2160012A00D1002270BD95
:1028700038000020A4000020A8000020AC000020A8
:1028800008B58020ADF8000048208DF80300022034
:102890008DF8020069460248FDF7FCFC08BD000007
:1028A0000008014008B58020ADF8000010208DF828
:1028B000030002208DF8020069460248FDF7EAFC99
:1028C00008BD00000008014070B5002500241CE090
:1028D000FFF7CAF828B9C4F107010120884028434E
:1028E000C5B200BF20210B48FDF7A8FD0A20FEF766
:1028F000E5FD00BF00BF20210648FDF79DFD0A2031
:10290000FEF7DCFD00BF601CC4B2082CE0DB2846EB
:1029100070BD00000008014008B569460020FEF7C0
:1029200035FF68B939480088002805DD3748008838
:10293000401E3649088066E000203549087062E094
:102940003248008868B93248007850B99DF80000D4
:10295000552806D100202F49088001202C490870F5
:102960004EE02B480078012828D19DF80000FF2870
:1029700003D102202649087042E09DF80000552846
:1029800003D10020224908703AE09DF80000AA28EF
:1029900008D103201E4908701E4801881E48FEF712
:1029A00093FE2DE09DF800001B491A4A12888854B6
:1029B00018480088401C1749088021E01448007816
:1029C00002281DD19DF80000FF2807D09DF80000C7
:1029D000552803D09DF80000AA280ED19DF80000CC
:1029E0000D490C4A128888540A480088401C09493D
:1029F000088001200649087002E0002004490870A0
:102A0000322002490880002008BD00007400002028
:102A100078000020760000203C1900200000000013
:102A200000000000000000000000000000000000A6
:102A30000000000000000000000000000000000096
:102A40000000000000000000000000000000000086
:102A50000000000000000000000000000000000076
:102A60000000000000000000000000000000000066
:102A70000000000000000000000000000000000056
:102A80000000000000000000000000000000000046
:102A90000000000000000000000000000000000036
:102AA0000000000000000000000000000000000026
:102AB0000000000000000000000000000000000016
:102AC0000000000000000000000000000000000006
:102AD0000000000000000000000000000E60038005
:102AE000110C3000018000000E1C30700700000047
:102AF0000C200000000000000000000000000000AA
:102B00000300200060C0006030CC00000E60018037
:102B100039087F7E03C03FFC789C307007007DFE43
:102B20000E707FFE000000000000000000000001A9
:102B3000FFFE37FC60E0036030CC00000E62FFFF58
:102B40002D586C6607E0300C18FC33FEFFFF6D86D5
:102B50000C30000607071DFDF7F81F01F87E1E0068
:102B60000000760C67FC1BFDB1CFFE000E6E00006E
:102B70006D5F4C660E703FFC185CFC700C006D863F
:102B800018180006070F1DFDF7FC3F83F8FE3F8075
:102B90003FF0660DF3183261B19F03007E7C3FFC6D
:102BA000CD52FFE61C38300C181C30701C0069FE3A
:102BB000381CFFF6038F1DC0E71E71C709C22380B2
:102BC0003030C7FC63386061B39703000E78300C77
:102BD0001FF61E66781C3FFCFF9C30701FFC798638
:102BE000300C0006038F99C0E70EE0E701C00380B8
:102BF0003030960C67FC67FFB3B703000E70300CE3
:102C000030363B7E6FF6018038FC33FE380C798617
:102C100061060006039F99C0E70EE0E781E00380AC
:102C20003FF03E0CF40CC061B7A7F1800E60300C91
:102C300077DE73000180FFFF3C5C3C0E780C7986E8
:102C400043823FC60199B9F8E71EE0E3F0FC0700B4
:102C5000000037FCF4CCC061B38701800E603FFCFC
:102C6000701E7FFC018000003E1CF10C7FFC6DFE9D
:102C7000030030C60199B9F8E7FCE0E3F8FE0F0065
:102C8000FFFC6000E8C0C3FDB18701800E600180D9
:102C9000B7CC300C01803FFC7E1C318C580C6DE2AF
:102CA000070030C601F9F1C0E7F0E0E07C1F1E002C
:102CB000C00CEFFDEFFEC365B18701800E6011907F
:102CC00036CC300C3FFC300C783F30D8180C6DB748
:102CD0000E0030C601F9F1C0E700E0E01C071C005F
:102CE000CFECE019E300C365B187F1803E6219982B
:102CF00034FC3FFC01803FFCDBDC30F01FFC6DBE90
:102D00000E2030C600F0F1C0E70071C41D0730008E
:102D1000C86C6FFF63FCC365B1870180CE67318CDF
:102D200034FE300C01800180581C30F8180C799C5E
:102D30001C783FC600F0E1FDF7003F87F9FE7F8079
:102D4000C86C6618630CC364318701800E676186A6
:102D50003CF2300C01800990181C31DC180C61FC2D
:102D6000383C300600F0E1FDF7001F07F1FC7F80E2
:102D7000CFEC6318670C636C318703000E664182E9
:102D800038823FFC7FFE318C181C338E180C63EEAA
:102D90003FFE000E000000000000000000000000E8
:102DA000C80C62186E18637C318703000E7E070022
:102DB0000000300C00004782181C6602187C6382F9
:102DC0000004007C00000000000000000000000083
:102DD000C07860F07CF83060E187030000000000FC
:102DE00000000000000000000000000000000000E3
:102DF00000000000000000000000000000000000D3
:102E000000000000000018000000060000000000A4
:102E100000000000000000000000000000000000B2
:102E200000000000000000000000000000000000A2
:102E30000000000000000000000000000000000092
:102E40000000000000000000000000000000000082
:102E50000000000000000000000000000000000072
:102E60000000000000000000000000000000000062
:102E70000000000000000000000000000000000052
:102E80000000000000000000000000000000000042
:102E9000000000000000000000000000BC2E000840
:102EA00000000020C4000000A8120008802F0008C5
:102EB000C400002054220000B812000800000000E6
:102EC00001020304010203040607080902040608BC
:102ED00000A24A04000000000000000001020304F8
:102EE00006070809000000000000000000000000C4
:102EF00000000000000000000000000000000000D2
:102F000000000000000000000000000000000000C1
:102F10000000000000000000E803000000000000C6
:102F200000000000000000000000000000000000A1
:102F30000000000000000000000000000000000091
:102F400000000000000000000000000088130000E6
:102F50000000000000000000000000000000000071
:102F60000000000000000000000000000000000061
:102F70000000000000000000000000000000000051
:04000005080000ED02
:00000001FF
