:020000040800F2
:100000001827002001010008F50400084104000839
:10001000F1040008ED0100083111000800000000A3
:100020000000000000000000000000005B07000866
:100030009302000800000000810500084508000840
:10004000411100081B0100081B0100081B010008EA
:100050001B0100081B0100081B0100081B01000810
:100060001B0100081B0100081B0100081B01000800
:100070001B0100081B0100081B0100081B010008F0
:100080001B0100081B0100081B0100081B010008E0
:100090001B0100081B0100081B0100081B010008D0
:1000A0001B0100081B0100081B0100081B010008C0
:1000B000DD0800081B0100081B0100081B010008E7
:1000C0001B0100081B0100081B0100081B010008A0
:1000D0001B010008250C00087D0C00088D0C000891
:1000E0001B0100081B0100081B010008DFF80CD0F1
:1000F00000F052F800480047F31A000818270020C3
:100100000648804706480047FEE7FEE7FEE7FEE7B1
:10011000FEE7FEE7FEE7FEE7FEE7FEE77D080008F4
:10012000ED00000840EA01039B0703D009E008C97D
:10013000121F08C0042AFAD203E011F8013B00F8AC
:10014000013B521EF9D27047D2B201E000F8012BF8
:10015000491EFBD270470022F6E710B513460A4647
:1001600004461946FFF7F0FF204610BD30B50B4698
:10017000014600202022012409E021FA02F59D42D7
:1001800005D303FA02F5491B04FA02F52844151EAB
:10019000A2F10102F1DC30BD064C074D06E0E0683B
:1001A00040F0010394E8070098471034AC42F6D3BE
:1001B000FFF7A0FF10C8000830C8000810B501F014
:1001C0003DFE01F0CFFC01F01FFB02F0FFFB10BD74
:1001D00010B501F027F902F03FFD01F05FFF01F0DB
:1001E000D9FC01F09BFB02F07DFC10BD00BFFEE7D7
:1001F000014609B90B487047012901D10A48FAE7BD
:10020000022901D10948F6E7032901D10020F2E7CC
:10021000042901D10020EEE7052901D10020EAE7F9
:100220000020E8E7C4000020EC080020141500209E
:1002300008B54FF4E06000F099F925208DF8000032
:1002400001208DF8010000208DF8020001208DF8BA
:100250000300684600F050F926208DF800000120C8
:100260008DF801008DF802008DF80300684600F05B
:1002700043F927208DF8000001208DF801000220AD
:100280008DF8020001208DF80300684600F034F973
:1002900008BD70472DE9F0410246002500260020E8
:1002A00000230024002791F803C00CF00F0591F8FB
:1002B00003C01CF0100F03D091F802C04CEA0505F2
:1002C00091F800C0BCF1000F31D0146800202BE081
:1002D0004FF0010C0CFA00F3B1F800C00CEA030671
:1002E0009E4220D183004FF00F0C0CFA03F7BC4361
:1002F00005FA03FC4CEA040491F803C0BCF1280F92
:1003000006D14FF0010C0CFA00FCC2F814C00AE050
:1003100091F803C0BCF1480F05D14FF0010C0CFA65
:1003200000FCC2F810C0401C0828D1D31460B1F8FA
:1003300000C0BCF1FF0F34DD546800202EE000F156
:10034000080C4FF0010808FA0CF3B1F800C00CEAF1
:1003500003069E4221D183004FF00F0C0CFA03F7E5
:10036000BC4305FA03FC4CEA040491F803C0BCF159
:10037000280F05D100F1080C08FA0CF8C2F8148017
:1003800091F803C0BCF1480F07D100F1080C4FF001
:10039000010808FA0CF8C2F81080401C0828CED3D7
:1003A0005460BDE8F0810000F0B50A460023002447
:1003B0000021002500F00046B6F1004F02D11D4E8D
:1003C000F16901E01B4E7168C0F3034583B200F48C
:1003D0004016B6F5401F08D121F07061154E7668C1
:1003E00026F07066134F7E6012E000F48016B6F5BA
:1003F000801F06D1032606FA05F4A14341F070617F
:1004000006E0460D360103FA06F6B14341F070618D
:1004100022B1460D360103FA06F6314300F00046DC
:10042000B6F1004F02D1034EF16101E0014E71605F
:10043000F0BD00000000014041617047016170475C
:1004400000BFFEE74AF6AA20014908607047000095
:100450000030004000B585B00121042000F0B2F862
:100460000121880300F0AEF818208DF813004FF436
:100470000070ADF8100003208DF8120004A9184890
:10048000FFF708FF04208DF813000002ADF81000FC
:1004900004A91348FFF7FEFE4FF4E130009000205E
:1004A000ADF80400ADF80600ADF80800ADF80C009A
:1004B0000C20ADF80A0069460A4800F071FC0122E0
:1004C00040F22551074800F046FC0121054800F0A4
:1004D000FFFB4021034800F0E1FB05B000BD000038
:1004E000000801400038014010B5FFF7ABFF10BD18
:1004F00000BFFEE77047000070B5002100230F2207
:10050000C4780CB3164C246804F4E064C4F5E064C9
:10051000210AC1F10403CA40447804FA03F1847843
:100520001440214309010F4C0678A155047804F0CA
:100530001F050124AC4005786D114FF0E02606EB55
:100540008505C5F8004109E0047804F01F05012481
:10055000AC40054D0678761145F8264070BD000088
:100560000CED00E000E400E080E100E0024901431E
:10057000024A1160704700000000FA050CED00E02F
:100580007047000029B1064AD2690243044BDA6180
:1005900004E0034AD2698243014BDA6170470000EC
:1005A0000010024029B1064A12690243044B1A6145
:1005B00004E0034A12698243014B1A61704700004C
:1005C0000010024029B1064A92690243044B9A6125
:1005D00004E0034A92698243014B9A61704700002C
:1005E0000010024029B1064AD2680243044BDA6087
:1005F00004E0034AD2688243014BDA60704700008E
:100600000010024030B500210022002400232D4DAF
:100610006D6805F00C0121B1042905D0082923D10A
:1006200005E0294D056022E0274D05601FE0254DBE
:100630006D6805F47012234D6D6805F48034022551
:1006400005EB92421CB9214D554305600BE01D4D51
:100650006D6815F4003F03D01C4D5543056002E062
:10066000194D5543056002E0174D056000BF00BFFE
:10067000144D6D6805F0F0010909154D6B5C0568B6
:10068000DD4045600F4D6D6805F4E061090A104DCD
:100690006B5C4568DD4085600A4D6D6805F460510E
:1006A000C90A0B4D6B5C4568DD40C560054D6D6842
:1006B00005F44041890B074D6B5CC568B5FBF3F54C
:1006C000056130BD0010024000127A0000093D00B3
:1006D000000000201000002021B1028842F04002FA
:1006E000028004E002884FF6BF731A400280704710
:1006F0000246002013890B4201D0012000E00020B7
:1007000070478181704710B50022028802F441527F
:100710000B884C8823438C882343CC8823430C8943
:1007200023434C8923438C892343CC8923431A4395
:100730000280838B4FF2FF74234083830B8A0382F2
:1007400010BD21B1828842F00402828004E08288D8
:100750004FF6FB731A4082807047704710B500F067
:1007600001F810BD0CB500200190009033480068DE
:1007700040F480303149086000BF3048006800F420
:10078000003000900198401C0190009818B9019821
:10079000B0F5A06FF1D12948006810F4003F02D0F5
:1007A0000120009001E0002000900098012844D131
:1007B0002348006840F0100021490860084600689E
:1007C00020F0030008600846006840F0020008605E
:1007D0001A484068194948600846406840F440504B
:1007E00048600846406840F48060486008464068B9
:1007F00020F47C1048600846406840F4E8104860E7
:100800000846006840F08070086000BF0B48006830
:1008100010F0007FFAD00948406820F00300074933
:1008200048600846406840F00200486000BF034846
:10083000406800F00C000828F9D10CBD00100240FF
:100840000020024010B500F001F810BD0848006813
:10085000401C074908600748006840B10548006827
:10086000401E0449086002D1012003490870704706
:10087000380000203C0000204000002010B5134844
:10088000006840F0010011490860084640681049BE
:1008900008400E494860084600680E4908400B4968
:1008A00008600846006820F4802008600846406818
:1008B00020F4FE0048604FF41F008860FFF74EFFF1
:1008C0004FF000600449086010BD000000100240B5
:1008D0000000FFF8FFFFF6FE08ED00E010B500F0A5
:1008E00001F810BD10B50121880700F029F9D0B139
:1008F0000121880700F021F800214FF0804000F02E
:100900001FF808200849087000BF4FF440710748DD
:10091000FFF794FD00BF09200349087004480088D0
:10092000801C0349088010BD9A000020001001407F
:1009300080000020CA4302827047CA430282704787
:1009400021B1028842F00102028004E002884FF6E1
:10095000FE731A400280704710B50446684884420E
:1009600008D10121C014FFF73DFE0021E014FFF77C
:1009700039FEC4E0B4F1804F08D101210846FFF7E9
:1009800011FE00210120FFF70DFEB8E05D48844212
:1009900008D101210220FFF705FE00210220FFF708
:1009A00001FEACE05848844208D101210420FFF741
:1009B000F9FD00210420FFF7F5FDA0E05348844233
:1009C00008D101210820FFF7EDFD00210820FFF7E5
:1009D000E9FD94E04E48844208D101211020FFF740
:1009E000E1FD00211020FFF7DDFD88E04948844249
:1009F00008D101212020FFF7D5FD00212020FFF79D
:100A0000D1FD7CE04448844208D101214014FFF725
:100A1000E9FD00216014FFF7E5FD70E03F488442E6
:100A200009D10121C804FFF7DDFD00214FF40020AA
:100A3000FFF7D8FD63E03A48844209D10121080557
:100A4000FFF7D0FD00214FF48010FFF7CBFD56E0FB
:100A50003448844209D101214805FFF7C3FD002134
:100A60004FF40010FFF7BEFD49E02F48844208D143
:100A700001214020FFF796FD00214020FFF792FD65
:100A80003DE02A48844208D101218020FFF78AFDF9
:100A900000218020FFF786FD31E02548844208D1FF
:100AA00001218015FFF77EFD0021A015FFF77AFDDB
:100AB00025E02048844209D101210804FFF792FD76
:100AC00000214FF48030FFF78DFD18E01A48844272
:100AD00009D101214804FFF785FD00214FF40030C2
:100AE000FFF780FD0BE01548844208D101218804FE
:100AF000FFF778FD00214FF48020FFF773FD10BD54
:100B0000002C01400004004000080040000C0040A0
:100B1000001000400014004000340140004C01402F
:100B2000005001400054014000180040001C0040EB
:100B300000200040004001400044014000480140C6
:100B400030B50246002000230024158A05EA01037F
:100B5000958905EA010413B10CB1012000E00020E1
:100B600030BD1AB183890B43838102E083898B43B3
:100B70008381704701894FF6F872114001817047F7
:100B8000002202881D4B98420ED01D4B98420BD07C
:100B9000B0F1804F08D01B4B984205D01A4B9842B9
:100BA00002D01A4B984204D14FF68F731A404B88EB
:100BB0001A43174B984207D0164B984204D04FF671
:100BC000FF431A40CB881A4302808B8883850B88A9
:100BD00003850A4B98420BD0094B984208D00E4B24
:100BE000984205D00D4B984202D00D4B984201D14E
:100BF0000B7A03860123838270470000002C01409A
:100C0000003401400004004000080040000C004097
:100C1000001000400014004000400140004401402A
:100C20000048014010B5024800F07CF910BD0000FA
:100C3000C400002070B505460E465521002000F086
:100C4000ABFD002412E0285D552805D0285DAA28B8
:100C500002D0285DFF2803D1FF21002000F09CFD79
:100C6000295D002000F098FD601C84B2B442EADBEC
:100C7000AA21002000F090FD70BD000010B50248D0
:100C800000F050F910BD0000EC08002010B502483B
:100C900000F048F910BD00001415002001F40072A6
:100CA000B2F5007F00D100BFCA430280704710B583
:100CB00002460020108A4FF2FF0318400B884C8830
:100CC00023438C882343CC8823431843108210BDD0
:100CD00021B1828942F40052828104E082894DF67A
:100CE000FF731A408281704702460020B1F5007FF1
:100CF00000D100BF13880B4201D0012000E000208A
:100D0000704770B502460024002300250020A1F59D
:100D100010666A3E00D100BFC1F3421501F01F0307
:100D2000012606FA03F3012D02D19689334006E02D
:100D3000022D02D1168A334001E0968A33400C120C
:100D4000012606FA04F41688344013B10CB10120D0
:100D500000E0002070BDF0B5034600240026002509
:100D60000020A1F510676A3F00D100BF1846C1F30B
:100D7000421401F01F06012707FA06F5012C01D1E4
:100D80000C3004E0022C01D1103000E014301AB114
:100D900007682F43076002E00768AF430760F0BDB4
:100DA0002DE9F04786B005460E460024A24600BF56
:100DB000A1460027B08900B100BF2F462C8A4CF60F
:100DC000FF700440F08804432C82AC894EF6F31087
:100DD0000440B08831890843718908430443AC81D9
:100DE000AC8A4FF6FF400440B0890443AC8201A8AE
:100DF000FFF708FC1F48874202D1DDF810A001E090
:100E0000DDF80CA0A88910F4004F08D00AEBCA0046
:100E100000EB0A1031684900B0FBF1F807E00AEB7B
:100E2000CA0000EB0A1031688900B0FBF1F86420B9
:100E3000B8FBF0F004012009642101FB1089A889A6
:100E400010F4004F08D0322000EBC900B0FBF1F0E5
:100E500000F00700044308E0322000EB0910642191
:100E6000B0FBF1F000F00F0004432C8106B0BDE8A8
:100E7000F08700000038014001468888C0F3080070
:100E80007047C1F3080282807047028BD2B202839E
:100E9000028B42EA012202837047028B02F47F42F6
:100EA0000283028B0A430283704721B1828A42F097
:100EB0002002828204E0828A4FF6DF731A40828227
:100EC000704721B1828A42F01002828204E0828A55
:100ED0004FF6EF731A408282704770B504460D4694
:100EE000012000F0F2F9668B002000F0EEF90EB957
:100EF000002070BD218BA068405C2870012000F0AC
:100F0000E4F9208B401C80B22083E189884201DB18
:100F100000202083608B401E6083002000F0D5F904
:100F20000120E6E710B5044640F225512068FFF79E
:100F3000E8FEE0B12068FFF79FFFE28AA1688854CD
:100F4000E08A401C80B2E082E189884201DB002017
:100F5000E082608BE189884202DA608B401C60830A
:100F6000608B012803D1606A08B1606A804740F253
:100F700027712068FFF7C5FE08B3A08A60B9002278
:100F800040F227712068FFF7E6FE012240F2266159
:100F90002068FFF7E0FE37E0638A6268D15C206872
:100FA000FFF76FFF608A401C80B26082A18988428F
:100FB00001DB00206082A08A401EA08224E040F273
:100FC00026612068FFF79DFEF0B1A08A50B900228B
:100FD00040F226612068FFF7BEFE206AA0B1206AB9
:100FE000804711E0638A6268D15C2068FFF749FF9F
:100FF000608A401C80B26082A189884201DB0020A7
:101000006082A08A401EA08210BD2DE9F0410446F6
:101010000E461746002527E00CE0012000F055F9A8
:10102000B4F81480002000F050F9A089404500DD9C
:1010300001E000BFF1E700BF705D228A616888545B
:10104000012000F042F9208A401C80B22082A18950
:10105000884201DB00202082A08A401CA082002060
:1010600000F033F9681C85B2BD42D5DB012240F2A5
:1010700027712068FFF76FFEBDE8F0812048214905
:10108000086021484860214888604FF4806088816A
:10109000C881002008824882C882088348838882E9
:1010A000C861086248621A481A4908601A484860CC
:1010B0001A4888604FF4806088814000C881002011
:1010C00008824882C882088348838882C86108628F
:1010D0004862134813490860134848601348886001
:1010E0004FF480608881C881002008824882C882CD
:1010F000088348838882C86108624862704700009C
:1011000000380140C4000020EC000020EC04002066
:1011100000440040EC08002014090020140D0020B9
:1011200000480040141500203C1500203C19002008
:1011300000BFFEE70020014908607047082C00400E
:1011400010B500F00FF810BD00F07F01014A1160EA
:1011500070470000002C004010B57F20FFF7F4FF1F
:1011600010BD000010B5FFF7E5FF03A000F08EF8FA
:10117000FFF7F2FF10BD00000D0A77776467207457
:10118000696D656F757420210D0A000070B53226F7
:1011900000240025012080F3108800BF3648006835
:1011A00036490860002080F3108800BF344800787A
:1011B000002860D033480068096888425BD0314815
:1011C00000682E490968884227D22C4800682D49BA
:1011D0000968441A294800682A49086000212A48F9
:1011E0000068221849416B1E00209A1A884104D2D7
:1011F000012500202449086038E023480068204485
:10120000322804D9012500201F4908602EE01E481D
:10121000006820441C49086028E018480068401E07
:1012200018490968441A15480068164908600021E1
:1012300015480068231849414FF0FF320020D21AA8
:10124000884104D2012500200F4908600EE00E48B5
:1012500000682044322804D9012500200A4908608A
:1012600004E009480068204407490860012D02D1C4
:101270000025FFF771FF70BD380000202800002016
:10128000340000202C000020300000200FB4054B5B
:1012900010B503A9044A029800F01AF810BC5DF8D2
:1012A00014FB000089190008C000002002E008C8F3
:1012B000121F08C1002AFAD170477047002001E0D0
:1012C00001C1121F002AFBD1704780F310887047BC
:1012D0002DE9FF4F89B09B460446002597E025285D
:1012E00033D10027641C4E49B84601222378203BA5
:1012F00002FA03F0084202D00743641CF6E72078A4
:101300002E2819D114F8010F47F004072A280ED00F
:101310006FF02F022078A0F1300109290CD808EBDA
:10132000880102EB410100EB0108641CF2E70A9816
:10133000641C50F8048B0A90207800286BD0642835
:1013400008D0692806D0752820D05A460B999047B6
:101350006D1C5BE00A994FF00A0901C90A91002847
:1013600004DAC0F100004FF02D0102E0390504D588
:101370002B218DF82010012103E0F90704D0202152
:10138000F7E78A4608AE0EE00021FAE70A994FF027
:101390000A0901C90A91F7E74946FEF7E7FE01F19C
:1013A000300106F8011D0028F6D1ADEB060000F172
:1013B0002009780701D44FF00108C84502DDA8EBE9
:1013C000090000E000208046002706E008A85A46F1
:1013D000C05D0B9990476D1C7F1C5745F6DB04E000
:1013E00030205A460B9990476D1CB8F10001A8F1C6
:1013F0000108F5DC05E016F8010B5A460B999047F9
:101400006D1CB9F10001A9F10109F4DC641C20781C
:1014100000287FF464AF0DB02846BDE8F08F0000CF
:1014200009280100012080F3108800BF0D480068E2
:101430000D490860002080F3108800BF0B48006849
:10144000096888420DD008480068084908600848C3
:101450000068401C06490860B0F57A7F01D300207F
:1014600008607047380000206400002068000020F9
:101470006C000020F0B5034600224FF0E0267569AD
:101480000F4E36680F4FB6FBF7F606FB03F400BFAE
:101490004FF0E026B16910E04FF0E026B0698842D5
:1014A0000BD0884202D20E1A324402E02E1A0E44A9
:1014B00032440146A24200D300E0EDE700BFF0BD98
:1014C0001400002040420F0010B5FFF75FFEFFF749
:1014D0000BF810BD10B54FF4C060FFF747F800F0EF
:1014E0004BF800F041F803A0FFF7D0FE00F00CF835
:1014F00010BD00000D0A73797374656D20737461FB
:10150000727420210D0A000030B5144800684FF4B1
:101510007A72B0FBF2F1B1F1807F00D31DE021F0CF
:101520007F40401E4FF0E022506150170F220028EC
:1015300007DA13071D0E0A4B00F00F04241F1D5578
:1015400003E013071C0E074B1C5400BF00204FF094
:10155000E02290610720106100BF30BD1400002020
:1015600018ED00E000E400E010B5FFF787FDFEF79E
:1015700071FFFEF75DFE10BD7047000070B50446B8
:101580000D462A462146012000F0EFF800200549CB
:101590000870012048701320887003210148FFF76C
:1015A00049FB70BD2421002070B504460D462A4633
:1015B0002146022000F0D9F80020054908700120DA
:1015C00048701420887004210148FFF733FB70BD78
:1015D0002421002010B5CCB000F054FA0446002CB1
:1015E0003FD000BF20212648FEF728FF0A20FFF742
:1015F00041FF00BF00BF20212148FEF71DFF0A2048
:10160000FFF738FF00BF00BF20211D48FEF716FF7F
:101610000A20FFF72FFF00BF00BF20211848FEF768
:101620000BFF0A20FFF726FF00BF4FF4967101A8B9
:10163000FEF791FD01A800F025FB0120114908707B
:101640002B204870122088704FF4967201A90D4823
:10165000C01CFEF767FD40F22F110A48FFF7EAFAB7
:101660000CE0002007490870022048709220887022
:101670003020C87004210348FFF7DCFA4CB010BDDD
:10168000000801402421002070B504460D4629467B
:10169000204600F00FFA032827D005DC48B10128C6
:1016A00017D002283DD11AE0042824D0FF2838D1D1
:1016B00027E000202449087020204870A07840F0DE
:1016C000800088700120C87004211F48FFF7B2FA1B
:1016D00037E0E81E81B2E01C00F050FB31E0E81E6C
:1016E00081B2E01C00F010FA2BE0E81E81B2E01C91
:1016F00000F05AF825E0E81E81B2E01C01F036F94E
:101700001FE000201049087020204870A07840F0A9
:10171000800088700020C87004210B48FFF78AFA07
:101720000FE000200849087020204870A07840F0A1
:10173000800088700120C87004210348FFF77AFAFE
:1017400000BF00BF70BD00002421002070B5054619
:101750000E462846FEF74CFD04460CB9002070BD2D
:1017600031462046FFF7B9FBF9E72DE9F041054680
:101770000E4617462846FEF73BFD04460CB9BDE869
:10178000F081E06908B1E06980473A463146204679
:10179000FFF73BFC00BFF2E713B50446012201A9A5
:1017A0002046FFF7E2FF1CBD70B504460D462078C9
:1017B000102817D1607820B9A178E01CFFF7DEFE71
:1017C0000FE0607801280CD100F0C4F800200D492A
:1017D0000870012048701320887003210948FFF722
:1017E00029FA0DE000200749087002204870932074
:1017F00088701020C87004210248FFF71BFA00BF50
:1018000000BF70BD2421002000B587B00121042055
:10181000FEF7D8FE01210846FEF7D4FE0121480458
:10182000FEF7B0FE01210420FEF7CCFE10208DF85B
:101830001B0003208DF81A000820ADF8180006A937
:101840003448FEF727FD1020ADF8180018208DF859
:101850001B0003208DF81A0006A92E48FEF71AFD7A
:101860000420ADF818001C208DF81B0003208DF813
:101870001A0006A92748FEF70DFD04212648FFF7A8
:101880000CFB02212448FFF700FB4FF40060ADF889
:1018900010000020ADF81200ADF814004FF4807075
:1018A000ADF8160004A91C48FFF701FA42F6417092
:1018B00000904FF48050ADF804004FF44050ADF864
:1018C00006004FF48060ADF808000C20ADF80A0067
:1018D0000020ADF80C0069460F48FFF761FA0122BD
:1018E00040F225510C48FFF736FA01210A48FFF76C
:1018F000EFF901210848FFF7E4FA01210648FFF754
:10190000D4FA40210448FFF7C9F900F023F807B0E2
:1019100000BD00000008014000440040012080F3A9
:10192000108800BF0848006808490860002080F35C
:10193000108800BF064800680968884203D0034841
:10194000006803490860704738000020A0000020AC
:10195000A400002010B500BF08210A48FEF76CFD66
:1019600000BF00BF04210748FEF768FD00BF4FF429
:10197000C870FFF77FFD00BF08210248FEF75EFD3B
:1019800000BF10BD0008014070B504460D46E1B22D
:101990000548FFF776FA00BF40210348FFF7A4F996
:1019A0000028F9D0204670BD00380140F8B5074640
:1019B000002321E000200DF80300002418E0002699
:1019C00012E00C2000FB0370005D4FF0010C0CFADC
:1019D00006FC10EA0C0F05D01DF80300401CC0B235
:1019E0000DF80300701CC6B2082EEADB601CC4B2FE
:1019F0000C2CE4DB581CC3B2042BDBDB9DF800008D
:101A00009DF801C060449DF802C060449DF803C089
:101A100000EB0C059DF800009DF802C06044C1B2C7
:101A20009DF801009DF803C06044C2B20DB9FF20CB
:101A3000F8BD602D01DC0020FAE719B9602A01DD4C
:101A40000220F5E7602902DD0AB92020F0E76029CD
:101A500003DC602A01DC1120EAE7602903DD602A4B
:101A600001DC2120E4E7602903DC602A01DD12208B
:101A7000DEE7602903DD602A01DD2220D8E722208D
:101A8000D6E700000448006810F0800F01D1012063
:101A900070470020FCE70000080801400448806807
:101AA00010F0400F01D1012070470020FCE700003A
:101AB0000010014010B502465078147840EA042323
:101AC000981C814213D19078112806D0122806D094
:101AD000132806D0142808D105E0012010BD0220EB
:101AE000FCE70320FAE70420F8E70020F6E7FF20F0
:101AF000F4E7FFF7EFFCFEF761FB03E0FFF7E4FC20
:101B0000FEF766FBFAE7000070B504460D46207844
:101B1000102815D1607810B9FFF75CFD0FE06078F0
:101B200001280CD100F0BEF800200D4908700120FA
:101B300048701220887003210948FFF77BF80DE0F8
:101B400000200749087002204870922088701020F9
:101B5000C87004210248FFF76DF800BF00BF70BDD8
:101B60002421002008B501210420FEF72BFD2020B0
:101B7000ADF8000010208DF8030002208DF802005F
:101B800069460348FEF786FB00F08CF808BD0000AC
:101B90000008014070B5022300200022012181F3DA
:101BA000108800BF33490968334C2160002181F35C
:101BB000108800BF314909682468A14259D02F49D3
:101BC00009682D4C2468A14227D22B4909682B4C67
:101BD0002468081B28490968284C216000242849EA
:101BE000096845186441561E0021751BA14104D2A5
:101BF00001220021224C216038E02149096801447A
:101C0000022904D9012200211D4C21602EE01C492B
:101C1000096801441A4C216028E017490968491EE7
:101C2000164C2468081B14490968144C21600024D0
:101C300013490968451864414FF0FF360021751BB0
:101C4000A14104D2012200210D4C21600EE00C497B
:101C500009680144022904D901220021084C2160AD
:101C600004E0074909680144054C2160012A00D1BC
:101C7000002270BD38000020B4000020B800002011
:101C8000BC00002070B50546002404E000F0BCFF55
:101C90002855601C84B2B4F5877FF7DB00F002F8AA
:101CA00070BD000010B500F09DFF00BF202132483C
:101CB000FEF7C4FB0A20FFF7DDFB00BF00BF802159
:101CC0002D48FEF7BBFB0A20FFF7D4FB00BF00BF87
:101CD00080212948FEF7B0FB0A20FFF7CBFB00BFAD
:101CE00000BF20212448FEF7A7FB0A20FFF7C2FB14
:101CF00000BF00BF20212048FEF7A0FB0A20FFF70D
:101D0000B9FB00BF00BF20211B48FEF795FB0A204E
:101D1000FFF7B0FB00BF00BF80211748FEF78EFB26
:101D20000A20FFF7A7FB00BF00BF20211248FEF7E3
:101D300085FB0A20FFF79EFB00BF00BF20210E4855
:101D4000FEF77AFB0A20FFF795FB00BF00BF2021BA
:101D50000948FEF773FB0A20FFF78CFB00BF00BFAA
:101D600020210548FEF768FB0A20FFF783FB00BF30
:101D700000F026FF10BD00000008014070B50446C9
:101D80000D462078102804D011282BD0122842D1DB
:101D900040E0022D18D1607810B900F093FC20E0EB
:101DA0006078012802D100F0C5FD1AE00020224928
:101DB000087002204870912088702120C87004218A
:101DC0001D48FEF737FF0CE000201B490870022079
:101DD0004870912088701120C87004211648FEF7C1
:101DE00029FF26E0032D07D1A278617802EB0121BB
:101DF00088B200F06FFA0CE000200F490870022052
:101E00004870912088701120C87004210A48FEF79C
:101E100011FF0EE00DE00020074908700220487015
:101E2000912088701020C87004210348FEF702FF3B
:101E300000BF00BF70BD00002421002000B58BB0A2
:101E400001210420FEF7BEFB00BF4FF480718D48D6
:101E5000FEF7F2FA00BF10208DF82B0002208DF85B
:101E60002A00C001ADF828000AA98648FEF712FA38
:101E700001211020FEF7A6FB00BF4FF4006182484D
:101E8000FEF7DAFA00BF10208DF82B0002208DF843
:101E90002A008002ADF828000AA97B48FEF7FAF96B
:101EA00001210846FEF78EFB01210820FEF78AFB80
:101EB00001217648FEF778FA00BF10217448FEF73A
:101EC000BBFA20217248FEF7B7FA4FF480717048D0
:101ED000FEF7B2FA4FF400716D48FEF7ADFA00BF9D
:101EE0004FF44C70ADF8280002208DF82A00102025
:101EF0008DF82B000AA96648FEF7CCF900BF4FF415
:101F000080716048FEF79AFA00BF00BF4FF400618D
:101F10005D48FEF793FA00BF01211020FEF752FB47
:101F200048208DF82B0002208DF82A004020ADF8C3
:101F300028000AA95448FEF7ADF901211020FEF748
:101F400041FB00BF4FF440714F48FEF777FA00BFE6
:101F500010208DF82B0002208DF82A004FF44070DD
:101F6000ADF828000AA94848FEF794F9012110208D
:101F7000FEF728FB00BF80214348FEF75FFA00BF51
:101F800010208DF82B0003208DF82A008020ADF85A
:101F900028000AA93C48FEF77DF901210820FEF738
:101FA00011FB01218803FEF7EDFA4FF46040ADF814
:101FB000280003208DF82A0018208DF82B000AA98C
:101FC0003348FEF767F90020ADF814004FF4827033
:101FD000ADF816000020ADF81800ADF81A00ADF805
:101FE0001C004FF40070ADF81E001020ADF820006A
:101FF0000020ADF8220005A92648FEF784FB012148
:102000002448FEF769FB01212248FEF79AFB0121D3
:102010000846FEF7B7FA4FF08040FEF79DFC4FF000
:102020008040FEF7A7FD1D20ADF8080040F60F60C8
:10203000ADF804000020ADF80A00ADF8060001A9D3
:102040004FF08040FEF79CFD1C208DF81000012011
:102050008DF8110000208DF8120001208DF813007A
:1020600004A8FEF749FA01218807FEF763FC012264
:1020700011469007FEF775FD0020074908700BB068
:1020800000BD0000000801400010014000023000C7
:10209000000C0140003800409A00002070B5012675
:1020A00000240025012080F3108800BF64480068E8
:1020B00064490860002080F3108800BF624800680F
:1020C000096888426FD0604800685E4909688842A4
:1020D00027D25C4800685C490968441A594800687E
:1020E00059490860002159480068221849416B1E6F
:1020F00000209A1A884104D2012500205349086023
:1021000038E0524800682044012804D90125002005
:102110004E4908602EE04D48006820444B49086055
:1021200028E048480068401E47490968441A454865
:102130000068454908600021444800682218494168
:102140004FF0FF3300209A1A884104D20125002065
:102150003E4908600EE03D4800682044012804D94B
:10216000012500203949086004E03848006820440F
:1021700036490860012D61D10025FFF78FFC40B37F
:10218000334800780B281DD2DFE800F006071C0B4F
:102190000C0E0F101112160015E0012000F0D8F8F7
:1021A00011E010E00FE049E00DE00CE00BE00AE088
:1021B000092000F0CDF806E000202549087000F065
:1021C00081FA00E000BF00BF41F288302149088059
:1021D00034E020480088401C80B21E49088041F24B
:1021E000883188422ADB00201A4908801A49088071
:1021F00000BF4FF440711948FEF720F900BF00BF3F
:1022000010211748FEF718F920211548FEF714F998
:102210004FF480711248FEF70FF94FF40071104827
:10222000FEF70AF900BF0020094908700D4908703F
:1022300002204870912088703120C87070BD000065
:10224000380000208C000020900000209400002026
:102250009A0000209800002080000020001001401B
:10226000000C01402421002070B504460E4615469E
:1022700027E000BF02211648FEF73AFA0028F9D0FD
:102280003DB914F8012B02F0AA011148FEF739FA02
:1022900010E0012D07D114F8012B02F055010C4874
:1022A000FEF72FFA06E0022D04D114F8011B0848AE
:1022B000FEF727FA00BF80210548FEF719FA01282A
:1022C000F9D03000A6F10101CEB2D2D170BD00002C
:1022D0000038004010B504461A48007820BBA4F529
:1022E0007F40FF380CD118490870022048709120B7
:1022F00088702120C87004211348FEF79BFC20E061
:102300001248008820441149088001200D490870B6
:1023100000200D49087001204870112088700321A9
:102320000948FEF787FC0CE00020074908700220EE
:102330004870912088702020C87004210248FEF760
:1023400079FC10BD9A00002024210020800000208C
:1023500010B5044662480088002875D020206149E5
:1023600008805F480088401E5D4908805E4800780C
:1023700030B101281DD0022834D0032865D14AE0AD
:1023800000BF00BF10215948FEF758F820215748D8
:10239000FEF752F800BF00BF4FF480715348FEF7BC
:1023A0004DF84FF400715148FEF746F800BF00BFEA
:1023B0004CE000BF00BF10214C48FEF73FF8202141
:1023C0004A48FEF739F800BF00BF4FF48071474814
:1023D000FEF732F84FF400714448FEF72FF800BFC3
:1023E00000BF33E000BF00BF10214048FEF724F8D3
:1023F00020213E48FEF722F800BF00BF4FF4807155
:102400003A48FEF719F84FF400713848FEF716F80D
:1024100000BF00BF1AE000BF00BF10213348FEF725
:102420000BF820213148FEF709F800BF00BF4FF438
:1024300080712E48FEF702F84FF400712B48FDF72B
:10244000FBFF00BF00BF01E00CE000BF00BF26485B
:102450000078401CC0B22449087004283EDB0020EC
:1024600008703BE0012C1FD11E48008828B11D4890
:102470000088401E1B49088030E000201C4908707D
:1024800000BF10211948FDF7D7FF20211748FDF79D
:10249000D3FF4FF480711548FDF7CEFF4FF4007164
:1024A0001248FDF7C9FF19E0092C03D10A20104991
:1024B000087013E000BF10210C48FDF7BDFF20217C
:1024C0000A48FDF7B9FF4FF480710848FDF7B4FFE3
:1024D0004FF400710548FDF7AFFF00BF10BD0000CD
:1024E000800000208400002086000020000C0140B5
:1024F0009A00002070B50546002480E01CB140F22F
:10250000FA60FEF7B7FF4048007830B101281DD0CF
:10251000022834D0032864D14AE000BF00BF102154
:102520003A48FDF78BFF20213848FDF785FF00BFB3
:1025300000BF4FF480713548FDF780FF4FF4007104
:102540003248FDF779FF00BF00BF4BE000BF00BF7E
:1025500010212E48FDF772FF20212C48FDF76CFF5B
:1025600000BF00BF4FF480712848FDF765FF4FF4AE
:1025700000712648FDF762FF00BF00BF32E000BFD8
:1025800000BF10212148FDF757FF20211F48FDF70C
:1025900055FF00BF00BF4FF480711C48FDF74CFF92
:1025A0004FF400711948FDF749FF00BF00BF19E063
:1025B00000BF00BF10211548FDF73EFF2021134842
:1025C000FDF73CFF00BF00BF4FF480710F48FDF7DF
:1025D00035FF4FF400710D48FDF72EFF00BF00BF1F
:1025E00000E000BF00BF08480078401CC0B20649A8
:1025F0000870042801DB00200870601CC4B2AC42E3
:10260000FFF67CAF70BD000082000020000C01408E
:1026100010B503200B49087000BF4FF400710A4841
:10262000FDF70AFF00BF41F28830FEF723FF00BF2D
:102630004FF400710448FDF701FF00BF0420014979
:10264000087010BD9A0000200010014010B507204E
:102650000B49087000BF4FF440710A48FDF7ECFECB
:1026600000BF41F28830FEF705FF00BF4FF4407114
:102670000448FDF7E3FE00BF08200149087010BDC3
:102680009A0000200010014010B505200B49087089
:1026900000BF4FF480710A48FDF7CEFE00BF41F243
:1026A0008830FEF7E7FE00BF4FF480710448FDF765
:1026B000C5FE00BF06200149087010BD9A00002029
:1026C0000010014070B59648007800287ED19548EA
:1026D000006800EB4000944901EB00163046FFF71C
:1026E00065F90546FF2D03D10220FFF703FFFAE04D
:1026F000B5B9022230213046FFF7B6FD00BF802178
:102700008A48FDF799FE00BF00BF80218748FDF78A
:1027100095FE00BFFFF79AFF0220FFF7EBFEE2E015
:10272000112D18D1022230213046FFF79DFD00BF48
:1027300080217E48FDF780FE00BF00BF80217B48DE
:10274000FDF77CFE00BFFFF763FFFFF79DFF022050
:10275000FFF7D0FEC7E0022D1CD1002417E022466F
:1027600030213046FFF780FD00BF80216F48FDF724
:1027700063FE00BF00BF80216C48FDF75FFE00BF15
:10278000FFF782FF0120FFF7B5FE601CC4B2022CE8
:10279000E5DBA8E0202D1ED1002419E022463021DF
:1027A0003046FFF761FD00BF80216048FDF744FE21
:1027B00000BF00BF80215D48FDF740FE00BFFFF76E
:1027C00027FF0120FFF796FE601C00E099E0C4B2ED
:1027D000022CE3DB87E0122D32D102223021304679
:1027E000FFF742FD00BF80215048FDF725FE00BFE6
:1027F00000BF80214D48FDF721FE00BFFFF708FF15
:102800000220FFF777FE002417E0224630213046F1
:10281000FFF72AFD00BF80214448FDF70DFE00BFF1
:1028200000BF80214148FDF709FE00BFFFF72CFFE4
:102830000120FFF75FFE601CC4B2022CE5DB52E012
:10284000212D32D1022230213046FFF70DFD00BF8D
:1028500080213648FDF7F0FD00BF00BF80213348DE
:10286000FDF7ECFD00BFFFF70FFF0220FFF742FE70
:10287000002417E0224630213046FFF7F5FC00BF68
:1028800080212A48FDF7D8FD00BF00BF80212748DE
:10289000FDF7D4FD00BFFFF7BBFE0120FFF72AFEC6
:1028A000601CC4B2022CE5DB1DE0002419E02246C6
:1028B00030213046FFF7D8FC00BF80211B48FDF7D0
:1028C000BBFD00BF00BF80211848FDF7B7FD00BF6A
:1028D000FFF79EFEFFF7D8FE0120FFF70BFE601CFE
:1028E000C4B2022CE3DB0F480068401C0D490860AD
:1028F000B0F5487F01D3002008600920084908701E
:102900000CE000200A49087002204870912088706D
:102910002020C87004210648FEF78CF970BD000025
:102920009A000020880000201032000800100140AA
:102930002421002010B50A4800883030084908805A
:1029400001200849087000200749087001204870DC
:102950001120887003210448FEF76CF910BD0000B7
:10296000800000209A0000202421002070B5044639
:102970000D462078102817D1607820B9A178E01C86
:10298000FEF712FE0FE0607801280CD100F0FAF893
:1029900000200D4908700120487014208870032120
:1029A0000948FEF747F90DE00020074908700220AA
:1029B0004870942088701020C87004210248FEF7E7
:1029C00039F900BF00BF70BD2421002000B587B0D9
:1029D00001210820FDF7F6FD01210846FDF7F2FD73
:1029E00001218804FDF7CEFD01210820FDF7EAFD55
:1029F0004FF40060ADF8180010208DF81B00032084
:102A00008DF81A0006A93548FDF744FC4FF48050B4
:102A1000ADF8180018208DF81B0003208DF81A005F
:102A200006A92E48FDF736FC4FF48060ADF818007B
:102A30001C208DF81B0003208DF81A0006A92748DA
:102A4000FDF728FC04212648FEF727FA0221244836
:102A5000FEF71BFA4FF40060ADF810000020ADF84F
:102A60001200ADF814004FF48070ADF8160004A900
:102A70001B48FEF71CF942F6417000904FF480505D
:102A8000ADF804004FF44050ADF806004FF48060FC
:102A9000ADF808000C20ADF80A000020ADF80C00DD
:102AA00069460F48FEF77CF9012240F225510C4897
:102AB000FEF751F901210A48FEF70AF901210848F9
:102AC000FEF7FFF901210648FEF7EFF9402104481F
:102AD000FEF7E4F800F056F807B000BD000C014026
:102AE0000048004010B5012080F3108800BF0A485C
:102AF00000680A490860002080F3108800BF084879
:102B000000680968884205D00448006804490860E4
:102B100000F008F810BD000038000020AC000020D4
:102B2000B000002000B59BB01AA90220FEF70EFEEF
:102B3000A8B91248007828B110480078401E0F4903
:102B4000087019E00E480088B0B10D48028801A94C
:102B50000020FEF70AFE0020094908800CE0322020
:102B6000064908709DF86810054802880088401CD6
:102B7000034B188001A881541BB000BDA8000020A1
:102B8000AA00002010B500BF4FF400610B48FDF70C
:102B900053FC00BF00BF4FF480610848FDF74EFCB6
:102BA00000BF4FF4C870FEF765FC00BF4FF4006132
:102BB0000248FDF743FC00BF10BD0000000C0140BF
:102BC00008B58020ADF8000048208DF803000220F1
:102BD0008DF8020069460248FDF75CFB08BD000065
:102BE0000008014008B58020ADF8000010208DF8E5
:102BF000030002208DF8020069460248FDF74AFBF7
:102C000008BD00000008014070B5002500241CE04C
:102C1000FEF738FF28B9C4F1070101208840284396
:102C2000C5B200BF20210B48FDF708FC0A20FEF7C3
:102C300021FC00BF00BF20210648FDF7FDFB0A2054
:102C4000FEF718FC00BF601CC4B2082CE0DB28466D
:102C500070BD00000008014008B5012080F3108815
:102C600000BF4448006844490860002080F3108891
:102C700000BF424800680968884279D03E48006831
:102C80003E49086069460020FEF760FD68B93C488F
:102C90000088002805DD3A480088401E3849088031
:102CA00066E000203749087062E03548008868B95E
:102CB0003448007850B99DF80000552806D100200E
:102CC0003149088001202F4908704EE02D480078D6
:102CD000012828D19DF80000FF2803D102202949AE
:102CE000087042E09DF80000552803D100202549D6
:102CF00008703AE09DF80000AA2808D10320214975
:102D00000870214801882148FEF7BEFC2DE09DF89F
:102D100000001E491C4A128888541B480088401C29
:102D20001949088021E01748007802281DD19DF834
:102D30000000FF2807D09DF80000552803D09DF81B
:102D40000000AA280ED19DF8000010490E4A1288F2
:102D500088540D480088401C0B490880012009490F
:102D6000087002E0002007490870322004490880FA
:102D700008BD000038000020700000207400002012
:102D8000780000207C0000207A0000203C1D0020FC
:102D90000000000000000000000000000000000033
:102DA0000000000000000000000000000000000023
:102DB0000000000000000000000000000000000013
:102DC0000000000000000000000000000000000003
:102DD00000000000000000000000000000000000F3
:102DE00000000000000000000000000000000000E3
:102DF00000000000000000000000000000000000D3
:102E000000000000000000000000000000000000C2
:102E100000000000000000000000000000000000B2
:102E200000000000000000000000000000000000A2
:102E30000000000000000000000000000000000092
:102E40000000000000000000000000000000000082
:102E50000E600380110C3000018000000E1C3070E9
:102E6000070000000C20000000000000000000002F
:102E7000000000000300200060C0006030CC0000B3
:102E80000E60018039087F7E03C03FFC789C307063
:102E900007007DFE0E707FFE0000000000000000B5
:102EA00000000001FFFE37FC60E0036030CC000052
:102EB0000E62FFFF2D586C6607E0300C18FC33FEE5
:102EC000FFFF6D860C30000607071DFDF7F81F0198
:102ED000F87E1E000000760C67FC1BFDB1CFFE00E3
:102EE0000E6E00006D5F4C660E703FFC185CFC704F
:102EF0000C006D8618180006070F1DFDF7FC3F83B8
:102F0000F8FE3F803FF0660DF3183261B19F030079
:102F10007E7C3FFCCD52FFE61C38300C181C307014
:102F20001C0069FE381CFFF6038F1DC0E71E71C729
:102F300009C223803030C7FC63386061B397030057
:102F40000E78300C1FF61E66781C3FFCFF9C30701C
:102F50001FFC7986300C0006038F99C0E70EE0E76E
:102F600001C003803030960C67FC67FFB3B70300E5
:102F70000E70300C30363B7E6FF6018038FC33FE2D
:102F8000380C798661060006039F99C0E70EE0E7DA
:102F900081E003803FF03E0CF40CC061B7A7F180E4
:102FA0000E60300C77DE73000180FFFF3C5C3C0E4E
:102FB000780C798643823FC60199B9F8E71EE0E3B1
:102FC000F0FC0700000037FCF4CCC061B38701803F
:102FD0000E603FFC701E7FFC018000003E1CF10C67
:102FE0007FFC6DFE030030C60199B9F8E7FCE0E311
:102FF000F8FE0F00FFFC6000E8C0C3FDB187018050
:103000000E600180B7CC300C01803FFC7E1C318CFF
:10301000580C6DE2070030C601F9F1C0E7F0E0E0BE
:103020007C1F1E00C00CEFFDEFFEC365B187018061
:103030000E60119036CC300C3FFC300C783F30D80D
:10304000180C6DB70E0030C601F9F1C0E700E0E0E2
:103050001C071C00CFECE019E300C365B187F180C9
:103060003E62199834FC3FFC01803FFCDBDC30F011
:103070001FFC6DBE0E2030C600F0F1C0E70071C429
:103080001D073000C86C6FFF63FCC365B18701800A
:10309000CE67318C34FE300C01800180581C30F832
:1030A000180C799C1C783FC600F0E1FDF7003F87C3
:1030B000F9FE7F80C86C6618630CC3643187018099
:1030C0000E6761863CF2300C01800990181C31DCDF
:1030D000180C61FC383C300600F0E1FDF7001F07DA
:1030E000F1FC7F80CFEC6318670C636C31870300C1
:1030F0000E66418238823FFC7FFE318C181C338E75
:10310000180C63EE3FFE000E0000000000000000FF
:1031100000000000C80C62186E18637C3187030041
:103120000E7E07000000300C00004782181C66026B
:10313000187C63820004007C000000000000000096
:1031400000000000C07860F07CF83060E187030088
:10315000000000000000000000000000000000006F
:10316000000000000000000000000000000000005F
:103170000000000000000000000018000000060031
:10318000000000000000000000000000000000003F
:10319000000000000000000000000000000000002F
:1031A000000000000000000000000000000000001F
:1031B000000000000000000000000000000000000F
:103C10000000000000F3C000F00000000000000001
:103C20000000000000000000000000000000000094
:103C30000000000000000000000000000000000084
:103C40000000000000F3C000300000000000000091
:103C50000000000000000000000000000000000064
:103C60000000000000000000000000000000000054
:103C70000000000000F3C000300000000000000061
:103C80000000000000000000000000000000000034
:103C90000000000000000000000000000000000024
:103CA0000000000000F3C47FFFFC000000000000E3
:103CB0000000000000000000000000000000000004
:103CC00000000000000000000000000000000000F4
:103CD0000000000000F3DC00000000000000000015
:103CE00000000000000000000000000000000000D4
:103CF00000000000000000000000000000000000C4
:103D00000000000000F3DC000000000000000000E4
:103D100000000000000000000000000000000000A3
:103D20000000000000000000000000000000000093
:103D3000000000000FF3F81FFFE00000000000008B
:103D40000000000000000000000000000000000073
:103D50000000000000000000000000000000000063
:103D6000000000000FF3F81FFFE00000000000005B
:103D70000000000000000000000000000000000043
:103D80000000000000000000000000000000000033
:103D90000000000000F3F01800E000000000000048
:103DA0000000000000000000000000000000000013
:103DB0000000000000000000000000000000000003
:103DC0000000000000F3E01800E000000000000028
:103DD00000000000000000000000000000000000E3
:103DE00000000000000000000000000000000000D3
:103DF0000000000000F3E01800E0000000000000F8
:103E000000000000000000000000000000000000B2
:103E100000000000000000000000000000000000A2
:103E20000000000000F3C01800E0000000000000E7
:103E30000000000000000000000000000000000082
:103E40000000000000000000000000000000000072
:103E50000000000000F3C01FFFE0000000000000B1
:103E60000000000000000000000000000000000052
:103E70000000000000000000000000000000000042
:103E80000000000000F3C01FFFE000000000000081
:103E90000000000000000000000000000000000022
:103EA0000000000000000000000000000000000012
:103EB0000000000000F3C00030000000000000001F
:103EC00000000000000000000000000000000000F2
:103ED00000000000000000000000000000000000E2
:103EE0000000000000F3C0003100000000000000EE
:103EF00000000000000000000000000000000000C2
:103F000000000000000000000000000000000000B1
:103F10000000000000F3C0003100000000000000BD
:103F20000000000000000000000000000000000091
:103F30000000000000000000000000000000000081
:103F40000000000007F3C40E3180000000000000F4
:103F50000000000000000000000000000000000061
:103F60000000000000000000000000000000000051
:103F70000000000018F3C79830E0000000000000C7
:103F80000000000000000000000000000000000031
:103F90000000000000000000000000000000000021
:103FA0000000000018F3C79830E000000000000097
:103FB0000000000000000000000000000000000001
:103FC00000000000000000000000000000000000F1
:103FD0000000000000F3CC30307000000000000052
:103FE00000000000000000000000000000000000D1
:103FF00000000000000000000000000000000000C1
:104000000000000000F3CC30307000000000000021
:1040100000000000000000000000000000000000A0
:104020000000000000000000000000000000000090
:104030000000000000F3CC60301000000000000021
:104040000000000000000000000000000000000070
:104050000000000000000000000000000000000060
:104060000000000000F0FC01E00000000000000083
:104070000000000000000000000000000000000040
:104080000000000000000000000000000000000030
:104090000000000000F0FC01E00000000000000053
:1040A0000000000000000000000000000000000010
:1040B0000000000000000000000000000000000000
:1040C00000000000000000000000000000000000F0
:1040D00000000000000000000000000000000000E0
:104420000C00000E007000000E00001800100000CC
:10443000000000000000000000000000000000007C
:10444000000000000000000000000000000000006C
:104450000C00000E007000000E000018001000009C
:10446000000000000000000000000000000000004C
:1044700000000000000000000000000003FFFFC07B
:104480000C007F3E007FFF800E007F7FF01FBFC3C8
:10449000FFFE00000000000000000000000000001F
:1044A00000000000000000000000000003FFFFC04B
:1044B0000C007F3E007FFF800E007F7FF01FBFC398
:1044C000FFFE0000000000000000000000000000EF
:1044D0000000000000000000000000000038000F95
:1044E000FFFE617FF0700F8FFFFE7A78E05020C3EF
:1044F000800000000000000000000000000000003C
:104500000000000000000000000000000038000073
:104510000C0061F070E01C0E300E7AFCE1FFB783F6
:10452000800000000000000000000000000000000B
:104530000000000000000000000000000038000043
:104540000C0061F070E01C0E300E7AFCE1FFB783C6
:1045500080000000000000000000000000000000DB
:104560000000000000000000000000000038000013
:104570000C0061FCE0E01C0EF00E7E87C3CF1F0331
:1045800080000000000000000000000000000000AB
:1045900000000000000000000000000000380000E3
:1045A0000C007F0F81E03801FFF07E07C078F783B1
:1045B000FFFE0000000000000000000000000000FE
:1045C00000000000000000000000000000380000B3
:1045D0000C007F0F81E03801FFF07E07C078F78381
:1045E000FFFE0000000000000000000000000000CE
:1045F000000000000000000000000000003FFE007E
:104600000C001E0F81E0F007E0F07E7DE067304394
:1046100081C0000000000000000000000000000059
:1046200000000000000000000000000000380E073D
:10463000FFF85E3FF7E0F00E31E07FF8DF98D80337
:1046400081C0000000000000000000000000000029
:1046500000000000000000000000000000380E070D
:10466000FFF85E3FF7E0F00E31E07FF8DF98D80307
:1046700081C00000000000000000000000000000F9
:10468000000000000000000000001FCFE0380E0016
:104690000C005EF079E3E0001F007A7FC07FFF83AB
:1046A00081C01F8FC000000000000000000000005B
:1046B000000000000000000000001FCFE0380E00E6
:1046C0000C005EF079E3E0001F007A7FC07FFF837B
:1046D00081C01F8FC000000000000000000000002B
:1046E000000000000000000000001FCFE0380E00B6
:1046F0000C005F0000E3E001FFF07BE203F00FE35A
:1047000081C01F8FC00000000000000000000000FA
:1047100000000000000000000000000000380C0055
:104720000C005E3FF0E7C01FC07F7BFFF03FFF0340
:1047300081C0000000000000000000000000000038
:1047400000000000000000000000000000380C0025
:104750000C005E3FF0E7C01FC07F7BFFF03FFF0310
:1047600081C0000000000000000000000000000008
:1047700000000000000000000000000000700C00BD
:104780000C005E3070E7C041FFFC7B8200300F02FE
:1047900001C0000000000000000000000000000058
:1047A00000000000000000000000000000700C1F6E
:1047B000FFFF5E3070E7006100107FFFF03FFF0EEB
:1047C00001C0000000000000000000000000000028
:1047D00000000000000000000000000000700C1F3E
:1047E000FFFF5E3070E7006100107FFFF03FFF0EBB
:1047F00001C00000000000000000000000000000F8
:1048000000000000000000000000000000C00C00DC
:104810000C005FB070E703C1001078020030C08E5A
:1048200001C00000000000000000000000000000C7
:1048300000000000000000000000000003800C00E9
:104840000C00FE3FF0E703C1FFF07802003F9F0C31
:1048500001C0000000000000000000000000000097
:1048600000000000000000000000000003800C00B9
:104870000C00FE3FF0E703C1FFF07802003F9F0C01
:1048800001C0000000000000000000000000000067
:104890000000000000000000000000000703F80016
:1048A0000C00003070E3FF81001079FFFC3000CC79
:1048B0001F000000000000000000000000000000D9
:1048C00000000000000000000000000000000000E8
:1048D00000000000000000000000000000000000D8
:1048E00000000000000000000000000000000000C8
:1048F00000000000000000000000000000000000B8
:104C400000000000000000000000403FF0040000F1
:104C500000003C07C1F07878000000000000000070
:104C60000000000000000000000000000000000044
:104C70000000000000030307801FFF0003CC0000BA
:104C8000000046042308C08C000000000000000063
:104C90000000000000000000000000000000000014
:104CA00000000000000F0F0880000400010A00004F
:104CB00000000204260C8004000000000000000038
:104CC00000000000000000000000000000000000E4
:104CD00000000000000101008003FC000111000041
:104CE0000000020424048004000000000000000012
:104CF00000000000000000000000000000000000B4
:104D00000000000000010100800000000120800080
:104D100000000404240460080000000000000000FB
:104D20000000000000000000000000000000000083
:104D30000000000000010107000FFE7FFBE44000BF
:104D400000000C07C4043818000000000000000038
:104D50000000000000000000000000000000000053
:104D600000000000000101008008020401000000B2
:104D70000000180404040C300000000000000000D3
:104D80000000000000000000000000000000000023
:104D900000000000000101004009F20C013F80000A
:104DA00000003004040C046000000000000000005B
:104DB00000000000000000000000000000000000F3
:104DC000000000000001010040090208810100000C
:104DD00000006004021884C0000000000000000011
:104DE00000000000000000000000000000000000C3
:104DF00000000000000101088009F21041D200000B
:104E000000007E0401F078FC0000000000000000BB
:104E10000000000000000000000000000000000092
:104E200000000000000FCFC700090223E70C0000BC
:104E30000000000000000000000000000000000072
:104E40000000000000000000000000000000000062
:104E5000000000000000000000080E3C10060000EA
:104E60000000000000000000000000000000000042
:104E70000000000000000000000000000000000032
:104E80000000000000000000000000000002000020
:104E90000000000000000000000000000000000012
:104EA0000000000000000000000000000000000002
:104EB00000000000000000000000000000000000F2
:104EC00000000000000000000000000000000000E2
:1052200079CE739CE739CE739CE739CE739CE7390E
:10523000CE739CE739CE739CE739CE739CE739CEA9
:10524000739CE739CE739CE739CE739CE739CE70F7
:10525000000000000000000000000000000000004E
:10526000000000000000000000000000000000003E
:10527000000000000000000000000000000000002E
:10528000000000000000000000000000000000001E
:1055800000007910820FF800000000000000000009
:10559000000000000000000000000000000000000B
:1055A0000000000000000000020294000000000063
:1055B00000004120440808000183C3C3C00000006C
:1055C00000000000000000000000000000000000DB
:1055D00000000000000000000200A40000780000AD
:1055E00000005161FF0FF80007866664600000004C
:1055F00000000000000000000000000000000000AB
:1056000000000000000000000203F7C0008C000052
:1056100000005140100808000084242020000000F1
:10562000000000000000000000000000000000007A
:105630000000000000000000020080800004000064
:1056400000005101FF00000400842420200000001D
:10565000000000000000000000000000000000004A
:1056600000000000000000000603E8808004000045
:10567000000057F8103FFE04008424204000000082
:10568000000000000000000000000000000000001A
:1056900000000000000000000506940080080000E3
:1056A00000004141FF04000000842420C0000000ED
:1056B00000000000000000000000000000000000EA
:1056C00000000000000000000501050000180000B7
:1056D00000004140100000000084242180000000F0
:1056E00000000000000000000000000000000000BA
:1056F00000000000000000000887E3000030000008
:10570000000031201007F80000842423000000006E
:105710000000000000000000000000000000000089
:10572000000000000000000018822200006000005D
:1057300000002917FFC0080400864646000000004C
:105740000000000000000000000000000000000059
:1057500000000000000000001041C70080C00000F1
:10576000000045481000080407E3C3C7E00000003C
:105770000000000000000000000000000000000029
:1057800000000000000000006021ED8080FC0000AF
:10579000000081001001F000000000000000000087
:1057A00000000000000000000000000000000000F9
:1057B0000000000000000000C01E104000000000BB
:1057C00000000000000000000000000000000000D9
:1057D00000000000000000000000000000000000C9
:1057E00000000000000000000000000000000000B9
:1057F00000000000000000000000000000000000A9
:105A60000000000000000000000000003C3C183C6A
:105A700000F0F00183C00000001818078780F1F8DB
:105A80000000000000000000000000000000000016
:105A9000000000000000000000000000466678469C
:105AA00001991807846000000078780888808008D1
:105AB00000000000000000000000000000000000E6
:105AC0000000000000000000000000000242080288
:105AD00001080800802000000008080088408010AD
:105AE00000000000000000000000000000000000B6
:105AF0000000000000000000000000000242080258
:105B00000108080080200000000808408848801034
:105B10000000000000000000000000000000000085
:105B20000000000000000000000000000442080423
:105B300001081000804000000008084708C8F02055
:105B40000000000000000000000000000000000055
:105B50000000000000000000000000000C42080CE3
:105B60000108300080C000000008080087401820AD
:105B70000000000000000000000000000000000025
:105B8000000000000000000000000000184208189B
:105B9000790861E08180000000080800404008208A
:105BA00000000000000000000000000000000000F5
:105BB000000000000000000000000000304208303B
:105BC0000108C000830000000008080040400840B1
:105BD00000000000000000000000000000000000C5
:105BE0000000000000000000000000006064086089
:105BF000019180008600000000080848808910405C
:105C00000000000000000000000000000000000094
:105C10000000000000000000000000007E3C7E7ECE
:105C200000F1F807E7E00000007E7E470F08E08003
:105C30000000000000000000000000000000000064
:105C40000000000000000000000000000000000054
:105C50000000000000000000000000000000000044
:105C60000000000000000000000000000000000034
:1060300079E79E79E79E79E79E79E79E79E79E79F1
:10604000E79E79E79E79E79E79E79E79E79E79E773
:106050009E79E79E79E79E79E79E79E79E79E780CA
:106060000000000000000000000000000000000030
:106070000000000000000000000000000000000020
:106080000000000000000000000000000000000010
:106090000000000000000000000000000000000000
:106390000000001000840000000000000000000069
:1063A00000000000000000000000000000000000ED
:1063B00000000000000000000000000000000000DD
:1063C0000000001FE10201FF80000000000000004B
:1063D00000000000000000000000000000000000BD
:1063E00000000000000000000000000000000000AD
:1063F0000000001001030100800000000000000008
:10640000000000000000000000000000000000008C
:10641000000000000000000000000000000000007C
:10642000000003FFC17FE100800003C1800F0F0067
:10643000000000000000000000000000000000005C
:10644000000000000000000000000000000000004C
:1064500000000200420001FF80180207800811803E
:10646000000000000000000000000000000000002C
:10647000000000000000000000000000000000001C
:10648000000003FFC2204100801802008008008045
:1064900000000000000000000000000000000000FC
:1064A00000000000000000000000000000000000EC
:1064B000000002004620400000000200800800802A
:1064C00000000000000000000000000000000000CC
:1064D00000000000000000000000000000000000BC
:1064E000000003FFC610CFFFF00003C0800F0100C3
:1064F000000000000000000000000000000000009C
:10650000000000000000000000000000000000008B
:10651000000000100A1080800000006080018300ED
:10652000000000000000000000000000000000006B
:10653000000000000000000000000000000000005B
:1065400000000010021081000000002087808600FB
:10655000000000000000000000000000000000003B
:10656000000000000000000000000000000000002B
:10657000000007FFF20901FFC000002080008C002E
:10658000000000000000000000000000000000000B
:1065900000000000000000000000000000000000FB
:1065A0000000007402090000C018044080111800A7
:1065B00000000000000000000000000000000000DB
:1065C00000000000000000000000000000000000CB
:1065D000000001938201000080180387E00E1F80F5
:1065E00000000000000000000000000000000000AB
:1065F000000000000000000000000000000000009B
:1066000000000E10727FF03F8000000000000000CC
:10661000000000000000000000000000000000007A
:10662000000000000000000000000000000000006A
:106630000000001002000000000000000000000048
:10664000000000000000000000000000000000004A
:10665000000000000000000000000000000000003A
:10666000000000000000000000000000000000002A
:10667000000000000000000000000000000000001A
:1068D0000000000000810100E00000000000000056
:1068E00000000000000000000000000000000000A8
:1068F0000000000000000000000000000000000098
:10690000000007FFE081021F81FF87DFC000000059
:10691000E0003C000000000000000000000000005B
:106920000000000000000000000000000000000067
:1069300000000081004202D101008100400003817B
:1069400010E0460000000000000000000000000011
:106950000000000000000000000000000000000037
:106960000000008103FFC4910100810840000483FE
:106970001920C60000000000000000000000000018
:106980000000000000000000000000000000000007
:10699000000000810210441101FF810840180082AC
:1069A0000820C600000000000000000000000000F9
:1069B00000000000000000000000000000000000D7
:1069C0000000008103FFCF110100820840180082FF
:1069D000082064000000000000000000000000002B
:1069E00000000000000000000000000000000000A7
:1069F000000000810210421FE00007C880000082F2
:106A00000820380000000000000000000000000026
:106A10000000000000000000000000000000000076
:106A200000000FFFF21044110FFFF64FE00000824C
:106A300008206C00000000000000000000000000C2
:106A40000000000000000000000000000000000046
:106A50000000008103FFC79100800E4020000082EB
:106A60000820C60000000000000000000000000038
:106A70000000000000000000000000000000000016
:106A8000000000810210401101000240200000823D
:106A9000082082000000000000000000000000004C
:106AA00000000000000000000000000000000000E6
:106AB00000000081001000D111FFC25FA000008320
:106AC000182082000000000000000000000000000C
:106AD00000000000000000000000000000000000B6
:106AE000000000810FFFF3169000C24020180081C3
:106AF0001020C600000000000000000000000000A0
:106B00000000000000000000000000000000000085
:106B10000000010100100438A00083C0201807F015
:106B2000E1FC7C000000000000000000000000000C
:106B30000000000000000000000000000000000055
:106B40000000020100100020603F8243C0000000EE
:106B50000000000000000000000000000000000035
:106B60000000000000000000000000000000000025
:106B70000000040100100000000000000000000000
:106B80000000000000000000000000000000000005
:106B900000000000000000000000000000000000F5
:106BA00000000000000000000000000000000000E5
:106BB00000000000000000000000000000000000D5
:106DE00000000000000500840102080408000400FF
:106DF0000010000000000000000000000000000083
:106E00000000000000000000000000000000000082
:106E100000000F3FCF048FFFE08406FFC67F843F52
:106E200087FFC07E01E00E070000000000000000A8
:106E3000000000000600E0700000000000000000FC
:106E400038000924497FE0840FFFC20402030FA029
:106E50008400018300301108800000000000000061
:106E6000000000000E01108800000000000000007B
:106E70004800092449040FFFC02000FFC00C08206F
:106E80008400030080303198C00000000000000042
:106E9000000000000A03198C000000000000000040
:106EA00008000924497FC80047FF88040860103F94
:106EB00084FF823E4010209040000000000000004F
:106EC00000000000120209040000000000000000A1
:106ED0000800093FC9444BFF40200DFFECFFDF24B1
:106EE000848C0444403020904000000000000000EA
:106EF0000000000012020904000000000000000071
:106F000008000924494442010060060002124404BA
:106F1000048404C4402020904000000000000000D1
:106F20000000000022020904000000000000000030
:106F300008000924497FC3FF0FFFC07FC022447FA0
:106F4000C4840484406020904000000000000000E1
:106F500000000000420209040000000000000000E0
:106F6000080009244944420100CC064044245F44FF
:106F700044FFC48440C02090400000000000000096
:106F800000000000420209040000000000000000B0
:106F90000800093FC94440000387047FC444444EAD
:106FA00044840484418020904000000000000000E0
:106FB00000000000FF820904000000000000000043
:106FC00008000F244F7FC7FF8C84E44044C8445915
:106FD000448404CCC3003198C000000000000000CD
:106FE000000000000203198C0000000000000000F7
:106FF00008000904094444008084047FCC9845704B
:10700000C894267386031108800000000000000069
:1070100000000000023110880000000000000000A5
:107020007F0000040044440081840C4049308740C4
:1070300048E2220007F30E070000000000000000F5
:10704000000000000230E0700000000000000000BE
:10705000000000040045C7FF83040840C86784435C
:10706000C8D14182000000000000000000000000C4
:107070000000000000000000000000000000000010
:1070800000000000000004008404084780000000A5
:107090001004C07C000000000000000000000000A0
:1070A00000000000000000000000000000000000E0
:1070B00000000000000000000000000000000000D0
:1070C00000000000000000000000000000000000C0
:1070D00000000000000000000000000000000000B0
:1072F0000000000000050000020100000000000086
:10730000000000000000000000000000000000007D
:10731000000000000000000000000000000000006D
:107320001E000F3FCF0484FFC211007E01C00E0774
:10733000000000000000000000000000000000004D
:10734000000000000F00E0700000000000000000DE
:1073500003000924497FE28042490183002011088B
:10736000800000000000000000000000000000009D
:107370000000000010011088000000000000000064
:1073800003000924490402844A85030080203198BF
:10739000C00000000000000000000000000000002D
:1073A000000000002003198C000000000000000015
:1073B00001000924497FC09F4E81023E4020209059
:1073C000400000000000000000000000000000007D
:1073D000000000006002090400000000000000003E
:1073E0000300093FC9445C8442110444406020907A
:1073F000400000000000000000000000000000004D
:10740000000000004002090400000000000000002D
:1074100002000924494444FFDFD904C4438020907A
:10742000400000000000000000000000000000001C
:10743000000000005E0209040000000000000000DF
:1074400006000924497FC4804205048440602090DE
:1074500040000000000000000000000000000000EC
:1074600000000000630209040000000000000000AA
:107470000C0009244944449F470104844030209073
:1074800040000000000000000000000000000000BC
:10749000000000004102090400000000000000009C
:1074A0001800093FC94445914681E484403020904A
:1074B000400000000000000000000000000000008C
:1074C000000000004102090400000000000000006C
:1074D00030000F244F7FC69F4A7F04CCC0303198C4
:1074E000C0000000000000000000000000000000DC
:1074F000000000006103198C000000000000000083
:1075000060000904094444904A0106738423110869
:1075100080000000000000000000000000000000EB
:10752000000000002331108800000000000000006F
:107530007F000004004441005201020003C30E0713
:10754000000000000000000000000000000000003B
:10755000000000001E30E07000000000000000008D
:10756000000000040045C303C201018200000000C6
:10757000000000000000000000000000000000000B
:1075800000000000000000000000000000000000FB
:1075900000000000000000000201007C000000006C
:1075A00000000000000000000000000000000000DB
:1075B00000000000000000000000000000000000CB
:1075C00000000000000000000000000000000000BB
:1075D00000000000000000000000000000000000AB
:1078000000000208020480000000000000000000E8
:107810000000000000000000000000000000000068
:107820000000000000000000000000000000000058
:107830001E000208027D00F00FC01E01C0E0000023
:107840000000000000000000000000000000000038
:10785000000000000F007038000000000000000071
:1078600003000FBF020A430830602002211000000D
:107870000000000000000000000000000000000008
:107880000000003801808844000000000000000073
:10789000030002090FD1C600601040063318000033
:1078A00000000000000000000000000000000000D8
:1078B0000000004801818CC60000000000000000AC
:1078C000010003B906218C0047C8C004120800005B
:1078D00000000000000000000000000000000000A8
:1078E0000000000800810482000000000000000089
:1078F00003000631067FCC0088888004120800004F
:107900000000000000000000000000000000000077
:107910000000000801810482000000000000000057
:1079200002000A1D278068009888BC041208000025
:107930000000000000000000000000000000000047
:1079400000000008010104820000000000000000A7
:10795000060002252F7F88009088C60412080000C8
:107960000000000000000000000000000000000017
:107970000000000803010482000000000000000075
:107980000C000260AE40880090888204120800005B
:1079900000000000000000000000000000000000E7
:1079A0000000000806010482000000000000000042
:1079B00018000EC0C2408C0090888204120800009B
:1079C00000000000000000000000000000000000B7
:1079D000000000080C01048200000000000000000C
:1079E00030000000027F84009998C206331800001E
:1079F0000000000000000000000000000000000087
:107A00000000000818018CC6000000000000000003
:107A10006000048882210308CE70466221100000B5
:107A20000000000000000000000000000000000056
:107A3000000000083018884400000000000000002A
:107A40007F00048C821A01F040003C61C0E000001D
:107A50000000000000000000000000000000000026
:107A60000000007F3F987038000000000000000018
:107A70000000084442FFE000304000000000000029
:107A800000000000000000000000000000000000F6
:107A900000000000000000000000000000000000E6
:107AA00000000844020000000F80000000000000F9
:107AB00000000000000000000000000000000000C6
:107AC00000000000000000000000000000000000B6
:107AD00000000000000000000000000000000000A6
:107AE0000000000000000000000000000000000096
:107D100000000102001000200080000000000000B0
:107D20000000000000000000000000000000000053
:107D30000000000000000000000000000000000043
:107D4000000001820010002000EFC00000000000D1
:107D50000000000000000000000000000000000023
:107D60000000001C0F007038000000000000000040
:107D7000380000840FFF8FFFC488800000000000DF
:107D800000000000000000000000000000000000F3
:107D90000000000201808844000000000000000094
:107DA00048000FFFC82080840FC58000000000003D
:107DB00000000000000000000000000000000000C3
:107DC0000000000201818CC60000000000000000DD
:107DD00008000010087883FF18470000000000002A
:107DE0000000000000000000000000000000000093
:107DF000000000020081048200000000000000007A
:107E00000800001008C69D00E7BC800000000000CC
:107E10000000000000000000000000000000000062
:107E20000000000601810482000000000000000044
:107E3000080007FF891381FF06484000000000008A
:107E40000000000000000000000000000000000032
:107E50000000003801010482000000000000000062
:107E6000080000100820810009B600000000000092
:107E70000000000000000000000000000000000002
:107E80000000000603010482000000000000000062
:107E900008000010083081FF07FF8000000000008C
:107EA00000000000000000000000000000000000D2
:107EB0000000000306010482000000000000000032
:107EC00008000FFFE8488100190260000000000070
:107ED00000000000000000000000000000000000A2
:107EE000000000030C0104820000000000000000FC
:107EF0000800001008868FFFC1FE0000000000008F
:107F00000000000000000000000000000000000071
:107F10000000000318018CC60000000000000000F3
:107F2000080000100B028080010200000000000029
:107F30000000000000000000000000000000000041
:107F400000000042301888440000000000000000DB
:107F50007F0000100800830201FF80000000000085
:107F60000000000000000000000000000000000011
:107F70000000003C3F987038000000000000000046
:107F800000000010080787FF010E0000000000003D
:107F900000000000000000000000000000000000E1
:107FA00000000000000000000000000000000000D1
:107FB000000000100000000083E1C000000000008D
:107FC00000000000000000000000000000000000B1
:107FD00000000000000000000000000000000000A1
:107FE0000000000000000000000000000000000091
:107FF0000000000000000000000000000000000081
:10822000000000100010000000000000000000002E
:10823000000000000000000000000000000000003E
:10824000000000000000000000000000000000002E
:1082500000000310001000000000000000000000FB
:10826000000000000000000000000000000000000E
:10827000000000000F007038000000000000000047
:10828000380002100FFF8000000000000000000016
:1082900000000000000000000000000000000000DE
:1082A0000000003811808844000000000000000039
:1082B000480003FF8820800000000000000000004C
:1082C00000000000000000000000000000000000AE
:1082D0000000004831818CC6000000000000000052
:1082E0000800041008788000000000000000000072
:1082F000000000000000000000000000000000007E
:10830000000000083181048200000000000000002D
:1083100008000C1008C680000000000000000000EB
:10832000000000000000000000000000000000004D
:108330000000000819010482000000000000000095
:108340000800081009138000000000000000000071
:10835000000000000000000000000000000000001D
:10836000000000080E010482000000000000000070
:10837000080000100820800000000000000000003D
:1083800000000000000000000000000000000000ED
:10839000000000081B010482000000000000000033
:1083A00008000FFFE830800000000000000000001F
:1083B00000000000000000000000000000000000BD
:1083C000000000083181048200000000000000006D
:1083D00008000010084880000000000000000000B5
:1083E000000000000000000000000000000000008D
:1083F000000000082081048200000000000000004E
:108400000800001008868000000000000000000046
:10841000000000000000000000000000000000005C
:108420000000000820818CC6000000000000000051
:10843000080000100B028000000000000000000097
:10844000000000000000000000000000000000002C
:10845000000000083198884400000000000000007F
:108460007F000010080080000000000000000000F5
:1084700000000000000000000000000000000000FC
:108480000000007F1F18703800000000000000008E
:10849000000000100807800000000000000000003D
:1084A00000000000000000000000000000000000CC
:1084B00000000000000000000000000000000000BC
:1084C000000000100000000000000000000000009C
:1084D000000000000000000000000000000000009C
:1084E000000000000000000000000000000000008C
:1084F000000000000000000000000000000000007C
:10850000000000000000000000000000000000006B
:1087300000000000000010400000000200000000E7
:108740000000000000000000000000000000000029
:108750000000000000000000000000000000000019
:1087600000000000000010207FFE06020000000054
:1087700000000000000000000000000000000000F9
:1087800000000000000000000000000000000000E9
:108790000000000000001010010004FFFC000000B9
:1087A00000000000000000000000000000000000C9
:1087B00000000000000000000000000000000000B9
:1087C00000000000000013FE02000408400000004A
:1087D0000000000000000000000000000000000099
:1087E0000000000000000000000000000000000089
:1087F0000000000000007C007FFE0C3FF000000045
:108800000000000000000000000000000000000068
:108810000000000000000000000000000000000058
:108820000000000000001104442209D00E000000E6
:108830000000000000000000000000000000000038
:108840000000000000000000000000000000000028
:10885000000000000000110C4422181FF00000006E
:108860000000000000000000000000000000000008
:1088700000000000000000000000000000000000F8
:10888000000000000000148847E210100000000003
:1088900000000000000000000000000000000000D8
:1088A00000000000000000000000000000000000C8
:1088B00000000000000038884422101FF000000073
:1088C00000000000000000000000000000000000A8
:1088D0000000000000000000000000000000000098
:1088E000000000000000D08844223010000000008A
:1088F0000000000000000000000000000000000078
:108900000000000000000000000000000000000067
:10891000000000000000109047E220FFFC00000073
:108920000000000000000000000000000000000047
:108930000000000000000000000000000000000037
:1089400000000000000010D0442260080000000079
:108950000000000000000000000000000000000017
:108960000000000000000000000000000000000007
:1089700000000000000010104422403020000000E1
:1089800000000000000000000000000000000000E7
:1089900000000000000000000000000000000000D7
:1089A00000000000000017FF7FFEC07FF000000005
:1089B00000000000000000000000000000000000B7
:1089C00000000000000000000000000000000000A7
:1089D000000000000000600040028000080000006D
:1089E0000000000000000000000000000000000087
:1089F0000000000000000000000000000000000077
