:020000040800F2
:10000000C0130020010100086504000899030008DE
:10001000610400088D010008790F0008000000004D
:10002000000000000000000000000000B30600080F
:10003000ED01000800000000F10400089907000825
:10004000890F00081B0100081B0100081B010008A4
:100050001B0100081B0100081B0100081B01000810
:100060001B0100081B0100081B0100081B01000800
:100070001B0100081B0100081B0100081B010008F0
:100080001B0100081B0100081B0100081B010008E0
:100090001B0100081B0100081B0100081B010008D0
:1000A0001B0100081B0100081B0100081B010008C0
:1000B000310800081B0100081B0100081B01000893
:1000C0001B0100081B0100081B0100081B010008A0
:1000D0001B010008790B00081B0100081B01000828
:1000E0001B0100081B0100081B010008DFF80CD0F1
:1000F00000F02EF800480047C9140008C013002083
:100100000648804706480047FEE7FEE7FEE7FEE7B1
:10011000FEE7FEE7FEE7FEE7FEE7FEE7D1070008A1
:10012000ED00000830B50B460146002020220124D6
:1001300009E021FA02F59D4205D303FA02F5491BB5
:1001400004FA02F52844151EA2F10102F1DC30BDCB
:10015000064C074D06E0E06840F0010394E8070014
:1001600098471034AC42F6D3FFF7C4FF7023000861
:100170009023000810B501F009FA10BD10B501F088
:1001800075F801F033FE01F05BFB10BD00BFFEE728
:10019000014609B90B487047012901D10020FAE74F
:1001A000022901D10020F6E7032901D10020F2E75E
:1001B000042901D10020EEE7052901D10020EAE75A
:1001C0000020E8E79400002008B54FF4E06000F05C
:1001D00085F925208DF8000000208DF8020001200F
:1001E0008DF80300684600F03FF908BD70472DE91F
:1001F000F0410246002500260020002300240027AD
:1002000091F803C00CF00F0591F803C01CF0100F1B
:1002100003D091F802C04CEA050591F800C0BCF18A
:10022000000F31D0146800202BE04FF0010C0CFAC5
:1002300000F3B1F800C00CEA03069E4220D183000F
:100240004FF00F0C0CFA03F7BC4305FA03FC4CEA21
:10025000040491F803C0BCF1280F06D14FF0010C43
:100260000CFA00FCC2F814C00AE091F803C0BCF11B
:10027000480F05D14FF0010C0CFA00FCC2F810C079
:10028000401C0828D1D31460B1F800C0BCF1FF0FA6
:1002900034DD546800202EE000F1080C4FF0010816
:1002A00008FA0CF3B1F800C00CEA03069E4221D113
:1002B00083004FF00F0C0CFA03F7BC4305FA03FC64
:1002C0004CEA040491F803C0BCF1280F05D100F1F9
:1002D000080C08FA0CF8C2F8148091F803C0BCF1BD
:1002E000480F07D100F1080C4FF0010808FA0CF88C
:1002F000C2F81080401C0828CED35460BDE8F081BD
:10030000F0B50A46002300240021002500F0004635
:10031000B6F1004F02D11D4EF16901E01B4E71682C
:10032000C0F3034583B200F44016B6F5401F08D170
:1003300021F07061154E766826F07066134F7E606E
:1003400012E000F48016B6F5801F06D1032606FAE7
:1003500005F4A14341F0706106E0460D360103FA51
:1003600006F6B14341F0706122B1460D360103FA41
:1003700006F6314300F00046B6F1004F02D1034EBD
:10038000F16101E0014E7160F0BD0000000001402C
:10039000416170470161704700BFFEE74AF6AA203D
:1003A00001490860704700000030004000B585B08A
:1003B0000121042000F0BEF80121880300F0BAF802
:1003C00018208DF813004FF40070ADF810000320D2
:1003D0008DF8120004A91848FFF709FF04208DF8D2
:1003E00013000002ADF8100004A91348FFF7FFFE48
:1003F0004FF4E13000900020ADF80400ADF80600A5
:10040000ADF80800ADF80C000C20ADF80A00694604
:100410000A4800F04DFC012240F22551074800F047
:1004200022FC0121054800F0DBFB4021034800F0DD
:10043000CEFB05B000BD00000008014000380140BF
:100440000448806810F0400F01D10120704700205F
:10045000FCE700000010014010B5FFF79FFF10BD42
:1004600000BFFEE77047000070B5002100230F2297
:10047000C4780CB3164C246804F4E064C4F5E0645A
:10048000210AC1F10403CA40447804FA03F18478D4
:100490001440214309010F4C0678A155047804F05B
:1004A0001F050124AC4005786D114FF0E02606EBE6
:1004B0008505C5F8004109E0047804F01F05012412
:1004C000AC40054D0678761145F8264070BD000019
:1004D0000CED00E000E400E080E100E002490143AF
:1004E000024A1160704700000000FA050CED00E0C0
:1004F0007047000029B1064AD2690243044BDA6111
:1005000004E0034AD2698243014BDA61704700007C
:100510000010024029B1064A12690243044B1A61D5
:1005200004E0034A12698243014B1A6170470000DC
:100530000010024029B1064A92690243044B9A61B5
:1005400004E0034A92698243014B9A6170470000BC
:100550000010024029B1064AD2680243044BDA6017
:1005600004E0034AD2688243014BDA60704700001E
:100570000010024030B500210022002400232D4D40
:100580006D6805F00C0121B1042905D0082923D19B
:1005900005E0294D056022E0274D05601FE0254D4F
:1005A0006D6805F47012234D6D6805F480340225E2
:1005B00005EB92421CB9214D554305600BE01D4DE2
:1005C0006D6815F4003F03D01C4D5543056002E0F3
:1005D000194D5543056002E0174D056000BF00BF8F
:1005E000144D6D6805F0F0010909154D6B5C056847
:1005F000DD4045600F4D6D6805F4E061090A104D5E
:100600006B5C4568DD4085600A4D6D6805F460519E
:10061000C90A0B4D6B5C4568DD40C560054D6D68D2
:1006200005F44041890B074D6B5CC568B5FBF3F5DC
:10063000056130BD0010024000127A0000093D0043
:10064000000000201000002021B1028842F040028A
:10065000028004E002884FF6BF731A4002807047A0
:100660000246002013890B4201D0012000E0002047
:1006700070478181704710B50022028802F4415210
:100680000B884C8823438C882343CC8823430C89D4
:1006900023434C8923438C892343CC8923431A4326
:1006A0000280838B4FF2FF74234083830B8A038283
:1006B00010BD704710B500F001F810BD0CB500205A
:1006C000019000903248006840F480303049086062
:1006D00000BF2F48006800F4003000900198401CD3
:1006E0000190009818B90198B0F5A06FF1D1284891
:1006F000006810F4003F02D00120009001E00020CB
:1007000000900098012842D12248006840F0100073
:10071000204908600846006820F003000860084689
:10072000006840F0020008601948406818494860B5
:100730000846406848600846406840F48060486069
:100740000846406820F47C1048600846406840F441
:10075000E81048600846006840F08070086000BFFC
:100760000B48006810F0007FFAD00948406820F07C
:100770000300074948600846406840F002004860AE
:1007800000BF0348406800F00C000828F9D10CBDF8
:10079000001002400020024010B500F001F810BD2A
:1007A00008480068401C074908600748006840B1D5
:1007B00005480068401E0449086002D10120034931
:1007C00008707047380000203C00002040000020E6
:1007D00010B51348006840F0010011490860084650
:1007E0004068104908400E494860084600680E49B4
:1007F00008400B4908600846006820F48020086023
:100800000846406820F4FE0048604FF41F008860EE
:10081000FFF750FF4FF000600449086010BD000072
:10082000001002400000FFF8FFFFF6FE08ED00E0B8
:1008300010B500F001F810BD10B50121880700F0D7
:1008400029F9D0B10121880700F021F800214FF0EB
:10085000804000F01FF808200849087000BF4FF4DE
:1008600040710748FFF796FD00BF09200349087053
:1008700004480078801C0349087010BD8E000020D9
:100880000010014078000020CA4302827047CA432A
:100890000282704721B1028842F00102028004E026
:1008A00002884FF6FE731A400280704710B5044666
:1008B0006848844208D10121C014FFF74BFE002193
:1008C000E014FFF747FEC4E0B4F1804F08D10121E6
:1008D0000846FFF71FFE00210120FFF71BFEB8E0CE
:1008E0005D48844208D101210220FFF713FE002158
:1008F0000220FFF70FFEACE05848844208D10121E6
:100900000420FFF707FE00210420FFF703FEA0E00C
:100910005348844208D101210820FFF7FBFD002144
:100920000820FFF7F7FD94E04E48844208D10121EA
:100930001020FFF7EFFD00211020FFF7EBFD88E00E
:100940004948844208D101212020FFF7E3FD00211E
:100950002020FFF7DFFD7CE04448844208D10121DC
:100960004014FFF7F7FD00216014FFF7F3FD70E07E
:100970003F48844209D10121C804FFF7EBFD002163
:100980004FF40020FFF7E6FD63E03A48844209D1C6
:1009900001210805FFF7DEFD00214FF48010FFF76D
:1009A000D9FD56E03448844209D101214805FFF7BA
:1009B000D1FD00214FF40010FFF7CCFD49E02F4896
:1009C000844208D101214020FFF7A4FD00214020EE
:1009D000FFF7A0FD3DE02A48844208D10121802094
:1009E000FFF798FD00218020FFF794FD31E02548B6
:1009F000844208D101218015FFF78CFD0021A0154C
:100A0000FFF788FD25E02048844209D10121080430
:100A1000FFF7A0FD00214FF48030FFF79BFD18E0A9
:100A20001A48844209D101214804FFF793FD0021AF
:100A30004FF40030FFF78EFD0BE01548844208D1DB
:100A400001218804FFF786FD00214FF48020FFF785
:100A500081FD10BD002C0140000400400008004052
:100A6000000C004000100040001400400034014021
:100A7000004C01400050014000540140001800406B
:100A8000001C0040002000400040014000440140A4
:100A90000048014030B50246002000230024158A9A
:100AA00005EA0103958905EA010413B10CB101209F
:100AB00000E0002030BD1AB183890B43838102E03E
:100AC00083898B438381704701894FF6F872114007
:100AD00001817047002202881D4B98420ED01D4BA9
:100AE00098420BD0B0F1804F08D01B4B984205D0F4
:100AF0001A4B984202D01A4B984204D14FF68F738A
:100B00001A404B881A43174B984207D0164B98420D
:100B100004D04FF6FF431A40CB881A4302808B88DB
:100B200083850B8803850A4B98420BD0094B98426A
:100B300008D00E4B984205D00D4B984202D00D4B79
:100B4000984201D10B7A038601238382704700000B
:100B5000002C014000340140000400400008004027
:100B6000000C004000100040001400400040014014
:100B7000004401400048014010B5024800F032F93D
:100B800010BD00009400002070B505460E465521AA
:100B9000002000F06DFC002412E0285D552805D0EF
:100BA000285DAA2802D0285DFF2803D1FF2100205C
:100BB00000F05EFC295D002000F05AFC601C84B24D
:100BC000B442EADBAA21002000F052FC70BD01F41F
:100BD0000072B2F5007F00D100BFCA4302807047A7
:100BE00021B1828942F40052828104E082894DF66B
:100BF000FF731A408281704702460020B1F5007FE2
:100C000000D100BF13880B4201D0012000E000207A
:100C1000704770B502460024002300250020A1F58E
:100C200010666A3E00D100BFC1F3421501F01F03F8
:100C3000012606FA03F3012D02D19689334006E01E
:100C4000022D02D1168A334001E0968A33400C12FD
:100C5000012606FA04F41688344013B10CB10120C1
:100C600000E0002070BDF0B50346002400260025FA
:100C70000020A1F510676A3F00D100BF1846C1F3FC
:100C8000421401F01F06012707FA06F5012C01D1D5
:100C90000C3004E0022C01D1103000E014301AB105
:100CA00007682F43076002E00768AF430760F0BDA5
:100CB0002DE9F04786B005460E460024A24600BF47
:100CC000A1460027B08900B100BF2F462C8A4CF600
:100CD000FF700440F08804432C82AC894EF6F31078
:100CE0000440B08831890843718908430443AC81CA
:100CF000AC8A4FF6FF400440B0890443AC8201A89F
:100D0000FFF738FC1F48874202D1DDF810A001E050
:100D1000DDF80CA0A88910F4004F08D00AEBCA0037
:100D200000EB0A1031684900B0FBF1F807E00AEB6C
:100D3000CA0000EB0A1031688900B0FBF1F86420AA
:100D4000B8FBF0F004012009642101FB1089A88997
:100D500010F4004F08D0322000EBC900B0FBF1F0D6
:100D600000F00700044308E0322000EB0910642182
:100D7000B0FBF1F000F00F0004432C8106B0BDE899
:100D8000F08700000038014001468888C0F3080061
:100D90007047C1F308028280704770B504460D4663
:100DA000012000F0B6F9668B002000F0B2F90EB910
:100DB000002070BD218BA068405C2870012000F0ED
:100DC000A8F9208B401C80B22083E189884201DB96
:100DD00000202083608B401E6083002000F099F982
:100DE0000120E6E710B5044640F225512068FFF7E0
:100DF00010FFE0B12068FFF7C7FFE28AA1688854BE
:100E0000E08A401C80B2E082E189884201DB002058
:100E1000E082608BE189884202DA608B401C60834B
:100E2000608B012803D1606A08B1606A804740F294
:100E300027712068FFF7EDFE08B3A08A60B9002291
:100E400040F227712068FFF70EFF012240F2266171
:100E50002068FFF708FF37E0638A6268D15C20688A
:100E6000FFF797FF608A401C80B26082A1898842A8
:100E700001DB00206082A08A401EA08224E040F2B4
:100E800026612068FFF7C5FEF0B1A08A50B90022A4
:100E900040F226612068FFF7E6FE206AA0B1206AD2
:100EA000804711E0638A6268D15C2068FFF771FFB8
:100EB000608A401C80B26082A189884201DB0020E8
:100EC0006082A08A401EA08210BD2DE9F041044638
:100ED0000E461746002527E00CE0012000F019F926
:100EE000B4F81480002000F014F9A089404500DD1A
:100EF00001E000BFF1E700BF705D228A616888549D
:100F0000012000F006F9208A401C80B22082A189CD
:100F1000884201DB00202082A08A401CA0820020A1
:100F200000F0F7F8681C85B2BD42D5DB012240F223
:100F300027712068FFF797FEBDE8F0810A480B494A
:100F400008600B4848600B4888604FF480608881D7
:100F5000C881002008824882C8820883488388822A
:100F6000C861086248627047003801409400002060
:100F7000BC000020BC04002000BFFEE700200149A7
:100F800008607047082C004010B500F00FF810BD45
:100F900000F07F01014A116070470000002C004002
:100FA00010B57F20FFF7F4FF10BD000010B5FFF76C
:100FB000E5FF03A000F08EF8FFF7F2FF10BD000080
:100FC0000D0A777764672074696D656F75742021E9
:100FD0000D0A000070B5322600240025012080F3A0
:100FE000108800BF3648006836490860002080F34A
:100FF000108800BF34480078002860D0334800686B
:10100000096888425BD0314800682E4909688842E7
:1010100027D22C4800682D490968441A29480068DD
:101020002A49086000212A480068221849416B1E9D
:1010300000209A1A884104D2012500202449086022
:1010400038E0234800682044322804D901250020D4
:101050001F4908602EE01E48006820441C490860B3
:1010600028E018480068401E18490968441A1548C5
:101070000068164908600021154800682318494196
:101080004FF0FF320020D21A884104D201250020FF
:101090000F4908600EE00E4800682044322804D949
:1010A000012500200A49086004E00948006820443E
:1010B00007490860012D02D10025FFF771FF70BDBF
:1010C0003800002028000020340000202C000020E0
:1010D000300000200FB4054B10B503A9044A029854
:1010E00000F01AF810BC5DF814FB00008114000831
:1010F0009000002002E008C8121F08C1002AFAD19F
:1011000070477047002001E001C1121F002AFBD187
:10111000704780F3108870472DE9FF4F89B09B46D8
:101120000446002597E0252833D10027641C4E494A
:10113000B84601222378203B02FA03F0084202D08D
:101140000743641CF6E720782E2819D114F8010F04
:1011500047F004072A280ED06FF02F022078A0F164
:10116000300109290CD808EB880102EB410100EBA2
:101170000108641CF2E70A98641C50F8048B0A907A
:10118000207800286BD0642808D0692806D07528FC
:1011900020D05A460B9990476D1C5BE00A994FF09E
:1011A0000A0901C90A91002804DAC0F100004FF0D1
:1011B0002D0102E0390504D52B218DF820100121E5
:1011C00003E0F90704D02021F7E78A4608AE0EE0D5
:1011D0000021FAE70A994FF00A0901C90A91F7E7D5
:1011E0004946FEF79FFF01F1300106F8011D002876
:1011F000F6D1ADEB060000F12009780701D44FF0DD
:101200000108C84502DDA8EB090000E00020804687
:10121000002706E008A85A46C05D0B9990476D1C50
:101220007F1C5745F6DB04E030205A460B99904767
:101230006D1CB8F10001A8F10108F5DC05E016F815
:10124000010B5A460B9990476D1CB9F10001A9F1A9
:101250000109F4DC641C207800287FF464AF0DB031
:101260002846BDE8F08F000009280100012080F326
:10127000108800BF0D4800680D490860002080F309
:10128000108800BF0B480068096888420DD00848E4
:1012900000680849086008480068401C0649086062
:1012A000B0F57A7F01D30020086070473800002035
:1012B00064000020680000206C000020F0B50346A8
:1012C00000224FF0E02675690F4E36680F4FB6FBCF
:1012D000F7F606FB03F400BF4FF0E026B16910E01B
:1012E0004FF0E026B06988420BD0884202D20E1A35
:1012F000324402E02E1A0E4432440146A24200D388
:1013000000E0EDE700BFF0BD1400002040420F00F8
:1013100010B5FFF75FFEFFF79FF810BD10B500F0A6
:1013200041F803A0FFF7D6FE00F00CF810BD000056
:101330000D0A73797374656D207374617274202162
:101340000D0A000030B5144800684FF47A72B0FB03
:10135000F2F1B1F1807F00D31DE021F07F40401E0B
:101360004FF0E022506150170F22002807DA1307D0
:101370001D0E0A4B00F00F04241F1D5503E0130738
:101380001C0E074B1C5400BF00204FF0E022906160
:101390000720106100BF30BD1400002018ED00E0F0
:1013A00000E400E010B5FFF7C9FDFEF7FFFFFEF710
:1013B0000BFF10BD70B504460D462946204600F0CF
:1013C00071F820B1012812D0FF2826D115E00020A5
:1013D0001349087020204870A07840F08000887081
:1013E0000120C87004210E48FFF7CEFB16E0E81E6E
:1013F00081B2E01C00F072F810E00020084908708B
:1014000020204870A07840F0800088700020C870CC
:1014100004210348FFF7B8FB00E000BF00BF70BD28
:10142000A40C002070B505460E462846FEF7B0FE17
:1014300004460CB9002070BD31462046FFF7ADFCD4
:10144000F9E72DE9F04105460E4617462846FEF716
:101450009FFE04460CB9BDE8F081E06908B1E0697F
:1014600080473A4631462046FFF72FFD00BFF2E79E
:1014700013B50446012201A92046FFF7E2FF1CBD77
:1014800070B504460D46E1B20548FFF782FC00BF87
:1014900040210348FFF7B0FB0028F9D0204670BD7B
:1014A0000038014010B502465078147840EA042311
:1014B000981C814206D19078112801D1012010BDDD
:1014C0000020FCE7FF20FAE7FFF728FFFEF752FEB7
:1014D00003E0FFF71DFFFEF751FEFAE770B5044683
:1014E0000D462078102802D011283DD128E0022D89
:1014F00018D1607810B900F08BFA20E060780128EC
:1015000002D100F045FB1AE000201F4908700220BC
:101510004870912088702120C87004211A48FFF774
:1015200033FB0CE00020184908700220487091201D
:1015300088701120C87004211348FFF725FB21E0B3
:10154000022D03D1601C00F0E3FA0CE000200E49EC
:10155000087002204870912088701120C870042102
:101560000948FFF711FB0DE0002007490870022031
:101570004870912088701020C87004210248FFF73D
:1015800003FB00BF00BF70BDA40C002030B58BB0C2
:1015900001210420FEF7CEFF00BF4FF48071A14867
:1015A000FEF7F6FE00BF10208DF82B0003208DF80B
:1015B0002A004FF48070ADF828000AA99948FEF778
:1015C00016FE01211020FEF7B5FF00BF4FF40061A9
:1015D0009548FEF7DDFE00BF10208DF82B0003209C
:1015E0008DF82A004FF40060ADF828000AA98E4853
:1015F000FEF7FDFD01210846FEF79CFF01210820B2
:10160000FEF798FF01218948FEF77AFE00BF1021FE
:101610008748FEF7BDFE20218548FEF7B9FE4FF44E
:1016200080718348FEF7B4FE4FF400718048FEF7E6
:10163000AFFE00BF4FF44C70ADF8280003208DF8CA
:101640002A0010208DF82B000AA97948FEF7CFFD5B
:1016500000BF4FF480717348FEF79CFE00BF00BFCF
:101660004FF400617048FEF795FE00BF0121102085
:10167000FEF760FF48208DF82B0003208DF82A002C
:101680004020ADF828000AA96748FEF7B0FD012107
:101690001020FEF74FFF00BF4FF440716248FEF785
:1016A00079FE00BF10208DF82B0003208DF82A0052
:1016B0000002ADF828000AA95B48FEF798FD012159
:1016C0001020FEF737FF00BF80215748FEF762FE6B
:1016D00000BF10208DF82B0003208DF82A008020F9
:1016E000ADF828000AA95048FEF781FD0121082025
:1016F000FEF720FF01218803FEF7FCFE4FF4204097
:10170000ADF8280003208DF82A0018208DF82B0052
:101710000AA94748FEF76BFD0020ADF814004FF40E
:101720008270ADF816000020ADF81800ADF81A0070
:10173000ADF81C004FF40070ADF81E001020ADF89D
:1017400020000020ADF822000720ADF8240005A9F4
:101750003848FEF790FF01213648FEF775FF01215A
:101760000846FEF7C7FE4FF08040FFF79FF84FF0A6
:101770008040FFF7A9F91D20ADF8080040F60F6082
:10178000ADF804000020ADF80A00ADF8060001A98C
:101790004FF08040FFF79EF94FF4C060FEF79EFEC9
:1017A0001C208DF8100001208DF8110000208DF80C
:1017B000120001208DF8130004A8FEF755FE012148
:1017C0008807FFF761F8012211469007FFF773F9C8
:1017D00000251FE0002419E0E11704EB5171C91046
:1017E000B4EBC10108D1FF2005EB051101EB451158
:1017F000114A1144085507E0002005EB051101EBE3
:1018000045110D4A11440855601CC4B2312CE3DB6C
:10181000681CC5B2102DDDDB0020084908700BB034
:1018200030BD0000000801400010014000023000FF
:10183000000C014000380040AE0C00208E0000205B
:1018400070B5022600240025012080F3108800BF17
:101850006548006865490860002080F3108800BF73
:1018600063480068096888426FD0614800685F4932
:101870000968884227D25D4800685D490968441AB2
:101880005A4800685A49086000215A4800682218DE
:1018900049416B1E00209A1A884104D2012500207C
:1018A0005449086038E0534800682044022804D9AD
:1018B000012500204F4908602EE04E480068204472
:1018C0004C49086028E049480068401E48490968BA
:1018D000441A4648006846490860002145480068A7
:1018E000221849414FF0FF3300209A1A884104D250
:1018F000012500203F4908600EE03E480068204472
:10190000022804D9012500203A49086004E039483A
:101910000068204437490860012D63D10025FEF797
:101920008FFD40B3344800780B281DD2DFE800F06B
:1019300006071C0B0C0E0F101112160015E00120EB
:1019400000F052F911E010E00FE04BE00DE00CE088
:101950000BE00AE0092000F047F906E000202649E4
:10196000087000F055F800E000BF00BF41F2883079
:101970002249088036E021480088401C80B21F4977
:10198000088041F2883188422CDB00201B49088006
:101990001B49087000BF4FF440711A48FEF7FAFC6B
:1019A00000BF00BF10211848FEF7F2FC20211648A6
:1019B000FEF7EEFC4FF480711348FEF7E9FC4FF49C
:1019C00000711148FEF7E4FC00BF00200F490870C9
:1019D00002204870912088703020C87004210B4884
:1019E000FFF7D2F870BD0000380000208000002012
:1019F00084000020880000208E0000208C00002041
:101A00007800002000100140000C0140A40C0020D0
:101A100010B52248007888BB00241AE020490978D4
:101A200001EB41011F4A02EB01102246302100F078
:101A300041F800BF80211C48FEF7AAFC00BF00BF90
:101A400080211948FEF7A6FC00BF00F09FF9601C3A
:101A5000C4B2022CE2DB12480078401CC0B210492C
:101A60000870182801DB0020087009200B49087055
:101A70000E480078801C0D4908700DE0FFE700203B
:101A80000B49087002204870912088702020C8708F
:101A900004210748FFF778F810BD00008E000020F1
:101AA0007D000020F01E000800100140780000209A
:101AB000A40C002070B504460E4615461FE000BF7A
:101AC00002211248FEF7CCFD0028F9D03DB914F8E8
:101AD000012B02F0AA010D48FEF7CBFD08E0012D15
:101AE00006D114F8012B02F055010848FEF7C1FD9C
:101AF00000BF80210548FEF7B3FD0128F9D0300072
:101B0000A6F10101CEB2DAD170BD0000003800406C
:101B100010B504461B48007828BB2078FF280DD15B
:101B200000201949087002204870912088702120F7
:101B3000C87004211448FFF727F821E020781349E2
:101B4000097808441149087001200E4908700020E6
:101B50000D490870012048701120887003210A483F
:101B6000FFF712F80CE000200749087002204870C7
:101B7000912088702020C87004210348FFF704F8E2
:101B800010BD00008E000020A40C00207800002072
:101B900010B51248007898B911480078801C104997
:101BA000087009200D49087000200E4908700120B6
:101BB00048701120887003210A48FEF7E5FF0CE009
:101BC0000020084908700220487091208870202069
:101BD000C87004210348FEF7D7FF10BD8E00002017
:101BE00078000020A40C002010B50446624800785C
:101BF000002875D02020614908805F480078401E89
:101C00005D4908705E48007830B101281DD0022877
:101C100034D0032865D14AE000BF00BF10215948E5
:101C2000FEF7B8FB20215748FEF7B2FB00BF00BF0C
:101C30004FF480715348FEF7ADFB4FF400715148EB
:101C4000FEF7A6FB00BF00BF4CE000BF00BF1021A5
:101C50004C48FEF79FFB20214A48FEF799FB00BF46
:101C600000BF4FF480714748FEF792FB4FF40071BC
:101C70004448FEF78FFB00BF00BF33E000BF00BF4A
:101C800010214048FEF784FB20213E48FEF782FBEE
:101C900000BF00BF4FF480713A48FEF779FB4FF464
:101CA00000713848FEF776FB00BF00BF1AE000BFA6
:101CB00000BF10213348FEF76BFB20213148FEF7AF
:101CC00069FB00BF00BF4FF480712E48FEF762FB36
:101CD0004FF400712B48FEF75BFB00BF00BF01E033
:101CE0000CE000BF00BF26480078401CC0B2244969
:101CF000087004283EDB002008703BE0012C1FD157
:101D00001E48008828B11D480088401E1B490880D5
:101D100030E000201C49087000BF10211948FEF770
:101D200037FB20211748FEF733FB4FF4807115482D
:101D3000FEF72EFB4FF400711248FEF729FB19E065
:101D4000092C03D10A201049087013E000BF1021AC
:101D50000C48FEF71DFB20210A48FEF719FB4FF443
:101D600080710848FEF714FB4FF400710548FEF738
:101D70000FFB00BF10BD0000780000207A0000209B
:101D80007C000020000C01408E00002010B50720D0
:101D90001449087000BF4FF400711348FEF7F8FAB9
:101DA00000BF41F28830FFF789FA00BF4FF400719D
:101DB0000D48FEF7EFFA00BF00BF4FF480710A48EC
:101DC000FEF7E6FA00BF41F28830FFF777FA00BF6E
:101DD0004FF480710448FEF7DDFA00BF0820014986
:101DE000087010BD8E0000200010014008B5694643
:101DF0000020FFF717FB68B939480088002805DD87
:101E000037480088401E3649088066E00020354982
:101E1000087062E03248008868B93248007850B9EA
:101E20009DF80000552806D100202F490880012088
:101E30002C4908704EE02B480078012828D19DF8E5
:101E40000000FF2803D102202649087042E09DF8D7
:101E50000000552803D10020224908703AE09DF87F
:101E60000000AA2808D103201E4908701E480188D6
:101E70001E48FFF79FFA2DE09DF800001B491A4A03
:101E80001288885418480088401C1749088021E0AF
:101E90001448007802281DD19DF80000FF2807D0C3
:101EA0009DF80000552803D09DF80000AA280ED107
:101EB0009DF800000D490C4A128888540A48008891
:101EC000401C0949088001200649087002E00020F2
:101ED00004490870322002490880002008BD000033
:101EE000700000207400002072000020BC08002058
:101EF00000000000000000000000000000000000E2
:101F000000000000000000000000000000000000D1
:101F100000000000000000000000000000000000C1
:101F200000000000000000000000000000000000B1
:101F300000000000000000000000000000000000A1
:101F40000000000000000000000000000000000091
:101F50000000000000000000000000000000000081
:101F60000000000000000000000000000000000071
:101F70000000000000000000000000000000000061
:101F80000000000000000000000000000000000051
:101F90000000000000000000000000000000000041
:101FA0000000000000000000000000000000000031
:101FB0000E600380110C3000018000000E1C307098
:101FC000070000000C2000000000000000000000DE
:101FD000000000000300200060C0006030CC000062
:101FE0000E60018039087F7E03C03FFC789C307012
:101FF00007007DFE0E707FFE000000000000000064
:1020000000000001FFFE37FC60E0036030CC000000
:102010000E62FFFF2D586C6607E0300C18FC33FE93
:10202000FFFF6D860C30000607071DFDF7F81F0146
:10203000F87E1E000000760C67FC1BFDB1CFFE0091
:102040000E6E00006D5F4C660E703FFC185CFC70FD
:102050000C006D8618180006070F1DFDF7FC3F8366
:10206000F8FE3F803FF0660DF3183261B19F030028
:102070007E7C3FFCCD52FFE61C38300C181C3070C3
:102080001C0069FE381CFFF6038F1DC0E71E71C7D8
:1020900009C223803030C7FC63386061B397030006
:1020A0000E78300C1FF61E66781C3FFCFF9C3070CB
:1020B0001FFC7986300C0006038F99C0E70EE0E71D
:1020C00001C003803030960C67FC67FFB3B7030094
:1020D0000E70300C30363B7E6FF6018038FC33FEDC
:1020E000380C798661060006039F99C0E70EE0E789
:1020F00081E003803FF03E0CF40CC061B7A7F18093
:102100000E60300C77DE73000180FFFF3C5C3C0EFC
:10211000780C798643823FC60199B9F8E71EE0E35F
:10212000F0FC0700000037FCF4CCC061B3870180ED
:102130000E603FFC701E7FFC018000003E1CF10C15
:102140007FFC6DFE030030C60199B9F8E7FCE0E3BF
:10215000F8FE0F00FFFC6000E8C0C3FDB1870180FE
:102160000E600180B7CC300C01803FFC7E1C318CAE
:10217000580C6DE2070030C601F9F1C0E7F0E0E06D
:102180007C1F1E00C00CEFFDEFFEC365B187018010
:102190000E60119036CC300C3FFC300C783F30D8BC
:1021A000180C6DB70E0030C601F9F1C0E700E0E091
:1021B0001C071C00CFECE019E300C365B187F18078
:1021C0003E62199834FC3FFC01803FFCDBDC30F0C0
:1021D0001FFC6DBE0E2030C600F0F1C0E70071C4D8
:1021E0001D073000C86C6FFF63FCC365B1870180B9
:1021F000CE67318C34FE300C01800180581C30F8E1
:10220000180C799C1C783FC600F0E1FDF7003F8771
:10221000F9FE7F80C86C6618630CC3643187018047
:102220000E6761863CF2300C01800990181C31DC8D
:10223000180C61FC383C300600F0E1FDF7001F0788
:10224000F1FC7F80CFEC6318670C636C318703006F
:102250000E66418238823FFC7FFE318C181C338E23
:10226000180C63EE3FFE000E0000000000000000AE
:1022700000000000C80C62186E18637C31870300F0
:102280000E7E07000000300C00004782181C66021A
:10229000187C63820004007C000000000000000045
:1022A00000000000C07860F07CF83060E187030037
:1022B000000000000000000000000000000000001E
:1022C000000000000000000000000000000000000E
:1022D00000000000000000000000180000000600E0
:1022E00000000000000000000000000000000000EE
:1022F00000000000000000000000000000000000DE
:1023000000000000000000000000000000000000CD
:1023100000000000000000000000000000000000BD
:1023200000000000000000000000000000000000AD
:10233000000000000000000000000000000000009D
:10234000000000000000000000000000000000008D
:10235000000000000000000000000000000000007D
:10236000000000000000000000000000000000006D
:10237000902300080000002094000000F4100008E2
:1023800024240008940000202C13000004110008ED
:10239000000000000102030401020304060708090B
:1023A0000204060800A24A04000000000000000029
:1023B00001020304060708090000000000000000F5
:1023C000000000000000000000000000000000000D
:1023D00000000000000000000000000000000000FD
:1023E000000000000000000000000000E803000002
:1023F00000000000000000000000000000000000DD
:1024000000000000000000000000000000000000CC
:1024100000000000000000000000000000000000BC
:0424200000000000B8
:04000005080000ED02
:00000001FF
