:020000040800F2
:10000000B0100020010100086D0400086D03000815
:100010006904000861010008490D000800000000A3
:10002000000000000000000000000000CD060008F5
:10003000C101000800000000F9040008B50700082D
:10004000750D00081B0100081B0100081B010008BA
:100050001B0100081B0100081B0100081B01000810
:100060001B0100081B0100081B0100081B01000800
:100070001B0100081B0100081B0100081B010008F0
:100080001B0100081B0100081B0100081B010008E0
:100090001B0100081B0100081B0100081B010008D0
:1000A0001B0100081B0100081B0100081B010008C0
:1000B0004D0800081B0100081B0100081B01000877
:1000C0001B0100081B0100081B0100081B010008A0
:1000D0001B010008610900081B0100081B01000842
:1000E0001B0100081B0100081B010008DFF80CD0F1
:1000F00000F018F80048004761110008B010002017
:100100000648804706480047FEE7FEE7FEE7FEE7B1
:10011000FEE7FEE7FEE7FEE7FEE7FEE7ED07000885
:10012000ED000008064C074D06E0E06840F00103D2
:1001300094E8070098471034AC42F6D3FFF7DAFF93
:100140003C1800085C18000810B501F03FF810BD1D
:1001500010B500F0D9FE01F0EFFA01F05BF910BD27
:1001600000BFFEE7014609B90B487047012901D1DC
:100170000020FAE7022901D10020F6E7032901D186
:100180000020F2E7042901D10020EEE7052901D182
:100190000020EAE70020E8E79000002008B54FF4CF
:1001A000E06000F09FF925208DF8000000208DF818
:1001B000020001208DF80300684600F059F908BDDF
:1001C00070472DE9F041024600250026002000235B
:1001D0000024002791F803C00CF00F0591F803C02C
:1001E0001CF0100F03D091F802C04CEA050591F8FD
:1001F00000C0BCF1000F31D0146800202BE04FF09C
:10020000010C0CFA00F3B1F800C00CEA03069E42A0
:1002100020D183004FF00F0C0CFA03F7BC4305FA12
:1002200003FC4CEA040491F803C0BCF1280F06D18A
:100230004FF0010C0CFA00FCC2F814C00AE091F86F
:1002400003C0BCF1480F05D14FF0010C0CFA00FCC3
:10025000C2F810C0401C0828D1D31460B1F800C007
:10026000BCF1FF0F34DD546800202EE000F1080CD3
:100270004FF0010808FA0CF3B1F800C00CEA0306CD
:100280009E4221D183004FF00F0C0CFA03F7BC43C0
:1002900005FA03FC4CEA040491F803C0BCF1280FF2
:1002A00005D100F1080C08FA0CF8C2F8148091F896
:1002B00003C0BCF1480F07D100F1080C4FF0010852
:1002C00008FA0CF8C2F81080401C0828CED35460FD
:1002D000BDE8F081F0B50A46002300240021002586
:1002E00000F00046B6F1004F02D11D4EF16901E069
:1002F0001B4E7168C0F3034583B200F44016B6F597
:10030000401F08D121F07061154E766826F07066A6
:10031000134F7E6012E000F48016B6F5801F06D100
:10032000032606FA05F4A14341F0706106E0460D8C
:10033000360103FA06F6B14341F0706122B1460D71
:10034000360103FA06F6314300F00046B6F1004FDD
:1003500002D1034EF16101E0014E7160F0BD000079
:1003600000000140416170470161704700BFFEE736
:100370004CF6CC4001490860704700000030004056
:100380004AF6AA200149086070470000003000408A
:100390000149486070470000003000400149886012
:1003A00070470000003000400149086070470000BD
:1003B0000030004000B585B00121042000F0BEF8F7
:1003C0000121880300F0BAF818208DF813004FF4CB
:1003D0000070ADF8100003208DF8120004A9184831
:1003E000FFF7EFFE04208DF813000002ADF81000B7
:1003F00004A91348FFF7E5FE4FF4E1300090002018
:10040000ADF80400ADF80600ADF80800ADF80C003A
:100410000C20ADF80A0069460A4800F031FB0122C1
:1004200040F22551074800F005FB0121054800F086
:10043000CBFA4021034800F0BEFA05B000BD000031
:1004400000080140003801400448806810F0400F67
:1004500001D1012070470020FCE70000001001409E
:1004600010B5FFF78DFF10BD00BFFEE7704700001D
:1004700070B5002100230F22C4780CB3164C2468F9
:1004800004F4E064C4F5E064210AC1F10403CA4045
:10049000447804FA03F184781440214309010F4C95
:1004A0000678A155047804F01F050124AC400578B6
:1004B0006D114FF0E02606EB8505C5F8004109E017
:1004C000047804F01F050124AC40054D0678761130
:1004D00045F8264070BD00000CED00E000E400E0AF
:1004E00080E100E002490143024A116070470000C8
:1004F0000000FA050CED00E07047000029B1064A43
:10050000D2690243044BDA6104E0034AD2698243B0
:10051000014BDA61704700000010024029B1064A21
:1005200012690243044B1A6104E0034A12698243D0
:10053000014B1A61704700000010024029B1064AC1
:1005400092690243044B9A6104E0034A9269824330
:10055000014B9A61704700000010024030B5002145
:100560000022002400232D4D6D6805F00C0121B1FF
:10057000042905D0082923D105E0294D056022E092
:10058000274D05601FE0254D6D6805F47012234D61
:100590006D6805F48034022505EB92421CB9214DAB
:1005A000554305600BE01D4D6D6815F4003F03D009
:1005B0001C4D5543056002E0194D5543056002E0AE
:1005C000174D056000BF00BF144D6D6805F0F001C8
:1005D0000909154D6B5C0568DD4045600F4D6D6880
:1005E00005F4E061090A104D6B5C4568DD408560EB
:1005F0000A4D6D6805F46051C90A0B4D6B5C456886
:10060000DD40C560054D6D6805F44041890B074D1F
:100610006B5CC568B5FBF3F5056130BD00100240A9
:1006200000127A0000093D000000002010000020A8
:1006300010B501460022002300204A11012A02D1F0
:10064000094C236806E0022A02D1074C236A01E024
:10065000054C636A01F01F02012494401C4201D042
:10066000012000E0002010BD001002400149086098
:10067000704700008004424221B1028842F04002EB
:10068000028004E002884FF6BF731A400280704770
:1006900010B50022028802F441520B884C88234393
:1006A0008C882343CC8823430C8923434C892343E0
:1006B0008C892343CC8923431A430280838B4FF2D6
:1006C000FF74234083830B8A038210BD704710B5EB
:1006D00000F002F810BD00000CB500200190009061
:1006E0003248006840F480303049086000BF2F482D
:1006F000006800F4003000900198401C01900098C0
:1007000018B90198B0F5A06FF1D12848006810F42D
:10071000003F02D00120009001E0002000900098EE
:10072000012842D12248006840F0100020490860AA
:100730000846006820F0030008600846006840F0A2
:100740000200086019484068184948600846406837
:1007500048600846406840F4806048600846406849
:1007600020F47C1048600846406840F4E810486077
:100770000846006840F08070086000BF0B480068C1
:1007800010F0007FFAD00948406820F003000749C4
:1007900048600846406840F00200486000BF0348D7
:1007A000406800F00C000828F9D10CBD0010024090
:1007B0000020024010B500F001F810BD08480068A4
:1007C000401C074908600748006840B105480068B8
:1007D000401E0449086002D1012003490870704797
:1007E000380000203C0000204000002010B51348D5
:1007F000006840F00100114908600846406810494F
:1008000008400E494860084600680E4908400B49F8
:1008100008600846006820F48020086008464068A8
:1008200020F4FE0048604FF41F008860FFF74FFF80
:100830004FF000600449086010BD00000010024045
:100840000000FFF8FFFFF6FE08ED00E010B500F035
:1008500001F810BD10B50121880700F015F818B196
:100860000121880700F001F810BDCA4302827047D9
:1008700021B1028842F00102028004E002884FF6B2
:10088000FE731A400280704730B5024600200023F4
:100890000024158A05EA0103958905EA010413B1CC
:1008A0000CB1012000E0002030BD1AB183890B4358
:1008B000838102E083898B43838170470022028811
:1008C0001D4B98420ED01D4B98420BD0B0F1804F7B
:1008D00008D01B4B984205D01A4B984202D01A4BB5
:1008E000984204D14FF68F731A404B881A43174B26
:1008F000984207D0164B984204D04FF6FF431A4057
:10090000CB881A4302808B8883850B8803850A4B2A
:1009100098420BD0094B984208D00E4B984205D014
:100920000D4B984202D00D4B984201D10B7A0386B1
:100930000123838270470000002C014000340140F5
:100940000004004000080040000C0040001000407F
:1009500000140040004001400044014000480140B4
:1009600010B5024800F026F910BD000090000020EC
:1009700070B505460E465521002000F0D7FB002437
:1009800012E0285D552805D0285DAA2802D0285DF0
:10099000FF2803D1FF21002000F0C8FB295D0020C3
:1009A00000F0C4FB601C84B2B442EADBAA21002040
:1009B00000F0BCFB70BD01F40072B2F5007F00D105
:1009C00000BFCA430280704721B1828942F40052BD
:1009D000828104E082894DF6FF731A40828170475C
:1009E00070B502460024002300250020A1F5106602
:1009F0006A3E00D100BFC1F3421501F01F0301267A
:100A000006FA03F3012D02D19689334006E0022D48
:100A100002D1168A334001E0968A33400C12012637
:100A200006FA04F41688344013B10CB1012000E03A
:100A3000002070BDF0B503460024002600250020EC
:100A4000A1F510676A3F00D100BF1846C1F34214F8
:100A500001F01F06012707FA06F5012C01D10C3021
:100A600004E0022C01D1103000E014301AB1076804
:100A70002F43076002E00768AF430760F0BD000046
:100A80002DE9F04786B005460E460024A24600BF79
:100A9000A1460027B08900B100BF2F462C8A4CF632
:100AA000FF700440F08804432C82AC894EF6F310AA
:100AB0000440B08831890843718908430443AC81FC
:100AC000AC8A4FF6FF400440B0890443AC8201A8D1
:100AD000FFF744FD1F48874202D1DDF810A001E076
:100AE000DDF80CA0A88910F4004F08D00AEBCA006A
:100AF00000EB0A1031684900B0FBF1F807E00AEB9F
:100B0000CA0000EB0A1031688900B0FBF1F86420DC
:100B1000B8FBF0F004012009642101FB1089A889C9
:100B200010F4004F08D0322000EBC900B0FBF1F008
:100B300000F00700044308E0322000EB09106421B4
:100B4000B0FBF1F000F00F0004432C8106B0BDE8CB
:100B5000F08700000038014001468888C0F3080093
:100B60007047C1F308028280704770B504460D4695
:100B7000012000F0C6F9668B002000F0C2F90EB922
:100B8000002070BD218BA068405C2870012000F01F
:100B9000B8F9208B401C80B22083E189884201DBB8
:100BA00000202083608B401E6083002000F0A9F9A4
:100BB0000120E6E710B5044640F225512068FFF712
:100BC0000FFFE0B12068FFF7C7FFE28AA1688854F1
:100BD000E08A401C80B2E082E189884201DB00208B
:100BE000E082608BE189884202DA608B401C60837E
:100BF000608B012803D1606A08B1606A804740F2C7
:100C000027712068FFF7ECFE08B3A08A60B90022C4
:100C100040F227712068FFF70DFF012240F22661A4
:100C20002068FFF707FF37E0638A6268D15C2068BD
:100C3000FFF797FF608A401C80B26082A1898842DA
:100C400001DB00206082A08A401EA08224E040F2E6
:100C500026612068FFF7C4FEF0B1A08A50B90022D7
:100C600040F226612068FFF7E5FE206AA0B1206A05
:100C7000804711E0638A6268D15C2068FFF771FFEA
:100C8000608A401C80B26082A189884201DB00201A
:100C90006082A08A401EA08210BD2DE9F04104466A
:100CA0000E461746002527E00CE0012000F029F948
:100CB000B4F81480002000F024F9A089404500DD3C
:100CC00001E000BFF1E700BF705D228A61688854CF
:100CD000012000F016F9208A401C80B22082A189F0
:100CE000884201DB00202082A08A401CA0820020D4
:100CF00000F007F9681C85B2BD42D5DB012240F245
:100D000027712068FFF796FEBDE8F0810A480B497D
:100D100008600B4848600B4888604FF48060888109
:100D2000C881002008824882C8820883488388825C
:100D3000C861086248627047003801409000002096
:100D4000B8000020B804002000BFFEE700200149E1
:100D500008607047082C004040F08001014A116093
:100D600070470000002C00400120014908607047D6
:100D7000A480054210B500F02EF810BD00F07F01F0
:100D8000014A116070470000002C00400021044A15
:100D9000126822F4C0710143014A116070470000DB
:100DA000042C004008B5002100910749096821F092
:100DB0007F01009100F07F01009A11430091024AE7
:100DC0000099116008BD0000042C004010B57F2080
:100DD000FFF7D4FF10BD10B5FFF7B8FFFFF7F6FF20
:100DE00010BD000070B5322600240025012080F3DC
:100DF000108800BF3648006836490860002080F33C
:100E0000108800BF34480078002860D0334800685C
:100E1000096888425BD0314800682E4909688842D9
:100E200027D22C4800682D490968441A29480068CF
:100E30002A49086000212A480068221849416B1E8F
:100E400000209A1A884104D2012500202449086014
:100E500038E0234800682044322804D901250020C6
:100E60001F4908602EE01E48006820441C490860A5
:100E700028E018480068401E18490968441A1548B7
:100E80000068164908600021154800682318494188
:100E90004FF0FF320020D21A884104D201250020F1
:100EA0000F4908600EE00E4800682044322804D93B
:100EB000012500200A49086004E009480068204430
:100EC00007490860012D02D10025FFF77FFF70BDA3
:100ED0003800002028000020340000202C000020D2
:100EE0003000002002E008C8121F08C1002AFAD111
:100EF00070477047002001E001C1121F002AFBD19A
:100F0000704780F310887047012080F3108800BF7D
:100F10000D4800680D490860002080F3108800BF6C
:100F20000B480068096888420DD0084800680849E5
:100F3000086008480068401C06490860B0F57A7FE0
:100F400001D30020086070473800002064000020B2
:100F5000680000206C00002010B5FFF743FFFFF78A
:100F60007FFA10BD10B500F04FF800F01DF800F04A
:100F700053F810BD10B50120FFF778FB00BF6120CA
:100F8000FFF756FB0028FAD045F25550FFF70CFA50
:100F90000220FFF7FDF940F2FF70FFF7FFF9FFF7BE
:100FA000EFF9FFF7E5F910BD30B5144800684FF4CC
:100FB0007A72B0FBF2F1B1F1807F00D31DE021F035
:100FC0007F40401E4FF0E022506150170F22002852
:100FD00007DA13071D0E0A4B00F00F04241F1D55DE
:100FE00003E013071C0E074B1C5400BF00204FF0FA
:100FF000E02290610720106100BF30BD1400002086
:1010000018ED00E000E400E010B5FFF77FFEFFF709
:10101000D1F9FFF7C3F810BD10B5FFF7ABFF00F033
:1010200001F810BD08B50121C802FFF767FA0020DA
:101030008DF800000A208DF8020001208DF80300D1
:101040006846FFF715FA4FF4C070FFF79FFE502077
:10105000FFF7A8FE7F20FFF77FFEFFF777FEFFF781
:1010600083FE01200149087008BD00003400002003
:1010700070B504460D462946204600F05FF820B1C1
:10108000012812D0FF2826D115E00020134908704E
:1010900020204870A07840F0800088700120C8703F
:1010A00004210E48FFF764FC16E0E81E81B2E01C44
:1010B00000F060F810E00020084908702020487017
:1010C000A07840F0800088700020C8700421034898
:1010D000FFF74EFC00E000BF00BF70BDA00C002079
:1010E00070B505460E462846FFF73CF804460CB995
:1010F000002070BD31462046FFF737FDF9E72DE9A6
:10110000F04105460E4617462846FFF72BF80446E1
:101110000CB9BDE8F081E06908B1E06980473A4662
:1011200031462046FFF7B9FD00BFF2E713B504468C
:10113000012201A92046FFF7E2FF1CBD10B50246BF
:101140005078147840EA0423981C814206D19078A4
:10115000112801D1012010BD0020FCE7FF20FAE793
:10116000FFF700FFFEF7F0FF03E0FFF7F5FEFEF7E5
:10117000EFFFFAE770B504460D462078112813D129
:10118000022D03D1601C00F0ABFA0CE000200E49E8
:10119000087002204870912088701120C8700421C6
:1011A0000948FFF7E5FB0DE0002007490870022021
:1011B0004870912088701020C87004210248FFF701
:1011C000D7FB00BF00BF70BDA00C002000B58BB0E6
:1011D00001210420FFF7B2F94FF480718848FFF72E
:1011E000C1F810208DF82B0003208DF82A004FF451
:1011F0008070ADF828000AA98148FEF7E2FF0121BE
:101200001020FFF79BF94FF400617E48FFF7AAF822
:1012100010208DF82B0003208DF82A004FF4006079
:10122000ADF828000AA97748FEF7CBFF0121084650
:10123000FFF784F901210820FFF780F901217248A6
:10124000FFF748F800BF10217048FFF78BF8202106
:101250006E48FFF787F84FF480716C48FFF782F80B
:101260004FF400716948FFF77DF800BF4FF44C70F0
:10127000ADF8280003208DF82A0010208DF82B00EF
:101280000AA96248FEF79DFF00BF4FF480715C48D9
:10129000FFF76AF800BF00BF4FF400615948FFF73D
:1012A00063F800BF01211020FFF748F9402155489D
:1012B000FFF758F848208DF82B0003208DF82A00FE
:1012C0004020ADF828000AA94E48FEF77AFF012118
:1012D0001020FFF733F94FF440714A48FFF744F804
:1012E00010208DF82B0003208DF82A000002ADF8A5
:1012F00028000AA94348FEF764FF01211020FFF7E8
:101300001DF980213F48FFF72FF810208DF82B00A2
:1013100003208DF82A008020ADF828000AA939485A
:10132000FEF74FFF01210820FFF708F9012188038C
:10133000FFF7F4F84FF460413448FFF715F84FF425
:101340006040ADF8280003208DF82A0018208DF8A1
:101350002B000AA92D48FEF734FF0020ADF8140039
:101360004FF48270ADF816000020ADF81800ADF80B
:101370001A00ADF81C004FF40070ADF81E001020EC
:10138000ADF820000020ADF822000720ADF82400C1
:1013900005A91F48FFF77CF901211D48FFF76CF9EB
:1013A00001210846FFF7AAF84720ADF8080040F2EF
:1013B000CF70ADF804000020ADF80A00ADF80600CB
:1013C00001A94FF08040FFF779FA012241218807F7
:1013D000FFF76BFA1C208DF8100000208DF811002B
:1013E00003208DF8120001208DF8130004A8FFF7E8
:1013F0003FF801218807FFF73BFA0BB000BD000062
:10140000000801400010014000023000000C0140C3
:101410000030014070B5032600240025012080F330
:10142000108800BFA4480068A4490860002080F329
:10143000108800BFA24800680968884273D0A0489D
:1014400000689E490968884227D29C4800689C49E8
:101450000968441A99480068994908600021994828
:101460000068231849416A1E0020D21A884104D21C
:10147000012500209349086038E092480068204424
:10148000032804D9012500208E4908602EE08D48EC
:10149000006820448B49086028E088480068401EA6
:1014A00087490968441A8548006885490860002111
:1014B00084480068231849414FF0FF320020D21AB7
:1014C000884104D2012500207E4908600EE07D4855
:1014D00000682044032804D90125002079490860C8
:1014E00004E078480068204476490860012D1AD14C
:1014F0000025FEF7A9FF00287AD07348007800285D
:1015000077D01920714908806F480078401E6E49D5
:1015100008706F48007838B101281ED0022835D0F5
:10152000032868D14BE0C5E000BF00BF1021694827
:10153000FEF71AFF20216748FEF714FF00BF00BF27
:101540004FF480716348FEF70FFF4FF4007161485C
:10155000FEF708FF00BF00BF4EE000BF00BF102134
:101560005C48FEF701FF20215A48FEF7FBFE00BF52
:1015700000BF4FF480715748FEF7F4FE4FF400713E
:101580005448FEF7F1FE00BF00BF35E000BF00BFCA
:1015900010215048FEF7E6FE20214E48FEF7E4FEFB
:1015A00000BF00BF4FF480714A48FEF7DBFE4FF4E6
:1015B00000714848FEF7D8FE00BF00BF1CE000BF26
:1015C00000BF10214348FEF7CDFE20214148FEF721
:1015D000CBFE00BF00BF4FF480713E48FEF7C4FE53
:1015E0004FF400713B48FEF7BDFE00BF00BF03E0B3
:1015F00030E00DE0FFE700BF00BF35480078401C39
:10160000C0B23349087004281FDB002008701CE0BA
:101610002E48008828B12D480088401E2B4908809C
:1016200013E000BF10212B48FEF79CFE2021294823
:10163000FEF798FE4FF480712648FEF793FE4FF4B4
:1016400000712448FEF78EFE00BF41F28830224927
:1016500008802FE020480088401C80B21E49088086
:1016600041F28831884225DB00201B490880164959
:10167000087000BF10211748FEF774FE202115489E
:10168000FEF770FE4FF480711248FEF76BFE4FF4C8
:1016900000711048FEF766FE00BF00200F49087079
:1016A00002204870912088703020C87004210B48B7
:1016B000FFF75EF970BD0000380000207C000020BC
:1016C0008000002084000020780000208A00002094
:1016D00088000020000C01408C000020A00C00209D
:1016E00010B50446207810B12078FF280DD10020D5
:1016F0000F49087002204870912088702020C8701F
:1017000004210B48FFF734F910E0207809490978E3
:1017100008440849087000200549087001204870F5
:101720001120887003210248FFF722F910BD000044
:10173000A00C00207800002008B569460020FFF7C3
:10174000CFFC68B939480088002805DD3748008893
:10175000401E3649088066E000203549087062E086
:101760003248008868B93248007850B99DF80000C6
:10177000552806D100202F49088001202C490870E7
:101780004EE02B480078012828D19DF80000FF2862
:1017900003D102202649087042E09DF80000552838
:1017A00003D10020224908703AE09DF80000AA28E1
:1017B00008D103201E4908701E4801881E48FFF703
:1017C00057FC2DE09DF800001B491A4A12888854E6
:1017D00018480088401C1749088021E01448007808
:1017E00002281DD19DF80000FF2807D09DF80000B9
:1017F000552803D09DF80000AA280ED19DF80000BE
:101800000D490C4A128888540A480088401C09492E
:10181000088001200649087002E000200449087091
:10182000322002490880002008BD0000700000201E
:101830007400002072000020B80800205C18000826
:101840000000002090000000E40E0008EC180008E2
:101850009000002020100000F40E0008000000009E
:101860000102030401020304060708090204060832
:1018700000A24A040000000000000000010203046E
:10188000060708090000000000000000000000003A
:101890000000000000000000000000000000000048
:1018A0000000000000000000000000000000000038
:1018B0000000000000000000E8030000000000003D
:1018C0000000000000000000000000000000000018
:1018D0000000000000000000000000000000000008
:0C18E000000000000000000000000000FC
:04000005080000ED02
:00000001FF
