:020000040800F2
:10000000A0100020010100086D0400086D03000825
:1000100069040008610100086D0C00080000000080
:100020000000000000000000000000004D07000874
:10003000C101000800000000F904000835080008AC
:10004000990C00081B0100081B0100081B01000897
:100050001B0100081B0100081B0100081B01000810
:100060001B0100081B0100081B0100081B01000800
:100070001B0100081B0100081B0100081B010008F0
:100080001B0100081B0100081B0100081B010008E0
:100090001B0100081B0100081B0100081B010008D0
:1000A0001B0100081B0100081B0100081B010008C0
:1000B0001B0100081B0100081B0100081B010008B0
:1000C0001B0100081B0100081B0100081B010008A0
:1000D0001B010008CD0800081B0100081B010008D7
:1000E0001B0100081B0100081B010008DFF80CD0F1
:1000F00000F018F800480047E10F0008A0100020A9
:100100000648804706480047FEE7FEE7FEE7FEE7B1
:10011000FEE7FEE7FEE7FEE7FEE7FEE76D08000804
:10012000ED000008064C074D06E0E06840F00103D2
:1001300094E8070098471034AC42F6D3FFF7DAFF93
:10014000201300084013000810B500F0D7F910BDC7
:1001500010B500F06BFE01F061F800F04BFF10BD30
:1001600000BFFEE7014609B90B487047012901D1DC
:100170000020FAE7022901D10020F6E7032901D186
:100180000020F2E7042901D10020EEE7052901D182
:100190000020EAE70020E8E78C00002008B54FF4D3
:1001A000E06000F09FF925208DF8000000208DF818
:1001B000020001208DF80300684600F059F908BDDF
:1001C00070472DE9F041024600250026002000235B
:1001D0000024002791F803C00CF00F0591F803C02C
:1001E0001CF0100F03D091F802C04CEA050591F8FD
:1001F00000C0BCF1000F31D0146800202BE04FF09C
:10020000010C0CFA00F3B1F800C00CEA03069E42A0
:1002100020D183004FF00F0C0CFA03F7BC4305FA12
:1002200003FC4CEA040491F803C0BCF1280F06D18A
:100230004FF0010C0CFA00FCC2F814C00AE091F86F
:1002400003C0BCF1480F05D14FF0010C0CFA00FCC3
:10025000C2F810C0401C0828D1D31460B1F800C007
:10026000BCF1FF0F34DD546800202EE000F1080CD3
:100270004FF0010808FA0CF3B1F800C00CEA0306CD
:100280009E4221D183004FF00F0C0CFA03F7BC43C0
:1002900005FA03FC4CEA040491F803C0BCF1280FF2
:1002A00005D100F1080C08FA0CF8C2F8148091F896
:1002B00003C0BCF1480F07D100F1080C4FF0010852
:1002C00008FA0CF8C2F81080401C0828CED35460FD
:1002D000BDE8F081F0B50A46002300240021002586
:1002E00000F00046B6F1004F02D11D4EF16901E069
:1002F0001B4E7168C0F3034583B200F44016B6F597
:10030000401F08D121F07061154E766826F07066A6
:10031000134F7E6012E000F48016B6F5801F06D100
:10032000032606FA05F4A14341F0706106E0460D8C
:10033000360103FA06F6B14341F0706122B1460D71
:10034000360103FA06F6314300F00046B6F1004FDD
:1003500002D1034EF16101E0014E7160F0BD000079
:1003600000000140416170470161704700BFFEE736
:100370004CF6CC4001490860704700000030004056
:100380004AF6AA200149086070470000003000408A
:100390000149486070470000003000400149886012
:1003A00070470000003000400149086070470000BD
:1003B0000030004000B585B00121042000F028F98C
:1003C0000121880300F024F918208DF813004FF460
:1003D0000070ADF8100003208DF8120004A9184831
:1003E000FFF7EFFE04208DF813000002ADF81000B7
:1003F00004A91348FFF7E5FE4FF4E1300090002018
:10040000ADF80400ADF80600ADF80800ADF80C003A
:100410000C20ADF80A0069460A4800F0C3FA012230
:1004200040F22551074800F098FA0121054800F0F4
:100430005EFA4021034800F051FA05B000BD00000B
:1004400000080140003801400448806810F0400F67
:1004500001D1012070470020FCE70000001001409E
:1004600010B5FFF78DFF10BD00BFFEE7704700001D
:1004700070B5002100230F22C4780CB3164C2468F9
:1004800004F4E064C4F5E064210AC1F10403CA4045
:10049000447804FA03F184781440214309010F4C95
:1004A0000678A155047804F01F050124AC400578B6
:1004B0006D114FF0E02606EB8505C5F8004109E017
:1004C000047804F01F050124AC40054D0678761130
:1004D00045F8264070BD00000CED00E000E400E0AF
:1004E00080E100E002490143024A116070470000C8
:1004F0000000FA050CED00E07047000008B501218E
:10050000042000F085F84FF480713548FFF72AFF8A
:1005100010208DF8030003208DF802004FF4807046
:10052000ADF8000069462E48FFF74BFE0121102070
:1005300000F06EF84FF400612A48FFF713FF102017
:100540008DF8030003208DF802004FF40060ADF831
:10055000000069462348FFF734FE0121084600F0F9
:1005600057F80121082000F053F801211E48FFF739
:10057000B1FE4FF44C711D48FFF7F4FE4FF44C7080
:10058000ADF8000003208DF8020010208DF8030064
:1005900069461648FFF715FE00BF4FF480711048FA
:1005A000FFF7E2FE00BF00BF4FF400610D48FFF708
:1005B000DBFE00BF0121102000F02AF8402109488D
:1005C000FFF7D0FE48208DF8030003208DF80200CD
:1005D0004020ADF8000069460248FFF7F2FD08BD73
:1005E000000801400010014000023000000C0140F2
:1005F00029B1064AD2690243044BDA6104E0034A96
:10060000D2698243014BDA6170470000001002405A
:1006100029B1064A92690243044B9A6104E0034AF5
:1006200092698243014B9A617047000000100240BA
:1006300030B500210022002400232D4D6D6805F007
:100640000C0121B1042905D0082923D105E0294D49
:10065000056022E0274D05601FE0254D6D6805F41B
:100660007012234D6D6805F48034022505EB92422B
:100670001CB9214D554305600BE01D4D6D6815F407
:10068000003F03D01C4D5543056002E0194D554312
:10069000056002E0174D056000BF00BF144D6D6896
:1006A00005F0F0010909154D6B5C0568DD404560FA
:1006B0000F4D6D6805F4E061090A104D6B5C4568EB
:1006C000DD4085600A4D6D6805F46051C90A0B4D27
:1006D0006B5C4568DD40C560054D6D6805F44041C3
:1006E000890B074D6B5CC568B5FBF3F5056130BD43
:1006F0000010024000127A0000093D0000000020B6
:100700001000002010B501460022002300204A11ED
:10071000012A02D1094C236806E0022A02D1074CC3
:10072000236A01E0054C636A01F01F020124944032
:100730001C4201D0012000E0002010BD001002404A
:10074000014908607047000080044242704710B5BC
:1007500000F002F810BD00000CB5002001900090E0
:100760003248006840F480303049086000BF2F48AC
:10077000006800F4003000900198401C019000983F
:1007800018B90198B0F5A06FF1D12848006810F4AD
:10079000003F02D00120009001E00020009000986E
:1007A000012842D12248006840F01000204908602A
:1007B0000846006820F0030008600846006840F022
:1007C00002000860194840681849486008464068B7
:1007D00048600846406840F48060486008464068C9
:1007E00020F47C1048600846406840F4E8104860F7
:1007F0000846006840F08070086000BF0B48006841
:1008000010F0007FFAD00948406820F00300074943
:1008100048600846406840F00200486000BF034856
:10082000406800F00C000828F9D10CBD001002400F
:100830000020024010B500F001F810BD0848006823
:10084000401C074908600748006840B10548006837
:10085000401E0449086002D1012003490870704716
:10086000380000203C0000204000002010B5134854
:10087000006840F0010011490860084640681049CE
:1008800008400E494860084600680E4908400B4978
:1008900008600846006820F4802008600846406828
:1008A00020F4FE0048604FF41F008860FFF74FFF00
:1008B0004FF000600449086010BD000000100240C5
:1008C0000000FFF8FFFFF6FE08ED00E010B502485B
:1008D00000F002F910BD00008C00002001F400724D
:1008E000B2F5007F00D100BFCA430280704721B13A
:1008F000828942F40052828104E082894DF6FF73BE
:100900001A408281704770B50246002400230025FA
:100910000020A1F510666A3E00D100BFC1F3421568
:1009200001F01F03012606FA03F3012D02D1968977
:10093000334006E0022D02D1168A334001E0968A48
:1009400033400C12012606FA04F41688344013B121
:100950000CB1012000E0002070BDF0B5034600247A
:10096000002600250020A1F510676A3F00D100BFD6
:100970001846C1F3421401F01F06012707FA06F5D5
:10098000012C01D10C3004E0022C01D1103000E028
:1009900014301AB107682F43076002E00768AF43BD
:1009A0000760F0BD2DE9F04786B005460E460024ED
:1009B000A24600BFA1460027B08900B100BF2F4664
:1009C0002C8A4CF6FF700440F08804432C82AC89DA
:1009D0004EF6F3100440B08831890843718908430A
:1009E0000443AC81AC8A4FF6FF400440B089044315
:1009F000AC8201A8FFF71CFE1F48874202D1DDF838
:100A000010A001E0DDF80CA0A88910F4004F08D078
:100A10000AEBCA0000EB0A1031684900B0FBF1F89C
:100A200007E00AEBCA0000EB0A1031688900B0FB4E
:100A3000F1F86420B8FBF0F004012009642101FB07
:100A40001089A88910F4004F08D0322000EBC900AB
:100A5000B0FBF1F000F00700044308E0322000EBA7
:100A600009106421B0FBF1F000F00F0004432C8169
:100A700006B0BDE8F08700000038014001468888D4
:100A8000C0F308007047C1F308028280704770B558
:100A900004460D46012000F0C6F9668B002000F0E8
:100AA000C2F90EB9002070BD218BA068405C28708F
:100AB000012000F0B8F9208B401C80B22083E1892E
:100AC000884201DB00202083608B401E6083002071
:100AD00000F0A9F90120E6E710B5044640F22551DF
:100AE0002068FFF710FFE0B12068FFF7C7FFE28A38
:100AF000A1688854E08A401C80B2E082E189884283
:100B000001DB0020E082608BE189884202DA608BA1
:100B1000401C6083608B012803D1606A08B1606A61
:100B2000804740F227712068FFF7EDFE08B3A08AE6
:100B300060B9002240F227712068FFF70EFF012202
:100B400040F226612068FFF708FF37E0638A626899
:100B5000D15C2068FFF797FF608A401C80B26082FA
:100B6000A189884201DB00206082A08A401EA08209
:100B700024E040F226612068FFF7C5FEF0B1A08AAC
:100B800050B9002240F226612068FFF7E6FE206A95
:100B9000A0B1206A804711E0638A6268D15C206856
:100BA000FFF771FF608A401C80B26082A189884291
:100BB00001DB00206082A08A401EA08210BD2DE9CA
:100BC000F04104460E461746002527E00CE00120C0
:100BD00000F029F9B4F81480002000F024F9A0896D
:100BE000404500DD01E000BFF1E700BF705D228AF3
:100BF00061688854012000F016F9208A401C80B2F8
:100C00002082A189884201DB00202082A08A401C2A
:100C1000A082002000F007F9681C85B2BD42D5DB38
:100C2000012240F227712068FFF797FEBDE8F081AE
:100C30000A480B4908600B4848600B4888604FF42D
:100C400080608881C881002008824882C882088329
:100C500048838882C8610862486270470038014052
:100C60008C000020B4000020B404002000BFFEE788
:100C70000020014908607047082C004040F08001C6
:100C8000014A116070470000002C0040012001491A
:100C900008607047A480054210B500F02EF810BD22
:100CA00000F07F01014A116070470000002C0040F5
:100CB0000021044A126822F4C0710143014A116004
:100CC00070470000042C004008B50021009107493E
:100CD000096821F07F01009100F07F01009A114323
:100CE0000091024A0099116008BD0000042C0040E8
:100CF00010B57F20FFF7D4FF10BD10B5FFF7B8FF88
:100D0000FFF7F6FF10BD000070B532260024002565
:100D1000012080F3108800BF36480068364908601B
:100D2000002080F3108800BF34480078002860D08D
:100D300033480068096888425BD0314800682E4912
:100D40000968884227D22C4800682D490968441A4E
:100D5000294800682A49086000212A4800682218AA
:100D600049416B1E00209A1A884104D201250020B7
:100D70002449086038E0234800682044322804D918
:100D8000012500201F4908602EE01E48006820440D
:100D90001C49086028E018480068401E1849096886
:100DA000441A154800681649086000211548006873
:100DB000231849414FF0FF320020D21A884104D253
:100DC000012500200F4908600EE00E48006820440D
:100DD000322804D9012500200A49086004E00948A6
:100DE0000068204407490860012D02D10025FFF763
:100DF0007FFF70BD38000020280000203400002054
:100E00002C0000203000002002E008C8121F08C19A
:100E1000002AFAD170477047002001E001C1121F7B
:100E2000002AFBD1704780F310887047012080F3BF
:100E3000108800BF0D4800680D490860002080F34D
:100E4000108800BF0B480068096888420DD0084828
:100E500000680849086008480068401C06490860A6
:100E6000B0F57A7F01D30020086070473800002079
:100E700064000020680000206C00002010B5FFF71F
:100E800043FFFFF7EDFA10BD10B500F04FF800F08A
:100E90001DF800F053F810BD10B50120FFF750FC0D
:100EA00000BF6120FFF72EFC0028FAD045F2555014
:100EB000FFF77AFA0220FFF76BFA40F2FF70FFF7B4
:100EC0006DFAFFF75DFAFFF753FA10BD30B514481D
:100ED00000684FF47A72B0FBF2F1B1F1807F00D379
:100EE0001DE021F07F40401E4FF0E022506150177E
:100EF0000F22002807DA13071D0E0A4B00F00F041B
:100F0000241F1D5503E013071C0E074B1C5400BF84
:100F100000204FF0E02290610720106100BF30BD3B
:100F20001400002018ED00E000E400E010B5FFF729
:100F30007FFEFFF73FFAFFF731F910BD10B5FFF75D
:100F4000ABFF00F001F810BD08B50121C802FFF7A2
:100F50004FFB00208DF800000A208DF802000120D0
:100F60008DF803006846FFF783FA4FF4C070FFF76F
:100F70009FFE5020FFF7A8FE7F20FFF77FFEFFF7C0
:100F800077FEFFF783FE01200149087008BD0000CD
:100F90003400002070B505460E462846FFF7E2F8FB
:100FA00004460CB9002070BD31462046FFF76FFDA6
:100FB000F9E72DE9F04105460E4617462846FFF7AA
:100FC000D1F804460CB9BDE8F081E06908B1E069E8
:100FD00080473A4631462046FFF7F1FD00BFF2E771
:100FE000FFF752FFFFF7B0F803E0FFF747FFFFF707
:100FF000AFF8FAE770B5032600240025012080F33E
:10100000108800BF7F4800687F490860002080F397
:10101000108800BF7D480068096888427ED07B4800
:10102000006879490968884227D27748006877497B
:101030000968441A744800687449086000217448BB
:101040000068221849416B1E00209A1A884104D278
:10105000012500206E49086038E06D480068204492
:10106000032804D901250020694908602EE068485A
:10107000006820446649086028E063480068401E14
:1010800062490968441A60480068604908600021A4
:101090005F480068221849414FF0FF3300209A1A38
:1010A000884104D201250020594908600EE05848C3
:1010B00000682044032804D9012500205449086011
:1010C00004E053480068204451490860012D25D1AF
:1010D0000025FFF7B9F900287ED04E48007830B1DE
:1010E00001281FD0022836D0032868D14CE000BF69
:1010F00000BF10214848FFF737F920214648FFF785
:1011000031F900BF00BF4FF480714348FFF72CF95D
:101110004FF400714048FFF725F900E05BE000BFA5
:1011200000BF4DE000BF00BF10213B48FFF71CF996
:1011300020213948FFF716F900BF00BF4FF4807136
:101140003548FFF70FF94FF400713348FFF70CF9FA
:1011500000BF00BF34E000BF00BF10212E48FFF7E2
:1011600001F920212C48FFF7FFF800BF00BF4FF422
:1011700080712948FFF7F6F84FF400712648FFF711
:10118000F3F800BF00BF1BE000BF00BF10212248E2
:10119000FFF7E8F820212048FFF7E6F800BF00BF7E
:1011A0004FF480711C48FFF7DFF84FF400711A48C4
:1011B000FFF7D8F800BF00BF02E00DE0FFE700BF77
:1011C00000BF14480078401CC0B2124908700428BF
:1011D00016DB0020087013E000BF10210E48FFF757
:1011E000C1F820210C48FFF7BDF84FF480710A4880
:1011F000FFF7B8F84FF400710748FFF7B3F800BFE6
:1012000070BD0000380000207C000020800000201D
:101210008400002088000020000C014008B56946C9
:101220000020FFF7B7FE68B939480088002805DDBF
:1012300037480088401E3649088067E0002035495D
:10124000087063E03248008868B93248007850B9C5
:101250009DF80000552806D100202F490880012064
:101260002C4908704FE02B480078012829D19DF8BF
:101270000000FF2803D102202649087043E09DF8B2
:101280000000552803D10020224908703BE09DF85A
:101290000000AA2809D103201E4908701E480288B0
:1012A0001E490020FFF785FE2DE09DF800001B4938
:1012B000194A1288885418480088401C164908802A
:1012C00021E01448007802281DD19DF80000FF2875
:1012D00007D09DF80000552803D09DF80000AA28EB
:1012E0000ED19DF800000D490B4A128888540A4817
:1012F0000088401C0849088001200649087002E067
:10130000002004490870322001490880002008BDEF
:10131000720000207000002074000020B40800203B
:1013200040130008000000208C000000080E000898
:10133000CC1300088C00002014100000180E0008C8
:10134000000000000102030401020304060708096B
:101350000204060800A24A04000000000000000089
:101360000102030406070809000000000000000055
:10137000000000000000000000000000000000006D
:10138000000000000000000000000000000000005D
:10139000000000000000000000000000E803000062
:1013A000000000000000000000000000000000003D
:1013B000000000000000000000000000000000002D
:0C13C00000000000000000000000000021
:04000005080000ED02
:00000001FF
