:020000040800F2
:10000000F8250020010100080D0700080D06000872
:1000100009070008BF030008C91400080000000019
:10002000000000000000000000000000D3090008EC
:100030005F0400080000000099070008B50A0008E6
:10004000D91400081B0100081B0100081B0100084F
:100050001B0100081B0100081B0100081B01000810
:100060001B0100081B0100081B0100081B01000800
:100070001B0100081B0100081B0100081B010008F0
:100080001B0100081B0100081B0100081B010008E0
:100090001B0100081B0100081B0100081B010008D0
:1000A0001B0100081B0100081B0100081B010008C0
:1000B0004D0B00081B0100081B0100081B01000874
:1000C0001B0100081B0100081B0100081B010008A0
:1000D0001B010008C10F00081910000829100008B2
:1000E0001B0100081B0100081B010008DFF80CD0F1
:1000F00000F052F800480047EB200008F8250020E7
:100100000648804706480047FEE7FEE7FEE7FEE7B1
:10011000FEE7FEE7FEE7FEE7FEE7FEE7ED0A000882
:10012000ED00000840EA01039B0703D009E008C97D
:10013000121F08C0042AFAD203E011F8013B00F8AC
:10014000013B521EF9D27047D2B201E000F8012BF8
:10015000491EFBD270470022F6E710B513460A4647
:1001600004461946FFF7F0FF204610BD30B50B4698
:10017000014600202022012409E021FA02F59D42D7
:1001800005D303FA02F5491B04FA02F52844151EAB
:10019000A2F10102F1DC30BD064C074D06E0E0683B
:1001A00040F0010394E8070098471034AC42F6D3BE
:1001B000FFF7A0FF18DA000838DA000821B18268DA
:1001C00042F00102826003E0826822F00102826054
:1001D0007047000010B504461248844208D101213E
:1001E000401500F017FB0021601500F013FB17E02D
:1001F0000D48844208D10121001500F00BFB0021BD
:10020000201500F007FB0BE00848844208D10121CB
:10021000C80300F0FFFA00214FF4004000F0FAFAA2
:1002200010BD00000024014000280140003C0140B6
:10023000014600208A6812F0040F01D0012000E07E
:10024000002070470146C86C80B27047014600200C
:100250008A6812F0080F01D0012000E000207047EA
:1002600030B502460020002350680F4C20400D7925
:100270000C6844EA05242043506090680B4C2040F1
:10028000D1E902542C434D7944EA4504204390605F
:10029000D06A20F470000C7C641EE4B2234340EA70
:1002A0000350D06230BD0000FFFEF0FFFDF7F1FF0C
:1002B000F0B504460D4600200021092D11DDE0684F
:1002C000A5F10A0606EB4607072606FA07F188435A
:1002D000A5F10A0606EB460603FA06F10843E060BC
:1002E0000CE0206905EB4507072606FA07F188436D
:1002F00005EB450603FA06F108432061072A0FDAE9
:10030000606B561E06EB86071F2606FA07F1884328
:10031000561E06EB860605FA06F10843606322E0E6
:100320000D2A0FDA206BD61F06EB86071F2606FA6A
:1003300007F18843D61F06EB860605FA06F1084347
:10034000206310E0E06AA2F10D0606EB86071F2687
:1003500006FA07F18843A2F10D0606EB860605FAB8
:1003600006F10843E062F0BD816841F00801816058
:10037000704721B1826842F4A002826003E0826883
:1003800022F4A00282607047816841F0040181601C
:10039000704710B502F0F2F801F0E4FE01F0F6FC4F
:1003A00003F0F8F810BD10B503F050FA02F038FA77
:1003B00001F0F0FE01F072FD03F076F910BD00BF10
:1003C000FEE70000014609B90B487047012901D139
:1003D0000A48FAE7022901D10948F6E7032901D1C1
:1003E0000020F2E7042901D10020EEE7052901D120
:1003F0000020EAE70020E8E7AC000020D40C002051
:10040000C40D002008B525208DF8000000208DF8CF
:1004100001008DF8020001208DF80300684600F00D
:1004200077F926208DF8000000208DF801000120CA
:100430008DF802008DF80300684600F069F9272066
:100440008DF8000000208DF8010002208DF80200D8
:1004500001208DF80300684600F05AF908BD704786
:100460002DE9F0410246002500260020002300244B
:10047000002791F803C00CF00F0591F803C01CF0A1
:10048000100F03D091F802C04CEA050591F800C0A6
:10049000BCF1000F31D0146800202BE04FF0010CAC
:1004A0000CFA00F3B1F800C00CEA03069E4220D11A
:1004B00083004FF00F0C0CFA03F7BC4305FA03FC62
:1004C0004CEA040491F803C0BCF1280F06D14FF0A8
:1004D000010C0CFA00FCC2F814C00AE091F803C049
:1004E000BCF1480F05D14FF0010C0CFA00FCC2F82A
:1004F00010C0401C0828D1D31460B1F800C0BCF172
:10050000FF0F34DD546800202EE000F1080C4FF09E
:10051000010808FA0CF3B1F800C00CEA03069E4289
:1005200021D183004FF00F0C0CFA03F7BC4305FAFE
:1005300003FC4CEA040491F803C0BCF1280F05D178
:1005400000F1080C08FA0CF8C2F8148091F803C006
:10055000BCF1480F07D100F1080C4FF0010808FA70
:100560000CF8C2F81080401C0828CED35460BDE8B7
:10057000F0810000F0B50A46002300240021002588
:1005800000F00046B6F1004F02D11D4EF16901E0C6
:100590001B4E7168C0F3034583B200F44016B6F5F4
:1005A000401F08D121F07061154E766826F0706604
:1005B000134F7E6012E000F48016B6F5801F06D15E
:1005C000032606FA05F4A14341F0706106E0460DEA
:1005D000360103FA06F6B14341F0706122B1460DCF
:1005E000360103FA06F6314300F00046B6F1004F3B
:1005F00002D1034EF16101E0014E7160F0BD0000D7
:1006000000000140416170470161704700BFFEE793
:100610004CF6CC40014908607047000000300040B3
:100620004AF6AA20014908607047000000300040E7
:10063000014948607047000000300040014988606F
:10064000704700000030004001490860704700001A
:100650000030004000B585B00121042000F0CAF848
:100660000121880300F0C6F818208DF813004FF41C
:100670000070ADF8100003208DF8120004A918488E
:10068000FFF7EEFE04208DF813000002ADF8100015
:1006900004A91348FFF7E4FE4FF4E1300090002076
:1006A000ADF80400ADF80600ADF80800ADF80C0098
:1006B0000C20ADF80A0069460A4800F03FFD01220F
:1006C00040F22551074800F014FD0121054800F0D3
:1006D000CDFC4021034800F0AFFC05B000BD000098
:1006E00000080140003801400448806810F4805F31
:1006F00001D1012070470020FCE7000000100140FC
:1007000010B5FFF78DFF10BD00BFFEE7704700007A
:1007100070B5002100230F22C4780CB3164C246856
:1007200004F4E064C4F5E064210AC1F10403CA40A2
:10073000447804FA03F184781440214309010F4CF2
:100740000678A155047804F01F050124AC40057813
:100750006D114FF0E02606EB8505C5F8004109E074
:10076000047804F01F050124AC40054D067876118D
:1007700045F8264070BD00000CED00E000E400E00C
:1007800080E100E002490143024A11607047000025
:100790000000FA050CED00E0704700000146002063
:1007A000034A506820F440400843506070470000FE
:1007B0000010024029B1064AD2690243044BDA61B3
:1007C00004E0034AD2698243014BDA6170470000BA
:1007D0000010024029B1064A12690243044B1A6113
:1007E00004E0034A12698243014B1A61704700001A
:1007F0000010024029B1064A92690243044B9A61F3
:1008000004E0034A92698243014B9A6170470000F9
:100810000010024029B1064AD2680243044BDA6054
:1008200004E0034AD2688243014BDA60704700005B
:100830000010024030B500210022002400232D4D7D
:100840006D6805F00C0121B1042905D0082923D1D8
:1008500005E0294D056022E0274D05601FE0254D8C
:100860006D6805F47012234D6D6805F4803402251F
:1008700005EB92421CB9214D554305600BE01D4D1F
:100880006D6815F4003F03D01C4D5543056002E030
:10089000194D5543056002E0174D056000BF00BFCC
:1008A000144D6D6805F0F0010909154D6B5C056884
:1008B000DD4045600F4D6D6805F4E061090A104D9B
:1008C0006B5C4568DD4085600A4D6D6805F46051DC
:1008D000C90A0B4D6B5C4568DD40C560054D6D6810
:1008E00005F44041890B074D6B5CC568B5FBF3F51A
:1008F000056130BD0010024000127A0000093D0081
:10090000000000201000002010B501460022002346
:1009100000204A11012A02D1094C236806E0022A6C
:1009200002D1074C236A01E0054C636A01F01F0203
:10093000012494401C4201D0012000E0002010BDA1
:1009400000100240014908607047000080044242E4
:1009500021B1028842F04002028004E002884FF692
:10096000BF731A40028070470246002013890B4271
:1009700001D0012000E0002070478181704710B550
:100980000022028802F441520B884C8823438C8851
:100990002343CC8823430C8923434C8923438C89EC
:1009A0002343CC8923431A430280838B4FF2FF7485
:1009B000234083830B8A038210BD21B1828842F0D9
:1009C0000402828004E082884FF6FB731A40828022
:1009D0007047704710B500F001F810BD0CB500204D
:1009E000019000903148006840F480302F49086041
:1009F00000BF2E48006800F4003000900198401CB1
:100A00000190009818B90198B0F5A06FF1D127486E
:100A1000006810F4003F02D00120009001E00020A7
:100A200000900098012840D12148006840F0100053
:100A30001F4908600846006820F003000860084667
:100A4000006840F001000860184840681749486095
:100A50000846406848600846406848600846406864
:100A600020F47C1048600846406840F4F810486064
:100A70000846006840F08070086000BF0B480068BE
:100A800010F0007FFAD00948406820F003000749C1
:100A900048600846406840F00200486000BF0348D4
:100AA000406800F00C000828F9D10CBD001002408D
:100AB0000020024010B500F001F810BD08480068A1
:100AC000401C074908600748006840B105480068B5
:100AD000401E0449086002D1012003490870704794
:100AE000280000202C0000203000002010B5134802
:100AF000006840F00100114908600846406810494C
:100B000008400E494860084600680E4908400B49F5
:100B100008600846006820F48020086008464068A5
:100B200020F4FE0048604FF41F008860FFF752FF7A
:100B30004FF000600449086010BD00000010024042
:100B40000000FFF8FFFFF6FE08ED00E010B500F032
:100B500001F810BD10B50121880700F0BBF900288D
:100B600041D00121880700F0B2F8524800780128EE
:100B70003AD1514800880028F2D04F480088401EE2
:100B80004D4908804D4802F021FE01F0FDFF4A4822
:100B90000088002827D1474908704849087000BFDD
:100BA00010214748FFF72EFD20214548FFF72AFD79
:100BB0004FF480714248FFF725FD4FF40071404823
:100BC000FFF720FD00BF3F483C4A127830F8120082
:100BD000401E81B24FF0804000F09CF900214FF0A0
:100BE000804000F077F864E03248007803281BD199
:100BF0003148008800285CD02F480088401E2E49CC
:100C000008802E4802F0E2FD01F0BEFF2A4800886D
:100C100000284ED12749087000214FF0804000F095
:100C200059F802F03FFA44E0224800780B2817D127
:100C300021480088E8B320480088401E1E490880EB
:100C400001F0A2FF1C48008898BB002019490870D9
:100C500000214FF0804000F03DF802F015F828E048
:100C60000020144908701549087000BF102114486D
:100C7000FFF7C8FC20211248FFF7C4FC4FF4807135
:100C80000F48FFF7BFFC4FF400710D48FFF7BAFCA7
:100C900000BF0C48094A127830F81200401E81B299
:100CA0004FF0804000F036F900214FF0804000F016
:100CB00011F810BD830000206600002069000020AC
:100CC000000C0140E0D90008CA4302827047CA43C1
:100CD0000282704721B1028842F00102028004E0E2
:100CE00002884FF6FE731A400280704710B5044622
:100CF0006848844208D10121C014FFF78BFD002110
:100D0000E014FFF787FDC4E0B4F1804F08D1012162
:100D10000846FFF75FFD00210120FFF75BFDB8E00B
:100D20005D48844208D101210220FFF753FD0021D4
:100D30000220FFF74FFDACE05848844208D1012162
:100D40000420FFF747FD00210420FFF743FDA0E04A
:100D50005348844208D101210820FFF73BFD0021C0
:100D60000820FFF737FD94E04E48844208D1012166
:100D70001020FFF72FFD00211020FFF72BFD88E04A
:100D80004948844208D101212020FFF723FD00219A
:100D90002020FFF71FFD7CE04448844208D1012158
:100DA0004014FFF737FD00216014FFF733FD70E0BA
:100DB0003F48844209D10121C804FFF72BFD0021DF
:100DC0004FF40020FFF726FD63E03A48844209D142
:100DD00001210805FFF71EFD00214FF48010FFF7E9
:100DE00019FD56E03448844209D101214805FFF736
:100DF00011FD00214FF40010FFF70CFD49E02F48D2
:100E0000844208D101214020FFF7E4FC002140206A
:100E1000FFF7E0FC3DE02A48844208D10121802010
:100E2000FFF7D8FC00218020FFF7D4FC31E02548F3
:100E3000844208D101218015FFF7CCFC0021A015C8
:100E4000FFF7C8FC25E02048844209D101210804AD
:100E5000FFF7E0FC00214FF48030FFF7DBFC18E0E7
:100E60001A48844209D101214804FFF7D3FC00212C
:100E70004FF40030FFF7CEFC0BE01548844208D158
:100E800001218804FFF7C6FC00214FF48020FFF702
:100E9000C1FC10BD002C01400004004000080040CF
:100EA000000C0040001000400014004000340140DD
:100EB000004C014000500140005401400018004027
:100EC000001C004000200040004001400044014060
:100ED0000048014030B50246002000230024158A56
:100EE00005EA0103958905EA010413B10CB101205B
:100EF00000E0002030BD1AB183890B43838102E0FA
:100F000083898B438381704701894FF6F8721140C2
:100F10000181704781857047818470470022028873
:100F20001D4B98420ED01D4B98420BD0B0F1804F14
:100F300008D01B4B984205D01A4B984202D01A4B4E
:100F4000984204D14FF68F731A404B881A43174BBF
:100F5000984207D0164B984204D04FF6FF431A40F0
:100F6000CB881A4302808B8883850B8803850A4BC4
:100F700098420BD0094B984208D00E4B984205D0AE
:100F80000D4B984202D00D4B984201D10B7A03864B
:100F90000123838270470000002C0140003401408F
:100FA0000004004000080040000C00400010004019
:100FB000001400400040014000440140004801404E
:100FC00010B5024800F07CF910BD0000AC00002014
:100FD00070B505460E465521002000F09DFE002408
:100FE00012E0285D552805D0285DAA2802D0285D8A
:100FF000FF2803D1FF21002000F08EFE295D002094
:1010000000F08AFE601C84B2B442EADBAA21002010
:1010100000F082FE70BD000010B5024800F050F9EB
:1010200010BD0000D40C002010B5024800F048F9B3
:1010300010BD0000C40D002001F40072B2F5007F65
:1010400000D100BFCA430280704710B5024600209D
:10105000108A4FF2FF0318400B884C8823438C887A
:101060002343CC8823431843108210BD21B18289C9
:1010700042F40052828104E082894DF6FF731A40E7
:101080008281704702460020B1F5007F00D100BF89
:1010900013880B4201D0012000E00020704770B59A
:1010A00002460024002300250020A1F510666A3EB8
:1010B00000D100BFC1F3421501F01F03012606FA5B
:1010C00003F3012D02D19689334006E0022D02D1AF
:1010D000168A334001E0968A33400C12012606FA44
:1010E00004F41688344013B10CB1012000E0002054
:1010F00070BDF0B503460024002600250020A1F5B0
:1011000010676A3F00D100BF1846C1F3421401F0D6
:101110001F06012707FA06F5012C01D10C3004E067
:10112000022C01D1103000E014301AB107682F43AF
:10113000076002E00768AF430760F0BD2DE9F047A4
:1011400086B005460E460024A24600BFA1460027F1
:10115000B08900B100BF2F462C8A4CF6FF700440C6
:10116000F08804432C82AC894EF6F3100440B0881A
:1011700031890843718908430443AC81AC8A4FF636
:10118000FF400440B0890443AC8201A8FFF752FB42
:101190001F48874202D1DDF810A001E0DDF80CA065
:1011A000A88910F4004F08D00AEBCA0000EB0A101F
:1011B00031684900B0FBF1F807E00AEBCA0000EB28
:1011C0000A1031688900B0FBF1F86420B8FBF0F038
:1011D00004012009642101FB1089A88910F4004F43
:1011E00008D0322000EBC900B0FBF1F000F007009E
:1011F000044308E0322000EB09106421B0FBF1F059
:1012000000F00F0004432C8106B0BDE8F087000019
:101210000038014001468888C0F308007047C1F3D8
:10122000080282807047028BD2B20283028B42EAAC
:10123000012202837047028B02F47F420283028BF9
:101240000A430283704721B1828A42F020028282DF
:1012500004E0828A4FF6DF731A408282704721B120
:10126000828A42F01002828204E0828A4FF6EF7393
:101270001A408282704770B504460D46012000F086
:1012800070F9668B002000F06CF90EB9002070BD7B
:10129000218BA068405C2870012000F062F9208B4F
:1012A000401C80B22083E189884201DB002020833A
:1012B000608B401E6083002000F053F90120E6E7B8
:1012C00010B5044640F225512068FFF7E8FEE0B172
:1012D0002068FFF79FFFE28AA1688854E08A401CDB
:1012E00080B2E082E189884201DB0020E082608BED
:1012F000E189884202DA608B401C6083608B0128A0
:1013000003D1606A08B1606A804740F227712068A3
:10131000FFF7C5FE08B3A08A60B9002240F227712A
:101320002068FFF7E6FE012240F226612068FFF701
:10133000E0FE37E0638A6268D15C2068FFF76FFFE8
:10134000608A401C80B26082A189884201DB002053
:101350006082A08A401EA08224E040F226612068BC
:10136000FFF79DFEF0B1A08A50B9002240F226613D
:101370002068FFF7BEFE206AA0B1206A804711E016
:10138000638A6268D15C2068FFF749FF608A401C6D
:1013900080B26082A189884201DB00206082A08A3D
:1013A000401EA08210BD2DE9F04104460E461746AE
:1013B000002527E00CE0012000F0D3F8B4F81480F9
:1013C000002000F0CEF8A089404500DD01E000BF1C
:1013D000F1E700BF705D228A61688854012000F047
:1013E000C0F8208A401C80B22082A189884201DB9B
:1013F00000202082A08A401CA082002000F0B1F8CA
:10140000681C85B2BD42D5DB012240F227712068FD
:10141000FFF76FFEBDE8F0811F48204908602048B3
:101420004860204888604FF4806088814000C8810F
:10143000002008824882C882088348838882C86165
:1014400008624862184819490860194848601948F4
:10145000886064208881C881002008824882C88210
:10146000088348838882C861086248621248134929
:101470000860134848601348886064208881C881E8
:10148000002008824882C882088348838882C86115
:10149000086248627047000000380140AC0000203C
:1014A000D4000020D404002000440040D40C0020CC
:1014B000FC0C0020600D002000480040C40D0020FE
:1014C000EC0D0020500E002000BFFEE70020014977
:1014D00008607047082C004010B500F00FF810BDF0
:1014E00000F07F01014A116070470000002C0040AD
:1014F00010B57F20FFF7F4FF10BD000010B5FFF717
:10150000E5FF03A000F00EF8FFF7F2FF10BD0000AA
:101510000D0A777764672074696D656F7574202193
:101520000D0A00000FB4054B10B503A9044A029838
:1015300000F01AF810BC5DF814FB0000711F0008E1
:10154000A800002002E008C8121F08C1002AFAD132
:1015500070477047002001E001C1121F002AFBD133
:10156000704780F3108870472DE9FF4F89B09B4684
:101570000446002597E0252833D10027641C4E49F6
:10158000B84601222378203B02FA03F0084202D039
:101590000743641CF6E720782E2819D114F8010FB0
:1015A00047F004072A280ED06FF02F022078A0F110
:1015B000300109290CD808EB880102EB410100EB4E
:1015C0000108641CF2E70A98641C50F8048B0A9026
:1015D000207800286BD0642808D0692806D07528A8
:1015E00020D05A460B9990476D1C5BE00A994FF04A
:1015F0000A0901C90A91002804DAC0F100004FF07D
:101600002D0102E0390504D52B218DF82010012190
:1016100003E0F90704D02021F7E78A4608AE0EE080
:101620000021FAE70A994FF00A0901C90A91F7E780
:101630004946FEF79BFD01F1300106F8011D002827
:10164000F6D1ADEB060000F12009780701D44FF088
:101650000108C84502DDA8EB090000E00020804633
:10166000002706E008A85A46C05D0B9990476D1CFC
:101670007F1C5745F6DB04E030205A460B99904713
:101680006D1CB8F10001A8F10108F5DC05E016F8C1
:10169000010B5A460B9990476D1CB9F10001A9F155
:1016A0000109F4DC641C207800287FF464AF0DB0DD
:1016B0002846BDE8F08F000009280100F0B5034678
:1016C00000224FF0E02675690F4E36680F4FB6FBCB
:1016D000F7F606FB03F400BF4FF0E026B16910E017
:1016E0004FF0E026B06988420BD0884202D20E1A31
:1016F000324402E02E1A0E4432440146A24200D384
:1017000000E0EDE700BFF0BD1400002040420F00F4
:1017100070B50546304800EB051420688047002866
:101720003ED02079052802DA0520207152E0207988
:101730000A2803DA2079401C20714BE0A07A38B9DE
:101740000120A07205EB4501491CC8B200F0A8F9C0
:10175000208900283EDDE088218988420DDAE08872
:10176000401C80B2E0802189884233D105EB4501DD
:10177000C91CC8B200F094F92CE0E07A002829DDF9
:10178000207B401CC0B22073E17A884222DB00201B
:10179000207305EB4501491CC8B200F081F919E03E
:1017A0002079052802DD0520207110E0207918B18C
:1017B0002079401E20710AE0A07A012807D100207C
:1017C000A07205EB4501891CC8B200F069F9002040
:1017D000E080207370BD0000B40E00200E4890F829
:1017E00032000D4A92F83320904201D10020704718
:1017F000094890F83200084A115C104690F832000F
:10180000401CC0B282F83200322802DB002082F88D
:1018100032000846EBE70000C40E002010B5FEF7CA
:101820006FFF10BD10B54FF4C060FEF7ABFF00F0C6
:101830004BF900F0F3F800F0C1F800F0F7F800F011
:1018400003F800F06FF810BD00B587B0012110203B
:10185000FEF7D0FF0120ADF8180000208DF81B0026
:1018600006A92148FEF7FCFD01214802FEF7C2FF50
:101870001E48FEF7AFFC4FF40040FEF78FFF00203C
:1018800001908DF8080001208DF809004FF46020C8
:1018900003900020049001208DF8140001A9134842
:1018A000FEF7DEFC022301220A211048FEF700FDAC
:1018B00001210E48FEF782FC0C48FEF755FD00BFE3
:1018C0000A48FEF7C3FC0028FAD10848FEF75CFD81
:1018D00000BF0648FEF7ACFC0028FAD101210348FE
:1018E000FEF747FD07B000BD001001400024014095
:1018F00010B50120FFF726F800BF6120FFF704F8BC
:101900000028FAD045F25550FEF79EFE0220FEF761
:101910008FFE40F2FF70FEF791FEFEF781FEFEF7AC
:1019200077FE10BD10B500F019F800F001F810BDF9
:1019300008B501211020FEF75DFF48208DF8030057
:1019400003208DF802004FF48050ADF80000694686
:101950000148FEF785FD08BD001001400021144A32
:1019600082F8321082F8331082F83410002018E028
:101970006421104A02EB0012118102210D4A02EB90
:101980000012117100210B4A02EB00129172094AF8
:1019900002EB0012D172074A02EB00121173411CD4
:1019A000C8B20128E4DB0449024A11607047000014
:1019B000C40E0020B40E0020E906000830B514481B
:1019C00000684FF47A72B0FBF2F1B1F1807F00D37E
:1019D0001DE021F07F40401E4FF0E0225061501783
:1019E0000F22002807DA13071D0E0A4B00F00F0420
:1019F000241F1D5503E013071C0E074B1C5400BF8A
:101A000000204FF0E02290610720106100BF30BD40
:101A10001400002018ED00E000E400E010B5FFF72E
:101A2000FBFCFEF717FEFEF7EDFC10BD10B5FFF74F
:101A30005FFF10BD10B5002404E02046FFF768FEEC
:101A4000601CC4B2012CF8DB10BD000010B50120F1
:101A500080F3108800BF0E4800680E49086000201F
:101A600080F3108800BF0C480068096888420ED0D7
:101A7000084800680849086008480068401C074991
:101A800008600A2803D300200860FFF7D3FF10BDC9
:101A900028000020500000205400002058000020A2
:101AA000084991F83310074A5054114691F8331001
:101AB000491CC9B282F83310322902DB002182F8B6
:101AC00033107047C40E00207047000070B5044604
:101AD0000D462A462146012000F007F9002005495D
:101AE0000870012048701320887003210148FFF717
:101AF0006FFA70BDF916002070B504460D462A46EF
:101B00002146022000F0F1F800200549087001206C
:101B100048701420887004210148FFF759FA70BDFD
:101B2000F916002010B5CCB000F0A8FA0446002C3D
:101B30003FD000BF20212648FEF766FD0A20FFF7B0
:101B4000BDFD00BF00BF20212148FEF75BFD0A203C
:101B5000FFF7B4FD00BF00BF20211D48FEF754FD74
:101B60000A20FFF7ABFD00BF00BF20211848FEF799
:101B700049FD0A20FFF7A2FD00BF4FF4967101A8AE
:101B8000FEF7E9FA01A800F07DFB01201149087079
:101B90002B204870122088704FF4967201A90D48CE
:101BA000C01CFEF7BFFA40F22F110A48FFF710FAE7
:101BB0000CE00020074908700220487092208870CD
:101BC0003020C87004210348FFF702FA4CB010BD62
:101BD00000080140F916002010B50848007810F000
:101BE000010F0AD040F2824205490648FEF79AFAF0
:101BF00000200249087001F047F810BD6400002081
:101C00006F1D0020ED18002070B504460D462946D2
:101C1000204600F04BFA032827D005DC48B1012804
:101C200017D002283DD11AE0042824D0FF2838D14B
:101C300027E000202449087002204870A07840F076
:101C4000800088701120C87004211F48FFF7C0F978
:101C500037E0E81E81B2E01C00F090FB31E0E81EA6
:101C600081B2E01C00F04EFA2BE0E81E81B2E01CCD
:101C700000F05AF825E0E81E81B2E01C01F058FCA3
:101C80001FE000201049087002204870A07840F042
:101C9000800088701020C87004210B48FFF798F965
:101CA0000FE000200849087002204870A07840F03A
:101CB000800088701120C87004210348FFF788F95C
:101CC00000BF00BF70BD0000F916002070B50546CA
:101CD0000E462846FEF776FB04460CB9002070BD80
:101CE00031462046FFF7C7FAF9E72DE9F0410546EE
:101CF0000E4617462846FEF765FB04460CB9BDE8BC
:101D0000F081E06908B1E06980473A4631462046F3
:101D1000FFF749FB00BFF2E713B50446012201A912
:101D20002046FFF7E2FF1CBD70B504460D46207843
:101D3000102818D1607810280DD100F0FFF800208D
:101D400011490870012048701320887003210E4843
:101D5000FFF73EF906E06078112803D1A178E01C76
:101D6000FFF7B4FE0DE0002007490870022048701C
:101D7000932088702120C87004210348FFF728F9B8
:101D800000BF00BF70BD0000F916002000B587B08D
:101D900001210420FEF72EFD01210846FEF72AFD51
:101DA00001214804FEF706FD01210420FEF722FD73
:101DB00010208DF81B0003208DF81A000820ADF8C4
:101DC000180006A93348FEF74BFB1020ADF81800A9
:101DD00018208DF81B0003208DF81A0006A92D4845
:101DE000FEF73EFB0420ADF818001C208DF81B0008
:101DF00003208DF81A0006A92648FEF731FB0421BE
:101E00002548FFF718FA02212348FFF70CFA4FF490
:101E10000060ADF810000020ADF81200ADF814001D
:101E20004FF48070ADF8160004A91B48FFF70DF9B8
:101E300042F6417000904FF48050ADF804004FF42A
:101E40004050ADF806004FF48060ADF808000C205B
:101E5000ADF80A000020ADF80C0069460E48FFF707
:101E60006DF9012240F225510B48FFF742F901219B
:101E70000948FFF7FBF801210748FFF7F0F90121B6
:101E80000548FFF7E0F940210348FFF7D5F807B010
:101E900000BD0000000801400044004010B50120D2
:101EA00080F3108800BF0A4800680A4908600020D3
:101EB00080F3108800BF084800680968884205D090
:101EC000044800680449086000F008F810BD0000EC
:101ED00028000020880000208C00002000B59BB066
:101EE0001AA90120FFF7F2FEA8B91248007828B11C
:101EF00010480078401E0F49087019E00E4800880D
:101F0000B0B10D48028801A90020FFF7EEFE0020C5
:101F1000094908800CE03220064908709DF86810D5
:101F2000054802880088401C034B188001A8815492
:101F30001BB000BD840000208600002010B500BF4B
:101F400008210A48FEF75EFB00BF00BF04210748D6
:101F5000FEF75AFB00BF4FF4C870FFF7AFFB00BF9E
:101F600008210248FEF750FB00BF10BD00080140E9
:101F700070B504460D46E1B20548FFF750F900BFC1
:101F800040210348FFF77EF80028F9D0204670BDB5
:101F900000380140FCB50746002121E000200DF883
:101FA0000100002418E0002612E0082000FB017068
:101FB000005D4FF0010C0CFA06FC10EA0C0F05D086
:101FC0001DF80100401CC0B20DF80100701CC6B223
:101FD000082EEADB601CC4B2082CE4DB481CC1B24A
:101FE0000629DBDB9DF800009DF801C060449DF8E8
:101FF00002C060449DF803C060449DF804C0604482
:102000009DF805C000EB0C059DF800009DF801C08F
:1020100060449DF802C000EB0C029DF803009DF89F
:1020200004C060449DF805C000EB0C030DB9FF200F
:10203000FCBD802D01DC0020FAE70AB90220F7E799
:102040000BB92020F4E7802A03DC802B01DC11206F
:10205000EEE7802A03DD802B01DC2120E8E7802ADF
:1020600003DC802B01DD1220E2E7802A03DD802BD8
:1020700001DD2220DCE72220DAE7000004480068C6
:1020800010F0800F01D1012070470020FCE7000014
:10209000080801400448806810F0400F01D1012079
:1020A00070470020FCE700000010014010B5024618
:1020B0005078147840EA0423981C814213D1907818
:1020C000112806D0122806D0132806D0142808D1CB
:1020D00005E0012010BD0220FCE70320FAE7042000
:1020E000F8E70020F6E7FF20F4E7FFF79BFBFEF799
:1020F00050F905E0FFF792FBFEF755F9FFF7A6FC54
:10210000F8E7000070B504460D462078102816D177
:10211000607810280DD100F0C5F800201049087033
:10212000012048701220887003210D48FEF750FFEF
:1021300004E06078112801D1FFF7F4FC0DE00020E5
:102140000749087002204870922088702120C870CA
:1021500004210348FEF73CFF00BF00BF70BD000034
:10216000F916002008B501210420FEF743FB2020CA
:10217000ADF8000010208DF8030002208DF8020059
:1021800069460348FEF76CF900F08CF808BD0000C2
:102190000008014070B5022300200022012181F3D4
:1021A000108800BF33490968334C2160002181F356
:1021B000108800BF314909682468A14259D02F49CD
:1021C00009682D4C2468A14227D22B4909682B4C61
:1021D0002468081B28490968284C216000242849E4
:1021E000096845186441561E0021751BA14104D29F
:1021F00001220021224C216038E021490968014474
:10220000022904D9012200211D4C21602EE01C4925
:10221000096801441A4C216028E017490968491EE1
:10222000164C2468081B14490968144C21600024CA
:1022300013490968451864414FF0FF360021751BAA
:10224000A14104D2012200210D4C21600EE00C4975
:1022500009680144022904D901220021084C2160A7
:1022600004E0074909680144054C2160012A00D1B6
:10227000002270BD280000209C000020A00000204B
:10228000A400002070B50546002404E001F0B6FA71
:102290002855601C84B2B4F5877FF7DB00F002F8A4
:1022A00070BD000010B501F07FFA00BF2021324858
:1022B000FEF7AAF90A20FFF701FA00BF00BF80214C
:1022C0002D48FEF7A1F90A20FFF7F8F900BF00BF7B
:1022D00080212948FEF796F90A20FFF7EFF900BFA1
:1022E00000BF20212448FEF78DF90A20FFF7E6F908
:1022F00000BF00BF20212048FEF786F90A20FFF723
:10230000DDF900BF00BF20211B48FEF77BF90A2042
:10231000FFF7D4F900BF00BF80211748FEF774F91A
:102320000A20FFF7CBF900BF00BF20211248FEF7BB
:102330006BF90A20FFF7C2F900BF00BF20210E4849
:10234000FEF760F90A20FFF7B9F900BF00BF2021AE
:102350000948FEF759F90A20FFF7B0F900BF00BF9E
:1023600020210548FEF74EF90A20FFF7A7F900BF24
:1023700001F008FA10BD00000008014070B50446E5
:102380000D462078102804D0112834D0122876D198
:1023900049E0022D21D16078102802D101F096F891
:1023A00028E06078112802D100F07CFE22E06078FD
:1023B000122804D181016C48FEF70AFE1AE00020C1
:1023C0006A49087002204870912088702320C870E4
:1023D00004216648FEF7FCFD0CE00020634908700C
:1023E00002204870912088702220C87004215F4824
:1023F000FEF7EEFDB6E0032D07D1A278617802EB7F
:10240000012188B200F070FB0CE0002057490870F1
:1024100002204870912088702220C87004215348FF
:10242000FEF7D6FD9EE06078102829D1504800784C
:1024300010F0010F15D101204E49087040F2824181
:102440004D48FDF788FE4FF4906247494A48801C8A
:10245000FDF768FE4648007840F0010044490870E6
:1024600071E0002041490870032048709120887075
:102470002020C87004213D48FEF7AAFD63E063E018
:102480006078112827D13A48007810F0010F14D154
:1024900000203849087040F282413748FDF75BFE62
:1024A00040F28242A11C3448FDF73CFE30480078DF
:1024B00040F001002E49087045E000202B490870CB
:1024C00003204870912088702020C870042127487C
:1024D000FEF77EFD37E06078122827D12448007887
:1024E00010F0010F14D101202249087040F28241FE
:1024F0002148FDF730FE40F28242A11C1E48FDF744
:1025000011FE1B48007840F00100194908701AE0DC
:102510000020164908700320487091208870202000
:10252000C87004211148FEF753FD0CE000200F494C
:10253000087002204870912088701120C870042112
:102540000A48FEF745FD0DE000200849087002200A
:102550004870912088702120C87004210348FEF73C
:1025600037FD00BF00BF70BD60390008F9160020BC
:1025700064000020820000206F1D002000B58BB099
:1025800001210820FEF736F901210420FEF732F977
:1025900000BF01219C48FEF735F800BF00BF4FF493
:1025A00080719A48FEF72EF800BF10208DF82B009E
:1025B00002208DF82A000120ADF828000AA99248CF
:1025C000FDF74EFF10208DF82B0002208DF82A0019
:1025D000C001ADF828000AA98C48FDF741FF012190
:1025E0001020FEF707F900BF4FF400618848FEF79E
:1025F00009F800BF10208DF82B0002208DF82A006A
:102600008002ADF828000AA98148FDF729FF0121C1
:102610000846FEF7EFF801210820FEF7EBF801214C
:102620007C48FDF7A7FF00BF10217748FDF7EAFFC0
:1026300020217548FDF7E6FF4FF480717248FDF7E1
:10264000E1FF4FF400717048FDF7DCFF00BF4FF46D
:102650004C70ADF8280002208DF82A0010208DF86B
:102660002B000AA96848FDF7FBFE00BF0121664860
:10267000FDF7CAFF00BF00BF4FF480716348FDF74C
:10268000C3FF00BF00BF4FF400616148FDF7BCFF0E
:1026900000BF01211020FEF7ADF848208DF82B0077
:1026A00002208DF82A004020ADF828000AA95848D9
:1026B000FDF7D6FE01211020FEF79CF800BF4FF475
:1026C00040715348FDF7A0FF00BF10208DF82B008C
:1026D00002208DF82A004FF44C70ADF828000AA9AA
:1026E0004B48FDF7BDFE01211020FEF783F800BF27
:1026F00080214748FDF788FF00BF10208DF82B0090
:1027000003208DF82A008020ADF828000AA940484F
:10271000FDF7A6FE01210820FEF76CF801218803D1
:10272000FEF748F84FF46040ADF8280003208DF81C
:102730002A0018208DF82B000AA93348FDF790FED7
:102740000020ADF814004FF48270ADF816000020A0
:10275000ADF81800ADF81A00ADF81C004FF4007089
:10276000ADF81E001020ADF820000020ADF82200CA
:1027700005A92948FEF703F901212748FEF7E8F8E3
:1027800001212548FEF719F901210846FEF712F844
:102790004FF08040FEF7AAFA4FF08040FEF7B4FBFE
:1027A00040F64830ADF808002320ADF804000020C2
:1027B000ADF80A00ADF8060001A94FF08040FEF721
:1027C000ADFB1C208DF8100001208DF811000720B2
:1027D0008DF8120001208DF8130004A8FDF798FF72
:1027E00000214FF08040FEF797FB01218807FEF79C
:1027F0006BFA012211469007FEF77DFB0020074986
:1028000008700BB000BD0000000C01400008014042
:10281000001001400002300000380040830000201A
:1028200010B5012080F3108800BF6848006868492F
:102830000860002080F3108800BF664800680968BF
:1028400088424AD06248006862490860FFF722FC6B
:1028500000287CD0FEF7C2FF012816D15E48008810
:1028600000F5A0705C49088001205C49087000F008
:102870008BF959480088401E574908800020584964
:10288000087001218807FEF725FA5648FDF7DAFCA3
:10289000B0F5107F22DB514800780D2817D2DFE811
:1028A00000F0070A0B0C0D0E0F1011121314150077
:1028B000FFF792F90CE00BE00AE009E008E007E01E
:1028C00006E005E004E003E002E001E000E000BF14
:1028D00000BF42F210704449088076E04248008808
:1028E000401C80B24049088042F2107188426CDB83
:1028F00000203D4908803849088000BF4FF44071EE
:102900003A48FDF781FE00BF00BF10213848FDF7AF
:1029100079FE20213648FDF775FE4FF4807134486A
:10292000FDF770FE4FF400713148FDF76BFE00BFFC
:1029300000203049087002204870912088703220B1
:10294000C87004212B48FEF743FB3EE0FFE7264812
:102950000088401C80B22449088041F288318842B6
:1029600033DB0020204908801B4908802249087079
:1029700000BF4FF440711D48FDF746FE00BF00BF89
:1029800010211B48FDF73EFE20211948FDF73AFEB5
:102990004FF480711648FDF735FE4FF4007114486E
:1029A000FDF730FE00BFFEF719FF00214FF0804019
:1029B000FEF790F90020094908700E4908700220BE
:1029C0004870912088703120C87010BD2800002008
:1029D000780000207C00002066000020830000209A
:1029E0006900002000240140800000200010014008
:1029F000000C0140F91600206400002070B5044668
:102A00000E46154627E000BF02211648FDF7ACFF31
:102A10000028F9D03DB914F8012B02F0AA011148A1
:102A2000FDF7ABFF10E0012D07D114F8012B02F0E8
:102A300055010C48FDF7A1FF06E0022D04D114F862
:102A4000011B0848FDF799FF00BF80210548FDF7ED
:102A50008BFF0128F9D03000A6F10101CEB2D2D10E
:102A600070BD00000038004010B50446012C11D1A3
:102A700000BF4FF440711B48FDF7C4FD00BF4FF489
:102A80007A70FEF71BFE00BF4FF440711548FDF74A
:102A9000BBFD25E0022C0FD100BF30211148FDF70E
:102AA000B1FD00BF4FF47A70FEF708FE00BF302181
:102AB0000C48FDF7A9FD13E0032C11D100BF4FF422
:102AC0004C710848FDF79EFD00BF4FF47A70FEF789
:102AD000F5FD00BF4FF44C710248FDF795FD00BFB6
:102AE00010BD00000010014010B5044622480078D7
:102AF000002832D1A4F57F40FF380CD11F4908705F
:102B000002204870912088702120C87004211B4841
:102B1000FEF75EFA2EE01A48008820441849088023
:102B200001201549087000201449087001204870E0
:102B30001120887003211148FEF74AFA00F024F8AA
:102B40000F480088401E0E49088000200D4908707B
:102B500001218807FEF7BEF80CE000200749087045
:102B600002204870912088702020C87004210348FA
:102B7000FEF72EFA10BD000083000020F916002099
:102B8000660000206900002010B53D48007830B193
:102B900001281DD0022834D0032864D14AE000BFA8
:102BA00000BF10213748FDF72FFD20213548FDF7E4
:102BB00029FD00BF00BF4FF480713248FDF724FDAE
:102BC0004FF400712F48FDF71DFD00BF00BF4BE023
:102BD00000BF00BF10212B48FDF716FD202129481A
:102BE000FDF710FD00BF00BF4FF480712548FDF7D1
:102BF00009FD4FF400712348FDF706FD00BF00BF3B
:102C000032E000BF00BF10211E48FDF7FBFC202171
:102C10001C48FDF7F9FC00BF00BF4FF48071194854
:102C2000FDF7F0FC4FF400711648FDF7EDFC00BF16
:102C300000BF19E000BF00BF10211248FDF7E2FC01
:102C400020211048FDF7E0FC00BF00BF4FF4807169
:102C50000C48FDF7D9FC4FF400710A48FDF7D2FC8F
:102C600000BF00BF00E000BF00BF05480078401C67
:102C7000C0B203490870042801DB0020087010BDB1
:102C800068000020000C014070B5FD480078002865
:102C90007ED1FC48006800EB4000022101EB0010EF
:102CA000F94946183046FFF775F90546FF2D0CD156
:102CB000F6480088801CF54908800B20F049087010
:102CC00001218807FEF706F8B2E1A5BB02223021F8
:102CD0003046FFF793FE00BF8021ED48FDF792FCE0
:102CE00000BF00BF8021EA48FDF78EFC00BF032033
:102CF000FFF7BAFE4FF47A70FEF7E0FCFFF744FFEF
:102D00000020E4490870E4480A46127830F81200BE
:102D1000401E81B24FF08040FEF7FCF8DB4800888F
:102D2000401CDA4908800B20D5490870012188072A
:102D3000FDF7D0FF7CE1FFE7112D34D102223021D5
:102D40003046FFF75BFE00BF8021D148FDF75AFCFB
:102D500000BF00BF8021CE48FDF756FC00BF012018
:102D6000FFF782FE0220FFF77FFEFFF70DFF002036
:102D7000C8490870C8480A46127830F81200401E48
:102D800081B2A807FEF7C6F8C0480088401C00E0E2
:102D900074E1BE4908800B20B949087001218807F9
:102DA000FDF798FF44E1022D36D1002415E02246BC
:102DB00030213046FFF722FE00BF8021B448FDF7E6
:102DC00021FC00BF00BF8021B148FDF71DFC00BF02
:102DD0000220FFF749FE601CC4B2022CE7DBFFF7BC
:102DE000D3FE0020AB490870AB480A46127830F891
:102DF0001200401E81B24FF08040FEF78BF8A348CE
:102E00000088401CA14908800B209D4908700121C1
:102E10008807FDF75FFF0BE1202D36D1002415E078
:102E2000224630213046FFF7E9FD00BF8021984857
:102E3000FDF7E8FB00BF00BF80219548FDF7E4FBEC
:102E400000BF0120FFF710FE601CC4B2022CE7DBBC
:102E5000FFF79AFE00208F4908708F480A461278C3
:102E600030F81200401E81B24FF08040FEF752F859
:102E700086480088401C854908800B2080490870DE
:102E800001218807FDF726FFD2E0122D4AD1022248
:102E900030213046FFF7B2FD00BF80217C48FDF7AE
:102EA000B1FB00BF00BF80217948FDF7ADFB00BF3B
:102EB0000120FFF7D9FD002415E0224630213046DD
:102EC000FFF79CFD00BF80217148FDF79BFB00BF11
:102ED00000BF80216E48FDF797FB00BF0220FFF77F
:102EE000C3FD601CC4B2022CE7DBFFF74DFE0020DF
:102EF0006849087068480A46127830F81200401E87
:102F000081B24FF08040FEF705F860480088401C11
:102F10005E4908800B205A49087001218807FDF797
:102F2000D9FE85E0212D4AD1022230213046FFF71B
:102F300065FD00BF80215648FDF764FB00BF00BF60
:102F400080215348FDF760FB00BF0220FFF78CFD96
:102F5000002415E0224630213046FFF74FFD00BF28
:102F600080214B48FDF74EFB00BF00BF8021484841
:102F7000FDF74AFB00BF0120FFF776FD601CC4B2DD
:102F8000022CE7DBFFF700FE0020424908704248B0
:102F90000A46127830F81200401E81B24FF080408D
:102FA000FDF7B8FF39480088401C384908800B20DD
:102FB0003349087001218807FDF78CFE38E00024B2
:102FC00018E0224630213046FFF718FD00BF80216F
:102FD0002F48FDF717FB00BF00BF80212C48FDF7ED
:102FE00013FB00BF0120FFF73FFD0220FFF73CFD70
:102FF000601CC4B2022CE4DBFFF7C6FD00202549AB
:10300000087025480A46127830F81200401E81B236
:103010004FF08040FDF77EFF1C480088401C1B4994
:1030200008800B201649087001218807FDF752FE21
:1030300014480068401C1349086018281ED300205B
:10304000086016490870012048701120887003211B
:103050001248FDF7BDFF00200949087000214FF01C
:103060008040FDF737FE0E480078012806D10C207D
:103070000349087001218807FDF72CFE70BD000090
:103080008300002074000020ED180020660000205E
:103090000010014069000020E0D90008F916002066
:1030A0008200002070B5F848007800287ED1F748EB
:1030B000006800EB4000F64901EB00163046FEF7D1
:1030C00069FF0546FF2D0CD1F2480088801CF149AC
:1030D00008800320EC49087001218807FDF7FAFDFC
:1030E000B2E1A5BB022230213046FFF787FC00BFCA
:1030F0008021E948FDF786FA00BF00BF8021E6483D
:10310000FDF782FA00BF0320FFF7AEFC4FF47A70A0
:10311000FEF7D4FAFFF738FD0320E0490870E048D5
:103120000A46127830F81200401E81B24FF08040FB
:10313000FDF7F0FED7480088401CD64908800320E0
:10314000D149087001218807FDF7C4FD7CE1FFE744
:10315000112D34D1022230213046FFF74FFC00BF41
:103160008021CD48FDF74EFA00BF00BF8021CA483C
:10317000FDF74AFA00BF0120FFF776FC0220FFF7B7
:1031800073FCFFF701FD0320C4490870C4480A46D8
:10319000127830F81200401E81B2A807FDF7BAFE7F
:1031A000BC480088401CBB49088000E07EE1032049
:1031B000B549087001218807FDF78CFD44E1022D17
:1031C00036D1002415E0224630213046FFF716FCA8
:1031D00000BF8021B048FDF715FA00BF00BF802175
:1031E000AD48FDF711FA00BF0220FFF73DFC601C5F
:1031F000C4B2022CE7DBFFF7C7FC0320A749087025
:10320000A7480A46127830F81200401E81B24FF0EB
:103210008040FDF77FFE9F480088401C9D49088044
:1032200003209949087001218807FDF753FD0BE140
:10323000202D36D1002415E0224630213046FFF7FC
:10324000DDFB00BF80219448FDF7DCF900BF00BF23
:1032500080219148FDF7D8F900BF0120FFF704FC59
:10326000601CC4B2022CE7DBFFF78EFC03208B4905
:1032700008708B480A46127830F81200401E81B25E
:103280004FF08040FDF746FE82480088401C81498F
:10329000088003207C49087001218807FDF71AFD8A
:1032A000D2E0122D4AD1022230213046FFF7A6FB90
:1032B00000BF80217848FDF7A5F900BF00BF80213D
:1032C0007548FDF7A1F900BF0120FFF7CDFB0024F1
:1032D00015E0224630213046FFF790FB00BF8021E9
:1032E0006D48FDF78FF900BF00BF80216A48FDF7E8
:1032F0008BF900BF0220FFF7B7FB601CC4B2022CA1
:10330000E7DBFFF741FC00206449087064480A4687
:10331000127830F81200401E81B24FF08040FDF765
:10332000F9FD5C480088401C5A4908800320564932
:10333000087001218807FDF7CDFC85E0212D4AD1D9
:10334000022230213046FFF759FB00BF802152484E
:10335000FDF758F900BF00BF80214F48FDF754F931
:1033600000BF0220FFF780FB002415E02246302139
:103370003046FFF743FB00BF80214748FDF742F985
:1033800000BF00BF80214448FDF73EF900BF012087
:10339000FFF76AFB601CC4B2022CE7DBFFF7F4FB0B
:1033A00000203E4908703E480A46127830F8120064
:1033B000401E81B24FF08040FDF7ACFD35480088DB
:1033C000401C3449088003202F49087001218807D8
:1033D000FDF780FC38E0002418E02246302130461A
:1033E000FFF70CFB00BF80212B48FDF70BF900BF56
:1033F00000BF80212848FDF707F900BF0120FFF733
:1034000033FB0220FFF730FB601CC4B2022CE4DB6C
:10341000FFF7BAFB00202149087021480A461278BC
:1034200030F81200401E81B24FF08040FDF772FD6F
:1034300018480088401C174908800320124908706A
:1034400001218807FDF746FC10480068401C0F4921
:103450000860182837D30020086012480068401C14
:103460001049086021282ED30020086000F04EF893
:1034700000200D4908700120487011208870032138
:103480000948FDF7A5FD1EE0830000206C00002028
:10349000603900086600002000100140690000202B
:1034A000E0D9000870000020F9160020002006492D
:1034B000087002204870912088702020C870042174
:1034C0000148FDF785FD70BDF916002010B50C48C8
:1034D0000088C8300A49088001200A490870012183
:1034E0008007FDF7F7FB00200749087001204870AE
:1034F0001120887003210448FDF76AFD10BD00000B
:103500006600002083000020F916002010B5064850
:103510000088A03004490880012004490870012176
:103520008007FDF7D7FB10BD660000208300002058
:1035300070B504460D462078102818D16078102800
:103540000DD100F001F900201149087001204870E8
:103550001420887003210E48FDF73AFD06E06078DC
:10356000112803D1A178E01CFEF7C6FA0DE0002077
:103570000749087002204870942088702120C87084
:1035800004210348FDF724FD00BF00BF70BD00000B
:10359000F916002000B587B001210820FDF72AF9AF
:1035A00001210846FDF726F901218804FDF702F9FB
:1035B00001210820FDF71EF94FF40060ADF8180056
:1035C00010208DF81B0003208DF81A0006A934483E
:1035D000FCF746FF4FF48050ADF8180018208DF826
:1035E0001B0003208DF81A0006A92D48FCF738FFB0
:1035F0004FF48060ADF818001C208DF81B000320EC
:103600008DF81A0006A92648FCF72AFF0421254850
:10361000FDF711FE02212348FDF705FE4FF400607F
:10362000ADF810000020ADF81200ADF814004FF412
:103630008070ADF8160004A91A48FDF706FD42F6A1
:10364000417000904FF48050ADF804004FF44050AA
:10365000ADF806004FF48060ADF808000C20ADF81E
:103660000A000020ADF80C0069460E48FDF766FD23
:10367000012240F225510B48FDF73BFD012109488D
:10368000FDF7F4FC01210748FDF7E9FD012105489C
:10369000FDF7D9FD40210348FDF7CEFC07B000BD82
:1036A000000C01400048004010B5012080F3108854
:1036B00000BF0A4800680A490860002080F31088AB
:1036C00000BF084800680968884205D004480068BF
:1036D0000449086000F008F810BD00002800002030
:1036E000940000209800002000B59BB01AA9022089
:1036F000FEF7ECFAA8B91248007828B11048007813
:10370000401E0F49087019E00E480088B0B10D48FE
:10371000028801A90020FEF7E8FA00200949088084
:103720000CE03220064908709DF8681005480288B0
:103730000088401C034B188001A881541BB000BDB9
:10374000900000209200002010B500BF4FF40061EF
:103750000B48FCF757FF00BF00BF4FF480610848DB
:10376000FCF752FF00BF4FF4C870FDF7A7FF00BF82
:103770004FF400610248FCF747FF00BF10BD000096
:10378000000C014008B58020ADF8000048208DF8FD
:10379000030002208DF8020069460248FCF760FE33
:1037A00008BD00000008014008B58020ADF8000009
:1037B00010208DF8030002208DF8020069460248AF
:1037C000FCF74EFE08BD00000008014010B504469D
:1037D0002078094A32F81000401E81B24FF0804034
:1037E000FDF798FB2078401CC0B220701B2801DD3B
:1037F0001B20207010BD0000E0D9000870B5002526
:1038000000241CE0FEF73AFC28B9C4F107010120AE
:1038100088402843C5B200BF20210B48FCF7F4FEC6
:103820000A20FDF74BFF00BF00BF20210648FCF730
:10383000E9FE0A20FDF742FF00BF601CC4B2082C5D
:10384000E0DB284670BD00000008014008B569466D
:103850000020FEF73BFA68B93D480088002805DDE6
:103860003B480088401E3A49088070E000203949F2
:1038700008706CE03648008868B93648007850B95E
:103880009DF80000552806D100203349088001200A
:103890003049087057E02F48007801282FD19DF853
:1038A0000000FF2803D102202A4908704BE09DF850
:1038B0000000552805D100202649087024490880B9
:1038C00041E09DF80000AA280DD10320214908708D
:1038D000214801882148FEF797F900201D4908700A
:1038E0001B4908802FE09DF800001C491A4A1288E5
:1038F000885419480088401C1749088023E015485F
:10390000007802281FD19DF80000FF2807D09DF8FD
:103910000000552803D09DF80000AA280ED19DF87C
:1039200000000E490C4A128888540B480088401C3D
:103930000949088001200749087004E00020054972
:103940000870034908804FF47A700149088008BD67
:103950005C000020600000205E000020F90E0020C6
:103960000000000000000000000000000000000057
:103970000000000000000000000000000000000047
:103980000000000000000000000000000000000037
:103990000000000000000000000000000000000027
:1039A0000000000000000000000000000000000017
:1039B0000000000000000000000000000000000007
:1039C00000000000000000000000000000000000F7
:1039D00000000000000000000000000000000000E7
:1039E00000000000000000000000000000000000D7
:1039F00000000000000000000000000000000000C7
:103A000000000000000000000000000000000000B6
:103A100000000000000000000000000000000000A6
:103A20000E600380110C3000018000000E1C30700D
:103A3000070000000C200000000000000000000053
:103A4000000000000300200060C0006030CC0000D7
:103A50000E60018039087F7E03C03FFC789C307087
:103A600007007DFE0E707FFE0000000000000000D9
:103A700000000001FFFE37FC60E0036030CC000076
:103A80000E62FFFF2D586C6607E0300C18FC33FE09
:103A9000FFFF6D860C30000607071DFDF7F81F01BC
:103AA000F87E1E000000760C67FC1BFDB1CFFE0007
:103AB0000E6E00006D5F4C660E703FFC185CFC7073
:103AC0000C006D8618180006070F1DFDF7FC3F83DC
:103AD000F8FE3F803FF0660DF3183261B19F03009E
:103AE0007E7C3FFCCD52FFE61C38300C181C307039
:103AF0001C0069FE381CFFF6038F1DC0E71E71C74E
:103B000009C223803030C7FC63386061B39703007B
:103B10000E78300C1FF61E66781C3FFCFF9C307040
:103B20001FFC7986300C0006038F99C0E70EE0E792
:103B300001C003803030960C67FC67FFB3B7030009
:103B40000E70300C30363B7E6FF6018038FC33FE51
:103B5000380C798661060006039F99C0E70EE0E7FE
:103B600081E003803FF03E0CF40CC061B7A7F18008
:103B70000E60300C77DE73000180FFFF3C5C3C0E72
:103B8000780C798643823FC60199B9F8E71EE0E3D5
:103B9000F0FC0700000037FCF4CCC061B387018063
:103BA0000E603FFC701E7FFC018000003E1CF10C8B
:103BB0007FFC6DFE030030C60199B9F8E7FCE0E335
:103BC000F8FE0F00FFFC6000E8C0C3FDB187018074
:103BD0000E600180B7CC300C01803FFC7E1C318C24
:103BE000580C6DE2070030C601F9F1C0E7F0E0E0E3
:103BF0007C1F1E00C00CEFFDEFFEC365B187018086
:103C00000E60119036CC300C3FFC300C783F30D831
:103C1000180C6DB70E0030C601F9F1C0E700E0E006
:103C20001C071C00CFECE019E300C365B187F180ED
:103C30003E62199834FC3FFC01803FFCDBDC30F035
:103C40001FFC6DBE0E2030C600F0F1C0E70071C44D
:103C50001D073000C86C6FFF63FCC365B18701802E
:103C6000CE67318C34FE300C01800180581C30F856
:103C7000180C799C1C783FC600F0E1FDF7003F87E7
:103C8000F9FE7F80C86C6618630CC36431870180BD
:103C90000E6761863CF2300C01800990181C31DC03
:103CA000180C61FC383C300600F0E1FDF7001F07FE
:103CB000F1FC7F80CFEC6318670C636C31870300E5
:103CC0000E66418238823FFC7FFE318C181C338E99
:103CD000180C63EE3FFE000E000000000000000024
:103CE00000000000C80C62186E18637C3187030066
:103CF0000E7E07000000300C00004782181C660290
:103D0000187C63820004007C0000000000000000BA
:103D100000000000C07860F07CF83060E1870300AC
:103D20000000000000000000000000000000000093
:103D30000000000000000000000000000000000083
:103D40000000000000000000000018000000060055
:103D50000000000000000000000000000000000063
:103D60000000000000000000000000000000000053
:103D70000000000000000000000000000000000043
:103D80000000000000000000000000000000000033
:1047E0000000000000F3C000F00000000000000026
:1047F00000000000000000000000000000000000B9
:1048000000000000000000000000000000000000A8
:104810000000000000F3C0003000000000000000B5
:104820000000000000000000000000000000000088
:104830000000000000000000000000000000000078
:104840000000000000F3C000300000000000000085
:104850000000000000000000000000000000000058
:104860000000000000000000000000000000000048
:104870000000000000F3C47FFFFC00000000000007
:104880000000000000000000000000000000000028
:104890000000000000000000000000000000000018
:1048A0000000000000F3DC00000000000000000039
:1048B00000000000000000000000000000000000F8
:1048C00000000000000000000000000000000000E8
:1048D0000000000000F3DC00000000000000000009
:1048E00000000000000000000000000000000000C8
:1048F00000000000000000000000000000000000B8
:10490000000000000FF3F81FFFE0000000000000AF
:104910000000000000000000000000000000000097
:104920000000000000000000000000000000000087
:10493000000000000FF3F81FFFE00000000000007F
:104940000000000000000000000000000000000067
:104950000000000000000000000000000000000057
:104960000000000000F3F01800E00000000000006C
:104970000000000000000000000000000000000037
:104980000000000000000000000000000000000027
:104990000000000000F3E01800E00000000000004C
:1049A0000000000000000000000000000000000007
:1049B00000000000000000000000000000000000F7
:1049C0000000000000F3E01800E00000000000001C
:1049D00000000000000000000000000000000000D7
:1049E00000000000000000000000000000000000C7
:1049F0000000000000F3C01800E00000000000000C
:104A000000000000000000000000000000000000A6
:104A10000000000000000000000000000000000096
:104A20000000000000F3C01FFFE0000000000000D5
:104A30000000000000000000000000000000000076
:104A40000000000000000000000000000000000066
:104A50000000000000F3C01FFFE0000000000000A5
:104A60000000000000000000000000000000000046
:104A70000000000000000000000000000000000036
:104A80000000000000F3C000300000000000000043
:104A90000000000000000000000000000000000016
:104AA0000000000000000000000000000000000006
:104AB0000000000000F3C000310000000000000012
:104AC00000000000000000000000000000000000E6
:104AD00000000000000000000000000000000000D6
:104AE0000000000000F3C0003100000000000000E2
:104AF00000000000000000000000000000000000B6
:104B000000000000000000000000000000000000A5
:104B10000000000007F3C40E318000000000000018
:104B20000000000000000000000000000000000085
:104B30000000000000000000000000000000000075
:104B40000000000018F3C79830E0000000000000EB
:104B50000000000000000000000000000000000055
:104B60000000000000000000000000000000000045
:104B70000000000018F3C79830E0000000000000BB
:104B80000000000000000000000000000000000025
:104B90000000000000000000000000000000000015
:104BA0000000000000F3CC30307000000000000076
:104BB00000000000000000000000000000000000F5
:104BC00000000000000000000000000000000000E5
:104BD0000000000000F3CC30307000000000000046
:104BE00000000000000000000000000000000000C5
:104BF00000000000000000000000000000000000B5
:104C00000000000000F3CC60301000000000000045
:104C10000000000000000000000000000000000094
:104C20000000000000000000000000000000000084
:104C30000000000000F0FC01E000000000000000A7
:104C40000000000000000000000000000000000064
:104C50000000000000000000000000000000000054
:104C60000000000000F0FC01E00000000000000077
:104C70000000000000000000000000000000000034
:104C80000000000000000000000000000000000024
:104C90000000000000000000000000000000000014
:104CA0000000000000000000000000000000000004
:104FF0000C00000E007000000E00001800100000F1
:1050000000000000000000000000000000000000A0
:105010000000000000000000000000000000000090
:105020000C00000E007000000E00001800100000C0
:105030000000000000000000000000000000000070
:1050400000000000000000000000000003FFFFC09F
:105050000C007F3E007FFF800E007F7FF01FBFC3EC
:10506000FFFE000000000000000000000000000043
:1050700000000000000000000000000003FFFFC06F
:105080000C007F3E007FFF800E007F7FF01FBFC3BC
:10509000FFFE000000000000000000000000000013
:1050A0000000000000000000000000000038000FB9
:1050B000FFFE617FF0700F8FFFFE7A78E05020C313
:1050C0008000000000000000000000000000000060
:1050D0000000000000000000000000000038000098
:1050E0000C0061F070E01C0E300E7AFCE1FFB7831B
:1050F0008000000000000000000000000000000030
:105100000000000000000000000000000038000067
:105110000C0061F070E01C0E300E7AFCE1FFB783EA
:1051200080000000000000000000000000000000FF
:105130000000000000000000000000000038000037
:105140000C0061FCE0E01C0EF00E7E87C3CF1F0355
:1051500080000000000000000000000000000000CF
:105160000000000000000000000000000038000007
:105170000C007F0F81E03801FFF07E07C078F783D5
:10518000FFFE000000000000000000000000000022
:1051900000000000000000000000000000380000D7
:1051A0000C007F0F81E03801FFF07E07C078F783A5
:1051B000FFFE0000000000000000000000000000F2
:1051C000000000000000000000000000003FFE00A2
:1051D0000C001E0F81E0F007E0F07E7DE0673043B9
:1051E00081C000000000000000000000000000007E
:1051F00000000000000000000000000000380E0762
:10520000FFF85E3FF7E0F00E31E07FF8DF98D8035B
:1052100081C000000000000000000000000000004D
:1052200000000000000000000000000000380E0731
:10523000FFF85E3FF7E0F00E31E07FF8DF98D8032B
:1052400081C000000000000000000000000000001D
:10525000000000000000000000001FCFE0380E003A
:105260000C005EF079E3E0001F007A7FC07FFF83CF
:1052700081C01F8FC000000000000000000000007F
:10528000000000000000000000001FCFE0380E000A
:105290000C005EF079E3E0001F007A7FC07FFF839F
:1052A00081C01F8FC000000000000000000000004F
:1052B000000000000000000000001FCFE0380E00DA
:1052C0000C005F0000E3E001FFF07BE203F00FE37E
:1052D00081C01F8FC000000000000000000000001F
:1052E00000000000000000000000000000380C007A
:1052F0000C005E3FF0E7C01FC07F7BFFF03FFF0365
:1053000081C000000000000000000000000000005C
:1053100000000000000000000000000000380C0049
:105320000C005E3FF0E7C01FC07F7BFFF03FFF0334
:1053300081C000000000000000000000000000002C
:1053400000000000000000000000000000700C00E1
:105350000C005E3070E7C041FFFC7B8200300F0222
:1053600001C000000000000000000000000000007C
:1053700000000000000000000000000000700C1F92
:10538000FFFF5E3070E7006100107FFFF03FFF0E0F
:1053900001C000000000000000000000000000004C
:1053A00000000000000000000000000000700C1F62
:1053B000FFFF5E3070E7006100107FFFF03FFF0EDF
:1053C00001C000000000000000000000000000001C
:1053D00000000000000000000000000000C00C0001
:1053E0000C005FB070E703C1001078020030C08E7F
:1053F00001C00000000000000000000000000000EC
:1054000000000000000000000000000003800C000D
:105410000C00FE3FF0E703C1FFF07802003F9F0C55
:1054200001C00000000000000000000000000000BB
:1054300000000000000000000000000003800C00DD
:105440000C00FE3FF0E703C1FFF07802003F9F0C25
:1054500001C000000000000000000000000000008B
:105460000000000000000000000000000703F8003A
:105470000C00003070E3FF81001079FFFC3000CC9D
:105480001F000000000000000000000000000000FD
:10549000000000000000000000000000000000000C
:1054A00000000000000000000000000000000000FC
:1054B00000000000000000000000000000000000EC
:1054C00000000000000000000000000000000000DC
:1058100000000000000000000000403FF004000015
:1058200000003C07C1F07878000000000000000094
:105830000000000000000000000000000000000068
:105840000000000000030307801FFF0003CC0000DE
:10585000000046042308C08C000000000000000087
:105860000000000000000000000000000000000038
:1058700000000000000F0F0880000400010A000073
:1058800000000204260C800400000000000000005C
:105890000000000000000000000000000000000008
:1058A00000000000000101008003FC000111000065
:1058B0000000020424048004000000000000000036
:1058C00000000000000000000000000000000000D8
:1058D00000000000000101008000000001208000A5
:1058E0000000040424046008000000000000000020
:1058F00000000000000000000000000000000000A8
:105900000000000000010107000FFE7FFBE44000E3
:1059100000000C07C404381800000000000000005C
:105920000000000000000000000000000000000077
:1059300000000000000101008008020401000000D6
:105940000000180404040C300000000000000000F7
:105950000000000000000000000000000000000047
:1059600000000000000101004009F20C013F80002E
:1059700000003004040C046000000000000000007F
:105980000000000000000000000000000000000017
:105990000000000000010100400902088101000030
:1059A00000006004021884C0000000000000000035
:1059B00000000000000000000000000000000000E7
:1059C00000000000000101088009F21041D200002F
:1059D00000007E0401F078FC0000000000000000E0
:1059E00000000000000000000000000000000000B7
:1059F00000000000000FCFC700090223E70C0000E1
:105A00000000000000000000000000000000000096
:105A10000000000000000000000000000000000086
:105A2000000000000000000000080E3C100600000E
:105A30000000000000000000000000000000000066
:105A40000000000000000000000000000000000056
:105A50000000000000000000000000000002000044
:105A60000000000000000000000000000000000036
:105A70000000000000000000000000000000000026
:105A80000000000000000000000000000000000016
:105A90000000000000000000000000000000000006
:105DF00079CE739CE739CE739CE739CE739CE73933
:105E0000CE739CE739CE739CE739CE739CE739CECD
:105E1000739CE739CE739CE739CE739CE739CE701B
:105E20000000000000000000000000000000000072
:105E30000000000000000000000000000000000062
:105E40000000000000000000000000000000000052
:105E50000000000000000000000000000000000042
:1061500000007910820FF80000000000000000002D
:10616000000000000000000000000000000000002F
:106170000000000000000000020294000000000087
:1061800000004120440808000183C3C3C000000090
:1061900000000000000000000000000000000000FF
:1061A00000000000000000000200A40000780000D1
:1061B00000005161FF0FF800078666646000000070
:1061C00000000000000000000000000000000000CF
:1061D00000000000000000000203F7C0008C000077
:1061E0000000514010080800008424202000000016
:1061F000000000000000000000000000000000009F
:106200000000000000000000020080800004000088
:1062100000005101FF000004008424202000000041
:10622000000000000000000000000000000000006E
:1062300000000000000000000603E8808004000069
:10624000000057F8103FFE040084242040000000A6
:10625000000000000000000000000000000000003E
:106260000000000000000000050694008008000007
:1062700000004141FF04000000842420C000000011
:10628000000000000000000000000000000000000E
:1062900000000000000000000501050000180000DB
:1062A0000000414010000000008424218000000014
:1062B00000000000000000000000000000000000DE
:1062C00000000000000000000887E300003000002C
:1062D000000031201007F800008424230000000093
:1062E00000000000000000000000000000000000AE
:1062F0000000000000000000188222000060000082
:1063000000002917FFC00804008646460000000070
:10631000000000000000000000000000000000007D
:1063200000000000000000001041C70080C0000015
:10633000000045481000080407E3C3C7E000000060
:10634000000000000000000000000000000000004D
:1063500000000000000000006021ED8080FC0000D3
:10636000000081001001F0000000000000000000AB
:10637000000000000000000000000000000000001D
:106380000000000000000000C01E104000000000DF
:1063900000000000000000000000000000000000FD
:1063A00000000000000000000000000000000000ED
:1063B00000000000000000000000000000000000DD
:1063C00000000000000000000000000000000000CD
:106630000000000000000000000000003C3C183C8E
:1066400000F0F00183C00000001818078780F1F8FF
:10665000000000000000000000000000000000003A
:1066600000000000000000000000000046667846C0
:1066700001991807846000000078780888808008F5
:10668000000000000000000000000000000000000A
:1066900000000000000000000000000002420802AC
:1066A00001080800802000000008080088408010D1
:1066B00000000000000000000000000000000000DA
:1066C000000000000000000000000000024208027C
:1066D0000108080080200000000808408848801059
:1066E00000000000000000000000000000000000AA
:1066F0000000000000000000000000000442080448
:1067000001081000804000000008084708C8F02079
:106710000000000000000000000000000000000079
:106720000000000000000000000000000C42080C07
:106730000108300080C000000008080087401820D1
:106740000000000000000000000000000000000049
:1067500000000000000000000000000018420818BF
:10676000790861E0818000000008080040400820AE
:106770000000000000000000000000000000000019
:10678000000000000000000000000000304208305F
:106790000108C000830000000008080040400840D5
:1067A00000000000000000000000000000000000E9
:1067B00000000000000000000000000060640860AD
:1067C0000191800086000000000808488089104080
:1067D00000000000000000000000000000000000B9
:1067E0000000000000000000000000007E3C7E7EF3
:1067F00000F1F807E7E00000007E7E470F08E08028
:106800000000000000000000000000000000000088
:106810000000000000000000000000000000000078
:106820000000000000000000000000000000000068
:106830000000000000000000000000000000000058
:106C000079E79E79E79E79E79E79E79E79E79E7915
:106C1000E79E79E79E79E79E79E79E79E79E79E797
:106C20009E79E79E79E79E79E79E79E79E79E780EE
:106C30000000000000000000000000000000000054
:106C40000000000000000000000000000000000044
:106C50000000000000000000000000000000000034
:106C60000000000000000000000000000000000024
:106F6000000000100084000000000000000000008D
:106F70000000000000000000000000000000000011
:106F80000000000000000000000000000000000001
:106F90000000001FE10201FF80000000000000006F
:106FA00000000000000000000000000000000000E1
:106FB00000000000000000000000000000000000D1
:106FC000000000100103010080000000000000002C
:106FD00000000000000000000000000000000000B1
:106FE00000000000000000000000000000000000A1
:106FF000000003FFC17FE100800003C1800F0F008C
:107000000000000000000000000000000000000080
:107010000000000000000000000000000000000070
:1070200000000200420001FF801802078008118062
:107030000000000000000000000000000000000050
:107040000000000000000000000000000000000040
:10705000000003FFC2204100801802008008008069
:107060000000000000000000000000000000000020
:107070000000000000000000000000000000000010
:10708000000002004620400000000200800800804E
:1070900000000000000000000000000000000000F0
:1070A00000000000000000000000000000000000E0
:1070B000000003FFC610CFFFF00003C0800F0100E7
:1070C00000000000000000000000000000000000C0
:1070D00000000000000000000000000000000000B0
:1070E000000000100A108080000000608001830012
:1070F0000000000000000000000000000000000090
:10710000000000000000000000000000000000007F
:10711000000000100210810000000020878086001F
:10712000000000000000000000000000000000005F
:10713000000000000000000000000000000000004F
:10714000000007FFF20901FFC000002080008C0052
:10715000000000000000000000000000000000002F
:10716000000000000000000000000000000000001F
:107170000000007402090000C018044080111800CB
:1071800000000000000000000000000000000000FF
:1071900000000000000000000000000000000000EF
:1071A000000001938201000080180387E00E1F8019
:1071B00000000000000000000000000000000000CF
:1071C00000000000000000000000000000000000BF
:1071D00000000E10727FF03F8000000000000000F1
:1071E000000000000000000000000000000000009F
:1071F000000000000000000000000000000000008F
:10720000000000100200000000000000000000006C
:10721000000000000000000000000000000000006E
:10722000000000000000000000000000000000005E
:10723000000000000000000000000000000000004E
:10724000000000000000000000000000000000003E
:1074A0000000000000810100E0000000000000007A
:1074B00000000000000000000000000000000000CC
:1074C00000000000000000000000000000000000BC
:1074D000000007FFE081021F81FF87DFC00000007E
:1074E000E0003C0000000000000000000000000080
:1074F000000000000000000000000000000000008C
:1075000000000081004202D101008100400003819F
:1075100010E0460000000000000000000000000035
:10752000000000000000000000000000000000005B
:107530000000008103FFC491010081084000048322
:107540001920C6000000000000000000000000003C
:10755000000000000000000000000000000000002B
:10756000000000810210441101FF810840180082D0
:107570000820C6000000000000000000000000001D
:1075800000000000000000000000000000000000FB
:107590000000008103FFCF11010082084018008223
:1075A000082064000000000000000000000000004F
:1075B00000000000000000000000000000000000CB
:1075C000000000810210421FE00007C88000008216
:1075D000082038000000000000000000000000004B
:1075E000000000000000000000000000000000009B
:1075F00000000FFFF21044110FFFF64FE000008271
:1076000008206C00000000000000000000000000E6
:10761000000000000000000000000000000000006A
:107620000000008103FFC79100800E40200000820F
:107630000820C6000000000000000000000000005C
:10764000000000000000000000000000000000003A
:107650000000008102104011010002402000008261
:107660000820820000000000000000000000000070
:10767000000000000000000000000000000000000A
:1076800000000081001000D111FFC25FA000008344
:107690001820820000000000000000000000000030
:1076A00000000000000000000000000000000000DA
:1076B000000000810FFFF3169000C24020180081E7
:1076C0001020C600000000000000000000000000C4
:1076D00000000000000000000000000000000000AA
:1076E0000000010100100438A00083C0201807F03A
:1076F000E1FC7C0000000000000000000000000031
:107700000000000000000000000000000000000079
:107710000000020100100020603F8243C000000012
:107720000000000000000000000000000000000059
:107730000000000000000000000000000000000049
:107740000000040100100000000000000000000024
:107750000000000000000000000000000000000029
:107760000000000000000000000000000000000019
:107770000000000000000000000000000000000009
:1077800000000000000000000000000000000000F9
:1079B0000000000000050084010208040800040023
:1079C00000100000000000000000000000000000A7
:1079D00000000000000000000000000000000000A7
:1079E00000000F3FCF048FFFE08406FFC67F843F77
:1079F00087FFC07E01E00E070000000000000000CD
:107A0000000000000600E070000000000000000020
:107A100038000924497FE0840FFFC20402030FA04D
:107A20008400018300301108800000000000000085
:107A3000000000000E01108800000000000000009F
:107A40004800092449040FFFC02000FFC00C082093
:107A50008400030080303198C00000000000000066
:107A6000000000000A03198C000000000000000064
:107A700008000924497FC80047FF88040860103FB8
:107A800084FF823E40102090400000000000000073
:107A900000000000120209040000000000000000C5
:107AA0000800093FC9444BFF40200DFFECFFDF24D5
:107AB000848C04444030209040000000000000000E
:107AC0000000000012020904000000000000000095
:107AD00008000924494442010060060002124404DF
:107AE000048404C4402020904000000000000000F6
:107AF0000000000022020904000000000000000055
:107B000008000924497FC3FF0FFFC07FC022447FC4
:107B1000C484048440602090400000000000000005
:107B20000000000042020904000000000000000004
:107B3000080009244944420100CC064044245F4423
:107B400044FFC48440C020904000000000000000BA
:107B500000000000420209040000000000000000D4
:107B60000800093FC94440000387047FC444444ED1
:107B70004484048441802090400000000000000004
:107B800000000000FF820904000000000000000067
:107B900008000F244F7FC7FF8C84E44044C8445939
:107BA000448404CCC3003198C000000000000000F1
:107BB000000000000203198C00000000000000001B
:107BC00008000904094444008084047FCC9845706F
:107BD000C89426738603110880000000000000008E
:107BE00000000000023110880000000000000000CA
:107BF0007F0000040044440081840C4049308740E9
:107C000048E2220007F30E07000000000000000019
:107C1000000000000230E0700000000000000000E2
:107C2000000000040045C7FF83040840C867844380
:107C3000C8D14182000000000000000000000000E8
:107C40000000000000000000000000000000000034
:107C500000000000000004008404084780000000C9
:107C60001004C07C000000000000000000000000C4
:107C70000000000000000000000000000000000004
:107C800000000000000000000000000000000000F4
:107C900000000000000000000000000000000000E4
:107CA00000000000000000000000000000000000D4
:107EC00000000000000500000201000000000000AA
:107ED00000000000000000000000000000000000A2
:107EE0000000000000000000000000000000000092
:107EF0001E000F3FCF0484FFC211007E01C00E0799
:107F00000000000000000000000000000000000071
:107F1000000000000F00E070000000000000000002
:107F200003000924497FE2804249018300201108AF
:107F300080000000000000000000000000000000C1
:107F40000000000010011088000000000000000088
:107F500003000924490402844A85030080203198E3
:107F6000C000000000000000000000000000000051
:107F7000000000002003198C000000000000000039
:107F800001000924497FC09F4E81023E402020907D
:107F900040000000000000000000000000000000A1
:107FA0000000000060020904000000000000000062
:107FB0000300093FC9445C8442110444406020909E
:107FC0004000000000000000000000000000000071
:107FD0000000000040020904000000000000000052
:107FE00002000924494444FFDFD904C4438020909F
:107FF0004000000000000000000000000000000041
:10800000000000005E020904000000000000000003
:1080100006000924497FC480420504844060209002
:108020004000000000000000000000000000000010
:1080300000000000630209040000000000000000CE
:108040000C0009244944449F470104844030209097
:1080500040000000000000000000000000000000E0
:1080600000000000410209040000000000000000C0
:108070001800093FC94445914681E484403020906E
:1080800040000000000000000000000000000000B0
:108090000000000041020904000000000000000090
:1080A00030000F244F7FC69F4A7F04CCC0303198E8
:1080B000C000000000000000000000000000000000
:1080C000000000006103198C0000000000000000A7
:1080D00060000904094444904A010673842311088E
:1080E0008000000000000000000000000000000010
:1080F0000000000023311088000000000000000094
:108100007F000004004441005201020003C30E0737
:10811000000000000000000000000000000000005F
:10812000000000001E30E0700000000000000000B1
:10813000000000040045C303C201018200000000EA
:10814000000000000000000000000000000000002F
:10815000000000000000000000000000000000001F
:1081600000000000000000000201007C0000000090
:1081700000000000000000000000000000000000FF
