:020000040800F2
:10000000003C002001010008F5040008410400083C
:10001000F1040008ED010008611200080000000072
:100020000000000000000000000000005B07000866
:100030009302000800000000810500084108000844
:10004000711200081B0100081B0100081B010008B9
:100050001B0100081B0100081B0100081B01000810
:100060001B0100081B0100081B0100081B01000800
:100070001B0100081B0100081B0100081B010008F0
:100080001B0100081B0100081B0100081B010008E0
:100090001B0100081B0100081B0100081B010008D0
:1000A0001B0100081B0100081B0100081B010008C0
:1000B000D90800081B0100081B0100081B010008EB
:1000C0001B0100081B0100081B0100081B010008A0
:1000D0001B010008550D0008AD0D0008BD0D0008FE
:1000E0001B0100081B0100081B010008DFF80CD0F1
:1000F00000F052F800480047CB1C0008003C0020EC
:100100000648804706480047FEE7FEE7FEE7FEE7B1
:10011000FEE7FEE7FEE7FEE7FEE7FEE779080008F8
:10012000ED00000840EA01039B0703D009E008C97D
:10013000121F08C0042AFAD203E011F8013B00F8AC
:10014000013B521EF9D27047D2B201E000F8012BF8
:10015000491EFBD270470022F6E710B513460A4647
:1001600004461946FFF7F0FF204610BD30B50B4698
:10017000014600202022012409E021FA02F59D42D7
:1001800005D303FA02F5491B04FA02F52844151EAB
:10019000A2F10102F1DC30BD064C074D06E0E0683B
:1001A00040F0010394E8070098471034AC42F6D3BE
:1001B000FFF7A0FF34D8000854D8000810B501F0AC
:1001C000A3FF01F0BBFD01F0CFFB02F0D1FE10BD9B
:1001D00010B501F0BFF902F0F5FF02F0C9F801F027
:1001E000C5FD01F04BFC02F04FFF10BD00BFFEE764
:1001F000014609B90B487047012901D10A48FAE7BD
:10020000022901D10948F6E7032901D10020F2E7CC
:10021000042901D10020EEE7052901D10020EAE7F9
:100220000020E8E7C0000020E8100020101D00209A
:1002300008B54FF4E06000F099F925208DF8000032
:1002400001208DF8010000208DF8020001208DF8BA
:100250000300684600F050F926208DF800000120C8
:100260008DF801008DF802008DF80300684600F05B
:1002700043F927208DF8000001208DF801000220AD
:100280008DF8020001208DF80300684600F034F973
:1002900008BD70472DE9F0410246002500260020E8
:1002A00000230024002791F803C00CF00F0591F8FB
:1002B00003C01CF0100F03D091F802C04CEA0505F2
:1002C00091F800C0BCF1000F31D0146800202BE081
:1002D0004FF0010C0CFA00F3B1F800C00CEA030671
:1002E0009E4220D183004FF00F0C0CFA03F7BC4361
:1002F00005FA03FC4CEA040491F803C0BCF1280F92
:1003000006D14FF0010C0CFA00FCC2F814C00AE050
:1003100091F803C0BCF1480F05D14FF0010C0CFA65
:1003200000FCC2F810C0401C0828D1D31460B1F8FA
:1003300000C0BCF1FF0F34DD546800202EE000F156
:10034000080C4FF0010808FA0CF3B1F800C00CEAF1
:1003500003069E4221D183004FF00F0C0CFA03F7E5
:10036000BC4305FA03FC4CEA040491F803C0BCF159
:10037000280F05D100F1080C08FA0CF8C2F8148017
:1003800091F803C0BCF1480F07D100F1080C4FF001
:10039000010808FA0CF8C2F81080401C0828CED3D7
:1003A0005460BDE8F0810000F0B50A460023002447
:1003B0000021002500F00046B6F1004F02D11D4E8D
:1003C000F16901E01B4E7168C0F3034583B200F48C
:1003D0004016B6F5401F08D121F07061154E7668C1
:1003E00026F07066134F7E6012E000F48016B6F5BA
:1003F000801F06D1032606FA05F4A14341F070617F
:1004000006E0460D360103FA06F6B14341F070618D
:1004100022B1460D360103FA06F6314300F00046DC
:10042000B6F1004F02D1034EF16101E0014E71605F
:10043000F0BD00000000014041617047016170475C
:1004400000BFFEE74AF6AA20014908607047000095
:100450000030004000B585B00121042000F0B2F862
:100460000121880300F0AEF818208DF813004FF436
:100470000070ADF8100003208DF8120004A9184890
:10048000FFF708FF04208DF813000002ADF81000FC
:1004900004A91348FFF7FEFE4FF4E130009000205E
:1004A000ADF80400ADF80600ADF80800ADF80C009A
:1004B0000C20ADF80A0069460A4800F009FD012247
:1004C00040F22551074800F0DEFC0121054800F00C
:1004D00097FC4021034800F079FC05B000BD000006
:1004E000000801400038014010B5FFF7ABFF10BD18
:1004F00000BFFEE77047000070B5002100230F2207
:10050000C4780CB3164C246804F4E064C4F5E064C9
:10051000210AC1F10403CA40447804FA03F1847843
:100520001440214309010F4C0678A155047804F0CA
:100530001F050124AC4005786D114FF0E02606EB55
:100540008505C5F8004109E0047804F01F05012481
:10055000AC40054D0678761145F8264070BD000088
:100560000CED00E000E400E080E100E0024901431E
:10057000024A1160704700000000FA050CED00E02F
:100580007047000029B1064AD2690243044BDA6180
:1005900004E0034AD2698243014BDA6170470000EC
:1005A0000010024029B1064A12690243044B1A6145
:1005B00004E0034A12698243014B1A61704700004C
:1005C0000010024029B1064A92690243044B9A6125
:1005D00004E0034A92698243014B9A61704700002C
:1005E0000010024029B1064AD2680243044BDA6087
:1005F00004E0034AD2688243014BDA60704700008E
:100600000010024030B500210022002400232D4DAF
:100610006D6805F00C0121B1042905D0082923D10A
:1006200005E0294D056022E0274D05601FE0254DBE
:100630006D6805F47012234D6D6805F48034022551
:1006400005EB92421CB9214D554305600BE01D4D51
:100650006D6815F4003F03D01C4D5543056002E062
:10066000194D5543056002E0174D056000BF00BFFE
:10067000144D6D6805F0F0010909154D6B5C0568B6
:10068000DD4045600F4D6D6805F4E061090A104DCD
:100690006B5C4568DD4085600A4D6D6805F460510E
:1006A000C90A0B4D6B5C4568DD40C560054D6D6842
:1006B00005F44041890B074D6B5CC568B5FBF3F54C
:1006C000056130BD0010024000127A0000093D00B3
:1006D000000000201000002021B1028842F04002FA
:1006E000028004E002884FF6BF731A400280704710
:1006F0000246002013890B4201D0012000E00020B7
:1007000070478181704710B50022028802F441527F
:100710000B884C8823438C882343CC8823430C8943
:1007200023434C8923438C892343CC8923431A4395
:100730000280838B4FF2FF74234083830B8A0382F2
:1007400010BD21B1828842F00402828004E08288D8
:100750004FF6FB731A4082807047704710B500F067
:1007600001F810BD0CB500200190009032480068DF
:1007700040F480303049086000BF2F48006800F422
:10078000003000900198401C0190009818B9019821
:10079000B0F5A06FF1D12848006810F4003F02D0F6
:1007A0000120009001E0002000900098012842D133
:1007B0002248006840F010002049086008460068A0
:1007C00020F0030008600846006840F0020008605E
:1007D000194840681849486008464068486008461B
:1007E000406840F4806048600846406820F47C100F
:1007F00048600846406840F4E810486008460068D1
:1008000040F08070086000BF0B48006810F0007F67
:10081000FAD00948406820F00300074948600846BC
:10082000406840F00200486000BF0348406800F0A4
:100830000C000828F9D10CBD001002400020024035
:1008400010B500F001F810BD08480068401C0749C9
:1008500008600748006840B105480068401E044928
:10086000086002D101200349087070473800002059
:100870003C0000204000002010B51348006840F004
:1008800001001149086008464068104908400E49B7
:100890004860084600680E4908400B490860084651
:1008A000006820F4802008600846406820F4FE00BC
:1008B00048604FF41F008860FFF750FF4FF0006062
:1008C0000449086010BD0000001002400000FFF85D
:1008D000FFFFF6FE08ED00E010B500F001F810BDD6
:1008E00010B50121880700F0BFF9002841D001218F
:1008F000880700F0B6F85448007801283AD15348E8
:1009000000880028F2D051480088401E4F490880D6
:100910004F4802F017FC01F071FE4C480088002897
:1009200027D1494908704A49087000BF1021494839
:10093000FFF782FD20214748FFF77EFD4FF48071CD
:100940004448FFF779FD4FF400714248FFF774FD0A
:1009500000BF41483E4A127830F81200401E81B272
:100960004FF0804000F0A0F900214FF0804000F0EF
:100970007BF868E03448007803281BD133480088AE
:10098000002860D031480088401E30490880304837
:1009900002F0D8FB01F032FE2C480088002852D12A
:1009A0002949087000214FF0804000F05DF802F006
:1009B00097F848E0244800780B281BD1234800888A
:1009C000002840D021480088401E20490880204847
:1009D00002F0B8FB01F012FE1C48008898BB002012
:1009E0001949087000214FF0804000F03DF801F0F7
:1009F00085FE28E00020144908701549087000BFE2
:100A000010211448FFF718FD20211248FFF714FDAC
:100A10004FF480710F48FFF70FFD4FF400710D4840
:100A2000FFF70AFD00BF0C48094A127830F812009F
:100A3000401E81B24FF0804000F036F900214FF0A7
:100A4000804000F011F810BD960000207E000020CC
:100A500081000020000C0140FCD70008CA4302823C
:100A60007047CA430282704721B1028842F00102F6
:100A7000028004E002884FF6FE731A40028070473D
:100A800010B504466848844208D10121C014FFF71C
:100A9000A9FD0021E014FFF7A5FDC4E0B4F1804FEB
:100AA00008D101210846FFF77DFD00210120FFF755
:100AB00079FDB8E05D48844208D101210220FFF7AA
:100AC00071FD00210220FFF76DFDACE05848844223
:100AD00008D101210420FFF765FD00210420FFF764
:100AE00061FDA0E05348844208D101210820FFF7AE
:100AF00059FD00210820FFF755FD94E04E4884423F
:100B000008D101211020FFF74DFD00211020FFF733
:100B100049FD88E04948844208D101212020FFF79F
:100B200041FD00212020FFF73DFD7CE04448844248
:100B300008D101214014FFF755FD00216014FFF793
:100B400051FD70E03F48844209D10121C804FFF7FC
:100B500049FD00214FF40020FFF744FD63E03A48CF
:100B6000844209D101210805FFF73CFD00214FF423
:100B70008010FFF737FD56E03448844209D1012147
:100B80004805FFF72FFD00214FF40010FFF72AFD65
:100B900049E02F48844208D101214020FFF702FD9F
:100BA00000214020FFF7FEFC3DE02A48844208D1A6
:100BB00001218020FFF7F6FC00218020FFF7F2FCE6
:100BC00031E02548844208D101218015FFF7EAFC75
:100BD0000021A015FFF7E6FC25E02048844209D15A
:100BE00001210804FFF7FEFC00214FF48030FFF7DD
:100BF000F9FC18E01A48844209D101214804FFF7A2
:100C0000F1FC00214FF40030FFF7ECFC0BE015483D
:100C1000844208D101218804FFF7E4FC00214FF44D
:100C20008020FFF7DFFC10BD002C014000040040D5
:100C300000080040000C004000100040001400407C
:100C400000340140004C014000500140005401407C
:100C500000180040001C00400020004000400140FF
:100C6000004401400048014030B502460020002306
:100C70000024158A05EA0103958905EA010413B1E8
:100C80000CB1012000E0002030BD1AB183890B4374
:100C9000838102E083898B438381704701894FF60A
:100CA000F8721140018170478185704781847047D7
:100CB000002202881D4B98420ED01D4B98420BD04B
:100CC000B0F1804F08D01B4B984205D01A4B984288
:100CD00002D01A4B984204D14FF68F731A404B88BA
:100CE0001A43174B984207D0164B984204D04FF640
:100CF000FF431A40CB881A4302808B8883850B8878
:100D000003850A4B98420BD0094B984208D00E4BF2
:100D1000984205D00D4B984202D00D4B984201D11C
:100D20000B7A03860123838270470000002C014068
:100D3000003401400004004000080040000C004066
:100D400000100040001400400040014000440140F9
:100D50000048014010B5024800F07CF910BD0000C9
:100D6000C000002070B505460E465521002000F059
:100D7000C3FD002412E0285D552805D0285DAA286F
:100D800002D0285DFF2803D1FF21002000F0B4FD30
:100D9000295D002000F0B0FD601C84B2B442EADBA3
:100DA000AA21002000F0A8FD70BD000010B5024887
:100DB00000F050F910BD0000E810002010B5024806
:100DC00000F048F910BD0000101D002001F4007271
:100DD000B2F5007F00D100BFCA430280704710B552
:100DE00002460020108A4FF2FF0318400B884C88FF
:100DF00023438C882343CC8823431843108210BD9F
:100E000021B1828942F40052828104E082894DF648
:100E1000FF731A408281704702460020B1F5007FBF
:100E200000D100BF13880B4201D0012000E0002058
:100E3000704770B502460024002300250020A1F56C
:100E400010666A3E00D100BFC1F3421501F01F03D6
:100E5000012606FA03F3012D02D19689334006E0FC
:100E6000022D02D1168A334001E0968A33400C12DB
:100E7000012606FA04F41688344013B10CB101209F
:100E800000E0002070BDF0B50346002400260025D8
:100E90000020A1F510676A3F00D100BF1846C1F3DA
:100EA000421401F01F06012707FA06F5012C01D1B3
:100EB0000C3004E0022C01D1103000E014301AB1E3
:100EC00007682F43076002E00768AF430760F0BD83
:100ED0002DE9F04786B005460E460024A24600BF25
:100EE000A1460027B08900B100BF2F462C8A4CF6DE
:100EF000FF700440F08804432C82AC894EF6F31056
:100F00000440B08831890843718908430443AC81A7
:100F1000AC8A4FF6FF400440B0890443AC8201A87C
:100F2000FFF770FB1F48874202D1DDF810A001E0F7
:100F3000DDF80CA0A88910F4004F08D00AEBCA0015
:100F400000EB0A1031684900B0FBF1F807E00AEB4A
:100F5000CA0000EB0A1031688900B0FBF1F8642088
:100F6000B8FBF0F004012009642101FB1089A88975
:100F700010F4004F08D0322000EBC900B0FBF1F0B4
:100F800000F00700044308E0322000EB0910642160
:100F9000B0FBF1F000F00F0004432C8106B0BDE877
:100FA000F08700000038014001468888C0F308003F
:100FB0007047C1F3080282807047028BD2B202836D
:100FC000028B42EA012202837047028B02F47F42C5
:100FD0000283028B0A430283704721B1828A42F066
:100FE0002002828204E0828A4FF6DF731A408282F6
:100FF000704721B1828A42F01002828204E0828A24
:101000004FF6EF731A408282704770B504460D4662
:10101000012000F0F2F9668B002000F0EEF90EB925
:10102000002070BD218BA068405C2870012000F07A
:10103000E4F9208B401C80B22083E189884201DBE7
:1010400000202083608B401E6083002000F0D5F9D3
:101050000120E6E710B5044640F225512068FFF76D
:10106000E8FEE0B12068FFF79FFFE28AA16888549C
:10107000E08A401C80B2E082E189884201DB0020E6
:10108000E082608BE189884202DA608B401C6083D9
:10109000608B012803D1606A08B1606A804740F222
:1010A00027712068FFF7C5FE08B3A08A60B9002247
:1010B00040F227712068FFF7E6FE012240F2266128
:1010C0002068FFF7E0FE37E0638A6268D15C206841
:1010D000FFF76FFF608A401C80B26082A18988425E
:1010E00001DB00206082A08A401EA08224E040F242
:1010F00026612068FFF79DFEF0B1A08A50B900225A
:1011000040F226612068FFF7BEFE206AA0B1206A87
:10111000804711E0638A6268D15C2068FFF749FF6D
:10112000608A401C80B26082A189884201DB002075
:101130006082A08A401EA08210BD2DE9F0410446C5
:101140000E461746002527E00CE0012000F055F977
:10115000B4F81480002000F050F9A089404500DD6B
:1011600001E000BFF1E700BF705D228A616888542A
:10117000012000F042F9208A401C80B22082A1891F
:10118000884201DB00202082A08A401CA08200202F
:1011900000F033F9681C85B2BD42D5DB012240F274
:1011A00027712068FFF76FFEBDE8F08120482149D4
:1011B000086021484860214888604FF400608881B9
:1011C000C881002008824882C882088348838882B8
:1011D000C861086248621A481A4908601A4848609B
:1011E0001A4888604FF4806088814000C8810020E0
:1011F00008824882C882088348838882C86108625E
:1012000048621348134908601348486013488860CF
:101210004FF480608881C881002008824882C8829B
:10122000088348838882C86108624862704700006A
:1012300000380140C0000020E8000020E80800203D
:1012400000440040E810002010110020101500207C
:1012500000480040101D0020381D002038210020CB
:1012600000BFFEE70020014908607047082C0040DD
:1012700010B500F00FF810BD00F07F01014A1160B9
:1012800070470000002C004010B57F20FFF7F4FFEE
:1012900010BD000010B5FFF7E5FF03A000F08EF8C9
:1012A000FFF7F2FF10BD00000D0A77776467207426
:1012B000696D656F757420210D0A000070B53226C6
:1012C00000240025012080F3108800BF3648006804
:1012D00036490860002080F3108800BF3448007849
:1012E000002860D033480068096888425BD03148E4
:1012F00000682E490968884227D22C4800682D4989
:101300000968441A294800682A49086000212A48C7
:101310000068221849416B1E00209A1A884104D2A5
:10132000012500202449086038E023480068204453
:10133000322804D9012500201F4908602EE01E48EC
:10134000006820441C49086028E018480068401ED6
:1013500018490968441A15480068164908600021B0
:1013600015480068231849414FF0FF320020D21A77
:10137000884104D2012500200F4908600EE00E4884
:1013800000682044322804D9012500200A49086059
:1013900004E009480068204407490860012D02D193
:1013A0000025FFF771FF70BD3800002028000020E5
:1013B000340000202C000020300000200FB4054B2A
:1013C00010B503A9044A029800F01AF810BC5DF8A1
:1013D00014FB0000511B0008BC00002002E008C8FC
:1013E000121F08C1002AFAD170477047002001E09F
:1013F00001C1121F002AFBD1704780F3108870478B
:101400002DE9FF4F89B09B460446002597E025282B
:1014100033D10027641C4E49B84601222378203B73
:1014200002FA03F0084202D00743641CF6E7207872
:101430002E2819D114F8010F47F004072A280ED0DE
:101440006FF02F022078A0F1300109290CD808EBA9
:10145000880102EB410100EB0108641CF2E70A98E5
:10146000641C50F8048B0A90207800286BD0642804
:1014700008D0692806D0752820D05A460B99904785
:101480006D1C5BE00A994FF00A0901C90A91002816
:1014900004DAC0F100004FF02D0102E0390504D557
:1014A0002B218DF82010012103E0F90704D0202121
:1014B000F7E78A4608AE0EE00021FAE70A994FF0F6
:1014C0000A0901C90A91F7E74946FEF74FFE01F103
:1014D000300106F8011D0028F6D1ADEB060000F141
:1014E0002009780701D44FF00108C84502DDA8EBB8
:1014F000090000E000208046002706E008A85A46C0
:10150000C05D0B9990476D1C7F1C5745F6DB04E0CE
:1015100030205A460B9990476D1CB8F10001A8F194
:101520000108F5DC05E016F8010B5A460B999047C7
:101530006D1CB9F10001A9F10109F4DC641C2078EB
:1015400000287FF464AF0DB02846BDE8F08F00009E
:1015500009280100012080F3108800BF0D480068B1
:101560000D490860002080F3108800BF0B48006818
:10157000096888420DD00848006808490860084892
:101580000068401C06490860B0F57A7F01D300204E
:1015900008607047380000206000002064000020D0
:1015A00068000020F0B5034600224FF0E026756980
:1015B0000F4E36680F4FB6FBF7F606FB03F400BF7D
:1015C0004FF0E026B16910E04FF0E026B0698842A4
:1015D0000BD0884202D20E1A324402E02E1A0E4478
:1015E00032440146A24200D300E0EDE700BFF0BD67
:1015F0001400002040420F0010B5FFF75FFEFEF719
:1016000073FF10BD10B54FF4C060FEF7AFFF00F0E0
:101610004BF800F041F803A0FFF7D0FE00F00CF803
:1016200010BD00000D0A73797374656D20737461C9
:10163000727420210D0A000030B5144800684FF480
:101640007A72B0FBF2F1B1F1807F00D31DE021F09E
:101650007F40401E4FF0E022506150170F220028BB
:1016600007DA13071D0E0A4B00F00F04241F1D5547
:1016700003E013071C0E074B1C5400BF00204FF063
:10168000E02290610720106100BF30BD14000020EF
:1016900018ED00E000E400E010B5FFF787FDFEF76D
:1016A000D9FEFEF7C5FD10BD7047000070B50446B9
:1016B0000D462A462146012000F007F90020054981
:1016C0000870012048701320887003210148FFF73B
:1016D00049FB70BD082D002070B504460D462A4612
:1016E0002146022000F0F1F8002005490870012091
:1016F00048701420887004210148FFF733FB70BD47
:10170000082D002010B5CCB000F0A8FA0446002C3B
:101710003FD000BF20212648FEF790FE0A20FFF7A9
:1017200041FF00BF00BF20212148FEF785FE0A20AF
:10173000FFF738FF00BF00BF20211D48FEF77EFEE7
:101740000A20FFF72FFF00BF00BF20211848FEF737
:1017500073FE0A20FFF726FF00BF4FF4967101A821
:10176000FEF7F9FC01A800F079FB0120114908708F
:101770002B204870122088704FF4967201A90D48F2
:10178000C01CFEF7CFFC40F22F110A48FFF7EAFA1F
:101790000CE00020074908700220487092208870F1
:1017A0003020C87004210348FFF7DCFA4CB010BDAC
:1017B00000080140082D002010B50848007810F0FE
:1017C000010F0AD040F2824205490648FEF7AAFC02
:1017D00000200249087000F091FF10BD7C0000203D
:1017E0007E330020FC2E002070B504460D462946AD
:1017F000204600F04BFA032827D005DC48B1012829
:1018000017D002283DD11AE0042824D0FF2838D16F
:1018100027E000202449087002204870A07840F09A
:10182000800088700120C87004211F48FFF79AFAD1
:1018300037E0E81E81B2E01C00F08CFB31E0E81ECE
:1018400081B2E01C00F04CFA2BE0E81E81B2E01CF3
:1018500000F05AF825E0E81E81B2E01C01F058FBC8
:101860001FE000201049087002204870A07840F066
:10187000800088700020C87004210B48FFF772FABE
:101880000FE000200849087002204870A07840F05E
:10189000800088700120C87004210348FFF762FAB5
:1018A00000BF00BF70BD0000082D002070B50546C8
:1018B0000E462846FEF79CFC04460CB9002070BD7D
:1018C00031462046FFF7A1FBF9E72DE9F041054637
:1018D0000E4617462846FEF78BFC04460CB9BDE8B9
:1018E000F081E06908B1E06980473A463146204618
:1018F000FFF723FC00BFF2E713B50446012201A95C
:101900002046FFF7E2FF1CBD70B504460D46207867
:10191000102817D1607820B9A178E01CFFF7C6FE27
:101920000FE0607801280CD100F0F8F800200D4994
:101930000870012048701320887003210948FFF7C0
:1019400011FA0DE00020074908700220487093202A
:1019500088701020C87004210248FFF703FA00BF06
:1019600000BF70BD082D002000B587B00121042004
:10197000FEF728FE01210846FEF724FE0121480457
:10198000FEF700FE01210420FEF71CFE10208DF85A
:101990001B0003208DF81A000820ADF8180006A9D6
:1019A0003448FEF777FC1020ADF8180018208DF8A9
:1019B0001B0003208DF81A0006A92E48FEF76AFCCA
:1019C0000420ADF818001C208DF81B0003208DF8B2
:1019D0001A0006A92748FEF75DFC04212648FFF7F8
:1019E000F4FA02212448FFF7E8FA4FF40060ADF85A
:1019F00010000020ADF81200ADF814004FF4807014
:101A0000ADF8160004A91C48FFF7E9F942F6417049
:101A100000904FF48050ADF804004FF44050ADF802
:101A200006004FF48060ADF808000C20ADF80A0005
:101A30000020ADF80C0069460F48FFF749FA012273
:101A400040F225510C48FFF71EFA01210A48FFF722
:101A5000D7F901210848FFF7CCFA01210648FFF722
:101A6000BCFA40210448FFF7B1F900F057F807B07D
:101A700000BD0000000801400044004010B50120F6
:101A800080F3108800BF0A4800680A4908600020F7
:101A900080F3108800BF084800680968884205D0B4
:101AA000044800680449086000F008F810BD000010
:101AB000380000209C000020A000002000B59BB052
:101AC0001AA90120FFF7F2FEA8B91248007828B140
:101AD00010480078401E0F49087019E00E48008831
:101AE000B0B10D48028801A90020FFF7EEFE0020EA
:101AF000094908800CE03220064908709DF86810FA
:101B0000054802880088401C034B188001A88154B6
:101B10001BB000BD980000209A00002010B500BF47
:101B200008210A48FEF788FC00BF00BF04210748CF
:101B3000FEF784FC00BF4FF4C870FFF733FD00BF11
:101B400008210248FEF77AFC00BF10BD00080140E2
:101B500070B504460D46E1B20548FFF72AFA00BF0A
:101B600040210348FFF758F90028F9D0204670BDFE
:101B700000380140FCB50746002121E000200DF8A7
:101B80000100002518E0002612E0082000FB01708B
:101B9000405D4FF0010C0CFA06FC10EA0C0F05D06A
:101BA0001DF80100401CC0B20DF80100701CC6B247
:101BB000082EEADB681CC5B2082DE4DB481CC1B264
:101BC0000629DBDB9DF800009DF801C060449DF80C
:101BD00002C060449DF803C060449DF804C06044A6
:101BE0009DF805C000EB0C049DF800009DF801C0B5
:101BF00060449DF803C060449DF804C000EB0C02F3
:101C00009DF802009DF805C000EB0C030CB9FF2005
:101C1000FCBD802C01DC0020FAE70AB90220F7E7BE
:101C20000BB92020F4E7802A03DC802B01DC112093
:101C3000EEE7802A03DD802B01DC2120E8E7802A03
:101C400003DC802B01DD1220E2E7802A03DD802BFC
:101C500001DD2220DCE72220DAE7000004480068EA
:101C600010F0800F01D1012070470020FCE7000038
:101C7000080801400448806810F0400F01D101209D
:101C800070470020FCE700000010014010B502463C
:101C90005078147840EA0423981C814213D190783C
:101CA000112806D0122806D0132806D0142808D1EF
:101CB00005E0012010BD0220FCE70320FAE7042024
:101CC000F8E70020F6E7FF20F4E7FFF79BFCFEF7BC
:101CD00075FA03E0FFF790FCFEF77AFAFAE70000E6
:101CE00070B504460D462078102815D1607810B9DB
:101CF000FFF708FD0FE0607801280CD100F0BEF876
:101D000000200D49087001204870122088700321BE
:101D10000948FFF727F80DE0002007490870022066
:101D20004870922088701020C87004210248FFF784
:101D300019F800BF00BF70BD082D002008B50121B3
:101D40000420FEF73FFC2020ADF8000010208DF8A5
:101D5000030002208DF8020069460348FEF79AFA54
:101D600000F08CF808BD00000008014070B50223A7
:101D700000200022012181F3108800BF3349096847
:101D8000334C2160002181F3108800BF314909687C
:101D90002468A14259D02F4909682D4C2468A142DA
:101DA00027D22B4909682B4C2468081B284909684D
:101DB000284C216000242849096845186441561EB2
:101DC0000021751BA14104D201220021224C216077
:101DD00038E0214909680144022904D9012200217F
:101DE0001D4C21602EE01C49096801441A4C2160F9
:101DF00028E017490968491E164C2468081B144935
:101E00000968144C2160002413490968451864418D
:101E10004FF0FF360021751BA14104D201220021A1
:101E20000D4C21600EE00C4909680144022904D9D7
:101E300001220021084C216004E00749096801449F
:101E4000054C2160012A00D1002270BD380000201D
:101E5000B0000020B4000020B800002070B5054696
:101E6000002404E001F086F92855601C84B2B4F522
:101E7000877FF7DB00F002F870BD000010B501F0BD
:101E80004FF900BF20213248FEF7D8FA0A20FFF7A9
:101E900089FB00BF00BF80212D48FEF7CFFA0A2042
:101EA000FFF780FB00BF00BF80212948FEF7C4FA7E
:101EB0000A20FFF777FB00BF00BF20212448FEF770
:101EC000BBFA0A20FFF76EFB00BF00BF20212048AD
:101ED000FEF7B4FA0A20FFF765FB00BF00BF202120
:101EE0001B48FEF7A9FA0A20FFF75CFB00BF00BF02
:101EF00080211748FEF7A2FA0A20FFF753FB00BF24
:101F000000BF20211248FEF799FA0A20FFF74AFB8A
:101F100000BF00BF20210E48FEF78EFA0A20FFF70F
:101F200041FB00BF00BF20210948FEF787FA0A20C5
:101F3000FFF738FB00BF00BF20210548FEF77CFA01
:101F40000A20FFF72FFB00BF01F0D8F810BD0000FA
:101F50000008014070B504460D462078102804D0D2
:101F6000112834D0122877D149E0022D21D1607890
:101F700010B900F0B5FD29E06078012802D100F029
:101F8000ABFF23E06078022805D14FF490615948F7
:101F9000FEF7E8FE1AE0002057490870022048705A
:101FA000912088702120C87004215348FEF7DAFE82
:101FB0000CE0002050490870022048709120887081
:101FC0001120C87004214C48FEF7CCFE90E0032D90
:101FD00007D1A278617802EB012188B200F0BEFA45
:101FE0000CE000204449087002204870912088705D
:101FF0001120C87004214048FEF7B4FE78E06078F4
:1020000058BB3E48007810F0010F17D14FF4906292
:1020100038493B48FEF786F83848007840F0010020
:10202000364908700020344908700120487011209A
:10203000887003213048FEF795FE4AE000202E49C3
:10204000087003204870912088702220C8700421F5
:102050002948FEF787FE3CE03CE0FFE76078012876
:102060002AD12648007810F0010F17D14FF4906262
:1020700024492348FEF756F82048007840F0010034
:102080001E49087000201C4908700120487011206A
:10209000887003211848FEF765FE1AE000201649F3
:1020A000087003204870912088702220C870042195
:1020B0001148FEF757FE0CE000200F49087002207F
:1020C0004870912088701120C87004210A48FEF7DA
:1020D00049FE0DE000200849087002204870912058
:1020E00088701020C87004210348FEF73BFE00BF33
:1020F00000BF70BDFC320008082D00207C000020CD
:10210000803300207CD3000800B58BB0012104206F
:10211000FEF758FA00BF4FF480718F48FEF78CF934
:1021200000BF10208DF82B0002208DF82A00C0017E
:10213000ADF828000AA98848FEF7ACF80121102064
:10214000FEF740FA00BF4FF400618448FEF774F9CF
:1021500000BF10208DF82B0002208DF82A0080028D
:10216000ADF828000AA97D48FEF794F80121084639
:10217000FEF728FA01210820FEF724FA0121784809
:10218000FEF712F900BF10217648FEF755F920211D
:102190007448FEF751F94FF480717248FEF74CF91C
:1021A0004FF400716F48FEF747F900BF4FF44C70D1
:1021B000ADF8280002208DF82A0010208DF82B00A1
:1021C0000AA96848FEF766F800BF4FF480716248BC
:1021D000FEF734F900BF00BF4FF400615F48FEF71F
:1021E0002DF900BF01211020FEF7ECF948208DF8F1
:1021F0002B0002208DF82A004020ADF828000AA903
:102200005648FEF747F801211020FEF7DBF900BF22
:102210004FF440715148FEF711F900BF10208DF8BE
:102220002B0002208DF82A004FF44070ADF82800F2
:102230000AA94A48FEF72EF801211020FEF7C2F93C
:1022400000BF80214548FEF7F9F800BF10208DF847
:102250002B0003208DF82A008020ADF828000AA961
:102260003E48FEF717F801210820FEF7ABF90121DF
:102270008803FEF787F94FF46040ADF8280003208B
:102280008DF82A0018208DF82B000AA93548FEF792
:1022900001F80020ADF814004FF48270ADF816007C
:1022A0000020ADF81800ADF81A00ADF81C004FF48E
:1022B0000070ADF81E001020ADF820000020ADF831
:1022C000220005A92848FEF71EFA01212648FEF73C
:1022D00003FA01212448FEF734FA01210846FEF7EB
:1022E00051F94FF08040FEF7CBFB4FF08040FEF7F6
:1022F000D5FC40F64830ADF808002320ADF80400C6
:102300000020ADF80A00ADF8060001A94FF08040AA
:10231000FEF7CEFC1C208DF8100000208DF8110077
:1023200005208DF8120001208DF8130004A8FEF797
:10233000E3F800214FF08040FEF7B8FC0121880748
:10234000FEF78CFB012211469007FEF79EFC002051
:10235000064908700BB000BD0008014000100140A4
:1023600000023000000C01400038004096000020C0
:1023700010B5012080F3108800BF36480068364948
:102380000860002080F3108800BF344800680968A6
:1023900088425ED03048006830490860FFF76AFC28
:1023A00010B32F4800780D2817D2DFE800F0070A95
:1023B0000B0C0D0E0F10111213141500FFF7FCF982
:1023C0000CE00BE00AE009E008E007E006E005E0C9
:1023D00004E003E002E001E000E000BF00BF42F2E1
:1023E00010702049088034E01E480088401C80B2EC
:1023F0001C49088041F2883188422ADB00201949B3
:1024000008801949088000BF4FF440711748FEF753
:1024100015F800BF00BF10211548FEF70DF8202168
:102420001348FEF709F84FF480711148FEF704F8DD
:102430004FF400710E48FDF7FFFF00BF0020084970
:1024400008700C4908700220487091208870312073
:10245000C87010BD380000208C00002090000020C3
:1024600096000020940000207E0000200010014013
:10247000000C0140082D002070B504460E4615469C
:1024800027E000BF02211648FEF732F90028F9D0F4
:102490003DB914F8012B02F0AA011148FEF731F9F9
:1024A00010E0012D07D114F8012B02F055010C4862
:1024B000FEF727F906E0022D04D114F8011B0848A5
:1024C000FEF71FF900BF80210548FEF711F901282A
:1024D000F9D03000A6F10101CEB2D2D170BD00001A
:1024E0000038004010B50446012C0FD100BF410256
:1024F0001948FDF7A1FF00BF4FF47A70FFF752F8BB
:1025000000BF61021448FDF799FF23E0022C0FD1B0
:1025100000BFE1011048FDF78FFF00BF4FF47A7054
:10252000FFF740F800BFE1010B48FDF787FF11E01E
:10253000032C0FD100BF21020748FDF77DFF00BF2C
:102540004FF47A70FFF72EF800BF21020248FDF722
:1025500075FF00BF10BD00000010014010B504461B
:1025600022480078002832D1A4F57F40FF380CD1F2
:102570001F49087002204870912088702120C8707F
:1025800004211B48FEF7EEFB2EE01A480088204489
:102590001849088001201549087000201449087066
:1025A000012048701120887003211148FEF7DAFBE2
:1025B00000F024F80F480088401E0E4908800020D3
:1025C0000D49087001218807FEF74EFA0CE0002043
:1025D0000749087002204870912088702020C87038
:1025E00004210348FEF7BEFB10BD0000960000204A
:1025F000082D00207E0000208100002010B53D48FD
:10260000007830B101281DD0022834D0032864D1CD
:102610004AE000BF00BF10213748FDF70FFF20211F
:102620003548FDF709FF00BF00BF4FF48071324805
:10263000FDF704FF4FF400712F48FDF7FDFE00BFCA
:1026400000BF4BE000BF00BF10212B48FDF7F6FE96
:1026500020212948FDF7F0FE00BF00BF4FF4807134
:102660002548FDF7E9FE4FF400712348FDF7E6FE2B
:1026700000BF00BF32E000BF00BF10211E48FDF7C1
:10268000DBFE20211C48FDF7D9FE00BF00BF4FF440
:1026900080711948FDF7D0FE4FF400711648FDF720
:1026A000CDFE00BF00BF19E000BF00BF10211248DF
:1026B000FDF7C2FE20211048FDF7C0FE00BF00BF9D
:1026C0004FF480710C48FDF7B9FE4FF400710A48D1
:1026D000FDF7B2FE00BF00BF00E000BF00BF05482D
:1026E0000078401CC0B203490870042801DB0020B8
:1026F000087010BD80000020000C014070B5F1484A
:10270000007800287ED1F048006800EB4000EF49D7
:1027100001EB00163046FFF72DFA0546FF2D0CD1D0
:10272000EB480088801CEA4908800B20E5490870C6
:1027300001218807FEF798F9B2E1A5BB02223021FA
:102740003046FFF799FE00BF8021E248FDF774FE96
:1027500000BF00BF8021DF48FDF770FE00BF0320EF
:10276000FFF7C0FE4FF47A70FEF71CFFFFF746FF3D
:102770000320D9490870D9480A46127830F8120067
:10278000401E81B24FF08040FEF78EFAD04800889C
:10279000401CCF4908800B20CA49087001218807D6
:1027A000FEF762F97CE1FFE7112D34D102223021DE
:1027B0003046FFF761FE00BF8021C648FDF73CFEB2
:1027C00000BF00BF8021C348FDF738FE00BF0120D5
:1027D000FFF788FE0220FFF785FEFFF70FFF0320BB
:1027E000BD490870BD480A46127830F81200401EF4
:1027F00081B2A807FEF758FAB5480088401CB449D2
:10280000088000E05CE10B20AE49087001218807D8
:10281000FEF72AF944E1022D36D1002415E02246C4
:1028200030213046FFF728FE00BF8021A948FDF780
:1028300003FE00BF00BF8021A648FDF7FFFD00BFDB
:102840000220FFF74FFE601CC4B2022CE7DBFFF74B
:10285000D5FE0320A0490870A0480A46127830F837
:102860001200401E81B24FF08040FEF71DFA9848DA
:102870000088401C964908800B209249087001216D
:102880008807FEF7F1F80BE1202D36D1002415E082
:10289000224630213046FFF7EFFD00BF80218D48F2
:1028A000FDF7CAFD00BF00BF80218A48FDF7C6FDC5
:1028B00000BF0120FFF716FE601CC4B2022CE7DB4C
:1028C000FFF79CFE03208449087084480A4612786A
:1028D00030F81200401E81B24FF08040FEF7E4F95C
:1028E0007B480088401C7A4908800B207549087095
:1028F00001218807FEF7B8F8D2E0122D4AD1022252
:1029000030213046FFF7B8FD00BF80217148FDF748
:1029100093FD00BF00BF80216E48FDF78FFD00BF13
:102920000120FFF7DFFD002415E02246302130466C
:10293000FFF7A2FD00BF80216648FDF77DFD00BFC7
:1029400000BF80216348FDF779FD00BF0220FFF73B
:10295000C9FD601CC4B2022CE7DBFFF74FFE00206C
:102960005D4908705D480A46127830F81200401E32
:1029700081B24FF08040FEF797F955480088401C1F
:10298000534908800B204F49087001218807FEF742
:102990006BF885E0212D4AD1022230213046FFF725
:1029A0006BFD00BF80214B48FDF746FD00BF00BF17
:1029B00080214848FDF742FD00BF0220FFF792FD4D
:1029C000002415E0224630213046FFF755FD00BFB8
:1029D00080214048FDF730FD00BF00BF80213D4809
:1029E000FDF72CFD00BF0120FFF77CFD601CC4B289
:1029F000022CE7DBFFF702FE00203749087037485A
:102A00000A46127830F81200401E81B24FF0804022
:102A1000FEF74AF92E480088401C2D4908800B20FB
:102A20002849087001218807FEF71EF838E00024C5
:102A300018E0224630213046FFF71EFD00BF8021FE
:102A40002448FDF7F9FC00BF00BF80212148FDF7B5
:102A5000F5FC00BF0120FFF745FD0220FFF742FD16
:102A6000601CC4B2022CE4DBFFF7C8FD00201A4949
:102A700008701A480A46127830F81200401E81B2D7
:102A80004FF08040FEF710F911480088401C1049B3
:102A900008800B200B49087001218807FDF7E4FF2F
:102AA00009480068401C08490860182808D300201D
:102AB00008600449087000214FF08040FDF7D4FF02
:102AC00070BD00009600002088000020FC2E002031
:102AD0007E0000200010014081000020FCD700088B
:102AE00070B5F548007800287ED1F448006800EB06
:102AF0004000F34901EB00163046FFF73BF805466E
:102B0000FF2D0CD1EF480088801CEE49088003207F
:102B1000E949087001218807FDF7A6FFB2E1A5BBCE
:102B2000022230213046FFF7A7FC00BF8021E64893
:102B3000FDF782FC00BF00BF8021E348FDF77EFC6B
:102B400000BF0320FFF7CEFC4FF47A70FEF72AFD9A
:102B5000FFF754FD0320DD490870DD480A4612786E
:102B600030F81200401E81B24FF08040FEF79CF812
:102B7000D4480088401CD34908800320CE490870FF
:102B800001218807FDF770FF7CE1FFE7112D34D1AB
:102B9000022230213046FFF76FFC00BF8021CA4877
:102BA000FDF74AFC00BF00BF8021C748FDF746FC87
:102BB00000BF0120FFF796FC0220FFF793FCFFF710
:102BC0001DFD0320C1490870C1480A46127830F83B
:102BD0001200401E81B2A807FEF766F8B9480088C7
:102BE000401CB849088000E057E10320B249087052
:102BF00001218807FDF738FF44E1022D36D100247A
:102C000015E0224630213046FFF736FC00BF802118
:102C1000AD48FDF711FC00BF00BF8021AA48FDF7B9
:102C20000DFC00BF0220FFF75DFC601CC4B2022C4B
:102C3000E7DBFFF7E3FC0320A4490870A4480A4639
:102C4000127830F81200401E81B24FF08040FEF73B
:102C50002BF89C480088401C9A490880032096491C
:102C6000087001218807FDF7FFFE0BE1202D36D10A
:102C7000002415E0224630213046FFF7FDFB00BF5F
:102C800080219148FDF7D8FB00BF00BF80218E480E
:102C9000FDF7D4FB00BF0120FFF724FC601CC4B289
:102CA000022CE7DBFFF7AAFC03208849087088485C
:102CB0000A46127830F81200401E81B24FF0804070
:102CC000FDF7F2FF7F480088401C7E490880032002
:102CD0007949087001218807FDF7C6FED2E0122D60
:102CE0004AD1022230213046FFF7C6FB00BF8021C7
:102CF0007548FDF7A1FB00BF00BF80217248FDF7BA
:102D00009DFB00BF0120FFF7EDFB002415E02246EC
:102D100030213046FFF7B0FB00BF80216A48FDF745
:102D20008BFB00BF00BF80216748FDF787FB00BF1A
:102D30000220FFF7D7FB601CC4B2022CE7DBFFF7D1
:102D40005DFC00206149087061480A46127830F83D
:102D50001200401E81B24FF08040FDF7A5FF594898
:102D60000088401C574908800320534908700121FE
:102D70008807FDF779FE85E0212D4AD10222302116
:102D80003046FFF779FB00BF80214F48FDF754FB29
:102D900000BF00BF80214C48FDF750FB00BF022060
:102DA000FFF7A0FB002415E0224630213046FFF754
:102DB00063FB00BF80214448FDF73EFB00BF00BF1E
:102DC00080214148FDF73AFB00BF0120FFF78AFB55
:102DD000601CC4B2022CE7DBFFF710FC00203B496B
:102DE00008703B480A46127830F81200401E81B243
:102DF0004FF08040FDF758FF32480088401C3149B1
:102E0000088003202C49087001218807FDF72CFE5B
:102E100038E0002418E0224630213046FFF72CFB32
:102E200000BF80212848FDF707FB00BF00BF8021BD
:102E30002548FDF703FB00BF0120FFF753FB0220ED
:102E4000FFF750FB601CC4B2022CE4DBFFF7D6FB9B
:102E500000201E4908701E480A46127830F81200F9
:102E6000401E81B24FF08040FDF71EFF15480088DC
:102E7000401C1449088003200F490870012188076D
:102E8000FDF7F2FD0D480068401C0C490860B0F5E4
:102E90004E7F0FD3002008600CE000200D49087021
:102EA00002204870912088702020C87004210948B1
:102EB000FDF758FF70BD0000960000208400002040
:102EC0007C3700087E0000200010014081000020B7
:102ED000FCD70008082D002010B50A4800883030C3
:102EE0000849088001200849087000200749087037
:102EF000012048701120887003210448FDF732FF3B
:102F000010BD00007E00002096000020082D00204B
:102F100070B504460D462078102817D1607820B986
:102F2000A178E01CFEF7D8FB0FE0607801280CD1F7
:102F300000F0C6F800200D490870012048701420E8
:102F4000887003210948FDF70DFF0DE000200749B7
:102F5000087002204870942088701020C8700421E6
:102F60000248FDF7FFFE00BF00BF70BD082D002026
:102F700000B587B001210820FDF724FB0121084698
:102F8000FDF720FB01218804FDF7FCFA0121082050
:102F9000FDF718FB4FF40060ADF8180010208DF815
:102FA0001B0003208DF81A0006A93548FDF772F9B9
:102FB0004FF48050ADF8180018208DF81B00032046
:102FC0008DF81A0006A92E48FDF764F94FF48060C9
:102FD000ADF818001C208DF81B0003208DF81A0096
:102FE00006A92748FDF756F904212648FDF7EDFF0D
:102FF00002212448FDF7E1FF4FF40060ADF8100016
:103000000020ADF81200ADF814004FF48070ADF858
:10301000160004A91B48FDF7E2FE42F6417000903D
:103020004FF48050ADF804004FF44050ADF8060066
:103030004FF48060ADF808000C20ADF80A000020C5
:10304000ADF80C0069460F48FDF742FF012240F23F
:1030500025510C48FDF717FF01210A48FDF7D0FE66
:1030600001210848FDF7C5FF01210648FDF7B5FF1E
:1030700040210448FDF7AAFE00F022F807B000BD89
:10308000000C014000480040012080F3108800BF80
:103090000848006808490860002080F3108800BFD5
:1030A000064800680968884203D00348006803495D
:1030B0000860704738000020A8000020AC00002005
:1030C00010B500BF4FF400610B48FDF7B5F900BF24
:1030D00000BF4FF480610848FDF7B0F900BF4FF41E
:1030E000C870FEF75FFA00BF4FF400610248FDF7B9
:1030F000A5F900BF10BD0000000C014008B58020FC
:10310000ADF8000048208DF8030002208DF8020081
:1031100069460248FDF7BEF808BD000000080140FE
:1031200008B58020ADF8000010208DF803000220C3
:103130008DF8020069460248FDF7ACF808BD0000B2
:103140000008014010B504462078094A32F8100002
:10315000401E81B24FF08040FDF7A6FD2078401C54
:10316000C0B220701B2801DD1B20207010BD0000A4
:10317000FCD7000870B5002500241CE0FEF76EFDAA
:1031800028B9C4F10701012088402843C5B200BF17
:1031900020210B48FDF752F90A20FEF703FA00BF81
:1031A00000BF20210648FDF747F90A20FEF7FAF98B
:1031B00000BF601CC4B2082CE0DB284670BD0000D4
:1031C0000008014008B5012080F3108800BF444882
:1031D000006844490860002080F3108800BF42481E
:1031E00000680968884279D03E4800683E49086016
:1031F00069460020FEF75AFB68B93C480088002861
:1032000005DD3A480088401E3849088066E0002005
:103210003749087062E03548008868B9344800785A
:1032200050B99DF80000552806D10020314908808A
:1032300001202F4908704EE02D480078012828D140
:103240009DF80000FF2803D102202949087042E0C0
:103250009DF80000552803D10020254908703AE068
:103260009DF80000AA2808D10320214908702148B0
:1032700001882148FEF7B8FA2DE09DF800001E49AC
:103280001C4A128888541B480088401C1949088031
:1032900021E01748007802281DD19DF80000FF2882
:1032A00007D09DF80000552803D09DF80000AA28FB
:1032B0000ED19DF8000010490E4A128888540D481E
:1032C0000088401C0B49088001200949087002E071
:1032D00000200749087032200449088008BD00001A
:1032E000380000206C0000207000002074000020D6
:1032F0007800002076000020382500200000000023
:1033000000000000000000000000000000000000BD
:1033100000000000000000000000000000000000AD
:10332000000000000000000000000000000000009D
:10333000000000000000000000000000000000008D
:10334000000000000000000000000000000000007D
:10335000000000000000000000000000000000006D
:10336000000000000000000000000000000000005D
:10337000000000000000000000000000000000004D
:10338000000000000000000000000000000000003D
:10339000000000000000000000000000000000002D
:1033A000000000000000000000000000000000001D
:1033B0000000000000000000000000000E6003801C
:1033C000110C3000018000000E1C3070070000005E
:1033D0000C200000000000000000000000000000C1
:1033E0000300200060C0006030CC00000E6001804F
:1033F00039087F7E03C03FFC789C307007007DFE5B
:103400000E707FFE000000000000000000000001C0
:10341000FFFE37FC60E0036030CC00000E62FFFF6F
:103420002D586C6607E0300C18FC33FEFFFF6D86EC
:103430000C30000607071DFDF7F81F01F87E1E007F
:103440000000760C67FC1BFDB1CFFE000E6E000085
:103450006D5F4C660E703FFC185CFC700C006D8656
:1034600018180006070F1DFDF7FC3F83F8FE3F808C
:103470003FF0660DF3183261B19F03007E7C3FFC84
:10348000CD52FFE61C38300C181C30701C0069FE51
:10349000381CFFF6038F1DC0E71E71C709C22380C9
:1034A0003030C7FC63386061B39703000E78300C8E
:1034B0001FF61E66781C3FFCFF9C30701FFC79864F
:1034C000300C0006038F99C0E70EE0E701C00380CF
:1034D0003030960C67FC67FFB3B703000E70300CFA
:1034E00030363B7E6FF6018038FC33FE380C79862F
:1034F00061060006039F99C0E70EE0E781E00380C4
:103500003FF03E0CF40CC061B7A7F1800E60300CA8
:1035100077DE73000180FFFF3C5C3C0E780C7986FF
:1035200043823FC60199B9F8E71EE0E3F0FC0700CB
:10353000000037FCF4CCC061B38701800E603FFC13
:10354000701E7FFC018000003E1CF10C7FFC6DFEB4
:10355000030030C60199B9F8E7FCE0E3F8FE0F007C
:10356000FFFC6000E8C0C3FDB18701800E600180F0
:10357000B7CC300C01803FFC7E1C318C580C6DE2C6
:10358000070030C601F9F1C0E7F0E0E07C1F1E0043
:10359000C00CEFFDEFFEC365B18701800E60119096
:1035A00036CC300C3FFC300C783F30D8180C6DB75F
:1035B0000E0030C601F9F1C0E700E0E01C071C0076
:1035C000CFECE019E300C365B187F1803E62199842
:1035D00034FC3FFC01803FFCDBDC30F01FFC6DBEA7
:1035E0000E2030C600F0F1C0E70071C41D073000A6
:1035F000C86C6FFF63FCC365B1870180CE67318CF7
:1036000034FE300C01800180581C30F8180C799C75
:103610001C783FC600F0E1FDF7003F87F9FE7F8090
:10362000C86C6618630CC364318701800E676186BD
:103630003CF2300C01800990181C31DC180C61FC44
:10364000383C300600F0E1FDF7001F07F1FC7F80F9
:10365000CFEC6318670C636C318703000E66418200
:1036600038823FFC7FFE318C181C338E180C63EEC1
:103670003FFE000E000000000000000000000000FF
:10368000C80C62186E18637C318703000E7E070039
:103690000000300C00004782181C6602187C638210
:1036A0000004007C0000000000000000000000009A
:1036B000C07860F07CF83060E18703000000000013
:1036C00000000000000000000000000000000000FA
:1036D00000000000000000000000000000000000EA
:1036E00000000000000018000000060000000000BC
:1036F00000000000000000000000000000000000CA
:1037000000000000000000000000000000000000B9
:1037100000000000000000000000000000000000A9
:103720000000000000000000000000000000000099
:1041800000F3C000F000000000000000000000008C
:10419000000000000000000000000000000000001F
:1041A000000000000000000000000000000000000F
:1041B00000F3C0003000000000000000000000001C
:1041C00000000000000000000000000000000000EF
:1041D00000000000000000000000000000000000DF
:1041E00000F3C000300000000000000000000000EC
:1041F00000000000000000000000000000000000BF
:1042000000000000000000000000000000000000AE
:1042100000F3C47FFFFC000000000000000000006D
:10422000000000000000000000000000000000008E
:10423000000000000000000000000000000000007E
:1042400000F3DC000000000000000000000000009F
:10425000000000000000000000000000000000005E
:10426000000000000000000000000000000000004E
:1042700000F3DC000000000000000000000000006F
:10428000000000000000000000000000000000002E
:10429000000000000000000000000000000000001E
:1042A0000FF3F81FFFE00000000000000000000016
:1042B00000000000000000000000000000000000FE
:1042C00000000000000000000000000000000000EE
:1042D0000FF3F81FFFE000000000000000000000E6
:1042E00000000000000000000000000000000000CE
:1042F00000000000000000000000000000000000BE
:1043000000F3F01800E000000000000000000000D2
:10431000000000000000000000000000000000009D
:10432000000000000000000000000000000000008D
:1043300000F3E01800E000000000000000000000B2
:10434000000000000000000000000000000000006D
:10435000000000000000000000000000000000005D
:1043600000F3E01800E00000000000000000000082
:10437000000000000000000000000000000000003D
:10438000000000000000000000000000000000002D
:1043900000F3C01800E00000000000000000000072
:1043A000000000000000000000000000000000000D
:1043B00000000000000000000000000000000000FD
:1043C00000F3C01FFFE0000000000000000000003C
:1043D00000000000000000000000000000000000DD
:1043E00000000000000000000000000000000000CD
:1043F00000F3C01FFFE0000000000000000000000C
:1044000000000000000000000000000000000000AC
:10441000000000000000000000000000000000009C
:1044200000F3C000300000000000000000000000A9
:10443000000000000000000000000000000000007C
:10444000000000000000000000000000000000006C
:1044500000F3C00031000000000000000000000078
:10446000000000000000000000000000000000004C
:10447000000000000000000000000000000000003C
:1044800000F3C00031000000000000000000000048
:10449000000000000000000000000000000000001C
:1044A000000000000000000000000000000000000C
:1044B00007F3C40E3180000000000000000000007F
:1044C00000000000000000000000000000000000EC
:1044D00000000000000000000000000000000000DC
:1044E00018F3C79830E00000000000000000000052
:1044F00000000000000000000000000000000000BC
:1045000000000000000000000000000000000000AB
:1045100018F3C79830E00000000000000000000021
:10452000000000000000000000000000000000008B
:10453000000000000000000000000000000000007B
:1045400000F3CC30307000000000000000000000DC
:10455000000000000000000000000000000000005B
:10456000000000000000000000000000000000004B
:1045700000F3CC30307000000000000000000000AC
:10458000000000000000000000000000000000002B
:10459000000000000000000000000000000000001B
:1045A00000F3CC60301000000000000000000000AC
:1045B00000000000000000000000000000000000FB
:1045C00000000000000000000000000000000000EB
:1045D00000F0FC01E000000000000000000000000E
:1045E00000000000000000000000000000000000CB
:1045F00000000000000000000000000000000000BB
:1046000000F0FC01E00000000000000000000000DD
:10461000000000000000000000000000000000009A
:10462000000000000000000000000000000000008A
:10463000000000000000000000000000000000007A
:10464000000000000000000000000000000000006A
:104980000000000000000000000000000C00000E0D
:10499000007000000E000018001000000000000071
:1049A0000000000000000000000000000000000007
:1049B0000000000000000000000000000C00000EDD
:1049C000007000000E000018001000000000000041
:1049D00000000000000000000000000000000000D7
:1049E000000000000000000003FFFFC00C007F3E3D
:1049F000007FFF800E007F7FF01FBFC3FFFE00001F
:104A000000000000000000000000000000000000A6
:104A1000000000000000000003FFFFC00C007F3E0C
:104A2000007FFF800E007F7FF01FBFC3FFFE0000EE
:104A30000000000000000000000000000000000076
:104A400000000000000000000038000FFFFE617F42
:104A5000F0700F8FFFFE7A78E05020C380000000D6
:104A60000000000000000000000000000000000046
:104A70000000000000000000003800000C0061F0A1
:104A800070E01C0E300E7AFCE1FFB783800000005E
:104A90000000000000000000000000000000000016
:104AA0000000000000000000003800000C0061F071
:104AB00070E01C0E300E7AFCE1FFB783800000002E
:104AC00000000000000000000000000000000000E6
:104AD0000000000000000000003800000C0061FC35
:104AE000E0E01C0EF00E7E87C3CF1F0380000000A5
:104AF00000000000000000000000000000000000B6
:104B00000000000000000000003800000C007F0FD3
:104B100081E03801FFF07E07C078F783FFFE0000D8
:104B20000000000000000000000000000000000085
:104B30000000000000000000003800000C007F0FA3
:104B400081E03801FFF07E07C078F783FFFE0000A8
:104B50000000000000000000000000000000000055
:104B60000000000000000000003FFE000C001E0FCF
:104B700081E0F007E0F07E7DE067304381C0000017
:104B80000000000000000000000000000000000025
:104B9000000000000000000000380E07FFF85E3F34
:104BA000F7E0F00E31E07FF8DF98D80381C0000015
:104BB00000000000000000000000000000000000F5
:104BC000000000000000000000380E07FFF85E3F04
:104BD000F7E0F00E31E07FF8DF98D80381C00000E5
:104BE00000000000000000000000000000000000C5
:104BF0000000000000001FCFE0380E000C005EF047
:104C000079E3E0001F007A7FC07FFF8381C01F8FA0
:104C1000C0000000000000000000000000000000D4
:104C20000000000000001FCFE0380E000C005EF016
:104C300079E3E0001F007A7FC07FFF8381C01F8F70
:104C4000C0000000000000000000000000000000A4
:104C50000000000000001FCFE0380E000C005F00D5
:104C600000E3E001FFF07BE203F00FE381C01F8F60
:104C7000C000000000000000000000000000000074
:104C8000000000000000000000380C000C005E3F37
:104C9000F0E7C01FC07F7BFFF03FFF0381C0000033
:104CA0000000000000000000000000000000000004
:104CB000000000000000000000380C000C005E3F07
:104CC000F0E7C01FC07F7BFFF03FFF0381C0000003
:104CD00000000000000000000000000000000000D4
:104CE000000000000000000000700C000C005E30AE
:104CF00070E7C041FFFC7B8200300F0201C0000062
:104D000000000000000000000000000000000000A3
:104D1000000000000000000000700C1FFFFF5E306C
:104D200070E7006100107FFFF03FFF0E01C0000040
:104D30000000000000000000000000000000000073
:104D4000000000000000000000700C1FFFFF5E303C
:104D500070E7006100107FFFF03FFF0E01C0000010
:104D60000000000000000000000000000000000043
:104D7000000000000000000000C00C000C005FB04C
:104D800070E703C1001078020030C08E01C000003F
:104D90000000000000000000000000000000000013
:104DA000000000000000000003800C000C00FE3F2B
:104DB000F0E703C1FFF07802003F9F0C01C0000044
:104DC00000000000000000000000000000000000E3
:104DD000000000000000000003800C000C00FE3FFB
:104DE000F0E703C1FFF07802003F9F0C01C0000014
:104DF00000000000000000000000000000000000B3
:104E000000000000000000000703F8000C00003064
:104E100070E3FF81001079FFFC3000CC1F00000020
:104E20000000000000000000000000000000000082
:104E30000000000000000000000000000000000072
:104E40000000000000000000000000000000000062
:104E50000000000000000000000000000000000052
:1051B000000000000000403FF004000000003C0739
:1051C000C1F078780000000000000000000000003E
:1051D00000000000000000000000000000000000CF
:1051E00000030307801FFF0003CC000000004604FB
:1051F0002308C08C00000000000000000000000038
:10520000000000000000000000000000000000009E
:10521000000F0F0880000400010A000000000204D3
:10522000260C8004000000000000000000000000C8
:10523000000000000000000000000000000000006E
:10524000000101008003FC000111000000000204C5
:1052500024048004000000000000000000000000A2
:10526000000000000000000000000000000000003E
:105270000001010080000000012080000000040403
:10528000240460080000000000000000000000008E
:10529000000000000000000000000000000000000E
:1052A00000010107000FFE7FFBE4400000000C0737
:1052B000C4043818000000000000000000000000D6
:1052C00000000000000000000000000000000000DE
:1052D0000001010080080204010000000000180421
:1052E00004040C300000000000000000000000007A
:1052F00000000000000000000000000000000000AE
:10530000000101004009F20C013F80000000300460
:10531000040C046000000000000000000000000019
:10532000000000000000000000000000000000007D
:105330000001010040090208810100000000600432
:10534000021884C0000000000000000000000000FF
:10535000000000000000000000000000000000004D
:10536000000101088009F21041D2000000007E0413
:1053700001F078FC000000000000000000000000C8
:10538000000000000000000000000000000000001D
:10539000000FCFC700090223E70C00000000000047
:1053A00000000000000000000000000000000000FD
:1053B00000000000000000000000000000000000ED
:1053C0000000000000080E3C100600000000000075
:1053D00000000000000000000000000000000000CD
:1053E00000000000000000000000000000000000BD
:1053F00000000000000000000002000000000000AB
:10540000000000000000000000000000000000009C
:10541000000000000000000000000000000000008C
:10542000000000000000000000000000000000007C
:10543000000000000000000000000000000000006C
:1057800000000000000000000000000079CE739CC3
:10579000E739CE739CE739CE739CE739CE739CE72B
:1057A00039CE739CE739CE739CE739CE739CE739C9
:1057B000CE739CE739CE739CE739CE7000000000B1
:1057C00000000000000000000000000000000000D9
:1057D00000000000000000000000000000000000C9
:1057E00000000000000000000000000000000000B9
:1057F00000000000000000000000000000000000A9
:105AE000000000000000000000000000000079102D
:105AF000820FF8000000000000000000000000001D
:105B00000000000000000000000000000000000095
:105B1000000000000202940000000000000041208C
:105B2000440808000183C3C3C00000000000000057
:105B30000000000000000000000000000000000065
:105B4000000000000200A400007800000000516185
:105B5000FF0FF80007866664600000000000000088
:105B60000000000000000000000000000000000035
:105B7000000000000203F7C0008C0000000051404C
:105B8000100808000084242020000000000000000D
:105B90000000000000000000000000000000000005
:105BA000000000000200808000040000000051019D
:105BB000FF000004008424202000000000000000FA
:105BC00000000000000000000000000000000000D5
:105BD000000000000603E88080040000000057F881
:105BE000103FFE040084242040000000000000005C
:105BF00000000000000000000000000000000000A5
:105C000000000000050694008008000000004141EB
:105C1000FF04000000842420C000000000000000F9
:105C20000000000000000000000000000000000074
:105C300000000000050105000018000000004140C0
:105C400010000000008424218000000000000000FB
:105C50000000000000000000000000000000000044
:105C6000000000000887E300003000000000312041
:105C70001007F8000084242300000000000000004A
:105C80000000000000000000000000000000000014
:105C900000000000188222000060000000002917A8
:105CA000FFC0080400864646000000000000000017
:105CB00000000000000000000000000000000000E4
:105CC000000000001041C70080C0000000004548EF
:105CD0001000080407E3C3C7E00000000000000054
:105CE00000000000000000000000000000000000B4
:105CF000000000006021ED8080FC000000008100B9
:105D00001001F00000000000000000000000000092
:105D10000000000000000000000000000000000083
:105D200000000000C01E1040000000000000000045
:105D30000000000000000000000000000000000063
:105D40000000000000000000000000000000000053
:105D50000000000000000000000000000000000043
:105D60000000000000000000000000000000000033
:105FD00000000000000000003C3C183C00F0F00114
:105FE00083C00000001818078780F1F80000000047
:105FF00000000000000000000000000000000000A1
:10600000000000000000000046667846019918076D
:106010008460000000787808888080080000000014
:106020000000000000000000000000000000000070
:106030000000000000000000024208020108080001
:106040008020000000080800884080100000000048
:106050000000000000000000000000000000000040
:1060600000000000000000000242080201080800D1
:1060700080200000000808408848801000000000D0
:106080000000000000000000000000000000000010
:106090000000000000000000044208040108100095
:1060A000804000000008084708C8F02000000000F9
:1060B00000000000000000000000000000000000E0
:1060C00000000000000000000C42080C0108300035
:1060D00080C0000000080800874018200000000071
:1060E00000000000000000000000000000000000B0
:1060F000000000000000000018420818790861E064
:1061000081800000000808004040082000000000D6
:10611000000000000000000000000000000000007F
:106120000000000000000000304208300108C000FC
:106130008300000000080800404008400000000004
:10614000000000000000000000000000000000004F
:106150000000000000000000606408600191800001
:1061600086000000000808488089104000000000F8
:10617000000000000000000000000000000000001F
:1061800000000000000000007E3C7E7E00F1F80769
:10619000E7E00000007E7E470F08E080000000007E
:1061A00000000000000000000000000000000000EF
:1061B00000000000000000000000000000000000DF
:1061C00000000000000000000000000000000000CF
:1061D00000000000000000000000000000000000BF
:1065900000000000000000000000000079E79E7984
:1065A000E79E79E79E79E79E79E79E79E79E79E70E
:1065B0009E79E79E79E79E79E79E79E79E79E79E47
:1065C00079E79E79E79E79E79E79E78000000000F1
:1065D00000000000000000000000000000000000BB
:1065E00000000000000000000000000000000000AB
:1065F000000000000000000000000000000000009B
:10660000000000000000000000000000000000008A
:1068F0000000000000000000000000000000001088
:106900000084000000000000000000000000000003
:106910000000000000000000000000000000000077
:106920000000000000000000000000000000001F48
:10693000E10201FF800000000000000000000000F4
:106940000000000000000000000000000000000047
:106950000000000000000000000000000000001027
:1069600001030100800000000000000000000000A2
:106970000000000000000000000000000000000017
:10698000000000000000000000000000000003FF05
:10699000C17FE100800003C1800F0F0000000000F4
:1069A00000000000000000000000000000000000E7
:1069B00000000000000000000000000000000200D5
:1069C000420001FF801802078008118000000000CB
:1069D00000000000000000000000000000000000B7
:1069E000000000000000000000000000000003FFA5
:1069F000C2204100801802008008008000000000D2
:106A00000000000000000000000000000000000086
:106A10000000000000000000000000000000020074
:106A200046204000000002008008008000000000B6
:106A30000000000000000000000000000000000056
:106A4000000000000000000000000000000003FF44
:106A5000C610CFFFF00003C0800F0100000000004F
:106A60000000000000000000000000000000000026
:106A70000000000000000000000000000000001006
:106A80000A10808000000060800183000000000088
:106A900000000000000000000000000000000000F6
:106AA00000000000000000000000000000000010D6
:106AB0000210810000000020878086000000000096
:106AC00000000000000000000000000000000000C6
:106AD000000000000000000000000000000007FFB0
:106AE000F20901FFC000002080008C0000000000BF
:106AF0000000000000000000000000000000000096
:106B00000000000000000000000000000000007411
:106B100002090000C01804408011180000000000A5
:106B20000000000000000000000000000000000065
:106B300000000000000000000000000000000193C1
:106B40008201000080180387E00E1F800000000013
:106B50000000000000000000000000000000000035
:106B600000000000000000000000000000000E1007
:106B7000727FF03F80000000000000000000000075
:106B80000000000000000000000000000000000005
:106B900000000000000000000000000000000010E5
:106BA00002000000000000000000000000000000E3
:106BB00000000000000000000000000000000000D5
:106BC00000000000000000000000000000000000C5
:106BD00000000000000000000000000000000000B5
:106BE00000000000000000000000000000000000A5
:106E400000810100E00000000000000000000000E0
:106E50000000000000000000000000000000000032
:106E6000000000000000000000000000000007FF1C
:106E7000E081021F81FF87DFC0000000E0003C00CE
:106E80000000000000000000000000000000000002
:106E90000000000000000000000000000000008171
:106EA000004202D1010081004000038110E0460051
:106EB00000000000000000000000000000000000D2
:106EC0000000000000000000000000000000008141
:106ED00003FFC49101008108400004831920C6000B
:106EE00000000000000000000000000000000000A2
:106EF0000000000000000000000000000000008111
:106F00000210441101FF8108401800820820C600C9
:106F10000000000000000000000000000000000071
:106F200000000000000000000000000000000081E0
:106F300003FFCF110100820840180082082064007E
:106F40000000000000000000000000000000000041
:106F500000000000000000000000000000000081B0
:106F60000210421FE00007C880000082082038009D
:106F70000000000000000000000000000000000011
:106F800000000000000000000000000000000FFFF3
:106F9000F21044110FFFF64FE000008208206C0051
:106FA00000000000000000000000000000000000E1
:106FB0000000000000000000000000000000008150
:106FC00003FFC79100800E40200000820820C60009
:106FD00000000000000000000000000000000000B1
:106FE0000000000000000000000000000000008120
:106FF000021040110100024020000082082082009F
:107000000000000000000000000000000000000080
:1070100000000000000000000000000000000081EF
:10702000001000D111FFC25FA00000831820820071
:107030000000000000000000000000000000000050
:1070400000000000000000000000000000000081BF
:107050000FFFF3169000C240201800811020C600D8
:107060000000000000000000000000000000000020
:10707000000000000000000000000000000001010E
:1070800000100438A00083C0201807F0E1FC7C0049
:1070900000000000000000000000000000000000F0
:1070A00000000000000000000000000000000201DD
:1070B00000100020603F8243C0000000000000007C
:1070C00000000000000000000000000000000000C0
:1070D00000000000000000000000000000000401AB
:1070E0000010000000000000000000000000000090
:1070F0000000000000000000000000000000000090
:10710000000000000000000000000000000000007F
:10711000000000000000000000000000000000006F
:10712000000000000000000000000000000000005F
:107350000005008401020804080004000010000079
:10736000000000000000000000000000000000001D
:1073700000000000000000000000000000000F3FBF
:10738000CF048FFFE08406FFC67F843F87FFC07E67
:1073900001E00E07000000000000000000000000F7
:1073A0000600E07000000000000000003800092422
:1073B000497FE0840FFFC20402030FA08400018311
:1073C00000301108800000000000000000000000F4
:1073D0000E01108800000000000000004800092491
:1073E00049040FFFC02000FFC00C082084000300E8
:1073F00080303198C0000000000000000000000054
:107400000A03198C00000000000000000800092495
:10741000497FC80047FF88040860103F84FF823E10
:10742000401020904000000000000000000000001C
:107430001202090400000000000000000800093FDB
:10744000C9444BFF40200DFFECFFDF24848C044433
:1074500040302090400000000000000000000000CC
:1074600012020904000000000000000008000924C6
:10747000494442010060060002124404048404C42A
:1074800040202090400000000000000000000000AC
:107490002202090400000000000000000800092486
:1074A000497FC3FF0FFFC07FC022447FC484048490
:1074B000406020904000000000000000000000003C
:1074C0004202090400000000000000000800092436
:1074D0004944420100CC064044245F4444FFC48434
:1074E00040C02090400000000000000000000000AC
:1074F0004202090400000000000000000800093FEB
:10750000C94440000387047FC444444E4484048437
:1075100041802090400000000000000000000000BA
:10752000FF820904000000000000000008000F2492
:107530004F7FC7FF8C84E44044C84459448404CC42
:10754000C3003198C00000000000000000000000EF
:107550000203198C0000000000000000080009046C
:10756000094444008084047FCC984570C8942673F5
:1075700086031108800000000000000000000000E9
:107580000231108800000000000000007F000004AD
:107590000044440081840C404930874048E2220086
:1075A00007F30E07000000000000000000000000CC
:1075B0000230E07000000000000000000000000445
:1075C0000045C7FF83040840C8678443C8D141828F
:1075D00000000000000000000000000000000000AB
:1075E000000000000000000000000000000000009B
:1075F0000000040084040847800000001004C07CE0
:10760000000000000000000000000000000000007A
:10761000000000000000000000000000000000006A
:10762000000000000000000000000000000000005A
:10763000000000000000000000000000000000004A
:107860000005000002010000000000000000000010
:107870000000000000000000000000000000000008
:107880000000000000000000000000001E000F3F8C
:10789000CF0484FFC211007E01C00E07000000006B
:1078A00000000000000000000000000000000000D8
:1078B0000F00E07000000000000000000300092439
:1078C000497FE280424901830020110880000000C6
:1078D00000000000000000000000000000000000A8
:1078E00010011088000000000000000003000924BF
:1078F000490402844A85030080203198C0000000BA
:107900000000000000000000000000000000000077
:107910002003198C00000000000000000100092471
:10792000497FC09F4E81023E4020209040000000D1
:107930000000000000000000000000000000000047
:107940006002090400000000000000000300093F7D
:10795000C9445C844211044440602090400000000F
:107960000000000000000000000000000000000017
:107970004002090400000000000000000200092489
:10798000494444FFDFD904C44380209040000000F4
:1079900000000000000000000000000000000000E7
:1079A0005E02090400000000000000000600092437
:1079B000497FC4804205048440602090400000005C
:1079C00000000000000000000000000000000000B7
:1079D0006302090400000000000000000C000924FC
:1079E0004944449F470104844030209040000000F7
:1079F0000000000000000000000000000000000087
:107A00004102090400000000000000001800093FC6
:107A1000C94445914681E4844030209040000000F4
:107A20000000000000000000000000000000000056
:107A300041020904000000000000000030000F2493
:107A40004F7FC69F4A7F04CCC0303198C0000000F1
:107A50000000000000000000000000000000000026
:107A60006103198C000000000000000060000904A0
:107A7000094444904A0106738423110880000000E1
:107A800000000000000000000000000000000000F6
:107A90002331108800000000000000007F00000477
:107AA000004441005201020003C30E070000000021
:107AB00000000000000000000000000000000000C6
:107AC0001E30E07000000000000000000000000414
:107AD0000045C303C2010182000000000000000055
:107AE0000000000000000000000000000000000096
:107AF0000000000000000000000000000000000086
:107B0000000000000201007C0000000000000000F6
:107B10000000000000000000000000000000000065
:107B20000000000000000000000000000000000055
:107B30000000000000000000000000000000000045
:107B40000000000000000000000000000000000035
:107D60000000000000000000000000000000020809
:107D7000020480000000000000000000000000007D
:107D800000000000000000000000000000000000F3
:107D90000000000000000000000000001E000208BB
:107DA000027D00F00FC01E01C0E0000000000000D6
:107DB00000000000000000000000000000000000C3
:107DC0000F007038000000000000000003000FBF2B
:107DD000020A430830602002211000000000000069
:107DE000000000000000000000000000000000385B
:107DF0000180884400000000000000000300020928
:107E00000FD1C600601040063318000000000000CB
:107E1000000000000000000000000000000000481A
:107E200001818CC60000000000000000010003B9C1
:107E300006218C0047C8C0041208000000000000A2
:107E4000000000000000000000000000000000082A
:107E500000810482000000000000000003000631E1
:107E6000067FCC0088888004120800000000000013
:107E700000000000000000000000000000000008FA
:107E800001810482000000000000000002000A1DC1
:107E9000278068009888BC041208000000000000D9
:107EA00000000000000000000000000000000008CA
:107EB000010104820000000000000000060002250D
:107EC0002F7F88009088C604120800000000000080
:107ED000000000000000000000000000000000089A
:107EE0000301048200000000000000000C0002609A
:107EF000AE40880090888204120800000000000054
:107F00000000000000000000000000000000000869
:107F100006010482000000000000000018000EC0EE
:107F2000C2408C009088820412080000000000000B
:107F30000000000000000000000000000000000839
:107F40000C0104820000000000000000300000006E
:107F5000027F84009998C2063318000000000000D8
:107F60000000000000000000000000000000000809
:107F700018018CC6000000000000000060000488AA
:107F800082210308CE70466221100000000000002C
:107F900000000000000000000000000000000008D9
:107FA0003018884400000000000000007F00048CAE
:107FB000821A01F040003C61C0E0000000000000B7
:107FC0000000000000000000000000000000007F32
:107FD0003F987038000000000000000000000844D6
:107FE00042FFE00030400000000000000000000000
:107FF0000000000000000000000000000000000081
:108000000000000000000000000000000000084424
:10801000020000000F8000000000000000000000CF
:108020000000000000000000000000000000000050
:108030000000000000000000000000000000000040
:108040000000000000000000000000000000000030
:108050000000000000000000000000000000000020
:1082700000000000000000000000000000000102FB
:10828000001000200080000000000000000000003E
:1082900000000000000000000000000000000000DE
:1082A000000000000000000000000000000001824B
:1082B0000010002000EFC0000000000000000000DF
:1082C0000000000000000000000000000000001C92
:1082D0000F0070380000000000000000380000842B
:1082E0000FFF8FFFC4888000000000000000000026
:1082F000000000000000000000000000000000027C
:1083000001808844000000000000000048000FFFCA
:10831000C82080840FC5800000000000000000001D
:10832000000000000000000000000000000000024B
:1083300001818CC600000000000000000800001051
:10834000087883FF184700000000000000000000CC
:10835000000000000000000000000000000000021B
:1083600000810482000000000000000008000010EE
:1083700008C69D00E7BC800000000000000000006F
:1083800000000000000000000000000000000006E7
:10839000018104820000000000000000080007FFC7
:1083A000891381FF06484000000000000000000023
:1083B0000000000000000000000000000000003885
:1083C000010104820000000000000000080000100D
:1083D0000820810009B60000000000000000000035
:1083E0000000000000000000000000000000000687
:1083F00003010482000000000000000008000010DB
:10840000083081FF07FF800000000000000000002E
:108410000000000000000000000000000000000359
:1084200006010482000000000000000008000FFFA9
:10843000E848810019026000000000000000000010
:108440000000000000000000000000000000000329
:108450000C01048200000000000000000800001071
:1084600008868FFFC1FE0000000000000000000031
:1084700000000000000000000000000000000003F9
:1084800018018CC600000000000000000800001069
:108490000B028080010200000000000000000000CC
:1084A000000000000000000000000000000000428A
:1084B0003018884400000000000000007F00001019
:1084C0000800830201FF800000000000000000009F
:1084D0000000000000000000000000000000003C60
:1084E0003F987038000000000000000000000010FD
:1084F000080787FF010E00000000000000000000D8
:10850000000000000000000000000000000000006B
:10851000000000000000000000000000000000104B
:108520000000000083E1C000000000000000000027
:10853000000000000000000000000000000000003B
:10854000000000000000000000000000000000002B
:10855000000000000000000000000000000000001B
:10856000000000000000000000000000000000000B
