:020000040800F2
:10000000A825002001010008290500084104000876
:1000100025050008ED010008CD12000800000000D1
:10002000000000000000000000000000D7070008EA
:100030009302000800000000B5050008B908000898
:10004000DD1200081B0100081B0100081B0100084D
:100050001B0100081B0100081B0100081B01000810
:100060001B0100081B0100081B0100081B01000800
:100070001B0100081B0100081B0100081B010008F0
:100080001B0100081B0100081B0100081B010008E0
:100090001B0100081B0100081B0100081B010008D0
:1000A0001B0100081B0100081B0100081B010008C0
:1000B000510900081B0100081B0100081B01000872
:1000C0001B0100081B0100081B0100081B010008A0
:1000D0001B010008C50D00081D0E00082D0E0008AC
:1000E0001B0100081B0100081B010008DFF80CD0F1
:1000F00000F052F800480047571C0008A8250020CF
:100100000648804706480047FEE7FEE7FEE7FEE7B1
:10011000FEE7FEE7FEE7FEE7FEE7FEE7F108000880
:10012000ED00000840EA01039B0703D009E008C97D
:10013000121F08C0042AFAD203E011F8013B00F8AC
:10014000013B521EF9D27047D2B201E000F8012BF8
:10015000491EFBD270470022F6E710B513460A4647
:1001600004461946FFF7F0FF204610BD30B50B4698
:10017000014600202022012409E021FA02F59D42D7
:1001800005D303FA02F5491B04FA02F52844151EAB
:10019000A2F10102F1DC30BD064C074D06E0E0683B
:1001A00040F0010394E8070098471034AC42F6D3BE
:1001B000FFF7A0FFA8D40008C8D4000810B501F0CC
:1001C00091FF01F083FD01F097FB02F02BFF10BDC2
:1001D00010B501F075F903F081F802F0D5F801F0DF
:1001E0008DFD01F011FC02F0A7FF10BD00BFFEE77E
:1001F000014609B90B487047012901D10A48FAE7BD
:10020000022901D10948F6E7032901D10020F2E7CC
:10021000042901D10020EEE7052901D10020EAE7F9
:100220000020E8E7A8000020D00C0020C00D00202E
:1002300008B54FF4E06000F0B3F925208DF8000018
:1002400001208DF8010000208DF8020001208DF8BA
:100250000300684600F06AF926208DF800000120AE
:100260008DF801008DF802008DF80300684600F05B
:100270005DF927208DF8000001208DF80100022093
:100280008DF8020001208DF80300684600F04EF959
:1002900008BD70472DE9F0410246002500260020E8
:1002A00000230024002791F803C00CF00F0591F8FB
:1002B00003C01CF0100F03D091F802C04CEA0505F2
:1002C00091F800C0BCF1000F31D0146800202BE081
:1002D0004FF0010C0CFA00F3B1F800C00CEA030671
:1002E0009E4220D183004FF00F0C0CFA03F7BC4361
:1002F00005FA03FC4CEA040491F803C0BCF1280F92
:1003000006D14FF0010C0CFA00FCC2F814C00AE050
:1003100091F803C0BCF1480F05D14FF0010C0CFA65
:1003200000FCC2F810C0401C0828D1D31460B1F8FA
:1003300000C0BCF1FF0F34DD546800202EE000F156
:10034000080C4FF0010808FA0CF3B1F800C00CEAF1
:1003500003069E4221D183004FF00F0C0CFA03F7E5
:10036000BC4305FA03FC4CEA040491F803C0BCF159
:10037000280F05D100F1080C08FA0CF8C2F8148017
:1003800091F803C0BCF1480F07D100F1080C4FF001
:10039000010808FA0CF8C2F81080401C0828CED3D7
:1003A0005460BDE8F0810000F0B50A460023002447
:1003B0000021002500F00046B6F1004F02D11D4E8D
:1003C000F16901E01B4E7168C0F3034583B200F48C
:1003D0004016B6F5401F08D121F07061154E7668C1
:1003E00026F07066134F7E6012E000F48016B6F5BA
:1003F000801F06D1032606FA05F4A14341F070617F
:1004000006E0460D360103FA06F6B14341F070618D
:1004100022B1460D360103FA06F6314300F00046DC
:10042000B6F1004F02D1034EF16101E0014E71605F
:10043000F0BD00000000014041617047016170475C
:1004400000BFFEE74CF6CC40014908607047000051
:10045000003000404AF6AA200149086070470000B9
:100460000030004001494860704700000030004003
:100470000149886070470000003000400149086071
:10048000704700000030004000B585B00121042015
:1004900000F0B2F80121880300F0AEF818208DF8C2
:1004A00013004FF40070ADF8100003208DF8120017
:1004B00004A91848FFF7EEFE04208DF8130000028F
:1004C000ADF8100004A91348FFF7E4FE4FF4E13043
:1004D00000900020ADF80400ADF80600ADF808006B
:1004E000ADF80C000C20ADF80A0069460A4800F08F
:1004F00027FD012240F22551074800F0FCFC0121B4
:10050000054800F0B5FC4021034800F097FC05B019
:1005100000BD0000000801400038014010B5FFF7A1
:1005200099FF10BD00BFFEE77047000070B50021C5
:1005300000230F22C4780CB3164C246804F4E06442
:10054000C4F5E064210AC1F10403CA40447804FA06
:1005500003F184781440214309010F4C0678A1551A
:10056000047804F01F050124AC4005786D114FF0AC
:10057000E02606EB8505C5F8004109E0047804F0A3
:100580001F050124AC40054D0678761145F826403C
:1005900070BD00000CED00E000E400E080E100E050
:1005A00002490143024A1160704700000000FA0549
:1005B0000CED00E07047000029B1064AD269024301
:1005C000044BDA6104E0034AD2698243014BDA61E9
:1005D000704700000010024029B1064A1269024328
:1005E000044B1A6104E0034A12698243014B1A6109
:1005F000704700000010024029B1064A9269024388
:10060000044B9A6104E0034A92698243014B9A6168
:10061000704700000010024029B1064AD268024328
:10062000044BDA6004E0034AD2688243014BDA608B
:10063000704700000010024030B500210022002465
:1006400000232D4D6D6805F00C0121B1042905D062
:10065000082923D105E0294D056022E0274D0560DA
:100660001FE0254D6D6805F47012234D6D6805F48B
:100670008034022505EB92421CB9214D554305609B
:100680000BE01D4D6D6815F4003F03D01C4D554324
:10069000056002E0194D5543056002E0174D056005
:1006A00000BF00BF144D6D6805F0F0010909154D3C
:1006B0006B5C0568DD4045600F4D6D6805F4E061D9
:1006C000090A104D6B5C4568DD4085600A4D6D6818
:1006D00005F46051C90A0B4D6B5C4568DD40C5608F
:1006E000054D6D6805F44041890B074D6B5CC5688D
:1006F000B5FBF3F5056130BD0010024000127A0031
:1007000000093D00000000201000002010B5014647
:100710000022002300204A11012A02D1094C23683B
:1007200006E0022A02D1074C236A01E0054C636A05
:1007300001F01F02012494401C4201D0012000E07E
:10074000002010BD00100240014908607047000001
:100750008004424221B1028842F04002028004E05B
:1007600002884FF6BF731A4002807047024600208D
:1007700013890B4201D0012000E0002070478181E5
:10078000704710B50022028802F441520B884C8851
:1007900023438C882343CC8823430C8923434C89EF
:1007A00023438C892343CC8923431A430280838BC0
:1007B0004FF2FF74234083830B8A038210BD21B163
:1007C000828842F00402828004E082884FF6FB7344
:1007D0001A4082807047704710B500F001F810BDD4
:1007E0000CB50020019000903148006840F4803042
:1007F0002F49086000BF2E48006800F400300090C8
:100800000198401C0190009818B90198B0F5A06FAC
:10081000F1D12748006810F4003F02D00120009079
:1008200001E0002000900098012840D12148006894
:1008300040F010001F4908600846006820F00300DF
:1008400008600846006840F00100086018484068E9
:100850001749486008464068486008464068486054
:100860000846406820F47C1048600846406840F420
:10087000F81048600846006840F08070086000BFCB
:100880000B48006810F0007FFAD00948406820F05B
:100890000300074948600846406840F0020048608D
:1008A00000BF0348406800F00C000828F9D10CBDD7
:1008B000001002400020024010B500F001F810BD09
:1008C00008480068401C074908600748006840B1B4
:1008D00005480068401E0449086002D10120034910
:1008E00008707047280000202C00002030000020F5
:1008F00010B51348006840F001001149086008462F
:100900004068104908400E494860084600680E4992
:1009100008400B4908600846006820F48020086001
:100920000846406820F4FE0048604FF41F008860CD
:10093000FFF752FF4FF000600449086010BD00004F
:10094000001002400000FFF8FFFFF6FE08ED00E097
:1009500010B500F001F810BD10B50121880700F0B6
:10096000BBF9002841D00121880700F0B2F85248B5
:10097000007801283AD1514800880028F2D04F4829
:100980000088401E4D4908804D4802F067FC01F088
:100990004FFE4A480088002827D147490870484937
:1009A000087000BF10214748FFF746FD2021454849
:1009B000FFF742FD4FF480714248FFF73DFD4FF4D1
:1009C00000714048FFF738FD00BF3F483C4A1278AD
:1009D00030F81200401E81B24FF0804000F09CF9C8
:1009E00000214FF0804000F077F863E03248007853
:1009F000032818D13148008800285BD02F48008890
:100A0000401E2E49088001F013FE2C480088002863
:100A100050D12949087000214FF0804000F05CF867
:100A200002F094F846E0244800780B2817D12348B8
:100A30000088E0B321480088401E2049088001F06A
:100A4000F7FD1E48008890BB00201B49087000215C
:100A50004FF0804000F040F801F06AFE2AE00020EC
:100A6000154908701649087000BF10211548FFF796
:100A7000E3FC20211348FFF7DFFC4FF4807111489D
:100A8000FFF7DAFC4FF400710E48FFF7D5FC00BF0A
:100A90000D480B4A127830F81200401E81B24FF018
:100AA000804000F039F900214FF0804000E001E083
:100AB00000F012F810BD00007F000020660000204A
:100AC00069000020000C014070D40008CA43028273
:100AD0007047CA430282704721B1028842F0010286
:100AE000028004E002884FF6FE731A4002807047CD
:100AF00010B504466848844208D10121C014FFF7AC
:100B00008BFD0021E014FFF787FDC4E0B4F1804FB6
:100B100008D101210846FFF75FFD00210120FFF702
:100B20005BFDB8E05D48844208D101210220FFF757
:100B300053FD00210220FFF74FFDACE058488442EE
:100B400008D101210420FFF747FD00210420FFF711
:100B500043FDA0E05348844208D101210820FFF75B
:100B60003BFD00210820FFF737FD94E04E4884420A
:100B700008D101211020FFF72FFD00211020FFF7E1
:100B80002BFD88E04948844208D101212020FFF74D
:100B900023FD00212020FFF71FFD7CE04448844214
:100BA00008D101214014FFF737FD00216014FFF741
:100BB00033FD70E03F48844209D10121C804FFF7AA
:100BC0002BFD00214FF40020FFF726FD63E03A489B
:100BD000844209D101210805FFF71EFD00214FF4D1
:100BE0008010FFF719FD56E03448844209D10121F5
:100BF0004805FFF711FD00214FF40010FFF70CFD31
:100C000049E02F48844208D101214020FFF7E4FC4D
:100C100000214020FFF7E0FC3DE02A48844208D153
:100C200001218020FFF7D8FC00218020FFF7D4FCB1
:100C300031E02548844208D101218015FFF7CCFC22
:100C40000021A015FFF7C8FC25E02048844209D107
:100C500001210804FFF7E0FC00214FF48030FFF78A
:100C6000DBFC18E01A48844209D101214804FFF74F
:100C7000D3FC00214FF40030FFF7CEFC0BE0154809
:100C8000844208D101218804FFF7C6FC00214FF4FB
:100C90008020FFF7C1FC10BD002C01400004004083
:100CA00000080040000C004000100040001400400C
:100CB00000340140004C014000500140005401400C
:100CC00000180040001C004000200040004001408F
:100CD000004401400048014030B502460020002396
:100CE0000024158A05EA0103958905EA010413B178
:100CF0000CB1012000E0002030BD1AB183890B4304
:100D0000838102E083898B438381704701894FF699
:100D1000F872114001817047818570478184704766
:100D2000002202881D4B98420ED01D4B98420BD0DA
:100D3000B0F1804F08D01B4B984205D01A4B984217
:100D400002D01A4B984204D14FF68F731A404B8849
:100D50001A43174B984207D0164B984204D04FF6CF
:100D6000FF431A40CB881A4302808B8883850B8807
:100D700003850A4B98420BD0094B984208D00E4B82
:100D8000984205D00D4B984202D00D4B984201D1AC
:100D90000B7A03860123838270470000002C0140F8
:100DA000003401400004004000080040000C0040F6
:100DB0000010004000140040004001400044014089
:100DC0000048014010B5024800F07CF910BD000059
:100DD000A800002070B505460E465521002000F001
:100DE00051FD002412E0285D552805D0285DAA2871
:100DF00002D0285DFF2803D1FF21002000F042FD32
:100E0000295D002000F03EFD601C84B2B442EADBA4
:100E1000AA21002000F036FD70BD000010B5024888
:100E200000F050F910BD0000D00C002010B50248B1
:100E300000F048F910BD0000C00D002001F4007260
:100E4000B2F5007F00D100BFCA430280704710B5E1
:100E500002460020108A4FF2FF0318400B884C888E
:100E600023438C882343CC8823431843108210BD2E
:100E700021B1828942F40052828104E082894DF6D8
:100E8000FF731A408281704702460020B1F5007F4F
:100E900000D100BF13880B4201D0012000E00020E8
:100EA000704770B502460024002300250020A1F5FC
:100EB00010666A3E00D100BFC1F3421501F01F0366
:100EC000012606FA03F3012D02D19689334006E08C
:100ED000022D02D1168A334001E0968A33400C126B
:100EE000012606FA04F41688344013B10CB101202F
:100EF00000E0002070BDF0B5034600240026002568
:100F00000020A1F510676A3F00D100BF1846C1F369
:100F1000421401F01F06012707FA06F5012C01D142
:100F20000C3004E0022C01D1103000E014301AB172
:100F300007682F43076002E00768AF430760F0BD12
:100F40002DE9F04786B005460E460024A24600BFB4
:100F5000A1460027B08900B100BF2F462C8A4CF66D
:100F6000FF700440F08804432C82AC894EF6F310E5
:100F70000440B08831890843718908430443AC8137
:100F8000AC8A4FF6FF400440B0890443AC8201A80C
:100F9000FFF752FB1F48874202D1DDF810A001E0A5
:100FA000DDF80CA0A88910F4004F08D00AEBCA00A5
:100FB00000EB0A1031684900B0FBF1F807E00AEBDA
:100FC000CA0000EB0A1031688900B0FBF1F8642018
:100FD000B8FBF0F004012009642101FB1089A88905
:100FE00010F4004F08D0322000EBC900B0FBF1F044
:100FF00000F00700044308E0322000EB09106421F0
:10100000B0FBF1F000F00F0004432C8106B0BDE806
:10101000F08700000038014001468888C0F30800CE
:101020007047C1F3080282807047028BD2B20283FC
:10103000028B42EA012202837047028B02F47F4254
:101040000283028B0A430283704721B1828A42F0F5
:101050002002828204E0828A4FF6DF731A40828285
:10106000704721B1828A42F01002828204E0828AB3
:101070004FF6EF731A408282704770B504460D46F2
:10108000012000F070F9668B002000F06CF90EB9B9
:10109000002070BD218BA068405C2870012000F00A
:1010A00062F9208B401C80B22083E189884201DBF9
:1010B00000202083608B401E6083002000F053F9E5
:1010C0000120E6E710B5044640F225512068FFF7FD
:1010D000E8FEE0B12068FFF79FFFE28AA16888542C
:1010E000E08A401C80B2E082E189884201DB002076
:1010F000E082608BE189884202DA608B401C608369
:10110000608B012803D1606A08B1606A804740F2B1
:1011100027712068FFF7C5FE08B3A08A60B90022D6
:1011200040F227712068FFF7E6FE012240F22661B7
:101130002068FFF7E0FE37E0638A6268D15C2068D0
:10114000FFF76FFF608A401C80B26082A1898842ED
:1011500001DB00206082A08A401EA08224E040F2D1
:1011600026612068FFF79DFEF0B1A08A50B90022E9
:1011700040F226612068FFF7BEFE206AA0B1206A17
:10118000804711E0638A6268D15C2068FFF749FFFD
:10119000608A401C80B26082A189884201DB002005
:1011A0006082A08A401EA08210BD2DE9F041044655
:1011B0000E461746002527E00CE0012000F0D3F88A
:1011C000B4F81480002000F0CEF8A089404500DD7E
:1011D00001E000BFF1E700BF705D228A61688854BA
:1011E000012000F0C0F8208A401C80B22082A18932
:1011F000884201DB00202082A08A401CA0820020BF
:1012000000F0B1F8681C85B2BD42D5DB012240F286
:1012100027712068FFF76FFEBDE8F0811F48204965
:10122000086020484860204888604FF480608881CA
:101230004000C881002008824882C8820883488311
:101240008882C861086248621848194908601948CC
:1012500048601948886064208881C881002008821D
:101260004882C882088348838882C86108624862CD
:101270001248134908601348486013488860642086
:101280008881C881002008824882C88208834883F8
:101290008882C861086248627047000000380140D7
:1012A000A8000020D0000020D0040020004400400E
:1012B000D00C0020F80C00205C0D002000480040FD
:1012C000C00D0020E80D00204C0E002000BFFEE7FE
:1012D0000020014908607047082C004010B500F05C
:1012E0000FF810BD00F07F01014A11607047000047
:1012F000002C004010B57F20FFF7F4FF10BD000068
:1013000010B5FFF7E5FF03A000F00EF8FFF7F2FFBE
:1013100010BD00000D0A777764672074696D656FF2
:10132000757420210D0A00000FB4054B10B503A9F8
:10133000044A029800F01AF810BC5DF814FB000093
:10134000DD1A0008A400002002E008C8121F08C12E
:10135000002AFAD170477047002001E001C1121F36
:10136000002AFBD1704780F3108870472DE9FF4FAA
:1013700089B09B460446002597E0252833D10027F5
:10138000641C4E49B84601222378203B02FA03F040
:10139000084202D00743641CF6E720782E2819D1B2
:1013A00014F8010F47F004072A280ED06FF02F021F
:1013B0002078A0F1300109290CD808EB880102EB54
:1013C000410100EB0108641CF2E70A98641C50F824
:1013D000048B0A90207800286BD0642808D06928F4
:1013E00006D0752820D05A460B9990476D1C5BE0BB
:1013F0000A994FF00A0901C90A91002804DAC0F1DC
:1014000000004FF02D0102E0390504D52B218DF8A5
:101410002010012103E0F90704D02021F7E78A46D4
:1014200008AE0EE00021FAE70A994FF00A0901C957
:101430000A91F7E74946FEF799FE01F1300106F8F7
:10144000011D0028F6D1ADEB060000F12009780758
:1014500001D44FF00108C84502DDA8EB090000E007
:1014600000208046002706E008A85A46C05D0B9978
:1014700090476D1C7F1C5745F6DB04E030205A4630
:101480000B9990476D1CB8F10001A8F10108F5DC3B
:1014900005E016F8010B5A460B9990476D1CB9F1FF
:1014A0000001A9F10109F4DC641C207800287FF414
:1014B00064AF0DB02846BDE8F08F00000928010098
:1014C000012080F3108800BF0D4800680D490860B6
:1014D000002080F3108800BF0B480068096888422C
:1014E0000DD0084800680849086008480068401C9A
:1014F00006490860B0F57A7F01D300200860704784
:101500002800002050000020540000205800002037
:10151000F0B5034600224FF0E02675690F4E36689D
:101520000F4FB6FBF7F606FB03F400BF4FF0E026C3
:10153000B16910E04FF0E026B06988420BD08842D4
:1015400002D20E1A324402E02E1A0E4432440146F0
:10155000A24200D300E0EDE700BFF0BD1400002080
:1015600040420F0010B5FEF7D9FF10BD10B54FF483
:10157000C060FFF715F800F05DF800F04FF800F0DC
:101580001DF800F053F810BD10B50120FFF7DCF88E
:1015900000BF6120FFF7BAF80028FAD045F2555095
:1015A000FEF76CFF0220FEF75DFF40F2FF70FEF7D2
:1015B0005FFFFEF74FFFFEF745FF10BD30B5144843
:1015C00000684FF47A72B0FBF2F1B1F1807F00D382
:1015D0001DE021F07F40401E4FF0E0225061501787
:1015E0000F22002807DA13071D0E0A4B00F00F0424
:1015F000241F1D5503E013071C0E074B1C5400BF8E
:1016000000204FF0E02290610720106100BF30BD44
:101610001400002018ED00E000E400E010B5FFF732
:10162000FDFDFEF731FFFEF703FE10BD10B5FFF71D
:10163000ABFF10BD7047000070B504460D462A464A
:101640002146012000F007F900200549087001201B
:1016500048701320887003210148FFF7BBFB70BD61
:10166000B016002070B504460D462A4621460220D9
:1016700000F0F1F80020054908700120487014209E
:10168000887004210148FFF7A5FB70BDB01600204B
:1016900010B5CCB000F0A8FA0446002C3FD000BF33
:1016A00020212648FEF7CAFE0A20FFF731FF00BFBF
:1016B00000BF20212148FEF7BFFE0A20FFF728FFC8
:1016C00000BF00BF20211D48FEF7B8FE0A20FFF72B
:1016D0001FFF00BF00BF20211848FEF7ADFE0A2003
:1016E000FFF716FF00BF4FF4967101A8FEF733FD18
:1016F00001A800F07BFB0120114908702B204870E5
:10170000122088704FF4967201A90D48C01CFEF794
:1017100009FD40F22F110A48FFF75CFB0CE00020A6
:101720000749087002204870922088703020C870E5
:1017300004210348FFF74EFB4CB010BD00080140E8
:10174000B016002010B50848007810F0010F0AD03C
:1017500040F2824205490648FEF7E4FC00200249B7
:10176000087000F0E5FF10BD64000020261D002079
:10177000A418002070B504460D462946204600F006
:101780004BFA032827D005DC48B1012817D00228DE
:101790003DD11AE0042824D0FF2838D127E00020CA
:1017A0002449087002204870A07840F080008870BA
:1017B0001120C87004211F48FFF70CFB37E0E81E1A
:1017C00081B2E01C00F08EFB31E0E81E81B2E01C2B
:1017D00000F04CFA2BE0E81E81B2E01C00F05AF851
:1017E00025E0E81E81B2E01C01F0EAFB1FE00020CA
:1017F0001049087002204870A07840F0800088707E
:101800001020C87004210B48FFF7E4FA0FE0002015
:101810000849087002204870A07840F08000887065
:101820001120C87004210348FFF7D4FA00BF00BF9D
:1018300070BD0000B016002070B505460E46284663
:10184000FEF7D6FC04460CB9002070BD3146204698
:10185000FFF713FCF9E72DE9F04105460E46174660
:101860002846FEF7C5FC04460CB9BDE8F081E069E6
:1018700008B1E06980473A4631462046FFF795FCBB
:1018800000BFF2E713B50446012201A92046FFF785
:10189000E2FF1CBD70B504460D462078102818D113
:1018A000607810280DD100F0FFF800201149087071
:1018B000012048701320887003210E48FFF78AFA30
:1018C00006E06078112803D1A178E01CFFF7B4FE90
:1018D0000DE00020074908700220487093208870AE
:1018E0002120C87004210348FFF774FA00BF00BF2D
:1018F00070BD0000B016002000B587B001210420A3
:10190000FEF77AFE01210846FEF776FE0121480423
:10191000FEF752FE01210420FEF76EFE10208DF826
:101920001B0003208DF81A000820ADF8180006A946
:101930003348FEF7AFFC1020ADF8180018208DF8E2
:101940001B0003208DF81A0006A92D48FEF7A2FC03
:101950000420ADF818001C208DF81B0003208DF822
:101960001A0006A92648FEF795FC04212548FFF732
:1019700064FB02212348FFF758FB4FF40060ADF8E9
:1019800010000020ADF81200ADF814004FF4807084
:10199000ADF8160004A91B48FFF759FA42F641704A
:1019A00000904FF48050ADF804004FF44050ADF873
:1019B00006004FF48060ADF808000C20ADF80A0076
:1019C0000020ADF80C0069460E48FFF7B9FA012275
:1019D00040F225510B48FFF78EFA01210948FFF725
:1019E00047FA01210748FFF73CFB01210548FFF7B3
:1019F0002CFB40210348FFF721FA07B000BD00008F
:101A0000000801400044004010B5012080F3108818
:101A100000BF0A4800680A490860002080F3108867
:101A200000BF084800680968884205D0044800687B
:101A30000449086000F008F810BD000028000020EC
:101A4000840000208800002000B59BB01AA9012066
:101A5000FFF7F2FEA8B91248007828B110480078C4
:101A6000401E0F49087019E00E480088B0B10D48BB
:101A7000028801A90020FFF7EEFE00200949088036
:101A80000CE03220064908709DF86810054802886D
:101A90000088401C034B188001A881541BB000BD76
:101AA000800000208200002010B500BF08210A48F5
:101AB000FEF7C2FC00BF00BF04210748FEF7BEFCD2
:101AC00000BF4FF4C870FFF723FD00BF0821024894
:101AD000FEF7B4FC00BF10BD0008014070B504461D
:101AE0000D46E1B20548FFF79CFA00BF40210348CC
:101AF000FFF7CAF90028F9D0204670BD0038014030
:101B0000FCB50746002121E000200DF8010000256A
:101B100018E0002612E0082000FB0170405D4FF045
:101B2000010C0CFA06FC10EA0C0F05D01DF80100A0
:101B3000401CC0B20DF80100701CC6B2082EEADBD2
:101B4000681CC5B2082DE4DB481CC1B20629DBDBEA
:101B50009DF800009DF801C060449DF802C06044FB
:101B60009DF803C060449DF804C060449DF805C022
:101B700000EB0C049DF800009DF801C060449DF846
:101B800003C060449DF804C000EB0C029DF8020005
:101B90009DF805C000EB0C030CB9FF20FCBD802CA8
:101BA00001DC0020FAE70AB90220F7E70BB9202090
:101BB000F4E7802A03DC802B01DC1120EEE7802A89
:101BC00003DD802B01DC2120E8E7802A03DC802B69
:101BD00001DD1220E2E7802A03DD802B01DD2220D7
:101BE000DCE72220DAE700000448006810F0800FEC
:101BF00001D1012070470020FCE7000008080140E7
:101C00000448806810F0400F01D101207047002087
:101C1000FCE700000010014010B50246507814782F
:101C200040EA0423981C814213D19078112806D0F1
:101C3000122806D0132806D0142808D105E0012068
:101C400010BD0220FCE70320FAE70420F8E700209B
:101C5000F6E7FF20F4E7FFF789FCFEF7AFFA03E0B1
:101C6000FFF780FCFEF7B4FAFAE7000070B504460F
:101C70000D462078102816D1607810280DD100F07C
:101C8000C5F80020104908700120487012208870A3
:101C900003210D48FFF79EF804E06078112801D178
:101CA000FFF7F6FC0DE0002007490870022048709D
:101CB000922088702120C87004210348FFF78AF819
:101CC00000BF00BF70BD0000B016002008B50121A4
:101CD0000420FEF791FC2020ADF8000010208DF8C4
:101CE000030002208DF8020069460348FEF7D2FA8D
:101CF00000F08CF808BD00000008014070B5022318
:101D000000200022012181F3108800BF33490968B7
:101D1000334C2160002181F3108800BF31490968EC
:101D20002468A14259D02F4909682D4C2468A1424A
:101D300027D22B4909682B4C2468081B28490968BD
:101D4000284C216000242849096845186441561E22
:101D50000021751BA14104D201220021224C2160E7
:101D600038E0214909680144022904D901220021EF
:101D70001D4C21602EE01C49096801441A4C216069
:101D800028E017490968491E164C2468081B1449A5
:101D90000968144C216000241349096845186441FE
:101DA0004FF0FF360021751BA14104D20122002112
:101DB0000D4C21600EE00C4909680144022904D948
:101DC00001220021084C216004E007490968014410
:101DD000054C2160012A00D1002270BD280000209E
:101DE000980000209C000020A000002070B505464F
:101DF000002404E001F04AFA2855601C84B2B4F5CE
:101E0000877FF7DB00F002F870BD000010B501F02D
:101E100013FA00BF20213248FEF710FB0A20FFF71B
:101E200077FB00BF00BF80212D48FEF707FB0A208B
:101E3000FFF76EFB00BF00BF80212948FEF7FCFAC8
:101E40000A20FFF765FB00BF00BF20212448FEF7F2
:101E5000F3FA0A20FFF75CFB00BF00BF20212048F7
:101E6000FEF7ECFA0A20FFF753FB00BF00BF20216A
:101E70001B48FEF7E1FA0A20FFF74AFB00BF00BF4C
:101E800080211748FEF7DAFA0A20FFF741FB00BF6E
:101E900000BF20211248FEF7D1FA0A20FFF738FBD5
:101EA00000BF00BF20210E48FEF7C6FA0A20FFF748
:101EB0002FFB00BF00BF20210948FEF7BFFA0A2010
:101EC000FFF726FB00BF00BF20210548FEF7B4FA4C
:101ED0000A20FFF71DFB00BF01F09CF910BD0000B8
:101EE0000008014070B504460D462078102804D043
:101EF000112834D0122876D149E0022D21D1607802
:101F0000102802D101F02AF828E06078112802D1C7
:101F100000F01CFE22E06078122804D181016C4898
:101F2000FEF758FF1AE000206A4908700220487046
:101F3000912088702320C87004216648FEF74AFF6C
:101F40000CE00020634908700220487091208870DE
:101F50002220C87004215F48FEF73CFFB6E0032D45
:101F600007D1A278617802EB012188B200F010FB62
:101F70000CE00020574908700220487091208870BA
:101F80002220C87004215348FEF724FF9EE06078A9
:101F9000102829D15048007810F0010F15D10120E8
:101FA0004E49087040F282414D48FEF7D4F84FF494
:101FB000906247494A48801CFEF7B4F846480078CA
:101FC00040F001004449087071E000204149087068
:101FD00003204870912088702020C87004213D485B
:101FE000FEF7F8FE63E063E06078112827D13A48F5
:101FF000007810F0010F14D100203849087040F229
:1020000082413748FEF7A7F840F28242A11C3448CB
:10201000FEF788F83048007840F001002E4908703B
:1020200045E000202B4908700320487091208870FB
:102030002020C87004212748FEF7CCFE37E06078E6
:10204000122827D12448007810F0010F14D1012064
:102050002249087040F282412148FEF77CF840F2A4
:102060008242A11C1E48FEF75DF81B48007840F034
:102070000100194908701AE0002016490870032071
:102080004870912088702020C87004211148FEF704
:10209000A1FE0CE000200F4908700220487091203A
:1020A00088701120C87004210A48FEF793FE0DE0E5
:1020B0000020084908700220487091208870212073
:1020C000C87004210348FEF785FE00BF00BF70BD45
:1020D000F0330008B0160020640000207E000020CD
:1020E000261D002000B58BB001210820FEF784FAE0
:1020F00001210420FEF780FA00BF01219C48FEF771
:102100009BF900BF00BF4FF480719A48FEF794F925
:1021100000BF10208DF82B0002208DF82A0001202E
:10212000ADF828000AA99248FEF7B4F810208DF8FF
:102130002B0002208DF82A00C001ADF828000AA962
:102140008C48FEF7A7F801211020FEF755FA00BFD2
:102150004FF400618848FEF76FF900BF10208DF83A
:102160002B0002208DF82A008002ADF828000AA971
:102170008148FEF78FF801210846FEF73DFA01215C
:102180000820FEF739FA01217C48FEF70DF900BF5F
:1021900010217748FEF750F920217548FEF74CF9D9
:1021A0004FF480717248FEF747F94FF400717048A0
:1021B000FEF742F900BF4FF44C70ADF82800022042
:1021C0008DF82A0010208DF82B000AA96848FEF728
:1021D00061F800BF01216648FEF730F900BF00BF7B
:1021E0004FF480716348FEF729F900BF00BF4FF438
:1021F00000616148FEF722F900BF01211020FEF7BF
:10220000FBF948208DF82B0002208DF82A00402091
:10221000ADF828000AA95848FEF73CF80121102023
:10222000FEF7EAF900BF4FF440715348FEF706F994
:1022300000BF10208DF82B0002208DF82A004FF4EB
:102240004C70ADF828000AA94B48FEF723F801218D
:102250001020FEF7D1F900BF80214748FEF7EEF8C5
:1022600000BF10208DF82B0003208DF82A0080205D
:10227000ADF828000AA94048FEF70CF80121082013
:10228000FEF7BAF901218803FEF796F94FF4604092
:10229000ADF8280003208DF82A0018208DF82B00B7
:1022A0000AA93348FDF7F6FF0020ADF814004FF4FB
:1022B0008270ADF816000020ADF81800ADF81A00D5
:1022C000ADF81C004FF40070ADF81E001020ADF802
:1022D00020000020ADF8220005A92948FEF751FA98
:1022E00001212748FEF736FA01212548FEF767FA53
:1022F00001210846FEF760F94FF08040FEF7F8FB39
:102300004FF08040FEF702FD40F64830ADF808007F
:102310002320ADF804000020ADF80A00ADF8060057
:1023200001A94FF08040FEF7FBFC1C208DF8100047
:1023300001208DF8110007208DF8120001208DF882
:10234000130004A8FEF7F2F800214FF08040FEF7DA
:10235000E5FC01218807FEF7B9FB01221146900731
:10236000FEF7CBFC0020074908700BB000BD000051
:10237000000C014000080140001001400002300044
:10238000003800407F00002010B5012080F3108845
:1023900000BF3A4800683A490860002080F310887E
:1023A00000BF384800680968884265D03448006832
:1023B00034490860FFF724FC10B3334800780D2837
:1023C00017D2DFE800F0070A0B0C0D0E0F101112E8
:1023D00013141500FFF7B6F90CE00BE00AE009E072
:1023E00008E007E006E005E004E003E002E001E0C9
:1023F00000E000BF00BF42F21070244908803BE0BB
:1024000022480088401C80B22049088041F288316F
:10241000884231DB00201D4908801D4908801D4984
:10242000087000BF4FF440711B48FEF707F800BF6B
:1024300000BF10211948FDF7FFFF20211748FDF7C5
:10244000FBFF4FF480711548FDF7F6FF4FF4007164
:102450001248FDF7F1FF00BF00214FF08040FEF76A
:102460003BFB0020084908700D49087002204870A5
:10247000912088703120C87010BD00002800002015
:1024800074000020780000207F0000207C000020E5
:10249000660000206400002000100140000C014094
:1024A000B016002070B504460E46154627E000BF62
:1024B00002211648FEF75AF90028F9D03DB914F860
:1024C000012B02F0AA011148FEF759F910E0012D85
:1024D00007D114F8012B02F055010C48FEF74FF913
:1024E00006E0022D04D114F8011B0848FEF747F955
:1024F00000BF80210548FEF739F90128F9D03000E6
:10250000A6F10101CEB2D2D170BD0000003800406A
:1025100010B50446012C11D100BF4FF440711B4887
:10252000FDF78AFF00BF4FF47A70FEF7F1FF00BF9E
:102530004FF440711548FDF781FF25E0022C0FD1C3
:1025400000BF30211148FDF777FF00BF4FF47A70CC
:10255000FEF7DEFF00BF30210C48FDF76FFF13E0F0
:10256000032C11D100BF4FF44C710848FDF764FFF4
:1025700000BF4FF47A70FEF7CBFF00BF4FF44C71F1
:102580000248FDF75BFF00BF10BD000000100140D6
:1025900010B5044622480078002832D1A4F57F40C7
:1025A000FF380CD11F4908700220487091208870B4
:1025B0002120C87004211B48FEF70CFC2EE01A48AD
:1025C000008820441849088001201549087000201F
:1025D00014490870012048701120887003211148A7
:1025E000FEF7F8FB00F024F80F480088401E0E4963
:1025F000088000200D49087001218807FEF76CFA59
:102600000CE0002007490870022048709120887073
:102610002020C87004210348FEF7DCFB10BD000039
:102620007F000020B0160020660000206900002016
:1026300010B53D48007830B101281DD0022834D0B3
:10264000032864D14AE000BF00BF10213748FDF7DE
:10265000F5FE20213548FDF7EFFE00BF00BF4FF427
:1026600080713248FDF7EAFE4FF400712F48FDF704
:10267000E3FE00BF00BF4BE000BF00BF10212B48AE
:10268000FDF7DCFE20212948FDF7D6FE00BF00BF84
:102690004FF480712548FDF7CFFE4FF400712348B9
:1026A000FDF7CCFE00BF00BF32E000BF00BF10212D
:1026B0001E48FDF7C1FE20211C48FDF7BFFE00BFEC
:1026C00000BF4FF480711948FDF7B6FE4FF400715A
:1026D0001648FDF7B3FE00BF00BF19E000BF00BF02
:1026E00010211248FDF7A8FE20211048FDF7A6FE94
:1026F00000BF00BF4FF480710C48FDF79FFE4FF400
:1027000000710A48FDF798FE00BF00BF00E000BF5F
:1027100000BF05480078401CC0B203490870042877
:1027200001DB0020087010BD68000020000C014093
:1027300070B5FD48007800287ED1FC48006800EBA9
:102740004000022101EB0010F94946183046FFF71E
:10275000D7F90546FF2D0CD1F6480088801CF549B5
:1027600008800B20F049087001218807FEF7B4F9B2
:10277000B2E1A5BB022230213046FFF793FE00BF35
:102780008021ED48FDF758FE00BF00BF8021EA48D8
:10279000FDF754FE00BF0320FFF7BAFE4FF47A7036
:1027A000FEF7B6FEFFF744FF0020E4490870E44856
:1027B0000A46127830F81200401E81B24FF0804075
:1027C000FEF7AAFADB480088401CDA4908800B2093
:1027D000D549087001218807FEF77EF97CE1FFE703
:1027E000112D34D1022230213046FFF75BFE00BFAD
:1027F0008021D148FDF720FE00BF00BF8021CE48D8
:10280000FDF71CFE00BF0120FFF782FE0220FFF74C
:102810007FFEFFF70DFF0020C8490870C8480A4630
:10282000127830F81200401E81B2A807FEF774FA41
:10283000C0480088401C00E074E1BE4908800B20BD
:10284000B949087001218807FEF746F944E1022DD5
:1028500036D1002415E0224630213046FFF722FE13
:1028600000BF8021B448FDF7E7FD00BF00BF802115
:10287000B148FDF7E3FD00BF0220FFF749FE601CF1
:10288000C4B2022CE7DBFFF7D3FE0020AB4908708F
:10289000AB480A46127830F81200401E81B24FF061
:1028A0008040FEF739FAA3480088401CA1490880FF
:1028B0000B209D49087001218807FEF70DF90BE1F7
:1028C000202D36D1002415E0224630213046FFF776
:1028D000E9FD00BF80219848FDF7AEFD00BF00BFB5
:1028E00080219548FDF7AAFD00BF0120FFF710FEEB
:1028F000601CC4B2022CE7DBFFF79AFE00208F4970
:1029000008708F480A46127830F81200401E81B2D3
:102910004FF08040FEF700FA86480088401C854949
:1029200008800B208049087001218807FEF7D4F841
:10293000D2E0122D4AD1022230213046FFF7B2FDFB
:1029400000BF80217C48FDF777FD00BF00BF8021DC
:102950007948FDF773FD00BF0120FFF7D9FD002482
:1029600015E0224630213046FFF79CFD00BF802154
:102970007148FDF761FD00BF00BF80216E48FDF783
:102980005DFD00BF0220FFF7C3FD601CC4B2022C36
:10299000E7DBFFF74DFE00206849087068480A46EB
:1029A000127830F81200401E81B24FF08040FEF7DE
:1029B000B3F960480088401C5E4908800B205A49E2
:1029C000087001218807FEF787F885E0212D4AD19C
:1029D000022230213046FFF765FD00BF80215648B6
:1029E000FDF72AFD00BF00BF80215348FDF726FDFB
:1029F00000BF0220FFF78CFD002415E022463021A5
:102A00003046FFF74FFD00BF80214B48FDF714FD16
:102A100000BF00BF80214848FDF710FD00BF012026
:102A2000FFF776FD601CC4B2022CE7DBFFF700FE67
:102A300000204249087042480A46127830F81200D5
:102A4000401E81B24FF08040FEF766F93948008899
:102A5000401C384908800B20334908700121880741
:102A6000FEF73AF838E0002418E0224630213046DC
:102A7000FFF718FD00BF80212F48FDF7DDFC00BFE8
:102A800000BF80212C48FDF7D9FC00BF0120FFF7D3
:102A90003FFD0220FFF73CFD601CC4B2022CE4DBCA
:102AA000FFF7C6FD00202549087025480A46127820
:102AB00030F81200401E81B24FF08040FEF72CF932
:102AC0001C480088401C1B4908800B2016490870D0
:102AD00001218807FEF700F814480068401C1349DC
:102AE000086018281ED300200860164908700120CD
:102AF00048701120887003211248FEF76BF90020FE
:102B00000949087000214FF08040FDF7E5FF0E48AD
:102B10000078012806D10C2003490870012188079C
:102B2000FDF7DAFF70BD00007F000020700000207C
:102B3000A418002066000020001001406900002059
:102B400070D40008B01600207E00002070B5FB484D
:102B5000007800287ED1FA48006800EB4000F9496F
:102B600001EB00163046FEF7CBFF0546FF2D0CD1DA
:102B7000F5480088801CF44908800320EF4908705C
:102B800001218807FDF7A8FFB2E1A5BB0222302191
:102B90003046FFF787FC00BF8021EC48FDF74CFC76
:102BA00000BF00BF8021E948FDF748FC00BF0320BB
:102BB000FFF7AEFC4FF47A70FEF7AAFCFFF738FD82
:102BC0000320E3490870E3480A46127830F81200FF
:102BD000401E81B24FF08040FEF79EF8DA48008830
:102BE000401CD94908800320D44908700121880776
:102BF000FDF772FF7CE1FFE7112D34D10222302175
:102C00003046FFF74FFC00BF8021D048FDF714FC91
:102C100000BF00BF8021CD48FDF710FC00BF0120A0
:102C2000FFF776FC0220FFF773FCFFF701FD03209E
:102C3000C7490870C7480A46127830F81200401E8B
:102C400081B2A807FEF768F8BF480088401CBE495B
:102C5000088000E064E10320B8490870012188077A
:102C6000FDF73AFF44E1022D36D1002415E022465B
:102C700030213046FFF716FC00BF8021B348FDF736
:102C8000DBFB00BF00BF8021B048FDF7D7FB00BFD2
:102C90000220FFF73DFC601CC4B2022CE7DBFFF70B
:102CA000C7FC0320AA490870AA480A46127830F8DF
:102CB0001200401E81B24FF08040FEF72DF8A2486E
:102CC0000088401CA049088003209C49087001210D
:102CD0008807FDF701FF0BE1202D36D1002415E018
:102CE000224630213046FFF7DDFB00BF80219748A8
:102CF000FDF7A2FB00BF00BF80219448FDF79EFBBB
:102D000000BF0120FFF704FC601CC4B2022CE7DB0B
:102D1000FFF78EFC03208E4908708E480A46127811
:102D200030F81200401E81B24FF08040FDF7F4FFF2
:102D300085480088401C8449088003207F4908702A
:102D400001218807FDF7C8FED2E0122D4AD10222E8
:102D500030213046FFF7A6FB00BF80217B48FDF7FE
:102D60006BFB00BF00BF80217848FDF767FB00BF09
:102D70000120FFF7CDFB002415E02246302130462C
:102D8000FFF790FB00BF80217048FDF755FB00BFA7
:102D900000BF80216D48FDF751FB00BF0220FFF707
:102DA000B7FB601CC4B2022CE7DBFFF741FC00203C
:102DB0006749087067480A46127830F81200401ECA
:102DC00081B24FF08040FDF7A7FF5F480088401CAC
:102DD0005D49088003205949087001218807FDF7E3
:102DE0007BFE85E0212D4AD1022230213046FFF7BB
:102DF00059FB00BF80215548FDF71EFB00BF00BFF7
:102E000080215248FDF71AFB00BF0220FFF780FB2C
:102E1000002415E0224630213046FFF743FB00BF77
:102E200080214A48FDF708FB00BF00BF80214748CA
:102E3000FDF704FB00BF0120FFF76AFB601CC4B272
:102E4000022CE7DBFFF7F4FB002041490870414802
:102E50000A46127830F81200401E81B24FF08040CE
:102E6000FDF75AFF38480088401C37490880032086
:102E70003249087001218807FDF72EFE38E0002452
:102E800018E0224630213046FFF70CFB00BF8021BE
:102E90002E48FDF7D1FA00BF00BF80212B48FDF777
:102EA000CDFA00BF0120FFF733FB0220FFF730FB14
:102EB000601CC4B2022CE4DBFFF7BAFB00202449FB
:102EC000087024480A46127830F81200401E81B279
:102ED0004FF08040FDF720FF1B480088401C1A4936
:102EE000088003201549087001218807FDF7F4FDCB
:102EF00013480068401C12490860B0F5487F1CD395
:102F00000020086000F04AF80020134908700120F2
:102F100048701120887003210F48FDF75BFF0CE01B
:102F200000200D49087002204870912088702020F0
:102F3000C87004210848FDF74DFF70BD7F000020D8
:102F40006C0000207038000866000020001001406E
:102F50006900002070D40008B016002010B50C489D
:102F60000088C8300A49088001200A4908700121F8
:102F70008007FDF7B1FD0020074908700120487067
:102F80001120887003210448FDF724FF10BD0000C4
:102F9000660000207F000020B016002010B5064813
:102FA0000088A030044908800120044908700121EC
:102FB0008007FDF791FD10BD660000207F00002016
:102FC00070B504460D462078102818D16078102876
:102FD0000DD100F001F9002011490870012048705E
:102FE0001420887003210E48FDF7F4FE06E0607897
:102FF000112803D1A178E01CFEF734FB0DE000207E
:103000000749087002204870942088702120C870F9
:1030100004210348FDF7DEFE00BF00BF70BD0000C5
:10302000B016002000B587B001210820FDF7E4FAB2
:1030300001210846FDF7E0FA01218804FDF7BCFAFA
:1030400001210820FDF7D8FA4FF40060ADF8180010
:1030500010208DF81B0003208DF81A0006A93448B3
:10306000FDF718F94FF48050ADF8180018208DF8CE
:103070001B0003208DF81A0006A92D48FDF70AF958
:103080004FF48060ADF818001C208DF81B00032061
:103090008DF81A0006A92648FDF7FCF804212548FA
:1030A000FDF7CBFF02212348FDF7BFFF4FF400607F
:1030B000ADF810000020ADF81200ADF814004FF488
:1030C0008070ADF8160004A91A48FDF7C0FE42F65C
:1030D000417000904FF48050ADF804004FF4405020
:1030E000ADF806004FF48060ADF808000C20ADF894
:1030F0000A000020ADF80C0069460E48FDF720FFDD
:10310000012240F225510B48FDF7F5FE0121094847
:10311000FDF7AEFE01210748FDF7A3FF0121054899
:10312000FDF793FF40210348FDF788FE07B000BD7F
:10313000000C01400048004010B5012080F31088C9
:1031400000BF0A4800680A490860002080F3108820
:1031500000BF084800680968884205D00448006834
:103160000449086000F008F810BD000028000020A5
:10317000900000209400002000B59BB01AA9022006
:10318000FEF75AFBA8B91248007828B11048007819
:10319000401E0F49087019E00E480088B0B10D4874
:1031A000028801A90020FEF756FB0020094908808B
:1031B0000CE03220064908709DF868100548028826
:1031C0000088401C034B188001A881541BB000BD2F
:1031D0008C0000208E00002010B500BF4FF400616D
:1031E0000B48FDF729F900BF00BF4FF48061084884
:1031F000FDF724F900BF4FF4C870FEF789F900BF4E
:103200004FF400610248FDF719F900BF10BD00003E
:10321000000C014008B58020ADF8000048208DF872
:10322000030002208DF8020069460248FDF732F8DB
:1032300008BD00000008014008B58020ADF800007E
:1032400010208DF8030002208DF802006946024824
:10325000FDF720F808BD00000008014010B5044645
:103260002078094A32F81000401E81B24FF08040A9
:10327000FDF752FD2078401CC0B220701B2801DDF4
:103280001B20207010BD000070D4000870B5002510
:1032900000241CE0FEF7A8FC28B9C4F107010120B6
:1032A00088402843C5B200BF20210B48FDF7C6F86F
:1032B0000A20FEF72DF900BF00BF20210648FDF7C8
:1032C000BBF80A20FEF724F900BF601CC4B2082C2A
:1032D000E0DB284670BD00000008014008B56946E3
:1032E0000020FEF7A9FA68B93D480088002805DDEE
:1032F0003B480088401E3A49088070E00020394968
:1033000008706CE03648008868B93648007850B9D3
:103310009DF80000552806D100203349088001207F
:103320003049087057E02F48007801282FD19DF8C8
:103330000000FF2803D102202A4908704BE09DF8C5
:103340000000552805D1002026490870244908802E
:1033500041E09DF80000AA280DD103202149087002
:10336000214801882148FEF705FA00201D49087010
:103370001B4908802FE09DF800001C491A4A12885A
:10338000885419480088401C1749088023E01548D4
:10339000007802281FD19DF80000FF2807D09DF873
:1033A0000000552803D09DF80000AA280ED19DF8F2
:1033B00000000E490C4A128888540B480088401CB3
:1033C0000949088001200749087004E000200549E8
:1033D0000870034908804FF47A700149088008BDDD
:1033E0005C000020600000205E000020B00E002085
:1033F00000000000000000000000000000000000CD
:1034000000000000000000000000000000000000BC
:1034100000000000000000000000000000000000AC
:10342000000000000000000000000000000000009C
:10343000000000000000000000000000000000008C
:10344000000000000000000000000000000000007C
:10345000000000000000000000000000000000006C
:10346000000000000000000000000000000000005C
:10347000000000000000000000000000000000004C
:10348000000000000000000000000000000000003C
:10349000000000000000000000000000000000002C
:1034A000000000000000000000000000000000001C
:1034B0000E600380110C3000018000000E1C307083
:1034C000070000000C2000000000000000000000C9
:1034D000000000000300200060C0006030CC00004D
:1034E0000E60018039087F7E03C03FFC789C3070FD
:1034F00007007DFE0E707FFE00000000000000004F
:1035000000000001FFFE37FC60E0036030CC0000EB
:103510000E62FFFF2D586C6607E0300C18FC33FE7E
:10352000FFFF6D860C30000607071DFDF7F81F0131
:10353000F87E1E000000760C67FC1BFDB1CFFE007C
:103540000E6E00006D5F4C660E703FFC185CFC70E8
:103550000C006D8618180006070F1DFDF7FC3F8351
:10356000F8FE3F803FF0660DF3183261B19F030013
:103570007E7C3FFCCD52FFE61C38300C181C3070AE
:103580001C0069FE381CFFF6038F1DC0E71E71C7C3
:1035900009C223803030C7FC63386061B3970300F1
:1035A0000E78300C1FF61E66781C3FFCFF9C3070B6
:1035B0001FFC7986300C0006038F99C0E70EE0E708
:1035C00001C003803030960C67FC67FFB3B703007F
:1035D0000E70300C30363B7E6FF6018038FC33FEC7
:1035E000380C798661060006039F99C0E70EE0E774
:1035F00081E003803FF03E0CF40CC061B7A7F1807E
:103600000E60300C77DE73000180FFFF3C5C3C0EE7
:10361000780C798643823FC60199B9F8E71EE0E34A
:10362000F0FC0700000037FCF4CCC061B3870180D8
:103630000E603FFC701E7FFC018000003E1CF10C00
:103640007FFC6DFE030030C60199B9F8E7FCE0E3AA
:10365000F8FE0F00FFFC6000E8C0C3FDB1870180E9
:103660000E600180B7CC300C01803FFC7E1C318C99
:10367000580C6DE2070030C601F9F1C0E7F0E0E058
:103680007C1F1E00C00CEFFDEFFEC365B1870180FB
:103690000E60119036CC300C3FFC300C783F30D8A7
:1036A000180C6DB70E0030C601F9F1C0E700E0E07C
:1036B0001C071C00CFECE019E300C365B187F18063
:1036C0003E62199834FC3FFC01803FFCDBDC30F0AB
:1036D0001FFC6DBE0E2030C600F0F1C0E70071C4C3
:1036E0001D073000C86C6FFF63FCC365B1870180A4
:1036F000CE67318C34FE300C01800180581C30F8CC
:10370000180C799C1C783FC600F0E1FDF7003F875C
:10371000F9FE7F80C86C6618630CC3643187018032
:103720000E6761863CF2300C01800990181C31DC78
:10373000180C61FC383C300600F0E1FDF7001F0773
:10374000F1FC7F80CFEC6318670C636C318703005A
:103750000E66418238823FFC7FFE318C181C338E0E
:10376000180C63EE3FFE000E000000000000000099
:1037700000000000C80C62186E18637C31870300DB
:103780000E7E07000000300C00004782181C660205
:10379000187C63820004007C000000000000000030
:1037A00000000000C07860F07CF83060E187030022
:1037B0000000000000000000000000000000000009
:1037C00000000000000000000000000000000000F9
:1037D00000000000000000000000180000000600CB
:1037E00000000000000000000000000000000000D9
:1037F00000000000000000000000000000000000C9
:1038000000000000000000000000000000000000B8
:1038100000000000000000000000000000000000A8
:104270000000000000F3C000F0000000000000009B
:10428000000000000000000000000000000000002E
:10429000000000000000000000000000000000001E
:1042A0000000000000F3C00030000000000000002B
:1042B00000000000000000000000000000000000FE
:1042C00000000000000000000000000000000000EE
:1042D0000000000000F3C0003000000000000000FB
:1042E00000000000000000000000000000000000CE
:1042F00000000000000000000000000000000000BE
:104300000000000000F3C47FFFFC0000000000007C
:10431000000000000000000000000000000000009D
:10432000000000000000000000000000000000008D
:104330000000000000F3DC000000000000000000AE
:10434000000000000000000000000000000000006D
:10435000000000000000000000000000000000005D
:104360000000000000F3DC0000000000000000007E
:10437000000000000000000000000000000000003D
:10438000000000000000000000000000000000002D
:10439000000000000FF3F81FFFE000000000000025
:1043A000000000000000000000000000000000000D
:1043B00000000000000000000000000000000000FD
:1043C000000000000FF3F81FFFE0000000000000F5
:1043D00000000000000000000000000000000000DD
:1043E00000000000000000000000000000000000CD
:1043F0000000000000F3F01800E0000000000000E2
:1044000000000000000000000000000000000000AC
:10441000000000000000000000000000000000009C
:104420000000000000F3E01800E0000000000000C1
:10443000000000000000000000000000000000007C
:10444000000000000000000000000000000000006C
:104450000000000000F3E01800E000000000000091
:10446000000000000000000000000000000000004C
:10447000000000000000000000000000000000003C
:104480000000000000F3C01800E000000000000081
:10449000000000000000000000000000000000001C
:1044A000000000000000000000000000000000000C
:1044B0000000000000F3C01FFFE00000000000004B
:1044C00000000000000000000000000000000000EC
:1044D00000000000000000000000000000000000DC
:1044E0000000000000F3C01FFFE00000000000001B
:1044F00000000000000000000000000000000000BC
:1045000000000000000000000000000000000000AB
:104510000000000000F3C0003000000000000000B8
:10452000000000000000000000000000000000008B
:10453000000000000000000000000000000000007B
:104540000000000000F3C000310000000000000087
:10455000000000000000000000000000000000005B
:10456000000000000000000000000000000000004B
:104570000000000000F3C000310000000000000057
:10458000000000000000000000000000000000002B
:10459000000000000000000000000000000000001B
:1045A0000000000007F3C40E31800000000000008E
:1045B00000000000000000000000000000000000FB
:1045C00000000000000000000000000000000000EB
:1045D0000000000018F3C79830E000000000000061
:1045E00000000000000000000000000000000000CB
:1045F00000000000000000000000000000000000BB
:104600000000000018F3C79830E000000000000030
:10461000000000000000000000000000000000009A
:10462000000000000000000000000000000000008A
:104630000000000000F3CC303070000000000000EB
:10464000000000000000000000000000000000006A
:10465000000000000000000000000000000000005A
:104660000000000000F3CC303070000000000000BB
:10467000000000000000000000000000000000003A
:10468000000000000000000000000000000000002A
:104690000000000000F3CC603010000000000000BB
:1046A000000000000000000000000000000000000A
:1046B00000000000000000000000000000000000FA
:1046C0000000000000F0FC01E0000000000000001D
:1046D00000000000000000000000000000000000DA
:1046E00000000000000000000000000000000000CA
:1046F0000000000000F0FC01E000000000000000ED
:1047000000000000000000000000000000000000A9
:104710000000000000000000000000000000000099
:104720000000000000000000000000000000000089
:104730000000000000000000000000000000000079
:104A80000C00000E007000000E0000180010000066
:104A90000000000000000000000000000000000016
:104AA0000000000000000000000000000000000006
:104AB0000C00000E007000000E0000180010000036
:104AC00000000000000000000000000000000000E6
:104AD00000000000000000000000000003FFFFC015
:104AE0000C007F3E007FFF800E007F7FF01FBFC362
:104AF000FFFE0000000000000000000000000000B9
:104B000000000000000000000000000003FFFFC0E4
:104B10000C007F3E007FFF800E007F7FF01FBFC331
:104B2000FFFE000000000000000000000000000088
:104B30000000000000000000000000000038000F2E
:104B4000FFFE617FF0700F8FFFFE7A78E05020C388
:104B500080000000000000000000000000000000D5
:104B6000000000000000000000000000003800000D
:104B70000C0061F070E01C0E300E7AFCE1FFB78390
:104B800080000000000000000000000000000000A5
:104B900000000000000000000000000000380000DD
:104BA0000C0061F070E01C0E300E7AFCE1FFB78360
:104BB0008000000000000000000000000000000075
:104BC00000000000000000000000000000380000AD
:104BD0000C0061FCE0E01C0EF00E7E87C3CF1F03CB
:104BE0008000000000000000000000000000000045
:104BF000000000000000000000000000003800007D
:104C00000C007F0F81E03801FFF07E07C078F7834A
:104C1000FFFE000000000000000000000000000097
:104C2000000000000000000000000000003800004C
:104C30000C007F0F81E03801FFF07E07C078F7831A
:104C4000FFFE000000000000000000000000000067
:104C5000000000000000000000000000003FFE0017
:104C60000C001E0F81E0F007E0F07E7DE06730432E
:104C700081C00000000000000000000000000000F3
:104C800000000000000000000000000000380E07D7
:104C9000FFF85E3FF7E0F00E31E07FF8DF98D803D1
:104CA00081C00000000000000000000000000000C3
:104CB00000000000000000000000000000380E07A7
:104CC000FFF85E3FF7E0F00E31E07FF8DF98D803A1
:104CD00081C0000000000000000000000000000093
:104CE000000000000000000000001FCFE0380E00B0
:104CF0000C005EF079E3E0001F007A7FC07FFF8345
:104D000081C01F8FC00000000000000000000000F4
:104D1000000000000000000000001FCFE0380E007F
:104D20000C005EF079E3E0001F007A7FC07FFF8314
:104D300081C01F8FC00000000000000000000000C4
:104D4000000000000000000000001FCFE0380E004F
:104D50000C005F0000E3E001FFF07BE203F00FE3F3
:104D600081C01F8FC0000000000000000000000094
:104D700000000000000000000000000000380C00EF
:104D80000C005E3FF0E7C01FC07F7BFFF03FFF03DA
:104D900081C00000000000000000000000000000D2
:104DA00000000000000000000000000000380C00BF
:104DB0000C005E3FF0E7C01FC07F7BFFF03FFF03AA
:104DC00081C00000000000000000000000000000A2
:104DD00000000000000000000000000000700C0057
:104DE0000C005E3070E7C041FFFC7B8200300F0298
:104DF00001C00000000000000000000000000000F2
:104E000000000000000000000000000000700C1F07
:104E1000FFFF5E3070E7006100107FFFF03FFF0E84
:104E200001C00000000000000000000000000000C1
:104E300000000000000000000000000000700C1FD7
:104E4000FFFF5E3070E7006100107FFFF03FFF0E54
:104E500001C0000000000000000000000000000091
:104E600000000000000000000000000000C00C0076
:104E70000C005FB070E703C1001078020030C08EF4
:104E800001C0000000000000000000000000000061
:104E900000000000000000000000000003800C0083
:104EA0000C00FE3FF0E703C1FFF07802003F9F0CCB
:104EB00001C0000000000000000000000000000031
:104EC00000000000000000000000000003800C0053
:104ED0000C00FE3FF0E703C1FFF07802003F9F0C9B
:104EE00001C0000000000000000000000000000001
:104EF0000000000000000000000000000703F800B0
:104F00000C00003070E3FF81001079FFFC3000CC12
:104F10001F00000000000000000000000000000072
:104F20000000000000000000000000000000000081
:104F30000000000000000000000000000000000071
:104F40000000000000000000000000000000000061
:104F50000000000000000000000000000000000051
:1052A00000000000000000000000403FF00400008B
:1052B00000003C07C1F0787800000000000000000A
:1052C00000000000000000000000000000000000DE
:1052D0000000000000030307801FFF0003CC000054
:1052E000000046042308C08C0000000000000000FD
:1052F00000000000000000000000000000000000AE
:1053000000000000000F0F0880000400010A0000E8
:1053100000000204260C80040000000000000000D1
:10532000000000000000000000000000000000007D
:1053300000000000000101008003FC0001110000DA
:1053400000000204240480040000000000000000AB
:10535000000000000000000000000000000000004D
:10536000000000000001010080000000012080001A
:105370000000040424046008000000000000000095
:10538000000000000000000000000000000000001D
:105390000000000000010107000FFE7FFBE4400059
:1053A00000000C07C40438180000000000000000D2
:1053B00000000000000000000000000000000000ED
:1053C000000000000001010080080204010000004C
:1053D0000000180404040C3000000000000000006D
:1053E00000000000000000000000000000000000BD
:1053F00000000000000101004009F20C013F8000A4
:1054000000003004040C04600000000000000000F4
:10541000000000000000000000000000000000008C
:1054200000000000000101004009020881010000A5
:1054300000006004021884C00000000000000000AA
:10544000000000000000000000000000000000005C
:1054500000000000000101088009F21041D20000A4
:1054600000007E0401F078FC000000000000000055
:10547000000000000000000000000000000000002C
:1054800000000000000FCFC700090223E70C000056
:10549000000000000000000000000000000000000C
:1054A00000000000000000000000000000000000FC
:1054B000000000000000000000080E3C1006000084
:1054C00000000000000000000000000000000000DC
:1054D00000000000000000000000000000000000CC
:1054E00000000000000000000000000000020000BA
:1054F00000000000000000000000000000000000AC
:10550000000000000000000000000000000000009B
:10551000000000000000000000000000000000008B
:10552000000000000000000000000000000000007B
:1058800079CE739CE739CE739CE739CE739CE739A8
:10589000CE739CE739CE739CE739CE739CE739CE43
:1058A000739CE739CE739CE739CE739CE739CE7091
:1058B00000000000000000000000000000000000E8
:1058C00000000000000000000000000000000000D8
:1058D00000000000000000000000000000000000C8
:1058E00000000000000000000000000000000000B8
:105BE00000007910820FF8000000000000000000A3
:105BF00000000000000000000000000000000000A5
:105C000000000000000000000202940000000000FC
:105C100000004120440808000183C3C3C000000005
:105C20000000000000000000000000000000000074
:105C300000000000000000000200A4000078000046
:105C400000005161FF0FF8000786666460000000E5
:105C50000000000000000000000000000000000044
:105C600000000000000000000203F7C0008C0000EC
:105C7000000051401008080000842420200000008B
:105C80000000000000000000000000000000000014
:105C900000000000000000000200808000040000FE
:105CA00000005101FF0000040084242020000000B7
:105CB00000000000000000000000000000000000E4
:105CC00000000000000000000603E88080040000DF
:105CD000000057F8103FFE0400842420400000001C
:105CE00000000000000000000000000000000000B4
:105CF000000000000000000005069400800800007D
:105D000000004141FF04000000842420C000000086
:105D10000000000000000000000000000000000083
:105D20000000000000000000050105000018000050
:105D30000000414010000000008424218000000089
:105D40000000000000000000000000000000000053
:105D500000000000000000000887E30000300000A1
:105D6000000031201007F800008424230000000008
:105D70000000000000000000000000000000000023
:105D800000000000000000001882220000600000F7
:105D900000002917FFC008040086464600000000E6
:105DA00000000000000000000000000000000000F3
:105DB00000000000000000001041C70080C000008B
:105DC000000045481000080407E3C3C7E0000000D6
:105DD00000000000000000000000000000000000C3
:105DE00000000000000000006021ED8080FC000049
:105DF000000081001001F000000000000000000021
:105E00000000000000000000000000000000000092
:105E10000000000000000000C01E10400000000054
:105E20000000000000000000000000000000000072
:105E30000000000000000000000000000000000062
:105E40000000000000000000000000000000000052
:105E50000000000000000000000000000000000042
:1060C0000000000000000000000000003C3C183C04
:1060D00000F0F00183C00000001818078780F1F875
:1060E00000000000000000000000000000000000B0
:1060F0000000000000000000000000004666784636
:10610000019918078460000000787808888080086A
:10611000000000000000000000000000000000007F
:106120000000000000000000000000000242080221
:106130000108080080200000000808008840801046
:10614000000000000000000000000000000000004F
:1061500000000000000000000000000002420802F1
:1061600001080800802000000008084088488010CE
:10617000000000000000000000000000000000001F
:1061800000000000000000000000000004420804BD
:1061900001081000804000000008084708C8F020EF
:1061A00000000000000000000000000000000000EF
:1061B0000000000000000000000000000C42080C7D
:1061C0000108300080C00000000808008740182047
:1061D00000000000000000000000000000000000BF
:1061E0000000000000000000000000001842081835
:1061F000790861E081800000000808004040082024
:10620000000000000000000000000000000000008E
:1062100000000000000000000000000030420830D4
:106220000108C0008300000000080800404008404A
:10623000000000000000000000000000000000005E
:106240000000000000000000000000006064086022
:1062500001918000860000000008084880891040F5
:10626000000000000000000000000000000000002E
:106270000000000000000000000000007E3C7E7E68
:1062800000F1F807E7E00000007E7E470F08E0809D
:1062900000000000000000000000000000000000FE
:1062A00000000000000000000000000000000000EE
:1062B00000000000000000000000000000000000DE
:1062C00000000000000000000000000000000000CE
:1066900079E79E79E79E79E79E79E79E79E79E798B
:1066A000E79E79E79E79E79E79E79E79E79E79E70D
:1066B0009E79E79E79E79E79E79E79E79E79E78064
:1066C00000000000000000000000000000000000CA
:1066D00000000000000000000000000000000000BA
:1066E00000000000000000000000000000000000AA
:1066F000000000000000000000000000000000009A
:1069F0000000001000840000000000000000000003
:106A00000000000000000000000000000000000086
:106A10000000000000000000000000000000000076
:106A20000000001FE10201FF8000000000000000E4
:106A30000000000000000000000000000000000056
:106A40000000000000000000000000000000000046
:106A500000000010010301008000000000000000A1
:106A60000000000000000000000000000000000026
:106A70000000000000000000000000000000000016
:106A8000000003FFC17FE100800003C1800F0F0001
:106A900000000000000000000000000000000000F6
:106AA00000000000000000000000000000000000E6
:106AB00000000200420001FF8018020780081180D8
:106AC00000000000000000000000000000000000C6
:106AD00000000000000000000000000000000000B6
:106AE000000003FFC22041008018020080080080DF
:106AF0000000000000000000000000000000000096
:106B00000000000000000000000000000000000085
:106B100000000200462040000000020080080080C3
:106B20000000000000000000000000000000000065
:106B30000000000000000000000000000000000055
:106B4000000003FFC610CFFFF00003C0800F01005C
:106B50000000000000000000000000000000000035
:106B60000000000000000000000000000000000025
:106B7000000000100A108080000000608001830087
:106B80000000000000000000000000000000000005
:106B900000000000000000000000000000000000F5
:106BA0000000001002108100000000208780860095
:106BB00000000000000000000000000000000000D5
:106BC00000000000000000000000000000000000C5
:106BD000000007FFF20901FFC000002080008C00C8
:106BE00000000000000000000000000000000000A5
:106BF0000000000000000000000000000000000095
:106C00000000007402090000C01804408011180040
:106C10000000000000000000000000000000000074
:106C20000000000000000000000000000000000064
:106C3000000001938201000080180387E00E1F808E
:106C40000000000000000000000000000000000044
:106C50000000000000000000000000000000000034
:106C600000000E10727FF03F800000000000000066
:106C70000000000000000000000000000000000014
:106C80000000000000000000000000000000000004
:106C900000000010020000000000000000000000E2
:106CA00000000000000000000000000000000000E4
:106CB00000000000000000000000000000000000D4
:106CC00000000000000000000000000000000000C4
:106CD00000000000000000000000000000000000B4
:106F30000000000000810100E000000000000000EF
:106F40000000000000000000000000000000000041
:106F50000000000000000000000000000000000031
:106F6000000007FFE081021F81FF87DFC0000000F3
:106F7000E0003C00000000000000000000000000F5
:106F80000000000000000000000000000000000001
:106F900000000081004202D1010081004000038115
:106FA00010E04600000000000000000000000000AB
:106FB00000000000000000000000000000000000D1
:106FC0000000008103FFC491010081084000048398
:106FD0001920C600000000000000000000000000B2
:106FE00000000000000000000000000000000000A1
:106FF000000000810210441101FF81084018008246
:107000000820C60000000000000000000000000092
:107010000000000000000000000000000000000070
:107020000000008103FFCF11010082084018008298
:1070300008206400000000000000000000000000C4
:107040000000000000000000000000000000000040
:10705000000000810210421FE00007C8800000828B
:1070600008203800000000000000000000000000C0
:107070000000000000000000000000000000000010
:1070800000000FFFF21044110FFFF64FE0000082E6
:1070900008206C000000000000000000000000005C
:1070A00000000000000000000000000000000000E0
:1070B0000000008103FFC79100800E402000008285
:1070C0000820C600000000000000000000000000D2
:1070D00000000000000000000000000000000000B0
:1070E00000000081021040110100024020000082D7
:1070F00008208200000000000000000000000000E6
:10710000000000000000000000000000000000007F
:1071100000000081001000D111FFC25FA0000083B9
:1071200018208200000000000000000000000000A5
:10713000000000000000000000000000000000004F
:10714000000000810FFFF3169000C240201800815C
:107150001020C60000000000000000000000000039
:10716000000000000000000000000000000000001F
:107170000000010100100438A00083C0201807F0AF
:10718000E1FC7C00000000000000000000000000A6
:1071900000000000000000000000000000000000EF
:1071A0000000020100100020603F8243C000000088
:1071B00000000000000000000000000000000000CF
:1071C00000000000000000000000000000000000BF
:1071D000000004010010000000000000000000009A
:1071E000000000000000000000000000000000009F
:1071F000000000000000000000000000000000008F
:10720000000000000000000000000000000000007E
:10721000000000000000000000000000000000006E
:107440000000000000050084010208040800040098
:10745000001000000000000000000000000000001C
:10746000000000000000000000000000000000001C
:1074700000000F3FCF048FFFE08406FFC67F843FEC
:1074800087FFC07E01E00E07000000000000000042
:10749000000000000600E070000000000000000096
:1074A00038000924497FE0840FFFC20402030FA0C3
:1074B00084000183003011088000000000000000FB
:1074C000000000000E011088000000000000000015
:1074D0004800092449040FFFC02000FFC00C082009
:1074E0008400030080303198C000000000000000DC
:1074F000000000000A03198C0000000000000000DA
:1075000008000924497FC80047FF88040860103F2D
:1075100084FF823E401020904000000000000000E8
:10752000000000001202090400000000000000003A
:107530000800093FC9444BFF40200DFFECFFDF244A
:10754000848C044440302090400000000000000083
:10755000000000001202090400000000000000000A
:107560000800092449444201006006000212440454
:10757000048404C44020209040000000000000006B
:1075800000000000220209040000000000000000CA
:1075900008000924497FC3FF0FFFC07FC022447F3A
:1075A000C48404844060209040000000000000007B
:1075B000000000004202090400000000000000007A
:1075C000080009244944420100CC064044245F4499
:1075D00044FFC48440C02090400000000000000030
:1075E000000000004202090400000000000000004A
:1075F0000800093FC94440000387047FC444444E47
:107600004484048441802090400000000000000079
:1076100000000000FF8209040000000000000000DC
:1076200008000F244F7FC7FF8C84E44044C84459AE
:10763000448404CCC3003198C00000000000000066
:10764000000000000203198C000000000000000090
:1076500008000904094444008084047FCC984570E4
:10766000C894267386031108800000000000000003
:10767000000000000231108800000000000000003F
:107680007F0000040044440081840C40493087405E
:1076900048E2220007F30E0700000000000000008F
:1076A000000000000230E070000000000000000058
:1076B000000000040045C7FF83040840C8678443F6
:1076C000C8D141820000000000000000000000005E
:1076D00000000000000000000000000000000000AA
:1076E000000000000000040084040847800000003F
:1076F0001004C07C0000000000000000000000003A
:107700000000000000000000000000000000000079
:107710000000000000000000000000000000000069
:107720000000000000000000000000000000000059
:107730000000000000000000000000000000000049
:10795000000000000005000002010000000000001F
:107960000000000000000000000000000000000017
:107970000000000000000000000000000000000007
:107980001E000F3FCF0484FFC211007E01C00E070E
:1079900000000000000000000000000000000000E7
:1079A000000000000F00E070000000000000000078
:1079B00003000924497FE280424901830020110825
:1079C0008000000000000000000000000000000037
:1079D00000000000100110880000000000000000FE
:1079E00003000924490402844A8503008020319859
:1079F000C0000000000000000000000000000000C7
:107A0000000000002003198C0000000000000000AE
:107A100001000924497FC09F4E81023E40202090F2
:107A20004000000000000000000000000000000016
:107A300000000000600209040000000000000000D7
:107A40000300093FC9445C84421104444060209013
:107A500040000000000000000000000000000000E6
:107A600000000000400209040000000000000000C7
:107A700002000924494444FFDFD904C44380209014
:107A800040000000000000000000000000000000B6
:107A9000000000005E020904000000000000000079
:107AA00006000924497FC480420504844060209078
:107AB0004000000000000000000000000000000086
:107AC0000000000063020904000000000000000044
:107AD0000C0009244944449F47010484403020900D
:107AE0004000000000000000000000000000000056
:107AF0000000000041020904000000000000000036
:107B00001800093FC94445914681E48440302090E3
:107B10004000000000000000000000000000000025
:107B20000000000041020904000000000000000005
:107B300030000F244F7FC69F4A7F04CCC03031985D
:107B4000C000000000000000000000000000000075
:107B5000000000006103198C00000000000000001C
:107B600060000904094444904A0106738423110803
:107B70008000000000000000000000000000000085
:107B80000000000023311088000000000000000009
:107B90007F000004004441005201020003C30E07AD
:107BA00000000000000000000000000000000000D5
:107BB000000000001E30E070000000000000000027
:107BC000000000040045C303C20101820000000060
:107BD00000000000000000000000000000000000A5
:107BE0000000000000000000000000000000000095
:107BF00000000000000000000201007C0000000006
:107C00000000000000000000000000000000000074
:107C10000000000000000000000000000000000064
:107C20000000000000000000000000000000000054
:107C30000000000000000000000000000000000044
:107E60000000020802048000000000000000000082
:107E70000000000000000000000000000000000002
:107E800000000000000000000000000000000000F2
:107E90001E000208027D00F00FC01E01C0E00000BD
:107EA00000000000000000000000000000000000D2
:107EB000000000000F00703800000000000000000B
:107EC00003000FBF020A43083060200221100000A7
:107ED00000000000000000000000000000000000A2
:107EE000000000380180884400000000000000000D
:107EF000030002090FD1C6006010400633180000CD
:107F00000000000000000000000000000000000071
:107F10000000004801818CC6000000000000000045
:107F2000010003B906218C0047C8C00412080000F4
:107F30000000000000000000000000000000000041
:107F40000000000800810482000000000000000022
:107F500003000631067FCC008888800412080000E8
:107F60000000000000000000000000000000000011
:107F700000000008018104820000000000000000F1
:107F800002000A1D278068009888BC0412080000BF
:107F900000000000000000000000000000000000E1
:107FA0000000000801010482000000000000000041
:107FB000060002252F7F88009088C6041208000062
:107FC00000000000000000000000000000000000B1
:107FD000000000080301048200000000000000000F
:107FE0000C000260AE4088009088820412080000F5
:107FF0000000000000000000000000000000000081
:1080000000000008060104820000000000000000DB
:1080100018000EC0C2408C00908882041208000034
:108020000000000000000000000000000000000050
:10803000000000080C0104820000000000000000A5
:1080400030000000027F84009998C20633180000B7
:108050000000000000000000000000000000000020
:108060000000000818018CC600000000000000009D
:108070006000048882210308CE704662211000004F
:1080800000000000000000000000000000000000F0
:1080900000000008301888440000000000000000C4
:1080A0007F00048C821A01F040003C61C0E00000B7
:1080B00000000000000000000000000000000000C0
:1080C0000000007F3F9870380000000000000000B2
:1080D0000000084442FFE0003040000000000000C3
:1080E0000000000000000000000000000000000090
:1080F0000000000000000000000000000000000080
:1081000000000844020000000F8000000000000092
:10811000000000000000000000000000000000005F
:10812000000000000000000000000000000000004F
:10813000000000000000000000000000000000003F
:10814000000000000000000000000000000000002F
:10837000000001020010002000800000000000004A
:1083800000000000000000000000000000000000ED
:1083900000000000000000000000000000000000DD
:1083A000000001820010002000EFC000000000006B
:1083B00000000000000000000000000000000000BD
:1083C0000000001C0F0070380000000000000000DA
:1083D000380000840FFF8FFFC48880000000000079
:1083E000000000000000000000000000000000008D
:1083F000000000020180884400000000000000002E
:1084000048000FFFC82080840FC5800000000000D6
:10841000000000000000000000000000000000005C
:108420000000000201818CC6000000000000000076
:1084300008000010087883FF1847000000000000C3
:10844000000000000000000000000000000000002C
:108450000000000200810482000000000000000013
:108460000800001008C69D00E7BC80000000000066
:1084700000000000000000000000000000000000FC
:1084800000000006018104820000000000000000DE
:10849000080007FF891381FF064840000000000024
:1084A00000000000000000000000000000000000CC
:1084B00000000038010104820000000000000000FC
:1084C000080000100820810009B60000000000002C
:1084D000000000000000000000000000000000009C
:1084E00000000006030104820000000000000000FC
:1084F00008000010083081FF07FF80000000000026
:10850000000000000000000000000000000000006B
:1085100000000003060104820000000000000000CB
:1085200008000FFFE8488100190260000000000009
:10853000000000000000000000000000000000003B
:10854000000000030C010482000000000000000095
:108550000800001008868FFFC1FE00000000000028
:10856000000000000000000000000000000000000B
:108570000000000318018CC600000000000000008D
:10858000080000100B0280800102000000000000C3
:1085900000000000000000000000000000000000DB
:1085A0000000004230188844000000000000000075
:1085B0007F0000100800830201FF8000000000001F
